{
  "_format": "hh-sol-artifact-1",
  "contractName": "CLFRouter",
  "sourceName": "contracts/CLFRouter/CLFRouter.sol",
  "abi": [
    {
      "inputs": [
        {
          "internalType": "address",
          "name": "functionsRouter",
          "type": "address"
        },
        {
          "internalType": "bytes32",
          "name": "clfDonId",
          "type": "bytes32"
        },
        {
          "internalType": "uint64",
          "name": "clfSubscriptionId",
          "type": "uint64"
        },
        {
          "internalType": "uint64",
          "name": "clfDonHostedSecretsVersion",
          "type": "uint64"
        },
        {
          "internalType": "uint8",
          "name": "clfDonHostedSecretsSlotId",
          "type": "uint8"
        },
        {
          "internalType": "bytes32",
          "name": "ethersJsCodeHash",
          "type": "bytes32"
        },
        {
          "internalType": "bytes32",
          "name": "requestCLFMessageReportJsCodeHash",
          "type": "bytes32"
        },
        {
          "internalType": "address",
          "name": "_owner",
          "type": "address"
        }
      ],
      "stateMutability": "nonpayable",
      "type": "constructor"
    },
    {
      "inputs": [],
      "name": "EmptyArgs",
      "type": "error"
    },
    {
      "inputs": [],
      "name": "EmptySource",
      "type": "error"
    },
    {
      "inputs": [],
      "name": "MessageAlreadyProcessed",
      "type": "error"
    },
    {
      "inputs": [],
      "name": "NoInlineSecrets",
      "type": "error"
    },
    {
      "inputs": [],
      "name": "OnlyAllowedOperator",
      "type": "error"
    },
    {
      "inputs": [],
      "name": "OnlyOwner",
      "type": "error"
    },
    {
      "inputs": [],
      "name": "OnlyRouterCanFulfill",
      "type": "error"
    },
    {
      "anonymous": false,
      "inputs": [
        {
          "indexed": false,
          "internalType": "bytes32",
          "name": "conceroId",
          "type": "bytes32"
        }
      ],
      "name": "CLFMessageReport",
      "type": "event"
    },
    {
      "anonymous": false,
      "inputs": [
        {
          "indexed": false,
          "internalType": "bytes",
          "name": "err",
          "type": "bytes"
        }
      ],
      "name": "CLFRequestError",
      "type": "event"
    },
    {
      "anonymous": false,
      "inputs": [
        {
          "indexed": true,
          "internalType": "bytes32",
          "name": "id",
          "type": "bytes32"
        }
      ],
      "name": "RequestFulfilled",
      "type": "event"
    },
    {
      "anonymous": false,
      "inputs": [
        {
          "indexed": true,
          "internalType": "bytes32",
          "name": "id",
          "type": "bytes32"
        }
      ],
      "name": "RequestSent",
      "type": "event"
    },
    {
      "inputs": [
        {
          "internalType": "address",
          "name": "operator",
          "type": "address"
        }
      ],
      "name": "deregisterOperator",
      "outputs": [],
      "stateMutability": "payable",
      "type": "function"
    },
    {
      "inputs": [
        {
          "internalType": "bytes32",
          "name": "requestId",
          "type": "bytes32"
        },
        {
          "internalType": "bytes",
          "name": "response",
          "type": "bytes"
        },
        {
          "internalType": "bytes",
          "name": "err",
          "type": "bytes"
        }
      ],
      "name": "handleOracleFulfillment",
      "outputs": [],
      "stateMutability": "nonpayable",
      "type": "function"
    },
    {
      "inputs": [
        {
          "internalType": "address",
          "name": "operator",
          "type": "address"
        }
      ],
      "name": "registerOperator",
      "outputs": [],
      "stateMutability": "payable",
      "type": "function"
    },
    {
      "inputs": [
        {
          "internalType": "bytes32",
          "name": "messageId",
          "type": "bytes32"
        },
        {
          "components": [
            {
              "internalType": "uint64",
              "name": "srcChainSelector",
              "type": "uint64"
            },
            {
              "internalType": "uint64",
              "name": "dstChainSelector",
              "type": "uint64"
            },
            {
              "internalType": "address",
              "name": "receiver",
              "type": "address"
            },
            {
              "internalType": "address",
              "name": "sender",
              "type": "address"
            },
            {
              "components": [
                {
                  "internalType": "address",
                  "name": "token",
                  "type": "address"
                },
                {
                  "internalType": "uint256",
                  "name": "amount",
                  "type": "uint256"
                }
              ],
              "internalType": "struct IMessage.TokenAmount[]",
              "name": "tokenAmounts",
              "type": "tuple[]"
            },
            {
              "internalType": "enum IMessage.Relayer[]",
              "name": "relayers",
              "type": "uint8[]"
            },
            {
              "internalType": "bytes",
              "name": "data",
              "type": "bytes"
            },
            {
              "internalType": "bytes",
              "name": "extraArgs",
              "type": "bytes"
            }
          ],
          "internalType": "struct IMessage.Message",
          "name": "message",
          "type": "tuple"
        }
      ],
      "name": "requestCLFMessageReport",
      "outputs": [],
      "stateMutability": "nonpayable",
      "type": "function"
    }
  ],
  "bytecode": "0x61018060405234801561001157600080fd5b50604051611a96380380611a96833981016040819052610030916100a8565b6001600160a01b03978816608052610100969096526001600160401b0394851661012052929093166101405260ff166101605260c09190915260e0521660a052610134565b80516001600160a01b038116811461008c57600080fd5b919050565b80516001600160401b038116811461008c57600080fd5b600080600080600080600080610100898b0312156100c557600080fd5b6100ce89610075565b60208a015190985096506100e460408a01610091565b95506100f260608a01610091565b9450608089015160ff8116811461010857600080fd5b60a08a015160c08b01519195509350915061012560e08a01610075565b90509295985092959890939650565b60805160a05160c05160e051610100516101205161014051610160516118f06101a660003960006104fc0152600061051d015260006105590152600061057e015260006102980152600061024101526000818161013b01526103a901526000818160b701526109b201526118f06000f3fe60806040526004361061003f5760003560e01c80630ca76175146100445780633682a450146100665780638663beff14610079578063d8cf98ca14610099575b600080fd5b34801561005057600080fd5b5061006461005f36600461106f565b6100ac565b005b6100646100743660046110fb565b610130565b34801561008557600080fd5b50610064610094366004611116565b61019d565b6100646100a73660046110fb565b61039e565b336001600160a01b037f000000000000000000000000000000000000000000000000000000000000000016146100f55760405163c6829f8360e01b815260040160405180910390fd5b610100838383610408565b60405183907f85e1543bf2f84fe80c6badbce3648c8539ad1df4d2b3d822938ca0538be727e690600090a2505050565b336001600160a01b037f0000000000000000000000000000000000000000000000000000000000000000161461017957604051635fc483c560e01b815260040160405180910390fd5b6001600160a01b03166000908152602081905260409020805460ff19166001179055565b3360009081526020819052604090205460ff166101cd57604051636586017760e01b815260040160405180910390fd5b60008281526001602052604081205460ff1660028111156101f0576101f0611164565b1461020e57604051637b04260960e01b815260040160405180910390fd5b60408051600480825260a08201909252600091816020015b606081526020019060019003908161022657905050604080517f00000000000000000000000000000000000000000000000000000000000000006020820152919250016040516020818303038152906040528160008151811061028b5761028b61117a565b60200260200101819052507f00000000000000000000000000000000000000000000000000000000000000006040516020016102c991815260200190565b604051602081830303815290604052816001815181106102eb576102eb61117a565b60200260200101819052508260405160200161030991815260200190565b6040516020818303038152906040528160028151811061032b5761032b61117a565b6020026020010181905250816040516020016103479190611358565b604051602081830303815290604052816003815181106103695761036961117a565b602002602001018190525061037d8161048d565b5050506000908152600160208190526040909120805460ff19169091179055565b336001600160a01b037f000000000000000000000000000000000000000000000000000000000000000016146103e757604051635fc483c560e01b815260040160405180910390fd5b6001600160a01b03166000908152602081905260409020805460ff19169055565b80511561044b577fbcf5ce4fda95e104d7172732bf495e532c7355ebce10657ed2161d41d3a2b0e58160405161043e91906114c5565b60405180910390a1505050565b6000808380602001905181019061046291906114d8565b9092509050600082801561047857610478611164565b0361048657610486816105a9565b5050505050565b60006104d06040805160e0810190915280600081526020016000815260200160008152602001606081526020016060815260200160608152602001606081525090565b6104f6604051806101a00160405280610168815260200161175361016891398290610614565b610541817f00000000000000000000000000000000000000000000000000000000000000007f0000000000000000000000000000000000000000000000000000000000000000610625565b61054b81846106bb565b6105a2610557826106e5565b7f0000000000000000000000000000000000000000000000000000000000000000620186a07f00000000000000000000000000000000000000000000000000000000000000006109ad565b9392505050565b6000818060200190518101906105bf9190611564565b50600081815260016020908152604091829020805460ff1916600217905590518281529192507f778106618022c9092eee9e74350ace87e5f62da7dccd43fca2a3da7b61d41929910160405180910390a15050565b6106218260008084610a7f565b5050565b6000610632610100610afd565b9050610665604051806040016040528060068152602001651cdb1bdd125160d21b81525082610b1e90919063ffffffff16565b6106728160ff8516610b3c565b6040805180820190915260078152663b32b939b4b7b760c91b602082015261069b908290610b1e565b6106a58183610b3c565b6002602085015251516080909301929092525050565b80516000036106dd5760405163fe936cb760e01b815260040160405180910390fd5b60c090910152565b606060006106f4610100610afd565b905061072d6040518060400160405280600c81526020016b31b7b232a637b1b0ba34b7b760a11b81525082610b1e90919063ffffffff16565b825161074b90600281111561074457610744611164565b8290610b48565b6040805180820190915260088152676c616e677561676560c01b6020820152610775908290610b1e565b604083015161078c90801561074457610744611164565b604080518082019091526006815265736f7572636560d01b60208201526107b4908290610b1e565b60608301516107c4908290610b1e565b60a08301515115610850576040805180820190915260048152636172677360e01b60208201526107f5908290610b1e565b6107fe81610b81565b60005b8360a00151518110156108465761083e8460a0015182815181106108275761082761117a565b602002602001015183610b1e90919063ffffffff16565b600101610801565b5061085081610ba5565b608083015151156109145760008360200151600281111561087357610873611164565b036108915760405163a80d31f760e01b815260040160405180910390fd5b60408051808201909152600f81526e39b2b1b932ba39a637b1b0ba34b7b760891b60208201526108c2908290610b1e565b6108db8360200151600281111561074457610744611164565b6040805180820190915260078152667365637265747360c81b6020820152610904908290610b1e565b6080830151610914908290610bc3565b60c083015151156109a55760408051808201909152600981526862797465734172677360b81b602082015261094a908290610b1e565b61095381610b81565b60005b8360c001515181101561099b576109938460c00151828151811061097c5761097c61117a565b602002602001015183610bc390919063ffffffff16565b600101610956565b506109a581610ba5565b515192915050565b6000807f00000000000000000000000000000000000000000000000000000000000000006001600160a01b031663461d27628688600188886040518663ffffffff1660e01b8152600401610a05959493929190611588565b6020604051808303816000875af1158015610a24573d6000803e3d6000fd5b505050506040513d601f19601f82011682018060405250810190610a4891906115d1565b60405190915081907f1131472297a800fee664d1d89cfa8f7676ff07189ecc53f80bbb5f4969099db890600090a295945050505050565b8051600003610aa1576040516322ce3edd60e01b815260040160405180910390fd5b83836002811115610ab457610ab4611164565b90816002811115610ac757610ac7611164565b90525060408401828015610add57610add611164565b90818015610aed57610aed611164565b9052506060909301929092525050565b610b05610f77565b8051610b119083610bd0565b5060006020820152919050565b610b2b8260038351610c4a565b8151610b379082610d69565b505050565b61062182600083610c4a565b8151610b559060c2610d8a565b506106218282604051602001610b6d91815260200190565b604051602081830303815290604052610bc3565b610b8c816004610df3565b600181602001818151610b9f9190611600565b90525050565b610bb0816007610df3565b600181602001818151610b9f9190611613565b610b2b8260028351610c4a565b604080518082019091526060815260006020820152610bf0602083611626565b15610c1857610c00602083611626565b610c0b906020611613565b610c159083611600565b91505b602080840183905260405180855260008152908184010181811015610c3c57600080fd5b604052508290505b92915050565b6017816001600160401b031611610c76578251610c709060e0600585901b168317610d8a565b50505050565b60ff816001600160401b031611610cb6578251610c9e906018611fe0600586901b1617610d8a565b508251610c70906001600160401b0383166001610e0a565b61ffff816001600160401b031611610cf7578251610cdf906019611fe0600586901b1617610d8a565b508251610c70906001600160401b0383166002610e0a565b63ffffffff816001600160401b031611610d3a578251610d2290601a611fe0600586901b1617610d8a565b508251610c70906001600160401b0383166004610e0a565b8251610d5190601b611fe0600586901b1617610d8a565b508251610c70906001600160401b0383166008610e0a565b6040805180820190915260608152600060208201526105a283838451610e8f565b6040805180820190915260608152600060208201528251516000610daf826001611600565b905084602001518210610dd057610dd085610dcb836002611648565b610f60565b8451602083820101858153508051821115610de9578181525b5093949350505050565b8151610b3790601f611fe0600585901b1617610d8a565b6040805180820190915260608152600060208201528351516000610e2e8285611600565b90508560200151811115610e4b57610e4b86610dcb836002611648565b60006001610e5b86610100611746565b610e659190611613565b90508651828101878319825116178152508051831115610e83578281525b50959695505050505050565b6040805180820190915260608152600060208201528251821115610eb257600080fd5b8351516000610ec18483611600565b90508560200151811115610ede57610ede86610dcb836002611648565b855180518382016020019160009180851115610ef8578482525b505050602086015b60208610610f385780518252610f17602083611600565b9150610f24602082611600565b9050610f31602087611613565b9550610f00565b51815160001960208890036101000a0190811690199190911617905250849150509392505050565b8151610f6c8383610bd0565b50610c708382610d69565b6040518060400160405280610f9f604051806040016040528060608152602001600081525090565b8152602001600081525090565b634e487b7160e01b600052604160045260246000fd5b604051601f8201601f191681016001600160401b0381118282101715610fea57610fea610fac565b604052919050565b60006001600160401b0382111561100b5761100b610fac565b50601f01601f191660200190565b600082601f83011261102a57600080fd5b813561103d61103882610ff2565b610fc2565b81815284602083860101111561105257600080fd5b816020850160208301376000918101602001919091529392505050565b60008060006060848603121561108457600080fd5b8335925060208401356001600160401b038111156110a157600080fd5b6110ad86828701611019565b92505060408401356001600160401b038111156110c957600080fd5b6110d586828701611019565b9150509250925092565b80356001600160a01b03811681146110f657600080fd5b919050565b60006020828403121561110d57600080fd5b6105a2826110df565b6000806040838503121561112957600080fd5b8235915060208301356001600160401b0381111561114657600080fd5b8301610100818603121561115957600080fd5b809150509250929050565b634e487b7160e01b600052602160045260246000fd5b634e487b7160e01b600052603260045260246000fd5b80356001600160401b03811681146110f657600080fd5b6000808335601e198436030181126111be57600080fd5b83016020810192503590506001600160401b038111156111dd57600080fd5b8060061b36038213156111ef57600080fd5b9250929050565b81835260208301925060008160005b84811015610de9576001600160a01b0361121e836110df565b1686526020828101359087015260409586019590910190600101611205565b6000808335601e1984360301811261125457600080fd5b83016020810192503590506001600160401b0381111561127357600080fd5b8060051b36038213156111ef57600080fd5b6001811061129257600080fd5b50565b81835260208301925060008160005b84811015610de95781356112b781611285565b600181106112d557634e487b7160e01b600052602160045260246000fd5b865260209586019591909101906001016112a4565b6000808335601e1984360301811261130157600080fd5b83016020810192503590506001600160401b0381111561132057600080fd5b8036038213156111ef57600080fd5b81835281816020850137506000828201602090810191909152601f909101601f19169091010190565b602081526113796020820161136c84611190565b6001600160401b03169052565b600061138760208401611190565b6001600160401b0381166040840152506113a3604084016110df565b6001600160a01b0381166060840152506113bf606084016110df565b6001600160a01b0381166080840152506113dc60808401846111a7565b61010060a08501526113f3610120850182846111f6565b91505061140360a085018561123d565b848303601f190160c086015261141a838284611295565b9250505061142b60c08501856112ea565b848303601f190160e086015261144283828461132f565b9250505061145360e08501856112ea565b848303601f190161010086015261146b83828461132f565b9695505050505050565b60005b83811015611490578181015183820152602001611478565b50506000910152565b600081518084526114b1816020860160208601611475565b601f01601f19169290920160200192915050565b6020815260006105a26020830184611499565b600080604083850312156114eb57600080fd5b82516114f681611285565b60208401519092506001600160401b0381111561151257600080fd5b8301601f8101851361152357600080fd5b805161153161103882610ff2565b81815286602083850101111561154657600080fd5b611557826020830160208601611475565b8093505050509250929050565b6000806040838503121561157757600080fd5b505080516020909101519092909150565b6001600160401b038616815260a0602082015260006115aa60a0830187611499565b61ffff9590951660408301525063ffffffff92909216606083015260809091015292915050565b6000602082840312156115e357600080fd5b5051919050565b634e487b7160e01b600052601160045260246000fd5b80820180821115610c4457610c446115ea565b81810381811115610c4457610c446115ea565b60008261164357634e487b7160e01b600052601260045260246000fd5b500690565b8082028115828204841417610c4457610c446115ea565b6001815b600184111561169a5780850481111561167e5761167e6115ea565b600184161561168c57908102905b60019390931c928002611663565b935093915050565b6000826116b157506001610c44565b816116be57506000610c44565b81600181146116d457600281146116de576116fa565b6001915050610c44565b60ff8411156116ef576116ef6115ea565b50506001821b610c44565b5060208310610133831016604e8410600b841016171561171d575081810a610c44565b61172a600019848461165f565b806000190482111561173e5761173e6115ea565b029392505050565b60006105a283836116a256fe66756e6374696f6e2072657175657374434c464d6573736167655265706f727428636c66446f6e49642c20636c66537562736372697074696f6e49642c20636c66446f6e486f737465645365637265747356657273696f6e2c20636c66446f6e486f7374656453656372657473536c6f7449642c206574686572734a73436f6465486173682c2072657175657374434c464d6573736167655265706f72744a73436f6465486173682c20636c664172677329207b2072657475726e2072657175657374434c464d6573736167655265706f727428636c66446f6e49642c20636c66537562736372697074696f6e49642c20636c66446f6e486f737465645365637265747356657273696f6e2c20636c66446f6e486f7374656453656372657473536c6f7449642c206574686572734a73436f6465486173682c2072657175657374434c464d6573736167655265706f72744a73436f6465486173682c20636c6641726773293b207da26469706673582212201d48ddb48845605a3ec35d81719f2f69f1c8e42c4d1ce81736bd2d7067c7134664736f6c634300081c0033",
  "linkReferences": {},
  "deployedLinkReferences": {}
}