{
  "_format": "hh-sol-artifact-1",
  "contractName": "CLFRouter",
  "sourceName": "contracts/CLFRouter/CLFRouter.sol",
  "abi": [
    {
      "inputs": [
        {
          "internalType": "address",
          "name": "functionsRouter",
          "type": "address"
        },
        {
          "internalType": "bytes32",
          "name": "clfDonId",
          "type": "bytes32"
        },
        {
          "internalType": "uint64",
          "name": "clfSubscriptionId",
          "type": "uint64"
        },
        {
          "internalType": "uint64",
          "name": "clfDonHostedSecretsVersion",
          "type": "uint64"
        },
        {
          "internalType": "uint8",
          "name": "clfDonHostedSecretsSlotId",
          "type": "uint8"
        },
        {
          "internalType": "bytes32",
          "name": "ethersJsCodeHash",
          "type": "bytes32"
        },
        {
          "internalType": "bytes32",
          "name": "requestCLFMessageReportJsCodeHash",
          "type": "bytes32"
        },
        {
          "internalType": "address",
          "name": "_owner",
          "type": "address"
        }
      ],
      "stateMutability": "nonpayable",
      "type": "constructor"
    },
    {
      "inputs": [],
      "name": "EmptyArgs",
      "type": "error"
    },
    {
      "inputs": [],
      "name": "EmptySource",
      "type": "error"
    },
    {
      "inputs": [],
      "name": "MessageAlreadyProcessed",
      "type": "error"
    },
    {
      "inputs": [],
      "name": "NoInlineSecrets",
      "type": "error"
    },
    {
      "inputs": [],
      "name": "OnlyAllowedOperator",
      "type": "error"
    },
    {
      "inputs": [],
      "name": "OnlyOwner",
      "type": "error"
    },
    {
      "inputs": [],
      "name": "OnlyRouterCanFulfill",
      "type": "error"
    },
    {
      "anonymous": false,
      "inputs": [
        {
          "indexed": true,
          "internalType": "bytes32",
          "name": "conceroId",
          "type": "bytes32"
        }
      ],
      "name": "CLFMessageReport",
      "type": "event"
    },
    {
      "anonymous": false,
      "inputs": [
        {
          "indexed": false,
          "internalType": "bytes",
          "name": "err",
          "type": "bytes"
        }
      ],
      "name": "CLFRequestError",
      "type": "event"
    },
    {
      "anonymous": false,
      "inputs": [
        {
          "indexed": true,
          "internalType": "bytes32",
          "name": "id",
          "type": "bytes32"
        }
      ],
      "name": "RequestFulfilled",
      "type": "event"
    },
    {
      "anonymous": false,
      "inputs": [
        {
          "indexed": true,
          "internalType": "bytes32",
          "name": "id",
          "type": "bytes32"
        }
      ],
      "name": "RequestSent",
      "type": "event"
    },
    {
      "inputs": [
        {
          "internalType": "address",
          "name": "operator",
          "type": "address"
        }
      ],
      "name": "deregisterOperator",
      "outputs": [],
      "stateMutability": "payable",
      "type": "function"
    },
    {
      "inputs": [
        {
          "internalType": "bytes32",
          "name": "requestId",
          "type": "bytes32"
        },
        {
          "internalType": "bytes",
          "name": "response",
          "type": "bytes"
        },
        {
          "internalType": "bytes",
          "name": "err",
          "type": "bytes"
        }
      ],
      "name": "handleOracleFulfillment",
      "outputs": [],
      "stateMutability": "nonpayable",
      "type": "function"
    },
    {
      "inputs": [
        {
          "internalType": "address",
          "name": "operator",
          "type": "address"
        }
      ],
      "name": "registerOperator",
      "outputs": [],
      "stateMutability": "payable",
      "type": "function"
    },
    {
      "inputs": [
        {
          "internalType": "bytes32",
          "name": "messageId",
          "type": "bytes32"
        },
        {
          "components": [
            {
              "internalType": "uint64",
              "name": "srcChainSelector",
              "type": "uint64"
            },
            {
              "internalType": "uint64",
              "name": "dstChainSelector",
              "type": "uint64"
            },
            {
              "internalType": "address",
              "name": "receiver",
              "type": "address"
            },
            {
              "internalType": "address",
              "name": "sender",
              "type": "address"
            },
            {
              "components": [
                {
                  "internalType": "address",
                  "name": "token",
                  "type": "address"
                },
                {
                  "internalType": "uint256",
                  "name": "amount",
                  "type": "uint256"
                }
              ],
              "internalType": "struct IMessage.TokenAmount[]",
              "name": "tokenAmounts",
              "type": "tuple[]"
            },
            {
              "internalType": "enum IMessage.Relayer[]",
              "name": "relayers",
              "type": "uint8[]"
            },
            {
              "internalType": "bytes",
              "name": "data",
              "type": "bytes"
            },
            {
              "internalType": "bytes",
              "name": "extraArgs",
              "type": "bytes"
            }
          ],
          "internalType": "struct IMessage.Message",
          "name": "message",
          "type": "tuple"
        }
      ],
      "name": "requestCLFMessageReport",
      "outputs": [],
      "stateMutability": "nonpayable",
      "type": "function"
    }
  ],
  "bytecode": "0x61018060405234801561001157600080fd5b50604051611b85380380611b85833981016040819052610030916100a8565b6001600160a01b03978816608052610100969096526001600160401b0394851661012052929093166101405260ff166101605260c09190915260e0521660a052610134565b80516001600160a01b038116811461008c57600080fd5b919050565b80516001600160401b038116811461008c57600080fd5b600080600080600080600080610100898b0312156100c557600080fd5b6100ce89610075565b60208a015190985096506100e460408a01610091565b95506100f260608a01610091565b9450608089015160ff8116811461010857600080fd5b60a08a015160c08b01519195509350915061012560e08a01610075565b90509295985092959890939650565b60805160a05160c05160e051610100516101205161014051610160516119e56101a06000396000505060005050600061050e01526000610533015260006102980152600061024101526000818161013b01526103a901526000818160b701526108c501526119e56000f3fe60806040526004361061003f5760003560e01c80630ca76175146100445780633682a450146100665780638663beff14610079578063d8cf98ca14610099575b600080fd5b34801561005057600080fd5b5061006461005f366004610f76565b6100ac565b005b610064610074366004611002565b610130565b34801561008557600080fd5b5061006461009436600461101d565b61019d565b6100646100a7366004611002565b61039e565b336001600160a01b037f000000000000000000000000000000000000000000000000000000000000000016146100f55760405163c6829f8360e01b815260040160405180910390fd5b610100838383610408565b60405183907f85e1543bf2f84fe80c6badbce3648c8539ad1df4d2b3d822938ca0538be727e690600090a2505050565b336001600160a01b037f0000000000000000000000000000000000000000000000000000000000000000161461017957604051635fc483c560e01b815260040160405180910390fd5b6001600160a01b03166000908152602081905260409020805460ff19166001179055565b3360009081526020819052604090205460ff166101cd57604051636586017760e01b815260040160405180910390fd5b60008281526001602052604081205460ff1660028111156101f0576101f061106b565b1461020e57604051637b04260960e01b815260040160405180910390fd5b60408051600480825260a08201909252600091816020015b606081526020019060019003908161022657905050604080517f00000000000000000000000000000000000000000000000000000000000000006020820152919250016040516020818303038152906040528160008151811061028b5761028b611081565b60200260200101819052507f00000000000000000000000000000000000000000000000000000000000000006040516020016102c991815260200190565b604051602081830303815290604052816001815181106102eb576102eb611081565b60200260200101819052508260405160200161030991815260200190565b6040516020818303038152906040528160028151811061032b5761032b611081565b602002602001018190525081604051602001610347919061125f565b6040516020818303038152906040528160038151811061036957610369611081565b602002602001018190525061037d8161048d565b5050506000908152600160208190526040909120805460ff19169091179055565b336001600160a01b037f000000000000000000000000000000000000000000000000000000000000000016146103e757604051635fc483c560e01b815260040160405180910390fd5b6001600160a01b03166000908152602081905260409020805460ff19169055565b80511561044b577fbcf5ce4fda95e104d7172732bf495e532c7355ebce10657ed2161d41d3a2b0e58160405161043e91906113cc565b60405180910390a1505050565b6000808380602001905181019061046291906113df565b909250905060008280156104785761047861106b565b03610486576104868161055e565b5050505050565b60006104d06040805160e0810190915280600081526020016000815260200160008152602001606081526020016060815260200160608152602001606081525090565b6104f6604051806103800160405280610356815260200161165a610356913982906105bd565b61050081846105ce565b61055761050c826105f8565b7f0000000000000000000000000000000000000000000000000000000000000000620186a07f00000000000000000000000000000000000000000000000000000000000000006108c0565b9392505050565b600081806020019051810190610574919061146b565b50600081815260016020526040808220805460ff191660021790555191925082917f778106618022c9092eee9e74350ace87e5f62da7dccd43fca2a3da7b61d419299190a25050565b6105ca8260008084610992565b5050565b80516000036105f05760405163fe936cb760e01b815260040160405180910390fd5b60c090910152565b60606000610607610100610a10565b90506106406040518060400160405280600c81526020016b31b7b232a637b1b0ba34b7b760a11b81525082610a3190919063ffffffff16565b825161065e9060028111156106575761065761106b565b8290610a4f565b6040805180820190915260088152676c616e677561676560c01b6020820152610688908290610a31565b604083015161069f9080156106575761065761106b565b604080518082019091526006815265736f7572636560d01b60208201526106c7908290610a31565b60608301516106d7908290610a31565b60a08301515115610763576040805180820190915260048152636172677360e01b6020820152610708908290610a31565b61071181610a88565b60005b8360a0015151811015610759576107518460a00151828151811061073a5761073a611081565b602002602001015183610a3190919063ffffffff16565b600101610714565b5061076381610aac565b60808301515115610827576000836020015160028111156107865761078661106b565b036107a45760405163a80d31f760e01b815260040160405180910390fd5b60408051808201909152600f81526e39b2b1b932ba39a637b1b0ba34b7b760891b60208201526107d5908290610a31565b6107ee836020015160028111156106575761065761106b565b6040805180820190915260078152667365637265747360c81b6020820152610817908290610a31565b6080830151610827908290610aca565b60c083015151156108b85760408051808201909152600981526862797465734172677360b81b602082015261085d908290610a31565b61086681610a88565b60005b8360c00151518110156108ae576108a68460c00151828151811061088f5761088f611081565b602002602001015183610aca90919063ffffffff16565b600101610869565b506108b881610aac565b515192915050565b6000807f00000000000000000000000000000000000000000000000000000000000000006001600160a01b031663461d27628688600188886040518663ffffffff1660e01b815260040161091895949392919061148f565b6020604051808303816000875af1158015610937573d6000803e3d6000fd5b505050506040513d601f19601f8201168201806040525081019061095b91906114d8565b60405190915081907f1131472297a800fee664d1d89cfa8f7676ff07189ecc53f80bbb5f4969099db890600090a295945050505050565b80516000036109b4576040516322ce3edd60e01b815260040160405180910390fd5b838360028111156109c7576109c761106b565b908160028111156109da576109da61106b565b905250604084018280156109f0576109f061106b565b90818015610a0057610a0061106b565b9052506060909301929092525050565b610a18610e7e565b8051610a249083610ad7565b5060006020820152919050565b610a3e8260038351610b51565b8151610a4a9082610c70565b505050565b8151610a5c9060c2610c91565b506105ca8282604051602001610a7491815260200190565b604051602081830303815290604052610aca565b610a93816004610cfa565b600181602001818151610aa69190611507565b90525050565b610ab7816007610cfa565b600181602001818151610aa6919061151a565b610a3e8260028351610b51565b604080518082019091526060815260006020820152610af760208361152d565b15610b1f57610b0760208361152d565b610b1290602061151a565b610b1c9083611507565b91505b602080840183905260405180855260008152908184010181811015610b4357600080fd5b604052508290505b92915050565b6017816001600160401b031611610b7d578251610b779060e0600585901b168317610c91565b50505050565b60ff816001600160401b031611610bbd578251610ba5906018611fe0600586901b1617610c91565b508251610b77906001600160401b0383166001610d11565b61ffff816001600160401b031611610bfe578251610be6906019611fe0600586901b1617610c91565b508251610b77906001600160401b0383166002610d11565b63ffffffff816001600160401b031611610c41578251610c2990601a611fe0600586901b1617610c91565b508251610b77906001600160401b0383166004610d11565b8251610c5890601b611fe0600586901b1617610c91565b508251610b77906001600160401b0383166008610d11565b60408051808201909152606081526000602082015261055783838451610d96565b6040805180820190915260608152600060208201528251516000610cb6826001611507565b905084602001518210610cd757610cd785610cd283600261154f565b610e67565b8451602083820101858153508051821115610cf0578181525b5093949350505050565b8151610a4a90601f611fe0600585901b1617610c91565b6040805180820190915260608152600060208201528351516000610d358285611507565b90508560200151811115610d5257610d5286610cd283600261154f565b60006001610d628661010061164d565b610d6c919061151a565b90508651828101878319825116178152508051831115610d8a578281525b50959695505050505050565b6040805180820190915260608152600060208201528251821115610db957600080fd5b8351516000610dc88483611507565b90508560200151811115610de557610de586610cd283600261154f565b855180518382016020019160009180851115610dff578482525b505050602086015b60208610610e3f5780518252610e1e602083611507565b9150610e2b602082611507565b9050610e3860208761151a565b9550610e07565b51815160001960208890036101000a0190811690199190911617905250849150509392505050565b8151610e738383610ad7565b50610b778382610c70565b6040518060400160405280610ea6604051806040016040528060608152602001600081525090565b8152602001600081525090565b634e487b7160e01b600052604160045260246000fd5b604051601f8201601f191681016001600160401b0381118282101715610ef157610ef1610eb3565b604052919050565b60006001600160401b03821115610f1257610f12610eb3565b50601f01601f191660200190565b600082601f830112610f3157600080fd5b8135610f44610f3f82610ef9565b610ec9565b818152846020838601011115610f5957600080fd5b816020850160208301376000918101602001919091529392505050565b600080600060608486031215610f8b57600080fd5b8335925060208401356001600160401b03811115610fa857600080fd5b610fb486828701610f20565b92505060408401356001600160401b03811115610fd057600080fd5b610fdc86828701610f20565b9150509250925092565b80356001600160a01b0381168114610ffd57600080fd5b919050565b60006020828403121561101457600080fd5b61055782610fe6565b6000806040838503121561103057600080fd5b8235915060208301356001600160401b0381111561104d57600080fd5b8301610100818603121561106057600080fd5b809150509250929050565b634e487b7160e01b600052602160045260246000fd5b634e487b7160e01b600052603260045260246000fd5b80356001600160401b0381168114610ffd57600080fd5b6000808335601e198436030181126110c557600080fd5b83016020810192503590506001600160401b038111156110e457600080fd5b8060061b36038213156110f657600080fd5b9250929050565b81835260208301925060008160005b84811015610cf0576001600160a01b0361112583610fe6565b168652602082810135908701526040958601959091019060010161110c565b6000808335601e1984360301811261115b57600080fd5b83016020810192503590506001600160401b0381111561117a57600080fd5b8060051b36038213156110f657600080fd5b6001811061119957600080fd5b50565b81835260208301925060008160005b84811015610cf05781356111be8161118c565b600181106111dc57634e487b7160e01b600052602160045260246000fd5b865260209586019591909101906001016111ab565b6000808335601e1984360301811261120857600080fd5b83016020810192503590506001600160401b0381111561122757600080fd5b8036038213156110f657600080fd5b81835281816020850137506000828201602090810191909152601f909101601f19169091010190565b602081526112806020820161127384611097565b6001600160401b03169052565b600061128e60208401611097565b6001600160401b0381166040840152506112aa60408401610fe6565b6001600160a01b0381166060840152506112c660608401610fe6565b6001600160a01b0381166080840152506112e360808401846110ae565b61010060a08501526112fa610120850182846110fd565b91505061130a60a0850185611144565b848303601f190160c086015261132183828461119c565b9250505061133260c08501856111f1565b848303601f190160e0860152611349838284611236565b9250505061135a60e08501856111f1565b848303601f1901610100860152611372838284611236565b9695505050505050565b60005b8381101561139757818101518382015260200161137f565b50506000910152565b600081518084526113b881602086016020860161137c565b601f01601f19169290920160200192915050565b60208152600061055760208301846113a0565b600080604083850312156113f257600080fd5b82516113fd8161118c565b60208401519092506001600160401b0381111561141957600080fd5b8301601f8101851361142a57600080fd5b8051611438610f3f82610ef9565b81815286602083850101111561144d57600080fd5b61145e82602083016020860161137c565b8093505050509250929050565b6000806040838503121561147e57600080fd5b505080516020909101519092909150565b6001600160401b038616815260a0602082015260006114b160a08301876113a0565b61ffff9590951660408301525063ffffffff92909216606083015260809091015292915050565b6000602082840312156114ea57600080fd5b5051919050565b634e487b7160e01b600052601160045260246000fd5b80820180821115610b4b57610b4b6114f1565b81810381811115610b4b57610b4b6114f1565b60008261154a57634e487b7160e01b600052601260045260246000fd5b500690565b8082028115828204841417610b4b57610b4b6114f1565b6001815b60018411156115a157808504811115611585576115856114f1565b600184161561159357908102905b60019390931c92800261156a565b935093915050565b6000826115b857506001610b4b565b816115c557506000610b4b565b81600181146115db57600281146115e557611601565b6001915050610b4b565b60ff8411156115f6576115f66114f1565b50506001821b610b4b565b5060208310610133831016604e8410600b8410161715611624575081810a610b4b565b6116316000198484611566565b8060001904821115611645576116456114f1565b029392505050565b600061055783836115a956fe747279207b20636f6e73742075203d202768747470733a2f2f7261772e67697468756275736572636f6e74656e742e636f6d2f6574686572732d696f2f6574686572732e6a732f76362e31302e302f646973742f6574686572732e756d642e6d696e2e6a73273b20636f6e7374205b742c20705d203d2061776169742050726f6d6973652e616c6c285b206665746368282768747470733a2f2f7261772e67697468756275736572636f6e74656e742e636f6d2f636f6e6365726f2f76322d636f6e7472616374732f726566732f68656164732f6d61737465722f636c662f646973742f726571756573745265706f72742e6d696e2e6a7327292c2066657463682875292c205d293b20636f6e7374205b652c20635d203d2061776169742050726f6d6973652e616c6c285b742e7465787428292c20702e7465787428295d293b20636f6e73742067203d206173796e632073203d3e207b2072657475726e20282027307827202b2041727261792e66726f6d286e65772055696e743841727261792861776169742063727970746f2e737562746c652e64696765737428275348412d323536272c206e65772054657874456e636f64657228292e656e636f6465287329292929202e6d61702876203d3e2028273027202b20762e746f537472696e6728313629292e736c696365282d32292e746f4c6f77657243617365282929202e6a6f696e2827272920293b207d3b20636f6e73742072203d20617761697420672863293b20636f6e73742078203d20617761697420672865293b20636f6e73742062203d206279746573417267735b305d2e746f4c6f7765724361736528293b20636f6e7374206f203d206279746573417267735b315d2e746f4c6f7765724361736528293b206966202872203d3d3d20622026262078203d3d3d206f29207b20636f6e737420657468657273203d206e65772046756e6374696f6e2865202b20273b2072657475726e206574686572733b272928293b2072657475726e206177616974206576616c2863293b207d207468726f77206e6577204572726f722860247b727d213d247b627d7c7c247b787d213d247b6f7d60293b207d20636174636820286529207b207468726f77206e6577204572726f7228652e6d6573736167652e736c69636528302c2032353529293b7da2646970667358221220d4e26615dad15ae889be8e7171e1f1da79b36a90c6cd179c3b6f62f6c80131ef64736f6c634300081c0033",
  "linkReferences": {},
  "deployedLinkReferences": {}
}