{
  "_format": "hh-sol-artifact-1",
  "contractName": "ConceroRouter",
  "sourceName": "contracts/ConceroRouter/ConceroRouter.sol",
  "abi": [
    {
      "inputs": [
        {
          "internalType": "address",
          "name": "usdc",
          "type": "address"
        },
        {
          "internalType": "uint64",
          "name": "chainSelector",
          "type": "uint64"
        },
        {
          "internalType": "address",
          "name": "_owner",
          "type": "address"
        },
        {
          "internalType": "address",
          "name": "clfDonSigner_0",
          "type": "address"
        },
        {
          "internalType": "address",
          "name": "clfDonSigner_1",
          "type": "address"
        },
        {
          "internalType": "address",
          "name": "clfDonSigner_2",
          "type": "address"
        },
        {
          "internalType": "address",
          "name": "clfDonSigner_3",
          "type": "address"
        }
      ],
      "stateMutability": "nonpayable",
      "type": "constructor"
    },
    {
      "inputs": [
        {
          "internalType": "address",
          "name": "target",
          "type": "address"
        }
      ],
      "name": "AddressEmptyCode",
      "type": "error"
    },
    {
      "inputs": [
        {
          "internalType": "address",
          "name": "account",
          "type": "address"
        }
      ],
      "name": "AddressInsufficientBalance",
      "type": "error"
    },
    {
      "inputs": [
        {
          "internalType": "address",
          "name": "signer",
          "type": "address"
        }
      ],
      "name": "DuplicateSignatureDetected",
      "type": "error"
    },
    {
      "inputs": [],
      "name": "FailedInnerCall",
      "type": "error"
    },
    {
      "inputs": [],
      "name": "IncorrectNumberOfSignatures",
      "type": "error"
    },
    {
      "inputs": [],
      "name": "InsufficientFee",
      "type": "error"
    },
    {
      "inputs": [],
      "name": "InvalidMessageHash",
      "type": "error"
    },
    {
      "inputs": [
        {
          "internalType": "bytes32",
          "name": "messageId",
          "type": "bytes32"
        }
      ],
      "name": "MessageAlreadyProcessed",
      "type": "error"
    },
    {
      "inputs": [
        {
          "internalType": "bytes",
          "name": "error",
          "type": "bytes"
        }
      ],
      "name": "MessageProcessingFailed",
      "type": "error"
    },
    {
      "inputs": [],
      "name": "OnlyAllowedOperator",
      "type": "error"
    },
    {
      "inputs": [],
      "name": "OnlyOwner",
      "type": "error"
    },
    {
      "inputs": [
        {
          "internalType": "address",
          "name": "token",
          "type": "address"
        }
      ],
      "name": "SafeERC20FailedOperation",
      "type": "error"
    },
    {
      "inputs": [
        {
          "internalType": "address",
          "name": "signer",
          "type": "address"
        }
      ],
      "name": "UnauthorizedSigner",
      "type": "error"
    },
    {
      "inputs": [],
      "name": "UnsupportedChainSelector",
      "type": "error"
    },
    {
      "inputs": [],
      "name": "UnsupportedFeeToken",
      "type": "error"
    },
    {
      "anonymous": false,
      "inputs": [
        {
          "indexed": true,
          "internalType": "bytes32",
          "name": "id",
          "type": "bytes32"
        },
        {
          "components": [
            {
              "internalType": "uint64",
              "name": "srcChainSelector",
              "type": "uint64"
            },
            {
              "internalType": "uint64",
              "name": "dstChainSelector",
              "type": "uint64"
            },
            {
              "internalType": "address",
              "name": "receiver",
              "type": "address"
            },
            {
              "internalType": "address",
              "name": "sender",
              "type": "address"
            },
            {
              "components": [
                {
                  "internalType": "address",
                  "name": "token",
                  "type": "address"
                },
                {
                  "internalType": "uint256",
                  "name": "amount",
                  "type": "uint256"
                }
              ],
              "internalType": "struct IMessage.TokenAmount[]",
              "name": "tokenAmounts",
              "type": "tuple[]"
            },
            {
              "internalType": "enum IMessage.Relayer[]",
              "name": "relayers",
              "type": "uint8[]"
            },
            {
              "internalType": "bytes",
              "name": "data",
              "type": "bytes"
            },
            {
              "internalType": "bytes",
              "name": "extraArgs",
              "type": "bytes"
            }
          ],
          "indexed": false,
          "internalType": "struct IMessage.Message",
          "name": "message",
          "type": "tuple"
        }
      ],
      "name": "ConceroMessageReceived",
      "type": "event"
    },
    {
      "anonymous": false,
      "inputs": [
        {
          "indexed": true,
          "internalType": "bytes32",
          "name": "id",
          "type": "bytes32"
        },
        {
          "components": [
            {
              "internalType": "uint64",
              "name": "srcChainSelector",
              "type": "uint64"
            },
            {
              "internalType": "uint64",
              "name": "dstChainSelector",
              "type": "uint64"
            },
            {
              "internalType": "address",
              "name": "receiver",
              "type": "address"
            },
            {
              "internalType": "address",
              "name": "sender",
              "type": "address"
            },
            {
              "components": [
                {
                  "internalType": "address",
                  "name": "token",
                  "type": "address"
                },
                {
                  "internalType": "uint256",
                  "name": "amount",
                  "type": "uint256"
                }
              ],
              "internalType": "struct IMessage.TokenAmount[]",
              "name": "tokenAmounts",
              "type": "tuple[]"
            },
            {
              "internalType": "enum IMessage.Relayer[]",
              "name": "relayers",
              "type": "uint8[]"
            },
            {
              "internalType": "bytes",
              "name": "data",
              "type": "bytes"
            },
            {
              "internalType": "bytes",
              "name": "extraArgs",
              "type": "bytes"
            }
          ],
          "indexed": false,
          "internalType": "struct IMessage.Message",
          "name": "message",
          "type": "tuple"
        }
      ],
      "name": "ConceroMessageSent",
      "type": "event"
    },
    {
      "inputs": [
        {
          "internalType": "address",
          "name": "operator",
          "type": "address"
        }
      ],
      "name": "deregisterOperator",
      "outputs": [],
      "stateMutability": "payable",
      "type": "function"
    },
    {
      "inputs": [
        {
          "components": [
            {
              "internalType": "address",
              "name": "feeToken",
              "type": "address"
            },
            {
              "internalType": "uint64",
              "name": "dstChainSelector",
              "type": "uint64"
            },
            {
              "internalType": "address",
              "name": "receiver",
              "type": "address"
            },
            {
              "components": [
                {
                  "internalType": "address",
                  "name": "token",
                  "type": "address"
                },
                {
                  "internalType": "uint256",
                  "name": "amount",
                  "type": "uint256"
                }
              ],
              "internalType": "struct IMessage.TokenAmount[]",
              "name": "tokenAmounts",
              "type": "tuple[]"
            },
            {
              "internalType": "enum IMessage.Relayer[]",
              "name": "relayers",
              "type": "uint8[]"
            },
            {
              "internalType": "bytes",
              "name": "data",
              "type": "bytes"
            },
            {
              "internalType": "bytes",
              "name": "extraArgs",
              "type": "bytes"
            }
          ],
          "internalType": "struct IConceroRouter.MessageRequest",
          "name": "message",
          "type": "tuple"
        }
      ],
      "name": "getMessageFee",
      "outputs": [
        {
          "internalType": "uint256",
          "name": "",
          "type": "uint256"
        }
      ],
      "stateMutability": "view",
      "type": "function"
    },
    {
      "inputs": [
        {
          "internalType": "uint64",
          "name": "chainSelector",
          "type": "uint64"
        }
      ],
      "name": "isChainSupported",
      "outputs": [
        {
          "internalType": "bool",
          "name": "",
          "type": "bool"
        }
      ],
      "stateMutability": "view",
      "type": "function"
    },
    {
      "inputs": [
        {
          "internalType": "address",
          "name": "operator",
          "type": "address"
        }
      ],
      "name": "registerOperator",
      "outputs": [],
      "stateMutability": "payable",
      "type": "function"
    },
    {
      "inputs": [
        {
          "components": [
            {
              "internalType": "address",
              "name": "feeToken",
              "type": "address"
            },
            {
              "internalType": "uint64",
              "name": "dstChainSelector",
              "type": "uint64"
            },
            {
              "internalType": "address",
              "name": "receiver",
              "type": "address"
            },
            {
              "components": [
                {
                  "internalType": "address",
                  "name": "token",
                  "type": "address"
                },
                {
                  "internalType": "uint256",
                  "name": "amount",
                  "type": "uint256"
                }
              ],
              "internalType": "struct IMessage.TokenAmount[]",
              "name": "tokenAmounts",
              "type": "tuple[]"
            },
            {
              "internalType": "enum IMessage.Relayer[]",
              "name": "relayers",
              "type": "uint8[]"
            },
            {
              "internalType": "bytes",
              "name": "data",
              "type": "bytes"
            },
            {
              "internalType": "bytes",
              "name": "extraArgs",
              "type": "bytes"
            }
          ],
          "internalType": "struct IConceroRouter.MessageRequest",
          "name": "req",
          "type": "tuple"
        }
      ],
      "name": "sendMessage",
      "outputs": [],
      "stateMutability": "payable",
      "type": "function"
    },
    {
      "inputs": [
        {
          "components": [
            {
              "internalType": "bytes32[3]",
              "name": "context",
              "type": "bytes32[3]"
            },
            {
              "internalType": "bytes",
              "name": "report",
              "type": "bytes"
            },
            {
              "internalType": "bytes32[]",
              "name": "rs",
              "type": "bytes32[]"
            },
            {
              "internalType": "bytes32[]",
              "name": "ss",
              "type": "bytes32[]"
            },
            {
              "internalType": "bytes",
              "name": "rawVs",
              "type": "bytes"
            }
          ],
          "internalType": "struct IConceroRouter.ClfDonReportSubmission",
          "name": "reportSubmission",
          "type": "tuple"
        },
        {
          "components": [
            {
              "internalType": "uint64",
              "name": "srcChainSelector",
              "type": "uint64"
            },
            {
              "internalType": "uint64",
              "name": "dstChainSelector",
              "type": "uint64"
            },
            {
              "internalType": "address",
              "name": "receiver",
              "type": "address"
            },
            {
              "internalType": "address",
              "name": "sender",
              "type": "address"
            },
            {
              "components": [
                {
                  "internalType": "address",
                  "name": "token",
                  "type": "address"
                },
                {
                  "internalType": "uint256",
                  "name": "amount",
                  "type": "uint256"
                }
              ],
              "internalType": "struct IMessage.TokenAmount[]",
              "name": "tokenAmounts",
              "type": "tuple[]"
            },
            {
              "internalType": "enum IMessage.Relayer[]",
              "name": "relayers",
              "type": "uint8[]"
            },
            {
              "internalType": "bytes",
              "name": "data",
              "type": "bytes"
            },
            {
              "internalType": "bytes",
              "name": "extraArgs",
              "type": "bytes"
            }
          ],
          "internalType": "struct IMessage.Message",
          "name": "message",
          "type": "tuple"
        }
      ],
      "name": "submitMessageReport",
      "outputs": [],
      "stateMutability": "nonpayable",
      "type": "function"
    }
  ],
  "bytecode": "0x6101606040526003805461ffff19166103e817905534801561002057600080fd5b50604051611ddf380380611ddf83398101604081905261003f91610099565b6001600160a01b0396871660a0526001600160401b0390951660c05292851660805290841660e052831661010052821661012052166101405261012e565b80516001600160a01b038116811461009457600080fd5b919050565b600080600080600080600060e0888a0312156100b457600080fd5b6100bd8861007d565b60208901519097506001600160401b03811681146100da57600080fd5b95506100e86040890161007d565b94506100f66060890161007d565b93506101046080890161007d565b925061011260a0890161007d565b915061012060c0890161007d565b905092959891949750929550565b60805160a05160c05160e051610100516101205161014051611c4261019d6000396000610f4a01526000610f0e01526000610ed201526000610e97015260006105900152600081816101ba0152818161046601526104ae01526000818161022501526103ca0152611c426000f3fe6080604052600436106100555760003560e01c80632747a2cc1461005a5780633682a4501461008d57806337f2933d146100a2578063a48a9058146100b5578063d3cb0ddc146100e5578063d8cf98ca14610105575b600080fd5b34801561006657600080fd5b5061007a61007536600461110a565b610118565b6040519081526020015b60405180910390f35b6100a061009b36600461115d565b61021a565b005b6100a06100b036600461110a565b610287565b3480156100c157600080fd5b506100d56100d036600461118f565b61033e565b6040519015158152602001610084565b3480156100f157600080fd5b506100a06101003660046111aa565b61034f565b6100a061011336600461115d565b6103bf565b600080805b61012a6060850185611219565b905081101561017f5760035461ffff166101476060860186611219565b8381811061015757610157611262565b9050604002016020013561016b919061128e565b61017590836112b0565b915060010161011d565b50600061018f602085018561115d565b6001600160a01b0316036101b0576101a98161c3506112b0565b9392505050565b6001600160a01b037f0000000000000000000000000000000000000000000000000000000000000000166101e7602085018561115d565b6001600160a01b031603610201576101a98161c3506112b0565b60405163aa4f772360e01b815260040160405180910390fd5b336001600160a01b037f0000000000000000000000000000000000000000000000000000000000000000161461026357604051635fc483c560e01b815260040160405180910390fd5b6001600160a01b03166000908152602081905260409020805460ff19166001179055565b61029f61029a604083016020840161118f565b610429565b6102bc576040516320b50e0560e21b815260040160405180910390fd5b6102c58161044f565b60006102d082610516565b905060008143336040516020016102e993929190611496565b604051602081830303815290604052805190602001209050807fb8e849f1f713f7e8a767c863102a3acafec3b360996694dfc0bed22f2a7e8ec68360405161033191906114c9565b60405180910390a2505050565b600061034982610429565b92915050565b3360009081526020819052604090205460ff1661037f57604051636586017760e01b815260040160405180910390fd5b6103888261073a565b6000806103a061039b60608601866114dc565b610a60565b915091506103af838383610a8d565b6103b98284610ada565b50505050565b336001600160a01b037f0000000000000000000000000000000000000000000000000000000000000000161461040857604051635fc483c560e01b815260040160405180910390fd5b6001600160a01b03166000908152602081905260409020805460ff19169055565b6000610433610c7b565b156104415761034982610cc6565b61034982610d5d565b919050565b600061045a82610118565b90506001600160a01b037f000000000000000000000000000000000000000000000000000000000000000016610493602084018461115d565b6001600160a01b0316036104da576104d66001600160a01b037f000000000000000000000000000000000000000000000000000000000000000016333084610dcf565b5050565b60006104e9602084018461115d565b6001600160a01b0316036104d6578034146104d65760405162976f7560e21b815260040160405180910390fd5b61058260405180610100016040528060006001600160401b0316815260200160006001600160401b0316815260200160006001600160a01b0316815260200160006001600160a01b03168152602001606081526020016060815260200160608152602001606081525090565b6040518061010001604052807f00000000000000000000000000000000000000000000000000000000000000006001600160401b031681526020018360200160208101906105d0919061118f565b6001600160401b031681526020016105ee606085016040860161115d565b6001600160a01b0316815233602082015260400161060f6060850185611219565b808060200260200160405190810160405280939291908181526020016000905b8282101561065b5761064c60408302860136819003810190611568565b8152602001906001019061062f565b505050918352505060200161067360808501856115bf565b808060200260200160405190810160405280939291908181526020018383602002808284376000920191909152505050908252506020016106b760a08501856114dc565b8080601f0160208091040260200160405190810160405280939291908181526020018383808284376000920191909152505050908252506020016106fe60c08501856114dc565b8080601f016020809104026020016040519081016040528093929190818152602001838380828437600092019190915250505091525092915050565b60006107528261074d60608201826114dc565b610e29565b9050600061076360808401846115bf565b8080602002602001604051908101604052809392919081815260200183836020028082843760009201829052509394506107a49250505060a08501856115bf565b8080602002602001604051908101604052809392919081815260200183836020028082843760009201829052509394506107e59250505060c08601866114dc565b8080601f01602080910402602001604051908101604052809392919081815260200183838082843760009201919091525050845186519394506003931491505080156108315750808451145b61084e576040516301227b8d60e11b815260040160405180910390fd5b600084516001600160401b0381111561086957610869611522565b604051908082528060200260200182016040528015610892578160200160208202803683370190505b50905060005b8551811015610a565760008482815181106108b5576108b5611262565b01602001516108c89060f81c601b611608565b905060008783815181106108de576108de611262565b6020026020010151905060008784815181106108fc576108fc611262565b60200260200101519050600060018b85858560405160008152602001604052604051610944949392919093845260ff9290921660208401526040830152606082015260800190565b6020604051602081039080840390855afa158015610966573d6000803e3d6000fd5b50505060206040510351905061097b81610e7d565b81906109ab5760405163e74c68bb60e01b81526001600160a01b0390911660048201526024015b60405180910390fd5b5060005b85811015610a1a57816001600160a01b03168782815181106109d3576109d3611262565b60200260200101516001600160a01b031614158290610a1157604051630e256b9960e21b81526001600160a01b0390911660048201526024016109a2565b506001016109af565b5080868681518110610a2e57610a2e611262565b6001600160a01b03909216602092830291909101909101525050600190920191506108989050565b5050505050505050565b60008080610a7084860186611794565b5050506021810151604190910151909450925050505b9250929050565b60008284604051602001610aa2929190611afb565b6040516020818303038152906040528051906020012090508181146103b957604051638b56642d60e01b815260040160405180910390fd5b600082815260026020526040902054829060ff16610b0e5760405163398560f160e11b81526004016109a291815260200190565b506000828152600260205260408120805460ff19166001179055610b3560e08301836114dc565b810190610b429190611b14565b9050600080610b57606085016040860161115d565b83516001600160a01b03919091169063ffffffff1663793ae54760e11b87610b8260c08901896114dc565b604051602401610b9493929190611b6a565b60408051601f198184030181529181526020820180516001600160e01b03166001600160e01b0319909416939093179092529051610bd29190611b84565b60006040518083038160008787f1925050503d8060008114610c10576040519150601f19603f3d011682016040523d82523d6000602084013e610c15565b606091505b5091509150818190610c3b576040516344befa7760e01b81526004016109a29190611ba0565b50847fce04380807db03f83afad5c85101fc448adf76ecd89bae9c3b29e5794655fe8a85604051610c6c9190611bb3565b60405180910390a25050505050565b6000466001811480610c8e575061210581145b80610c9a575061a86a81145b80610ca6575061a4b181145b80610cb15750608981145b15610cbe57600191505090565b600091505090565b60006001600160401b0382166744ae84d8e9a374441480610cf757506001600160401b03821667dda641cfe44aff82145b80610d1257506001600160401b03821667383a1891ae1915b1145b80610d2d57506001600160401b03821667594862ae1802b3d5145b80610d4857506001600160401b0382166733d343f77863cab8145b15610d5557506001919050565b506000919050565b60006001600160401b03821667304611b6affba76a1480610d8e57506001600160401b038216678f90b8876dee6538145b80610da957506001600160401b0382166748810ec3e431431f145b80610d4857506001600160401b03821667e1f4423f1bf587cd03610d5557506001919050565b604080516001600160a01b0385811660248301528416604482015260648082018490528251808303909101815260849091019091526020810180516001600160e01b03166323b872dd60e01b1790526103b9908590610f83565b6000808383604051610e3c929190611bc6565b6040518091039020905060008186604051602001610e5b929190611bd6565b60408051808303601f1901815291905280516020909101209695505050505050565b60006001600160a01b038216610e9557506000919050565b7f00000000000000000000000000000000000000000000000000000000000000006001600160a01b0316826001600160a01b03161480610f0657507f00000000000000000000000000000000000000000000000000000000000000006001600160a01b0316826001600160a01b0316145b80610f4257507f00000000000000000000000000000000000000000000000000000000000000006001600160a01b0316826001600160a01b0316145b8061034957507f00000000000000000000000000000000000000000000000000000000000000006001600160a01b0316826001600160a01b03161492915050565b6000610f986001600160a01b03841683610feb565b90508051600014158015610fbd575080806020019051810190610fbb9190611bea565b155b15610fe657604051635274afe760e01b81526001600160a01b03841660048201526024016109a2565b505050565b60606101a98383600084600080856001600160a01b031684866040516110119190611b84565b60006040518083038185875af1925050503d806000811461104e576040519150601f19603f3d011682016040523d82523d6000602084013e611053565b606091505b509150915061106386838361106d565b9695505050505050565b6060826110825761107d826110c9565b6101a9565b815115801561109957506001600160a01b0384163b155b156110c257604051639996b31560e01b81526001600160a01b03851660048201526024016109a2565b50806101a9565b8051156110d95780518082602001fd5b604051630a12f52160e11b815260040160405180910390fd5b600060e0828403121561110457600080fd5b50919050565b60006020828403121561111c57600080fd5b81356001600160401b0381111561113257600080fd5b61113e848285016110f2565b949350505050565b80356001600160a01b038116811461044a57600080fd5b60006020828403121561116f57600080fd5b6101a982611146565b80356001600160401b038116811461044a57600080fd5b6000602082840312156111a157600080fd5b6101a982611178565b600080604083850312156111bd57600080fd5b82356001600160401b038111156111d357600080fd5b6111df858286016110f2565b92505060208301356001600160401b038111156111fb57600080fd5b8301610100818603121561120e57600080fd5b809150509250929050565b6000808335601e1984360301811261123057600080fd5b8301803591506001600160401b0382111561124a57600080fd5b6020019150600681901b3603821315610a8657600080fd5b634e487b7160e01b600052603260045260246000fd5b634e487b7160e01b600052601160045260246000fd5b6000826112ab57634e487b7160e01b600052601260045260246000fd5b500490565b8082018082111561034957610349611278565b600081518084526020840193506020830160005b8281101561130a57815180516001600160a01b0316875260209081015181880152604090960195909101906001016112d7565b5093949350505050565b60006001821061133457634e487b7160e01b600052602160045260246000fd5b50815260200190565b600081518084526020840193506020830160005b8281101561130a57611364868351611314565b955060209190910190600101611351565b60005b83811015611390578181015183820152602001611378565b50506000910152565b600081518084526113b1816020860160208601611375565b601f01601f19169290920160200192915050565b80516001600160401b03168252600060208201516113ee60208501826001600160401b03169052565b50604082015161140960408501826001600160a01b03169052565b50606082015161142460608501826001600160a01b03169052565b50608082015161010060808501526114406101008501826112c3565b905060a083015184820360a0860152611459828261133d565b91505060c083015184820360c08601526114738282611399565b91505060e083015184820360e086015261148d8282611399565b95945050505050565b6060815260006114a960608301866113c5565b6020830194909452506001600160a01b0391909116604090910152919050565b6020815260006101a960208301846113c5565b6000808335601e198436030181126114f357600080fd5b8301803591506001600160401b0382111561150d57600080fd5b602001915036819003821315610a8657600080fd5b634e487b7160e01b600052604160045260246000fd5b604051601f8201601f191681016001600160401b038111828210171561156057611560611522565b604052919050565b6000604082840312801561157b57600080fd5b50604080519081016001600160401b038111828210171561159e5761159e611522565b6040526115aa83611146565b81526020928301359281019290925250919050565b6000808335601e198436030181126115d657600080fd5b8301803591506001600160401b038211156115f057600080fd5b6020019150600581901b3603821315610a8657600080fd5b60ff818116838216019081111561034957610349611278565b60006001600160401b0382111561163a5761163a611522565b5060051b60200190565b600082601f83011261165557600080fd5b813561166861166382611621565b611538565b8082825260208201915060208360051b86010192508583111561168a57600080fd5b602085015b838110156116a757803583526020928301920161168f565b5095945050505050565b600082601f8301126116c257600080fd5b81356116d061166382611621565b8082825260208201915060208360051b8601019250858311156116f257600080fd5b602085015b838110156116a75780356001600160401b0381111561171557600080fd5b8601603f8101881361172657600080fd5b60208101356001600160401b0381111561174257611742611522565b611755601f8201601f1916602001611538565b8181526040838301018a101561176a57600080fd5b816040840160208301376000602083830101528086525050506020830192506020810190506116f7565b600080600080600060a086880312156117ac57600080fd5b85356001600160401b038111156117c257600080fd5b6117ce88828901611644565b95505060208601356001600160401b038111156117ea57600080fd5b6117f6888289016116b1565b94505060408601356001600160401b0381111561181257600080fd5b61181e888289016116b1565b93505060608601356001600160401b0381111561183a57600080fd5b611846888289016116b1565b92505060808601356001600160401b0381111561186257600080fd5b61186e888289016116b1565b9150509295509295909350565b6000808335601e1984360301811261189257600080fd5b83016020810192503590506001600160401b038111156118b157600080fd5b8060061b3603821315610a8657600080fd5b81835260208301925060008160005b8481101561130a576001600160a01b036118eb83611146565b16865260208281013590870152604095860195909101906001016118d2565b6000808335601e1984360301811261192157600080fd5b83016020810192503590506001600160401b0381111561194057600080fd5b8060051b3603821315610a8657600080fd5b81835260208301925060008160005b8481101561130a5781356001811061197857600080fd5b6119828782611314565b96505060209190910190600101611961565b6000808335601e198436030181126119ab57600080fd5b83016020810192503590506001600160401b038111156119ca57600080fd5b803603821315610a8657600080fd5b81835281816020850137506000828201602090810191909152601f909101601f19169091010190565b611a1c82611a0f83611178565b6001600160401b03169052565b6000611a2a60208301611178565b6001600160401b03166020840152611a4460408301611146565b6001600160a01b03166040840152611a5e60608301611146565b6001600160a01b03166060840152611a79608083018361187b565b6101006080860152611a90610100860182846118c3565b915050611aa060a084018461190a565b85830360a0870152611ab3838284611952565b92505050611ac460c0840184611994565b85830360c0870152611ad78382846119d9565b92505050611ae860e0840184611994565b85830360e08701526110638382846119d9565b82815260406020820152600061113e6040830184611a02565b60006020828403128015611b2757600080fd5b50604051602081016001600160401b0381118282101715611b4a57611b4a611522565b604052823563ffffffff81168114611b6157600080fd5b81529392505050565b83815260406020820152600061148d6040830184866119d9565b60008251611b96818460208701611375565b9190910192915050565b6020815260006101a96020830184611399565b6020815260006101a96020830184611a02565b8183823760009101908152919050565b828152606082602083013760800192915050565b600060208284031215611bfc57600080fd5b815180151581146101a957600080fdfea26469706673582212201904623edb4f995c5648bab74a3376ea8ce3f7ae92f81e04f1717fb682b05a7764736f6c634300081c0033",
  "linkReferences": {},
  "deployedLinkReferences": {}
}