{
  "_format": "hh-sol-artifact-1",
  "contractName": "ConceroRouter",
  "sourceName": "contracts/ConceroRouter/ConceroRouter.sol",
  "abi": [
    {
      "inputs": [
        {
          "internalType": "address",
          "name": "usdc",
          "type": "address"
        },
        {
          "internalType": "uint64",
          "name": "chainSelector",
          "type": "uint64"
        },
        {
          "internalType": "address",
          "name": "_owner",
          "type": "address"
        },
        {
          "internalType": "address",
          "name": "clfDonSigner_0",
          "type": "address"
        },
        {
          "internalType": "address",
          "name": "clfDonSigner_1",
          "type": "address"
        },
        {
          "internalType": "address",
          "name": "clfDonSigner_2",
          "type": "address"
        },
        {
          "internalType": "address",
          "name": "clfDonSigner_3",
          "type": "address"
        }
      ],
      "stateMutability": "nonpayable",
      "type": "constructor"
    },
    {
      "inputs": [
        {
          "internalType": "address",
          "name": "target",
          "type": "address"
        }
      ],
      "name": "AddressEmptyCode",
      "type": "error"
    },
    {
      "inputs": [
        {
          "internalType": "address",
          "name": "account",
          "type": "address"
        }
      ],
      "name": "AddressInsufficientBalance",
      "type": "error"
    },
    {
      "inputs": [
        {
          "internalType": "address",
          "name": "signer",
          "type": "address"
        }
      ],
      "name": "DuplicateSignatureDetected",
      "type": "error"
    },
    {
      "inputs": [],
      "name": "FailedInnerCall",
      "type": "error"
    },
    {
      "inputs": [],
      "name": "IncorrectNumberOfSignatures",
      "type": "error"
    },
    {
      "inputs": [],
      "name": "InsufficientFee",
      "type": "error"
    },
    {
      "inputs": [],
      "name": "InvalidMessageHash",
      "type": "error"
    },
    {
      "inputs": [
        {
          "internalType": "bytes32",
          "name": "messageId",
          "type": "bytes32"
        }
      ],
      "name": "MessageAlreadyProcessed",
      "type": "error"
    },
    {
      "inputs": [
        {
          "internalType": "bytes",
          "name": "error",
          "type": "bytes"
        }
      ],
      "name": "MessageProcessingFailed",
      "type": "error"
    },
    {
      "inputs": [],
      "name": "OnlyAllowedOperator",
      "type": "error"
    },
    {
      "inputs": [],
      "name": "OnlyOwner",
      "type": "error"
    },
    {
      "inputs": [
        {
          "internalType": "address",
          "name": "token",
          "type": "address"
        }
      ],
      "name": "SafeERC20FailedOperation",
      "type": "error"
    },
    {
      "inputs": [
        {
          "internalType": "address",
          "name": "signer",
          "type": "address"
        }
      ],
      "name": "UnauthorizedSigner",
      "type": "error"
    },
    {
      "inputs": [],
      "name": "UnsupportedChainSelector",
      "type": "error"
    },
    {
      "inputs": [],
      "name": "UnsupportedFeeToken",
      "type": "error"
    },
    {
      "inputs": [],
      "name": "WithdrawalFailed",
      "type": "error"
    },
    {
      "anonymous": false,
      "inputs": [
        {
          "indexed": true,
          "internalType": "bytes32",
          "name": "id",
          "type": "bytes32"
        },
        {
          "components": [
            {
              "internalType": "uint64",
              "name": "srcChainSelector",
              "type": "uint64"
            },
            {
              "internalType": "uint64",
              "name": "dstChainSelector",
              "type": "uint64"
            },
            {
              "internalType": "address",
              "name": "receiver",
              "type": "address"
            },
            {
              "internalType": "address",
              "name": "sender",
              "type": "address"
            },
            {
              "components": [
                {
                  "internalType": "address",
                  "name": "token",
                  "type": "address"
                },
                {
                  "internalType": "uint256",
                  "name": "amount",
                  "type": "uint256"
                }
              ],
              "internalType": "struct IMessage.TokenAmount[]",
              "name": "tokenAmounts",
              "type": "tuple[]"
            },
            {
              "internalType": "enum IMessage.Relayer[]",
              "name": "relayers",
              "type": "uint8[]"
            },
            {
              "internalType": "bytes",
              "name": "data",
              "type": "bytes"
            },
            {
              "internalType": "bytes",
              "name": "extraArgs",
              "type": "bytes"
            }
          ],
          "indexed": false,
          "internalType": "struct IMessage.Message",
          "name": "message",
          "type": "tuple"
        }
      ],
      "name": "ConceroMessageReceived",
      "type": "event"
    },
    {
      "anonymous": false,
      "inputs": [
        {
          "indexed": true,
          "internalType": "bytes32",
          "name": "id",
          "type": "bytes32"
        },
        {
          "components": [
            {
              "internalType": "uint64",
              "name": "srcChainSelector",
              "type": "uint64"
            },
            {
              "internalType": "uint64",
              "name": "dstChainSelector",
              "type": "uint64"
            },
            {
              "internalType": "address",
              "name": "receiver",
              "type": "address"
            },
            {
              "internalType": "address",
              "name": "sender",
              "type": "address"
            },
            {
              "components": [
                {
                  "internalType": "address",
                  "name": "token",
                  "type": "address"
                },
                {
                  "internalType": "uint256",
                  "name": "amount",
                  "type": "uint256"
                }
              ],
              "internalType": "struct IMessage.TokenAmount[]",
              "name": "tokenAmounts",
              "type": "tuple[]"
            },
            {
              "internalType": "enum IMessage.Relayer[]",
              "name": "relayers",
              "type": "uint8[]"
            },
            {
              "internalType": "bytes",
              "name": "data",
              "type": "bytes"
            },
            {
              "internalType": "bytes",
              "name": "extraArgs",
              "type": "bytes"
            }
          ],
          "indexed": false,
          "internalType": "struct IMessage.Message",
          "name": "message",
          "type": "tuple"
        }
      ],
      "name": "ConceroMessageSent",
      "type": "event"
    },
    {
      "inputs": [
        {
          "internalType": "address",
          "name": "operator",
          "type": "address"
        }
      ],
      "name": "deregisterOperator",
      "outputs": [],
      "stateMutability": "payable",
      "type": "function"
    },
    {
      "inputs": [
        {
          "components": [
            {
              "internalType": "address",
              "name": "feeToken",
              "type": "address"
            },
            {
              "internalType": "uint64",
              "name": "dstChainSelector",
              "type": "uint64"
            },
            {
              "internalType": "address",
              "name": "receiver",
              "type": "address"
            },
            {
              "components": [
                {
                  "internalType": "address",
                  "name": "token",
                  "type": "address"
                },
                {
                  "internalType": "uint256",
                  "name": "amount",
                  "type": "uint256"
                }
              ],
              "internalType": "struct IMessage.TokenAmount[]",
              "name": "tokenAmounts",
              "type": "tuple[]"
            },
            {
              "internalType": "enum IMessage.Relayer[]",
              "name": "relayers",
              "type": "uint8[]"
            },
            {
              "internalType": "bytes",
              "name": "data",
              "type": "bytes"
            },
            {
              "internalType": "bytes",
              "name": "extraArgs",
              "type": "bytes"
            }
          ],
          "internalType": "struct IConceroRouter.MessageRequest",
          "name": "message",
          "type": "tuple"
        }
      ],
      "name": "getMessageFee",
      "outputs": [
        {
          "internalType": "uint256",
          "name": "",
          "type": "uint256"
        }
      ],
      "stateMutability": "view",
      "type": "function"
    },
    {
      "inputs": [
        {
          "internalType": "uint64",
          "name": "chainSelector",
          "type": "uint64"
        }
      ],
      "name": "isChainSupported",
      "outputs": [
        {
          "internalType": "bool",
          "name": "",
          "type": "bool"
        }
      ],
      "stateMutability": "view",
      "type": "function"
    },
    {
      "inputs": [
        {
          "internalType": "address",
          "name": "operator",
          "type": "address"
        }
      ],
      "name": "registerOperator",
      "outputs": [],
      "stateMutability": "payable",
      "type": "function"
    },
    {
      "inputs": [
        {
          "components": [
            {
              "internalType": "address",
              "name": "feeToken",
              "type": "address"
            },
            {
              "internalType": "uint64",
              "name": "dstChainSelector",
              "type": "uint64"
            },
            {
              "internalType": "address",
              "name": "receiver",
              "type": "address"
            },
            {
              "components": [
                {
                  "internalType": "address",
                  "name": "token",
                  "type": "address"
                },
                {
                  "internalType": "uint256",
                  "name": "amount",
                  "type": "uint256"
                }
              ],
              "internalType": "struct IMessage.TokenAmount[]",
              "name": "tokenAmounts",
              "type": "tuple[]"
            },
            {
              "internalType": "enum IMessage.Relayer[]",
              "name": "relayers",
              "type": "uint8[]"
            },
            {
              "internalType": "bytes",
              "name": "data",
              "type": "bytes"
            },
            {
              "internalType": "bytes",
              "name": "extraArgs",
              "type": "bytes"
            }
          ],
          "internalType": "struct IConceroRouter.MessageRequest",
          "name": "req",
          "type": "tuple"
        }
      ],
      "name": "sendMessage",
      "outputs": [],
      "stateMutability": "payable",
      "type": "function"
    },
    {
      "inputs": [
        {
          "components": [
            {
              "internalType": "bytes32[3]",
              "name": "context",
              "type": "bytes32[3]"
            },
            {
              "internalType": "bytes",
              "name": "report",
              "type": "bytes"
            },
            {
              "internalType": "bytes32[]",
              "name": "rs",
              "type": "bytes32[]"
            },
            {
              "internalType": "bytes32[]",
              "name": "ss",
              "type": "bytes32[]"
            },
            {
              "internalType": "bytes",
              "name": "rawVs",
              "type": "bytes"
            }
          ],
          "internalType": "struct IConceroRouter.ClfDonReportSubmission",
          "name": "reportSubmission",
          "type": "tuple"
        },
        {
          "components": [
            {
              "internalType": "uint64",
              "name": "srcChainSelector",
              "type": "uint64"
            },
            {
              "internalType": "uint64",
              "name": "dstChainSelector",
              "type": "uint64"
            },
            {
              "internalType": "address",
              "name": "receiver",
              "type": "address"
            },
            {
              "internalType": "address",
              "name": "sender",
              "type": "address"
            },
            {
              "components": [
                {
                  "internalType": "address",
                  "name": "token",
                  "type": "address"
                },
                {
                  "internalType": "uint256",
                  "name": "amount",
                  "type": "uint256"
                }
              ],
              "internalType": "struct IMessage.TokenAmount[]",
              "name": "tokenAmounts",
              "type": "tuple[]"
            },
            {
              "internalType": "enum IMessage.Relayer[]",
              "name": "relayers",
              "type": "uint8[]"
            },
            {
              "internalType": "bytes",
              "name": "data",
              "type": "bytes"
            },
            {
              "internalType": "bytes",
              "name": "extraArgs",
              "type": "bytes"
            }
          ],
          "internalType": "struct IMessage.Message",
          "name": "message",
          "type": "tuple"
        }
      ],
      "name": "submitMessageReport",
      "outputs": [],
      "stateMutability": "nonpayable",
      "type": "function"
    },
    {
      "inputs": [
        {
          "internalType": "address",
          "name": "token",
          "type": "address"
        },
        {
          "internalType": "uint256",
          "name": "amount",
          "type": "uint256"
        }
      ],
      "name": "withdraw",
      "outputs": [],
      "stateMutability": "payable",
      "type": "function"
    }
  ],
  "bytecode": "0x6101606040526003805461ffff19166103e817905534801561002057600080fd5b50604051611fa9380380611fa983398101604081905261003f91610099565b6001600160a01b0396871660a0526001600160401b0390951660c05292851660805290841660e052831661010052821661012052166101405261012e565b80516001600160a01b038116811461009457600080fd5b919050565b600080600080600080600060e0888a0312156100b457600080fd5b6100bd8861007d565b60208901519097506001600160401b03811681146100da57600080fd5b95506100e86040890161007d565b94506100f66060890161007d565b93506101046080890161007d565b925061011260a0890161007d565b915061012060c0890161007d565b905092959891949750929550565b60805160a05160c05160e051610100516101205161014051611df76101b260003960006110da0152600061109e0152600061106201526000611027015260006106e20152600081816101e8015281816105bc0152610604015260008181610253015281816103f801528181610462015281816104b201526105560152611df76000f3fe6080604052600436106100705760003560e01c8063a48a90581161004e578063a48a9058146100d0578063d3cb0ddc14610100578063d8cf98ca14610120578063f3fef3a31461013357600080fd5b80632747a2cc146100755780633682a450146100a857806337f2933d146100bd575b600080fd5b34801561008157600080fd5b50610095610090366004611295565b610146565b6040519081526020015b60405180910390f35b6100bb6100b63660046112e8565b610248565b005b6100bb6100cb366004611295565b6102b5565b3480156100dc57600080fd5b506100f06100eb36600461131a565b61036c565b604051901515815260200161009f565b34801561010c57600080fd5b506100bb61011b366004611335565b61037d565b6100bb61012e3660046112e8565b6103ed565b6100bb6101413660046113a4565b610457565b600080805b61015860608501856113ce565b90508110156101ad5760035461ffff1661017560608601866113ce565b8381811061018557610185611417565b905060400201602001356101999190611443565b6101a39083611465565b915060010161014b565b5060006101bd60208501856112e8565b6001600160a01b0316036101de576101d78161c350611465565b9392505050565b6001600160a01b037f00000000000000000000000000000000000000000000000000000000000000001661021560208501856112e8565b6001600160a01b03160361022f576101d78161c350611465565b60405163aa4f772360e01b815260040160405180910390fd5b336001600160a01b037f0000000000000000000000000000000000000000000000000000000000000000161461029157604051635fc483c560e01b815260040160405180910390fd5b6001600160a01b03166000908152602081905260409020805460ff19166001179055565b6102cd6102c8604083016020840161131a565b61057f565b6102ea576040516320b50e0560e21b815260040160405180910390fd5b6102f3816105a5565b60006102fe82610668565b905060008143336040516020016103179392919061164b565b604051602081830303815290604052805190602001209050807fb8e849f1f713f7e8a767c863102a3acafec3b360996694dfc0bed22f2a7e8ec68360405161035f919061167e565b60405180910390a2505050565b60006103778261057f565b92915050565b3360009081526020819052604090205460ff166103ad57604051636586017760e01b815260040160405180910390fd5b6103b68261088c565b6000806103ce6103c96060860186611691565b610bb2565b915091506103dd838383610bdf565b6103e78284610c2c565b50505050565b336001600160a01b037f0000000000000000000000000000000000000000000000000000000000000000161461043657604051635fc483c560e01b815260040160405180910390fd5b6001600160a01b03166000908152602081905260409020805460ff19169055565b336001600160a01b037f000000000000000000000000000000000000000000000000000000000000000016146104a057604051635fc483c560e01b815260040160405180910390fd5b6001600160a01b0382166105475760007f00000000000000000000000000000000000000000000000000000000000000006001600160a01b03168260405160006040518083038185875af1925050503d806000811461051b576040519150601f19603f3d011682016040523d82523d6000602084013e610520565b606091505b5050905080610542576040516327fcd9d160e01b815260040160405180910390fd5b505050565b61057b6001600160a01b0383167f000000000000000000000000000000000000000000000000000000000000000083610dcd565b5050565b6000610589610e2c565b156105975761037782610e77565b61037782610f0e565b919050565b60006105b082610146565b90506001600160a01b037f0000000000000000000000000000000000000000000000000000000000000000166105e960208401846112e8565b6001600160a01b03160361062c5761057b6001600160a01b037f000000000000000000000000000000000000000000000000000000000000000016333084610f80565b600061063b60208401846112e8565b6001600160a01b03160361057b5780341461057b5760405162976f7560e21b815260040160405180910390fd5b6106d460405180610100016040528060006001600160401b0316815260200160006001600160401b0316815260200160006001600160a01b0316815260200160006001600160a01b03168152602001606081526020016060815260200160608152602001606081525090565b6040518061010001604052807f00000000000000000000000000000000000000000000000000000000000000006001600160401b03168152602001836020016020810190610722919061131a565b6001600160401b0316815260200161074060608501604086016112e8565b6001600160a01b0316815233602082015260400161076160608501856113ce565b808060200260200160405190810160405280939291908181526020016000905b828210156107ad5761079e6040830286013681900381019061171d565b81526020019060010190610781565b50505091835250506020016107c56080850185611774565b8080602002602001604051908101604052809392919081815260200183836020028082843760009201919091525050509082525060200161080960a0850185611691565b8080601f01602080910402602001604051908101604052809392919081815260200183838082843760009201919091525050509082525060200161085060c0850185611691565b8080601f016020809104026020016040519081016040528093929190818152602001838380828437600092019190915250505091525092915050565b60006108a48261089f6060820182611691565b610fb9565b905060006108b56080840184611774565b8080602002602001604051908101604052809392919081815260200183836020028082843760009201829052509394506108f69250505060a0850185611774565b8080602002602001604051908101604052809392919081815260200183836020028082843760009201829052509394506109379250505060c0860186611691565b8080601f01602080910402602001604051908101604052809392919081815260200183838082843760009201919091525050845186519394506003931491505080156109835750808451145b6109a0576040516301227b8d60e11b815260040160405180910390fd5b600084516001600160401b038111156109bb576109bb6116d7565b6040519080825280602002602001820160405280156109e4578160200160208202803683370190505b50905060005b8551811015610ba8576000848281518110610a0757610a07611417565b0160200151610a1a9060f81c601b6117bd565b90506000878381518110610a3057610a30611417565b602002602001015190506000878481518110610a4e57610a4e611417565b60200260200101519050600060018b85858560405160008152602001604052604051610a96949392919093845260ff9290921660208401526040830152606082015260800190565b6020604051602081039080840390855afa158015610ab8573d6000803e3d6000fd5b505050602060405103519050610acd8161100d565b8190610afd5760405163e74c68bb60e01b81526001600160a01b0390911660048201526024015b60405180910390fd5b5060005b85811015610b6c57816001600160a01b0316878281518110610b2557610b25611417565b60200260200101516001600160a01b031614158290610b6357604051630e256b9960e21b81526001600160a01b039091166004820152602401610af4565b50600101610b01565b5080868681518110610b8057610b80611417565b6001600160a01b03909216602092830291909101909101525050600190920191506109ea9050565b5050505050505050565b60008080610bc284860186611949565b5050506021810151604190910151909450925050505b9250929050565b60008284604051602001610bf4929190611cb0565b6040516020818303038152906040528051906020012090508181146103e757604051638b56642d60e01b815260040160405180910390fd5b600082815260026020526040902054829060ff16610c605760405163398560f160e11b8152600401610af491815260200190565b506000828152600260205260408120805460ff19166001179055610c8760e0830183611691565b810190610c949190611cc9565b9050600080610ca960608501604086016112e8565b83516001600160a01b03919091169063ffffffff1663793ae54760e11b87610cd460c0890189611691565b604051602401610ce693929190611d1f565b60408051601f198184030181529181526020820180516001600160e01b03166001600160e01b0319909416939093179092529051610d249190611d39565b60006040518083038160008787f1925050503d8060008114610d62576040519150601f19603f3d011682016040523d82523d6000602084013e610d67565b606091505b5091509150818190610d8d576040516344befa7760e01b8152600401610af49190611d55565b50847fce04380807db03f83afad5c85101fc448adf76ecd89bae9c3b29e5794655fe8a85604051610dbe9190611d68565b60405180910390a25050505050565b6040516001600160a01b0383811660248301526044820183905261054291859182169063a9059cbb906064015b604051602081830303815290604052915060e01b6020820180516001600160e01b038381831617835250505050611113565b6000466001811480610e3f575061210581145b80610e4b575061a86a81145b80610e57575061a4b181145b80610e625750608981145b15610e6f57600191505090565b600091505090565b60006001600160401b0382166744ae84d8e9a374441480610ea857506001600160401b03821667dda641cfe44aff82145b80610ec357506001600160401b03821667383a1891ae1915b1145b80610ede57506001600160401b03821667594862ae1802b3d5145b80610ef957506001600160401b0382166733d343f77863cab8145b15610f0657506001919050565b506000919050565b60006001600160401b03821667304611b6affba76a1480610f3f57506001600160401b038216678f90b8876dee6538145b80610f5a57506001600160401b0382166748810ec3e431431f145b80610ef957506001600160401b03821667e1f4423f1bf587cd03610f0657506001919050565b6040516001600160a01b0384811660248301528381166044830152606482018390526103e79186918216906323b872dd90608401610dfa565b6000808383604051610fcc929190611d7b565b6040518091039020905060008186604051602001610feb929190611d8b565b60408051808303601f1901815291905280516020909101209695505050505050565b60006001600160a01b03821661102557506000919050565b7f00000000000000000000000000000000000000000000000000000000000000006001600160a01b0316826001600160a01b0316148061109657507f00000000000000000000000000000000000000000000000000000000000000006001600160a01b0316826001600160a01b0316145b806110d257507f00000000000000000000000000000000000000000000000000000000000000006001600160a01b0316826001600160a01b0316145b8061037757507f00000000000000000000000000000000000000000000000000000000000000006001600160a01b0316826001600160a01b03161492915050565b60006111286001600160a01b03841683611176565b9050805160001415801561114d57508080602001905181019061114b9190611d9f565b155b1561054257604051635274afe760e01b81526001600160a01b0384166004820152602401610af4565b60606101d78383600084600080856001600160a01b0316848660405161119c9190611d39565b60006040518083038185875af1925050503d80600081146111d9576040519150601f19603f3d011682016040523d82523d6000602084013e6111de565b606091505b50915091506111ee8683836111f8565b9695505050505050565b60608261120d5761120882611254565b6101d7565b815115801561122457506001600160a01b0384163b155b1561124d57604051639996b31560e01b81526001600160a01b0385166004820152602401610af4565b50806101d7565b8051156112645780518082602001fd5b604051630a12f52160e11b815260040160405180910390fd5b600060e0828403121561128f57600080fd5b50919050565b6000602082840312156112a757600080fd5b81356001600160401b038111156112bd57600080fd5b6112c98482850161127d565b949350505050565b80356001600160a01b03811681146105a057600080fd5b6000602082840312156112fa57600080fd5b6101d7826112d1565b80356001600160401b03811681146105a057600080fd5b60006020828403121561132c57600080fd5b6101d782611303565b6000806040838503121561134857600080fd5b82356001600160401b0381111561135e57600080fd5b61136a8582860161127d565b92505060208301356001600160401b0381111561138657600080fd5b8301610100818603121561139957600080fd5b809150509250929050565b600080604083850312156113b757600080fd5b6113c0836112d1565b946020939093013593505050565b6000808335601e198436030181126113e557600080fd5b8301803591506001600160401b038211156113ff57600080fd5b6020019150600681901b3603821315610bd857600080fd5b634e487b7160e01b600052603260045260246000fd5b634e487b7160e01b600052601160045260246000fd5b60008261146057634e487b7160e01b600052601260045260246000fd5b500490565b808201808211156103775761037761142d565b600081518084526020840193506020830160005b828110156114bf57815180516001600160a01b03168752602090810151818801526040909601959091019060010161148c565b5093949350505050565b6000600182106114e957634e487b7160e01b600052602160045260246000fd5b50815260200190565b600081518084526020840193506020830160005b828110156114bf576115198683516114c9565b955060209190910190600101611506565b60005b8381101561154557818101518382015260200161152d565b50506000910152565b6000815180845261156681602086016020860161152a565b601f01601f19169290920160200192915050565b80516001600160401b03168252600060208201516115a360208501826001600160401b03169052565b5060408201516115be60408501826001600160a01b03169052565b5060608201516115d960608501826001600160a01b03169052565b50608082015161010060808501526115f5610100850182611478565b905060a083015184820360a086015261160e82826114f2565b91505060c083015184820360c0860152611628828261154e565b91505060e083015184820360e0860152611642828261154e565b95945050505050565b60608152600061165e606083018661157a565b6020830194909452506001600160a01b0391909116604090910152919050565b6020815260006101d7602083018461157a565b6000808335601e198436030181126116a857600080fd5b8301803591506001600160401b038211156116c257600080fd5b602001915036819003821315610bd857600080fd5b634e487b7160e01b600052604160045260246000fd5b604051601f8201601f191681016001600160401b0381118282101715611715576117156116d7565b604052919050565b6000604082840312801561173057600080fd5b50604080519081016001600160401b0381118282101715611753576117536116d7565b60405261175f836112d1565b81526020928301359281019290925250919050565b6000808335601e1984360301811261178b57600080fd5b8301803591506001600160401b038211156117a557600080fd5b6020019150600581901b3603821315610bd857600080fd5b60ff81811683821601908111156103775761037761142d565b60006001600160401b038211156117ef576117ef6116d7565b5060051b60200190565b600082601f83011261180a57600080fd5b813561181d611818826117d6565b6116ed565b8082825260208201915060208360051b86010192508583111561183f57600080fd5b602085015b8381101561185c578035835260209283019201611844565b5095945050505050565b600082601f83011261187757600080fd5b8135611885611818826117d6565b8082825260208201915060208360051b8601019250858311156118a757600080fd5b602085015b8381101561185c5780356001600160401b038111156118ca57600080fd5b8601603f810188136118db57600080fd5b60208101356001600160401b038111156118f7576118f76116d7565b61190a601f8201601f19166020016116ed565b8181526040838301018a101561191f57600080fd5b816040840160208301376000602083830101528086525050506020830192506020810190506118ac565b600080600080600060a0868803121561196157600080fd5b85356001600160401b0381111561197757600080fd5b611983888289016117f9565b95505060208601356001600160401b0381111561199f57600080fd5b6119ab88828901611866565b94505060408601356001600160401b038111156119c757600080fd5b6119d388828901611866565b93505060608601356001600160401b038111156119ef57600080fd5b6119fb88828901611866565b92505060808601356001600160401b03811115611a1757600080fd5b611a2388828901611866565b9150509295509295909350565b6000808335601e19843603018112611a4757600080fd5b83016020810192503590506001600160401b03811115611a6657600080fd5b8060061b3603821315610bd857600080fd5b81835260208301925060008160005b848110156114bf576001600160a01b03611aa0836112d1565b1686526020828101359087015260409586019590910190600101611a87565b6000808335601e19843603018112611ad657600080fd5b83016020810192503590506001600160401b03811115611af557600080fd5b8060051b3603821315610bd857600080fd5b81835260208301925060008160005b848110156114bf57813560018110611b2d57600080fd5b611b3787826114c9565b96505060209190910190600101611b16565b6000808335601e19843603018112611b6057600080fd5b83016020810192503590506001600160401b03811115611b7f57600080fd5b803603821315610bd857600080fd5b81835281816020850137506000828201602090810191909152601f909101601f19169091010190565b611bd182611bc483611303565b6001600160401b03169052565b6000611bdf60208301611303565b6001600160401b03166020840152611bf9604083016112d1565b6001600160a01b03166040840152611c13606083016112d1565b6001600160a01b03166060840152611c2e6080830183611a30565b6101006080860152611c4561010086018284611a78565b915050611c5560a0840184611abf565b85830360a0870152611c68838284611b07565b92505050611c7960c0840184611b49565b85830360c0870152611c8c838284611b8e565b92505050611c9d60e0840184611b49565b85830360e08701526111ee838284611b8e565b8281526040602082015260006112c96040830184611bb7565b60006020828403128015611cdc57600080fd5b50604051602081016001600160401b0381118282101715611cff57611cff6116d7565b604052823563ffffffff81168114611d1657600080fd5b81529392505050565b838152604060208201526000611642604083018486611b8e565b60008251611d4b81846020870161152a565b9190910192915050565b6020815260006101d7602083018461154e565b6020815260006101d76020830184611bb7565b8183823760009101908152919050565b828152606082602083013760800192915050565b600060208284031215611db157600080fd5b815180151581146101d757600080fdfea264697066735822122011a9d15d7d3981e72d77e3010b12005da94c437c32c31a05b5453c868ebf062464736f6c634300081c0033",
  "linkReferences": {},
  "deployedLinkReferences": {}
}