{
  "_format": "hh-sol-artifact-1",
  "contractName": "ConceroRouter",
  "sourceName": "contracts/ConceroRouter/ConceroRouter.sol",
  "abi": [
    {
      "inputs": [
        {
          "internalType": "address",
          "name": "usdc",
          "type": "address"
        },
        {
          "internalType": "uint64",
          "name": "chainSelector",
          "type": "uint64"
        },
        {
          "internalType": "address",
          "name": "_owner",
          "type": "address"
        },
        {
          "internalType": "address",
          "name": "clfDonSigner_0",
          "type": "address"
        },
        {
          "internalType": "address",
          "name": "clfDonSigner_1",
          "type": "address"
        },
        {
          "internalType": "address",
          "name": "clfDonSigner_2",
          "type": "address"
        },
        {
          "internalType": "address",
          "name": "clfDonSigner_3",
          "type": "address"
        }
      ],
      "stateMutability": "nonpayable",
      "type": "constructor"
    },
    {
      "inputs": [
        {
          "internalType": "address",
          "name": "target",
          "type": "address"
        }
      ],
      "name": "AddressEmptyCode",
      "type": "error"
    },
    {
      "inputs": [
        {
          "internalType": "address",
          "name": "account",
          "type": "address"
        }
      ],
      "name": "AddressInsufficientBalance",
      "type": "error"
    },
    {
      "inputs": [
        {
          "internalType": "address",
          "name": "signer",
          "type": "address"
        }
      ],
      "name": "DuplicateSignatureDetected",
      "type": "error"
    },
    {
      "inputs": [],
      "name": "FailedInnerCall",
      "type": "error"
    },
    {
      "inputs": [
        {
          "internalType": "uint256",
          "name": "expected",
          "type": "uint256"
        },
        {
          "internalType": "uint256",
          "name": "received",
          "type": "uint256"
        }
      ],
      "name": "IncorrectNumberOfSignatures",
      "type": "error"
    },
    {
      "inputs": [],
      "name": "InsufficientFee",
      "type": "error"
    },
    {
      "inputs": [],
      "name": "InvalidSignature",
      "type": "error"
    },
    {
      "inputs": [],
      "name": "MismatchedSignatureArrays",
      "type": "error"
    },
    {
      "inputs": [],
      "name": "OnlyAllowedOperator",
      "type": "error"
    },
    {
      "inputs": [],
      "name": "OnlyOwner",
      "type": "error"
    },
    {
      "inputs": [
        {
          "internalType": "address",
          "name": "token",
          "type": "address"
        }
      ],
      "name": "SafeERC20FailedOperation",
      "type": "error"
    },
    {
      "inputs": [
        {
          "internalType": "address",
          "name": "signer",
          "type": "address"
        }
      ],
      "name": "UnauthorizedSigner",
      "type": "error"
    },
    {
      "inputs": [],
      "name": "UnsupportedFeeToken",
      "type": "error"
    },
    {
      "anonymous": false,
      "inputs": [
        {
          "indexed": true,
          "internalType": "bytes32",
          "name": "id",
          "type": "bytes32"
        },
        {
          "components": [
            {
              "internalType": "uint64",
              "name": "srcChainSelector",
              "type": "uint64"
            },
            {
              "internalType": "uint64",
              "name": "dstChainSelector",
              "type": "uint64"
            },
            {
              "internalType": "address",
              "name": "receiver",
              "type": "address"
            },
            {
              "internalType": "address",
              "name": "sender",
              "type": "address"
            },
            {
              "components": [
                {
                  "internalType": "address",
                  "name": "token",
                  "type": "address"
                },
                {
                  "internalType": "uint256",
                  "name": "amount",
                  "type": "uint256"
                }
              ],
              "internalType": "struct IMessage.TokenAmount[]",
              "name": "tokenAmounts",
              "type": "tuple[]"
            },
            {
              "internalType": "enum IMessage.Relayer[]",
              "name": "relayers",
              "type": "uint8[]"
            },
            {
              "internalType": "bytes",
              "name": "data",
              "type": "bytes"
            },
            {
              "internalType": "bytes",
              "name": "extraArgs",
              "type": "bytes"
            }
          ],
          "indexed": false,
          "internalType": "struct IMessage.Message",
          "name": "message",
          "type": "tuple"
        }
      ],
      "name": "NewMessage",
      "type": "event"
    },
    {
      "anonymous": false,
      "inputs": [
        {
          "indexed": true,
          "internalType": "bytes32",
          "name": "requestId",
          "type": "bytes32"
        },
        {
          "indexed": false,
          "internalType": "bytes",
          "name": "result",
          "type": "bytes"
        },
        {
          "indexed": false,
          "internalType": "bytes",
          "name": "error",
          "type": "bytes"
        },
        {
          "indexed": false,
          "internalType": "bytes",
          "name": "metadata",
          "type": "bytes"
        },
        {
          "indexed": false,
          "internalType": "bytes",
          "name": "offchainMetadata",
          "type": "bytes"
        }
      ],
      "name": "ReportProcessed",
      "type": "event"
    },
    {
      "inputs": [
        {
          "internalType": "address",
          "name": "operator",
          "type": "address"
        }
      ],
      "name": "deregisterOperator",
      "outputs": [],
      "stateMutability": "payable",
      "type": "function"
    },
    {
      "inputs": [
        {
          "internalType": "address",
          "name": "feeToken",
          "type": "address"
        }
      ],
      "name": "getMessageFee",
      "outputs": [
        {
          "internalType": "uint256",
          "name": "",
          "type": "uint256"
        }
      ],
      "stateMutability": "view",
      "type": "function"
    },
    {
      "inputs": [
        {
          "internalType": "uint64",
          "name": "chainSelector",
          "type": "uint64"
        }
      ],
      "name": "isChainSupported",
      "outputs": [
        {
          "internalType": "bool",
          "name": "",
          "type": "bool"
        }
      ],
      "stateMutability": "view",
      "type": "function"
    },
    {
      "inputs": [
        {
          "internalType": "address",
          "name": "operator",
          "type": "address"
        }
      ],
      "name": "registerOperator",
      "outputs": [],
      "stateMutability": "payable",
      "type": "function"
    },
    {
      "inputs": [
        {
          "components": [
            {
              "internalType": "address",
              "name": "feeToken",
              "type": "address"
            },
            {
              "internalType": "uint64",
              "name": "dstChainSelector",
              "type": "uint64"
            },
            {
              "internalType": "address",
              "name": "receiver",
              "type": "address"
            },
            {
              "components": [
                {
                  "internalType": "address",
                  "name": "token",
                  "type": "address"
                },
                {
                  "internalType": "uint256",
                  "name": "amount",
                  "type": "uint256"
                }
              ],
              "internalType": "struct IMessage.TokenAmount[]",
              "name": "tokenAmounts",
              "type": "tuple[]"
            },
            {
              "internalType": "enum IMessage.Relayer[]",
              "name": "relayers",
              "type": "uint8[]"
            },
            {
              "internalType": "bytes",
              "name": "data",
              "type": "bytes"
            },
            {
              "internalType": "bytes",
              "name": "extraArgs",
              "type": "bytes"
            }
          ],
          "internalType": "struct IConceroRouter.MessageRequest",
          "name": "req",
          "type": "tuple"
        }
      ],
      "name": "sendMessage",
      "outputs": [],
      "stateMutability": "payable",
      "type": "function"
    },
    {
      "inputs": [
        {
          "internalType": "bytes32[3]",
          "name": "reportContext",
          "type": "bytes32[3]"
        },
        {
          "internalType": "bytes",
          "name": "report",
          "type": "bytes"
        },
        {
          "internalType": "bytes32[]",
          "name": "rs",
          "type": "bytes32[]"
        },
        {
          "internalType": "bytes32[]",
          "name": "ss",
          "type": "bytes32[]"
        },
        {
          "internalType": "bytes",
          "name": "rawVs",
          "type": "bytes"
        },
        {
          "components": [
            {
              "internalType": "uint64",
              "name": "srcChainSelector",
              "type": "uint64"
            },
            {
              "internalType": "uint64",
              "name": "dstChainSelector",
              "type": "uint64"
            },
            {
              "internalType": "address",
              "name": "receiver",
              "type": "address"
            },
            {
              "internalType": "address",
              "name": "sender",
              "type": "address"
            },
            {
              "components": [
                {
                  "internalType": "address",
                  "name": "token",
                  "type": "address"
                },
                {
                  "internalType": "uint256",
                  "name": "amount",
                  "type": "uint256"
                }
              ],
              "internalType": "struct IMessage.TokenAmount[]",
              "name": "tokenAmounts",
              "type": "tuple[]"
            },
            {
              "internalType": "enum IMessage.Relayer[]",
              "name": "relayers",
              "type": "uint8[]"
            },
            {
              "internalType": "bytes",
              "name": "data",
              "type": "bytes"
            },
            {
              "internalType": "bytes",
              "name": "extraArgs",
              "type": "bytes"
            }
          ],
          "internalType": "struct IMessage.Message",
          "name": "message",
          "type": "tuple"
        }
      ],
      "name": "submitMessageReport",
      "outputs": [],
      "stateMutability": "nonpayable",
      "type": "function"
    }
  ],
  "bytecode": "0x61016060405234801561001157600080fd5b506040516119553803806119558339810160408190526100309161008a565b6001600160a01b0396871660a0526001600160401b0390951660c05292851660805290841660e052831661010052821661012052166101405261011f565b80516001600160a01b038116811461008557600080fd5b919050565b600080600080600080600060e0888a0312156100a557600080fd5b6100ae8861006e565b60208901519097506001600160401b03811681146100cb57600080fd5b95506100d96040890161006e565b94506100e76060890161006e565b93506100f56080890161006e565b925061010360a0890161006e565b915061011160c0890161006e565b905092959891949750929550565b60805160a05160c05160e0516101005161012051610140516117c761018e6000396000610b7f01526000610b4301526000610b0701526000610acc015260006104920152600081816102930152818161037b01526103bf015260008181610123015261030d01526117c76000f3fe6080604052600436106100555760003560e01c80633682a4501461005a57806337f2933d1461006f5780635d3adf13146100825780636b59f7c2146100a2578063a48a9058146100d5578063d8cf98ca14610105575b600080fd5b61006d610068366004610e92565b610118565b005b61006d61007d366004610ead565b610185565b34801561008e57600080fd5b5061006d61009d366004610f9d565b610243565b3480156100ae57600080fd5b506100c26100bd366004610e92565b610278565b6040519081526020015b60405180910390f35b3480156100e157600080fd5b506100f56100f03660046110ac565b6102f1565b60405190151581526020016100cc565b61006d610113366004610e92565b610302565b336001600160a01b037f0000000000000000000000000000000000000000000000000000000000000000161461016157604051635fc483c560e01b815260040160405180910390fd5b6001600160a01b03166000908152602081905260409020805460ff19166001179055565b3360009081526020819052604090205460ff166101b557604051636586017760e01b815260040160405180910390fd5b6101ca6101c56020830183610e92565b61036c565b60006101d582610418565b905060008143336040516020016101ee93929190611298565b604051602081830303815290604052805190602001209050807f56b12b0da75729f79a2d3321f2d73a9acda0cd9f61aa8f8b6ac67b3828bb51488360405161023691906112cb565b60405180910390a2505050565b60006102508b8b8b61063c565b9050610261818989898989896106a4565b61026b8a8a61092a565b5050505050505050505050565b60006001600160a01b038216610291575061c350919050565b7f00000000000000000000000000000000000000000000000000000000000000006001600160a01b0316826001600160a01b0316036102d3575061c350919050565b60405163aa4f772360e01b815260040160405180910390fd5b919050565b60006102fc82610a47565b92915050565b336001600160a01b037f0000000000000000000000000000000000000000000000000000000000000000161461034b57604051635fc483c560e01b815260040160405180910390fd5b6001600160a01b03166000908152602081905260409020805460ff19169055565b600061037782610278565b90507f00000000000000000000000000000000000000000000000000000000000000006001600160a01b0316826001600160a01b0316036103eb576103e76001600160a01b037f000000000000000000000000000000000000000000000000000000000000000016333084610a68565b5050565b6001600160a01b0382166103e7578034146103e75760405162976f7560e21b815260040160405180910390fd5b61048460405180610100016040528060006001600160401b0316815260200160006001600160401b0316815260200160006001600160a01b0316815260200160006001600160a01b03168152602001606081526020016060815260200160608152602001606081525090565b6040518061010001604052807f00000000000000000000000000000000000000000000000000000000000000006001600160401b031681526020018360200160208101906104d291906110ac565b6001600160401b031681526020016104f06060850160408601610e92565b6001600160a01b0316815233602082015260400161051160608501856112de565b808060200260200160405190810160405280939291908181526020016000905b8282101561055d5761054e6040830286013681900381019061136d565b81526020019060010190610531565b505050918352505060200161057560808501856113c5565b808060200260200160405190810160405280939291908181526020018383602002808284376000920191909152505050908252506020016105b960a085018561140e565b8080601f01602080910402602001604051908101604052809392919081815260200183838082843760009201919091525050509082525060200161060060c085018561140e565b8080601f016020809104026020016040519081016040528093929190818152602001838380828437600092019190915250505091525092915050565b600080838360405161064f929190611454565b6040805191829003822060208084018290528835848401528801356060840152908701356080830152915060009060a00160408051601f198184030181529190528051602090910120925050505b9392505050565b84600384821480156106b557508183145b6106d2576040516363a8c60560e11b815260040160405180910390fd5b808280821461070257604051637c06f64760e11b8152600481019290925260248201526044015b60405180910390fd5b50506000826001600160401b0381111561071e5761071e611327565b604051908082528060200260200182016040528015610747578160200160208202803683370190505b50905060005b8381101561026b57600086868381811061076957610769611464565b61077b92013560f81c9050601b61147a565b905060008b8b8481811061079157610791611464565b90506020020135905060008a8a858181106107ae576107ae611464565b905060200201359050600060018f858585604051600081526020016040526040516107f5949392919093845260ff9290921660208401526040830152606082015260800190565b6020604051602081039080840390855afa158015610817573d6000803e3d6000fd5b5050604051601f1901519150506001600160a01b03811661084b57604051638baa579f60e01b815260040160405180910390fd5b60005b858110156108b957816001600160a01b031687828151811061087257610872611464565b60200260200101516001600160a01b0316141582906108b057604051630e256b9960e21b81526001600160a01b0390911660048201526024016106f9565b5060010161084e565b506108c381610ac8565b81906108ee5760405163e74c68bb60e01b81526001600160a01b0390911660048201526024016106f9565b508086868151811061090257610902611464565b6001600160a01b039092166020928302919091019091015250506001909201915061074d9050565b60008080808061093c86880188611614565b9450945094509450945060008551905060005b81811015610a3c57600087828151811061096b5761096b611464565b60200260200101519050600087838151811061098957610989611464565b6020026020010151905060008784815181106109a7576109a7611464565b6020026020010151905060008785815181106109c5576109c5611464565b6020026020010151905060008786815181106109e3576109e3611464565b60200260200101519050847fa9120b912016853eb684004b4fcb627c61bfd7d964913dbe4b7f33a32e6a133b85858585604051610a2394939291906116fb565b60405180910390a250506001909301925061094f915050565b505050505050505050565b6000610a51610bb8565b15610a5f576102fc82610c03565b6102fc82610c9a565b604080516001600160a01b0385811660248301528416604482015260648082018490528251808303909101815260849091019091526020810180516001600160e01b03166323b872dd60e01b179052610ac2908590610d0c565b50505050565b60007f00000000000000000000000000000000000000000000000000000000000000006001600160a01b0316826001600160a01b03161480610b3b57507f00000000000000000000000000000000000000000000000000000000000000006001600160a01b0316826001600160a01b0316145b80610b7757507f00000000000000000000000000000000000000000000000000000000000000006001600160a01b0316826001600160a01b0316145b806102fc57507f00000000000000000000000000000000000000000000000000000000000000006001600160a01b0316826001600160a01b03161492915050565b6000466001811480610bcb575061210581145b80610bd7575061a86a81145b80610be3575061a4b181145b80610bee5750608981145b15610bfb57600191505090565b600091505090565b60006001600160401b0382166744ae84d8e9a374441480610c3457506001600160401b03821667dda641cfe44aff82145b80610c4f57506001600160401b03821667383a1891ae1915b1145b80610c6a57506001600160401b03821667594862ae1802b3d5145b80610c8557506001600160401b0382166733d343f77863cab8145b15610c9257506001919050565b506000919050565b60006001600160401b03821667304611b6affba76a1480610ccb57506001600160401b038216678f90b8876dee6538145b80610ce657506001600160401b0382166748810ec3e431431f145b80610c8557506001600160401b03821667e1f4423f1bf587cd03610c9257506001919050565b6000610d216001600160a01b03841683610d74565b90508051600014158015610d46575080806020019051810190610d449190611753565b155b15610d6f57604051635274afe760e01b81526001600160a01b03841660048201526024016106f9565b505050565b606061069d8383600084600080856001600160a01b03168486604051610d9a9190611775565b60006040518083038185875af1925050503d8060008114610dd7576040519150601f19603f3d011682016040523d82523d6000602084013e610ddc565b606091505b5091509150610dec868383610df6565b9695505050505050565b606082610e0b57610e0682610e52565b61069d565b8151158015610e2257506001600160a01b0384163b155b15610e4b57604051639996b31560e01b81526001600160a01b03851660048201526024016106f9565b508061069d565b805115610e625780518082602001fd5b604051630a12f52160e11b815260040160405180910390fd5b80356001600160a01b03811681146102ec57600080fd5b600060208284031215610ea457600080fd5b61069d82610e7b565b600060208284031215610ebf57600080fd5b81356001600160401b03811115610ed557600080fd5b820160e0818503121561069d57600080fd5b80606081018310156102fc57600080fd5b60008083601f840112610f0a57600080fd5b5081356001600160401b03811115610f2157600080fd5b602083019150836020828501011115610f3957600080fd5b9250929050565b60008083601f840112610f5257600080fd5b5081356001600160401b03811115610f6957600080fd5b6020830191508360208260051b8501011115610f3957600080fd5b60006101008284031215610f9757600080fd5b50919050565b6000806000806000806000806000806101008b8d031215610fbd57600080fd5b610fc78c8c610ee7565b995060608b01356001600160401b03811115610fe257600080fd5b610fee8d828e01610ef8565b909a5098505060808b01356001600160401b0381111561100d57600080fd5b6110198d828e01610f40565b90985096505060a08b01356001600160401b0381111561103857600080fd5b6110448d828e01610f40565b90965094505060c08b01356001600160401b0381111561106357600080fd5b61106f8d828e01610ef8565b90945092505060e08b01356001600160401b0381111561108e57600080fd5b61109a8d828e01610f84565b9150509295989b9194979a5092959850565b6000602082840312156110be57600080fd5b81356001600160401b038116811461069d57600080fd5b600081518084526020840193506020830160005b8281101561111c57815180516001600160a01b0316875260209081015181880152604090960195909101906001016110e9565b5093949350505050565b600081518084526020840193506020830160005b8281101561111c5781516001811061116257634e487b7160e01b600052602160045260246000fd5b8652602095860195919091019060010161113a565b60005b8381101561119257818101518382015260200161117a565b50506000910152565b600081518084526111b3816020860160208601611177565b601f01601f19169290920160200192915050565b80516001600160401b03168252600060208201516111f060208501826001600160401b03169052565b50604082015161120b60408501826001600160a01b03169052565b50606082015161122660608501826001600160a01b03169052565b50608082015161010060808501526112426101008501826110d5565b905060a083015184820360a086015261125b8282611126565b91505060c083015184820360c0860152611275828261119b565b91505060e083015184820360e086015261128f828261119b565b95945050505050565b6060815260006112ab60608301866111c7565b6020830194909452506001600160a01b0391909116604090910152919050565b60208152600061069d60208301846111c7565b6000808335601e198436030181126112f557600080fd5b8301803591506001600160401b0382111561130f57600080fd5b6020019150600681901b3603821315610f3957600080fd5b634e487b7160e01b600052604160045260246000fd5b604051601f8201601f191681016001600160401b038111828210171561136557611365611327565b604052919050565b6000604082840312801561138057600080fd5b50604080519081016001600160401b03811182821017156113a3576113a3611327565b6040526113af83610e7b565b8152602083013560208201528091505092915050565b6000808335601e198436030181126113dc57600080fd5b8301803591506001600160401b038211156113f657600080fd5b6020019150600581901b3603821315610f3957600080fd5b6000808335601e1984360301811261142557600080fd5b8301803591506001600160401b0382111561143f57600080fd5b602001915036819003821315610f3957600080fd5b8183823760009101908152919050565b634e487b7160e01b600052603260045260246000fd5b60ff81811683821601908111156102fc57634e487b7160e01b600052601160045260246000fd5b60006001600160401b038211156114ba576114ba611327565b5060051b60200190565b600082601f8301126114d557600080fd5b81356114e86114e3826114a1565b61133d565b8082825260208201915060208360051b86010192508583111561150a57600080fd5b602085015b8381101561152757803583526020928301920161150f565b5095945050505050565b600082601f83011261154257600080fd5b81356115506114e3826114a1565b8082825260208201915060208360051b86010192508583111561157257600080fd5b602085015b838110156115275780356001600160401b0381111561159557600080fd5b8601603f810188136115a657600080fd5b60208101356001600160401b038111156115c2576115c2611327565b6115d5601f8201601f191660200161133d565b8181526040838301018a10156115ea57600080fd5b81604084016020830137600060208383010152808652505050602083019250602081019050611577565b600080600080600060a0868803121561162c57600080fd5b85356001600160401b0381111561164257600080fd5b61164e888289016114c4565b95505060208601356001600160401b0381111561166a57600080fd5b61167688828901611531565b94505060408601356001600160401b0381111561169257600080fd5b61169e88828901611531565b93505060608601356001600160401b038111156116ba57600080fd5b6116c688828901611531565b92505060808601356001600160401b038111156116e257600080fd5b6116ee88828901611531565b9150509295509295909350565b60808152600061170e608083018761119b565b8281036020840152611720818761119b565b90508281036040840152611734818661119b565b90508281036060840152611748818561119b565b979650505050505050565b60006020828403121561176557600080fd5b8151801515811461069d57600080fd5b60008251611787818460208701611177565b919091019291505056fea2646970667358221220b04c888a564e9557552989becda6a887c9d234c091bbeeb2820a7845e79da58364736f6c634300081c0033",
  "linkReferences": {},
  "deployedLinkReferences": {}
}