{
  "_format": "hh-sol-artifact-1",
  "contractName": "ConceroRouter",
  "sourceName": "contracts/ConceroRouter/ConceroRouter.sol",
  "abi": [
    {
      "inputs": [
        {
          "internalType": "uint24",
          "name": "chainSelector",
          "type": "uint24"
        },
        {
          "internalType": "address",
          "name": "feedUpdater",
          "type": "address"
        },
        {
          "internalType": "address",
          "name": "conceroVerifier",
          "type": "address"
        },
        {
          "internalType": "uint64",
          "name": "conceroVerifierSubId",
          "type": "uint64"
        },
        {
          "internalType": "address[4]",
          "name": "clfSigners",
          "type": "address[4]"
        }
      ],
      "stateMutability": "nonpayable",
      "type": "constructor"
    },
    {
      "inputs": [
        {
          "internalType": "address",
          "name": "signer",
          "type": "address"
        }
      ],
      "name": "DuplicateSignatureDetected",
      "type": "error"
    },
    {
      "inputs": [],
      "name": "FinalityNotYetSupported",
      "type": "error"
    },
    {
      "inputs": [],
      "name": "IncorrectNumberOfSignatures",
      "type": "error"
    },
    {
      "inputs": [
        {
          "internalType": "uint256",
          "name": "provided",
          "type": "uint256"
        },
        {
          "internalType": "uint256",
          "name": "required",
          "type": "uint256"
        }
      ],
      "name": "InsufficientFee",
      "type": "error"
    },
    {
      "inputs": [],
      "name": "InvalidAmount",
      "type": "error"
    },
    {
      "inputs": [],
      "name": "InvalidClfReportClient",
      "type": "error"
    },
    {
      "inputs": [],
      "name": "InvalidClfReportSubscriptionId",
      "type": "error"
    },
    {
      "inputs": [
        {
          "internalType": "uint24",
          "name": "dstChainSelector",
          "type": "uint24"
        }
      ],
      "name": "InvalidDstChainSelector",
      "type": "error"
    },
    {
      "inputs": [],
      "name": "InvalidGasLimit",
      "type": "error"
    },
    {
      "inputs": [],
      "name": "InvalidMessageHashSum",
      "type": "error"
    },
    {
      "inputs": [],
      "name": "InvalidNamespace",
      "type": "error"
    },
    {
      "inputs": [],
      "name": "InvalidReceiver",
      "type": "error"
    },
    {
      "inputs": [],
      "name": "LengthMismatch",
      "type": "error"
    },
    {
      "inputs": [
        {
          "internalType": "bytes32",
          "name": "messageId",
          "type": "bytes32"
        }
      ],
      "name": "MessageAlreadyProcessed",
      "type": "error"
    },
    {
      "inputs": [
        {
          "internalType": "bytes32",
          "name": "messageId",
          "type": "bytes32"
        }
      ],
      "name": "MessageDeliveryFailed",
      "type": "error"
    },
    {
      "inputs": [],
      "name": "MessageTooLarge",
      "type": "error"
    },
    {
      "inputs": [
        {
          "internalType": "enum CommonErrors.RequiredVariableUnsetType",
          "name": "variableType",
          "type": "uint8"
        }
      ],
      "name": "RequiredVariableUnset",
      "type": "error"
    },
    {
      "inputs": [
        {
          "internalType": "address",
          "name": "token",
          "type": "address"
        }
      ],
      "name": "SafeERC20FailedOperation",
      "type": "error"
    },
    {
      "inputs": [],
      "name": "TransferFailed",
      "type": "error"
    },
    {
      "inputs": [],
      "name": "Unauthorized",
      "type": "error"
    },
    {
      "inputs": [],
      "name": "UnauthorizedOperator",
      "type": "error"
    },
    {
      "inputs": [
        {
          "internalType": "address",
          "name": "signer",
          "type": "address"
        }
      ],
      "name": "UnauthorizedSigner",
      "type": "error"
    },
    {
      "inputs": [
        {
          "internalType": "uint24",
          "name": "chainSelector",
          "type": "uint24"
        }
      ],
      "name": "UnsupportedChainSelector",
      "type": "error"
    },
    {
      "inputs": [],
      "name": "UnsupportedFeeTokenType",
      "type": "error"
    },
    {
      "anonymous": false,
      "inputs": [
        {
          "indexed": true,
          "internalType": "bytes32",
          "name": "id",
          "type": "bytes32"
        }
      ],
      "name": "ConceroMessageDelivered",
      "type": "event"
    },
    {
      "anonymous": false,
      "inputs": [
        {
          "indexed": true,
          "internalType": "bytes32",
          "name": "id",
          "type": "bytes32"
        }
      ],
      "name": "ConceroMessageReceived",
      "type": "event"
    },
    {
      "anonymous": false,
      "inputs": [
        {
          "indexed": true,
          "internalType": "bytes32",
          "name": "messageId",
          "type": "bytes32"
        },
        {
          "indexed": false,
          "internalType": "uint8",
          "name": "version",
          "type": "uint8"
        },
        {
          "indexed": false,
          "internalType": "bool",
          "name": "shouldFinaliseSrc",
          "type": "bool"
        },
        {
          "indexed": false,
          "internalType": "uint24",
          "name": "dstChainSelector",
          "type": "uint24"
        },
        {
          "indexed": false,
          "internalType": "bytes",
          "name": "dstChainData",
          "type": "bytes"
        },
        {
          "indexed": false,
          "internalType": "address",
          "name": "sender",
          "type": "address"
        },
        {
          "indexed": false,
          "internalType": "bytes",
          "name": "message",
          "type": "bytes"
        }
      ],
      "name": "ConceroMessageSent",
      "type": "event"
    },
    {
      "anonymous": false,
      "inputs": [
        {
          "indexed": true,
          "internalType": "address",
          "name": "operator",
          "type": "address"
        },
        {
          "indexed": false,
          "internalType": "uint256",
          "name": "amount",
          "type": "uint256"
        }
      ],
      "name": "OperatorFeeWithdrawn",
      "type": "event"
    },
    {
      "stateMutability": "payable",
      "type": "fallback"
    },
    {
      "inputs": [
        {
          "internalType": "uint24",
          "name": "dstChainSelector",
          "type": "uint24"
        },
        {
          "internalType": "bool",
          "name": "shouldFinaliseSrc",
          "type": "bool"
        },
        {
          "internalType": "address",
          "name": "feeToken",
          "type": "address"
        },
        {
          "components": [
            {
              "internalType": "address",
              "name": "receiver",
              "type": "address"
            },
            {
              "internalType": "uint256",
              "name": "gasLimit",
              "type": "uint256"
            }
          ],
          "internalType": "struct ConceroTypes.EvmDstChainData",
          "name": "dstChainData",
          "type": "tuple"
        },
        {
          "internalType": "bytes",
          "name": "message",
          "type": "bytes"
        }
      ],
      "name": "conceroSend",
      "outputs": [
        {
          "internalType": "bytes32",
          "name": "",
          "type": "bytes32"
        }
      ],
      "stateMutability": "payable",
      "type": "function"
    },
    {
      "inputs": [
        {
          "internalType": "address",
          "name": "operator",
          "type": "address"
        }
      ],
      "name": "getCohort",
      "outputs": [
        {
          "internalType": "uint8",
          "name": "",
          "type": "uint8"
        }
      ],
      "stateMutability": "view",
      "type": "function"
    },
    {
      "inputs": [
        {
          "internalType": "uint24",
          "name": "dstChainSelector",
          "type": "uint24"
        },
        {
          "internalType": "bool",
          "name": "shouldFinaliseSrc",
          "type": "bool"
        },
        {
          "internalType": "address",
          "name": "feeToken",
          "type": "address"
        },
        {
          "components": [
            {
              "internalType": "address",
              "name": "receiver",
              "type": "address"
            },
            {
              "internalType": "uint256",
              "name": "gasLimit",
              "type": "uint256"
            }
          ],
          "internalType": "struct ConceroTypes.EvmDstChainData",
          "name": "dstChainData",
          "type": "tuple"
        }
      ],
      "name": "getMessageFee",
      "outputs": [
        {
          "internalType": "uint256",
          "name": "",
          "type": "uint256"
        }
      ],
      "stateMutability": "view",
      "type": "function"
    },
    {
      "inputs": [],
      "name": "getMessageVersion",
      "outputs": [
        {
          "internalType": "uint8",
          "name": "",
          "type": "uint8"
        }
      ],
      "stateMutability": "pure",
      "type": "function"
    },
    {
      "inputs": [
        {
          "internalType": "bytes32",
          "name": "namespace",
          "type": "bytes32"
        },
        {
          "internalType": "uint256",
          "name": "offset",
          "type": "uint256"
        },
        {
          "internalType": "bytes32",
          "name": "mappingKey",
          "type": "bytes32"
        }
      ],
      "name": "getStorage",
      "outputs": [
        {
          "internalType": "uint256",
          "name": "",
          "type": "uint256"
        }
      ],
      "stateMutability": "view",
      "type": "function"
    },
    {
      "inputs": [],
      "name": "getWithdrawableConceroFee",
      "outputs": [
        {
          "internalType": "uint256",
          "name": "",
          "type": "uint256"
        }
      ],
      "stateMutability": "view",
      "type": "function"
    },
    {
      "inputs": [],
      "name": "i_owner",
      "outputs": [
        {
          "internalType": "address",
          "name": "",
          "type": "address"
        }
      ],
      "stateMutability": "view",
      "type": "function"
    },
    {
      "inputs": [
        {
          "internalType": "uint24",
          "name": "chainSelector",
          "type": "uint24"
        }
      ],
      "name": "isChainSupported",
      "outputs": [
        {
          "internalType": "bool",
          "name": "",
          "type": "bool"
        }
      ],
      "stateMutability": "view",
      "type": "function"
    },
    {
      "inputs": [
        {
          "internalType": "uint24[]",
          "name": "dstChainSelectors",
          "type": "uint24[]"
        },
        {
          "internalType": "uint256[]",
          "name": "gasPrices",
          "type": "uint256[]"
        }
      ],
      "name": "setLastGasPrices",
      "outputs": [],
      "stateMutability": "nonpayable",
      "type": "function"
    },
    {
      "inputs": [
        {
          "internalType": "uint24[]",
          "name": "dstChainSelectors",
          "type": "uint24[]"
        },
        {
          "internalType": "uint256[]",
          "name": "rates",
          "type": "uint256[]"
        }
      ],
      "name": "setNativeNativeRates",
      "outputs": [],
      "stateMutability": "nonpayable",
      "type": "function"
    },
    {
      "inputs": [
        {
          "internalType": "uint256",
          "name": "amount",
          "type": "uint256"
        }
      ],
      "name": "setNativeUsdRate",
      "outputs": [],
      "stateMutability": "nonpayable",
      "type": "function"
    },
    {
      "inputs": [
        {
          "internalType": "bytes32",
          "name": "namespace",
          "type": "bytes32"
        },
        {
          "internalType": "uint256",
          "name": "offset",
          "type": "uint256"
        },
        {
          "internalType": "bytes32",
          "name": "mappingKey",
          "type": "bytes32"
        },
        {
          "internalType": "uint256",
          "name": "value",
          "type": "uint256"
        }
      ],
      "name": "setStorage",
      "outputs": [],
      "stateMutability": "nonpayable",
      "type": "function"
    },
    {
      "inputs": [
        {
          "internalType": "bytes32[]",
          "name": "namespaces",
          "type": "bytes32[]"
        },
        {
          "internalType": "uint256[]",
          "name": "offsets",
          "type": "uint256[]"
        },
        {
          "internalType": "bytes32[]",
          "name": "mappingKeys",
          "type": "bytes32[]"
        },
        {
          "internalType": "uint256[]",
          "name": "values",
          "type": "uint256[]"
        }
      ],
      "name": "setStorageBulk",
      "outputs": [],
      "stateMutability": "nonpayable",
      "type": "function"
    },
    {
      "inputs": [
        {
          "internalType": "uint24[]",
          "name": "chainSelectors",
          "type": "uint24[]"
        },
        {
          "internalType": "bool[]",
          "name": "isSupported",
          "type": "bool[]"
        }
      ],
      "name": "setSupportedChains",
      "outputs": [],
      "stateMutability": "nonpayable",
      "type": "function"
    },
    {
      "inputs": [
        {
          "components": [
            {
              "internalType": "bytes32[3]",
              "name": "context",
              "type": "bytes32[3]"
            },
            {
              "internalType": "bytes",
              "name": "report",
              "type": "bytes"
            },
            {
              "internalType": "bytes32[]",
              "name": "rs",
              "type": "bytes32[]"
            },
            {
              "internalType": "bytes32[]",
              "name": "ss",
              "type": "bytes32[]"
            },
            {
              "internalType": "bytes",
              "name": "rawVs",
              "type": "bytes"
            }
          ],
          "internalType": "struct Types.ClfDonReportSubmission",
          "name": "reportSubmission",
          "type": "tuple"
        },
        {
          "internalType": "bytes",
          "name": "messageBody",
          "type": "bytes"
        }
      ],
      "name": "submitMessageReport",
      "outputs": [],
      "stateMutability": "nonpayable",
      "type": "function"
    },
    {
      "inputs": [
        {
          "internalType": "address[]",
          "name": "tokens",
          "type": "address[]"
        },
        {
          "internalType": "uint256[]",
          "name": "amounts",
          "type": "uint256[]"
        }
      ],
      "name": "withdrawConceroFees",
      "outputs": [],
      "stateMutability": "nonpayable",
      "type": "function"
    },
    {
      "inputs": [
        {
          "internalType": "uint256",
          "name": "amount",
          "type": "uint256"
        }
      ],
      "name": "withdrawOperatorFee",
      "outputs": [
        {
          "internalType": "bool",
          "name": "success",
          "type": "bool"
        }
      ],
      "stateMutability": "nonpayable",
      "type": "function"
    },
    {
      "stateMutability": "payable",
      "type": "receive"
    }
  ],
  "bytecode": "0x6101a060405234801561001157600080fd5b5060405161324b38038061324b833981016040819052610030916100c0565b3360805262ffffff9490941660a05283516001600160a01b0390811660c0526020850151811660e0526040850151811661010052606090940151841661012052908316610140526001600160401b03166101605216610180526101a3565b80516001600160a01b03811681146100a557600080fd5b919050565b634e487b7160e01b600052604160045260246000fd5b600080600080600061010086880312156100d957600080fd5b855162ffffff811681146100ec57600080fd5b94506100fa6020870161008e565b93506101086040870161008e565b60608701519093506001600160401b038116811461012557600080fd5b9150609f8601871361013657600080fd5b604051608081016001600160401b0381118282101715610158576101586100aa565b6040528061010088018981111561016e57600080fd5b608089015b81811015610192576101848161008e565b835260209283019201610173565b505050809150509295509295909350565b60805160a05160c05160e0516101005161012051610140516101605161018051612fe46102676000396000818161050101528181610ac50152610e7401526000611838015260006117e201526000611d1301526000611cd701526000611c9b01526000611c600152600081816113f2015261191f0152600081816102d601528181610533015281816106a1015281816107d90152818161087e0152818161097101528181610af701528181610c6001528181610ceb0152610ea60152612fe46000f3fe6080604052600436106100f55760003560e01c8063a73bc9c71161008f578063cea34c9a11610061578063cea34c9a1461028f578063d1053131146102af578063dba6335f146102c4578063e45700ff14610310578063e716afde1461033057005b8063a73bc9c71461020f578063a89780591461022f578063b8b164851461024f578063b91443e71461026f57005b806350c454ab116100c857806350c454ab1461019a5780635a8733b3146101bc5780636666dd5c146101dc5780639a5d5ca9146101ef57005b80631feb291f146100f757806327e5f4421461012c5780633ae569511461014c57806348fd88ab1461017a575b005b34801561010357600080fd5b50610117610112366004612069565b610350565b60405190151581526020015b60405180910390f35b34801561013857600080fd5b50610117610147366004612093565b6104ab565b34801561015857600080fd5b5061016c6101673660046120b0565b6104d6565b604051908152602001610123565b34801561018657600080fd5b506100f5610195366004612241565b6104f6565b3480156101a657600080fd5b5060015b60405160ff9091168152602001610123565b3480156101c857600080fd5b506100f56101d7366004612355565b610696565b61016c6101ea36600461246a565b6108b6565b3480156101fb57600080fd5b506100f561020a3660046124f4565b610966565b34801561021b57600080fd5b506100f561022a366004612526565b6109c9565b34801561023b57600080fd5b506101aa61024a366004612597565b610aa7565b34801561025b57600080fd5b506100f561026a366004612241565b610aba565b34801561027b57600080fd5b506100f561028a3660046125b4565b610c55565b34801561029b57600080fd5b506100f56102aa366004612355565b610ce0565b3480156102bb57600080fd5b5061016c610de4565b3480156102d057600080fd5b506102f87f000000000000000000000000000000000000000000000000000000000000000081565b6040516001600160a01b039091168152602001610123565b34801561031c57600080fd5b5061016c61032b366004612670565b610dfe565b34801561033c57600080fd5b506100f561034b366004612069565b610e69565b60008061035b610ef1565b336000908152606591909101602052604090205490508261038f5760405163162908e360e11b815260040160405180910390fd5b8281808211156103c05760405163a458261b60e01b8152600481019290925260248201526044015b60405180910390fd5b506103cd905083826126e8565b6103d5610ef1565b3360009081526065919091016020526040902055826103f2610ef1565b80546000906104029084906126e8565b909155505060405133908490600081818185875af1925050503d8060008114610447576040519150601f19603f3d011682016040523d82523d6000602084013e61044c565b606091505b50508092505081610470576040516312171d8360e31b815260040160405180910390fd5b60405183815233907fc43e057480321c0f9aec5029e2f42bb82383abd09bc79fd2fbcb50c5071735729060200160405180910390a250919050565b60006104b5610f7e565b62ffffff909216600090815260699290920160205250604090205460ff1690565b60006104e184610fbb565b6104ec84848461116c565b90505b9392505050565b336001600160a01b037f00000000000000000000000000000000000000000000000000000000000000001614806105555750336001600160a01b037f000000000000000000000000000000000000000000000000000000000000000016145b610571576040516282b42960e81b815260040160405180910390fd5b8051825114610596576040516001621398b960e31b0319815260040160405180910390fd5b60005b8251811015610691576105aa610f7e565b60690160008483815181106105c1576105c16126fb565b602002602001015162ffffff1662ffffff16815260200190815260200160002060009054906101000a900460ff16838281518110610601576106016126fb565b60200260200101519061062f576040516310ee64f960e31b815262ffffff90911660048201526024016103b7565b50818181518110610642576106426126fb565b602002602001015161065261119c565b6065016000858481518110610669576106696126fb565b60209081029190910181015162ffffff16825281019190915260400160002055600101610599565b505050565b336001600160a01b037f000000000000000000000000000000000000000000000000000000000000000016146106de576040516282b42960e81b815260040160405180910390fd5b82811480156106ec57508215155b61070c576040516001621398b960e31b0319815260040160405180910390fd5b600080610717610de4565b905060005b858110156108ad576000878783818110610738576107386126fb565b905060200201602081019061074d9190612597565b90506000868684818110610763576107636126fb565b9050602002013590506000811161078d5760405163162908e360e11b815260040160405180910390fd5b6001600160a01b03821661086f576107a58186612711565b94508484808211156107d35760405163a458261b60e01b8152600481019290925260248201526044016103b7565b505060007f00000000000000000000000000000000000000000000000000000000000000006001600160a01b03168260405160006040518083038185875af1925050503d8060008114610842576040519150601f19603f3d011682016040523d82523d6000602084013e610847565b606091505b5050905080610869576040516312171d8360e31b815260040160405180910390fd5b506108a3565b6108a36001600160a01b0383167f0000000000000000000000000000000000000000000000000000000000000000836111d9565b505060010161071c565b50505050505050565b60006108c687878787878761122b565b6108d1878686611312565b60006108dc886113a9565b9050807f1b2c7119df1fb41a1d1e38a61a000a0ef02c906e96988cf02cf497c05cd8a0e16001898b89604051602001610930919081516001600160a01b031681526020918201519181019190915260400190565b60408051601f19818403018152908290526109539493929133908c908c90612774565b60405180910390a2979650505050505050565b336001600160a01b037f000000000000000000000000000000000000000000000000000000000000000016146109ae576040516282b42960e81b815260040160405180910390fd5b6109b784610fbb565b6109c384848484611451565b50505050565b6109d283611479565b60006109e96109e460608601866127e9565b611786565b905060008160600151600081518110610a0457610a046126fb565b6020026020010151806020019051810190610a1f91906128af565b9050610a2a816117e0565b600080610a548460200151600081518110610a4757610a476126fb565b602002602001015161188c565b91509150816020015160ff166001036108ad576108ad8187878080601f0160208091040260200160405190810160405280939291908181526020018383808284376000920191909152506118c892505050565b6000610ab460018361299d565b92915050565b336001600160a01b037f0000000000000000000000000000000000000000000000000000000000000000161480610b195750336001600160a01b037f000000000000000000000000000000000000000000000000000000000000000016145b610b35576040516282b42960e81b815260040160405180910390fd5b8051825114610b5a576040516001621398b960e31b0319815260040160405180910390fd5b60005b825181101561069157610b6e610f7e565b6069016000848381518110610b8557610b856126fb565b602002602001015162ffffff1662ffffff16815260200190815260200160002060009054906101000a900460ff16838281518110610bc557610bc56126fb565b602002602001015190610bf3576040516310ee64f960e31b815262ffffff90911660048201526024016103b7565b50818181518110610c0657610c066126fb565b6020026020010151610c1661119c565b6066016000858481518110610c2d57610c2d6126fb565b60209081029190910181015162ffffff16825281019190915260400160002055600101610b5d565b336001600160a01b037f00000000000000000000000000000000000000000000000000000000000000001614610c9d576040516282b42960e81b815260040160405180910390fd5b60005b8451811015610cd357610ccb858281518110610cbe57610cbe6126fb565b6020026020010151610fbb565b600101610ca0565b506109c3848484846119fc565b336001600160a01b037f00000000000000000000000000000000000000000000000000000000000000001614610d28576040516282b42960e81b815260040160405180910390fd5b828114610d4b576040516001621398b960e31b0319815260040160405180910390fd5b60005b83811015610ddd57828282818110610d6857610d686126fb565b9050602002016020810190610d7d91906129cc565b610d85610f7e565b6069016000878785818110610d9c57610d9c6126fb565b9050602002016020810190610db19190612093565b62ffffff1681526020810191909152604001600020805460ff1916911515919091179055600101610d4e565b5050505050565b6000610dee610ef1565b54610df990476126e8565b905090565b60006001600160a01b03831615610e285760405163049f464b60e41b815260040160405180910390fd5b8315610e4757604051630f63f17560e11b815260040160405180910390fd5b610e608584610e5b368690038601866129e7565b611aa8565b95945050505050565b336001600160a01b037f0000000000000000000000000000000000000000000000000000000000000000161480610ec85750336001600160a01b037f000000000000000000000000000000000000000000000000000000000000000016145b610ee4576040516282b42960e81b815260040160405180910390fd5b80610eed61119c565b5550565b6040517f636f6e6365726f726f757465722e6f70657261746f722e73746f7261676500006020820152600090819060ff1990600190603e015b6040516020818303038152906040528051906020012060001c610f4d91906126e8565b604051602001610f5f91815260200190565b60408051601f1981840301815291905280516020909101201692915050565b6040517f636f6e6365726f726f757465722e726f757465722e73746f72616765000000006020820152600090819060ff1990600190603c01610f2a565b6040517f636f6e6365726f726f757465722e726f757465722e73746f7261676500000000602082015260ff1990600190603c016040516020818303038152906040528051906020012060001c61101191906126e8565b60405160200161102391815260200190565b60405160208183030381529060405280519060200120168114806110c457506040517f636f6e6365726f726f757465722e6f70657261746f722e73746f726167650000602082015260ff1990600190603e016040516020818303038152906040528051906020012060001c61109891906126e8565b6040516020016110aa91815260200190565b604051602081830303815290604052805190602001201681145b8061114c57506040517f636f6e6365726f726f757465722e7072696365666565642e73746f7261676500602082015260ff1990600190603f016040516020818303038152906040528051906020012060001c61112091906126e8565b60405160200161113291815260200190565b604051602081830303815290604052805190602001201681145b61116957604051630a02739760e41b815260040160405180910390fd5b50565b600081801561118d5760408051848152868601602082015220549150611194565b8484015491505b509392505050565b6040517f636f6e6365726f726f757465722e7072696365666565642e73746f72616765006020820152600090819060ff1990600190603f01610f2a565b604080516001600160a01b038416602482015260448082018490528251808303909101815260649091019091526020810180516001600160e01b031663a9059cbb60e01b179052610691908490611b81565b6001600160a01b038416156112535760405163049f464b60e41b815260040160405180910390fd5b82516001600160a01b031661127b57604051631e4ec46b60e01b815260040160405180910390fd5b60008360200151116112a0576040516304c5ed9760e51b815260040160405180910390fd5b620f424081106112c357604051636ceaf82160e01b815260040160405180910390fd5b84156112e257604051630f63f17560e11b815260040160405180910390fd5b6112eb866104ab565b86906108ad57604051630775dd4160e21b815262ffffff90911660048201526024016103b7565b600061131f848484611aa8565b90506001600160a01b0383166113905734818082101561135b5760405163a458261b60e01b8152600481019290925260248201526044016103b7565b5050604051309082156108fc029083906000818181858888f1935050505015801561138a573d6000803e3d6000fd5b506109c3565b60405163049f464b60e41b815260040160405180910390fd5b60006113b3610f7e565b80546000906113c190612a03565b9182905550604080516020810192909252439082015233606090811b6bffffffffffffffffffffffff1916908201527f000000000000000000000000000000000000000000000000000000000000000060e890811b6001600160e81b031990811660748401529084901b166077820152607a01604051602081830303815290604052805190602001209050919050565b8180156114705760408051848152868601602082015220829055610ddd565b50919092015550565b60006114918261148c60608201826127e9565b611bf2565b905060006114a26080840184612a1c565b8080602002602001604051908101604052809392919081815260200183836020028082843760009201829052509394506114e39250505060a0850185612a1c565b8080602002602001604051908101604052809392919081815260200183836020028082843760009201829052509394506115249250505060c08601866127e9565b8080601f01602080910402602001604051908101604052809392919081815260200183838082843760009201919091525050845186519394506003931491505080156115705750808451145b61158d576040516301227b8d60e11b815260040160405180910390fd5b600084516001600160401b038111156115a8576115a86120dc565b6040519080825280602002602001820160405280156115d1578160200160208202803683370190505b50905060005b855181101561177c5760008682815181106115f4576115f46126fb565b602002602001015190506000868381518110611612576116126126fb565b60200260200101519050600060018a888681518110611633576116336126fb565b01602001516116469060f81c601b612a65565b6040805160008152602081018083529390935260ff90911690820152606081018590526080810184905260a0016020604051602081039080840390855afa158015611695573d6000803e3d6000fd5b5050506020604051035190506116aa81611c46565b81906116d55760405163e74c68bb60e01b81526001600160a01b0390911660048201526024016103b7565b5060005b8481101561174457816001600160a01b03168682815181106116fd576116fd6126fb565b60200260200101516001600160a01b03161415829061173b57604051630e256b9960e21b81526001600160a01b0390911660048201526024016103b7565b506001016116d9565b5080858581518110611758576117586126fb565b6001600160a01b0392909216602092830291909101909101525050506001016115d7565b5050505050505050565b6117b86040518060a0016040528060608152602001606081526020016060815260200160608152602001606081525090565b6117c482840184612b6a565b6080860152606085015260408401526020830152815292915050565b7f00000000000000000000000000000000000000000000000000000000000000006001600160a01b031681606001516001600160a01b03161461183657604051632b6971c560e21b815260040160405180910390fd5b7f00000000000000000000000000000000000000000000000000000000000000006001600160401b031681608001516001600160401b0316146111695760405163091e4cf160e31b815260040160405180910390fd5b60408051606081018252600080825260208201819052918101919091526060828060200190518101906118bf9190612c9e565b91509150915091565b6000828060200190518101906118de9190612df6565b90506118ed8160c00151611d4c565b8180519060200120816020015114611918576040516398eac98f60e01b815260040160405180910390fd5b60808101517f000000000000000000000000000000000000000000000000000000000000000062ffffff9081169082161461196e57604051630775dd4160e21b815262ffffff90911660048201526024016103b7565b50611977610f7e565b81516000908152606691909101602052604090205481519060ff16156119b35760405163398560f160e11b81526004016103b791815260200190565b5080516040517ff67870b75d64e9a5f00100af39eb94911d9399b05f9df6d6db0cafc61128d5a490600090a261069181600001518260a001518360600151846040015186611dd0565b82518451148015611a0e575081518351145b8015611a1b575080518251145b611a3b576040516001621398b960e31b0319815260040160405180910390fd5b60005b8451811015610ddd57602081026020018501516020820260200185015160208302602001850151602084026020018501518160008114611a905760408051848152868601602082015220829055611a97565b8484018290555b505060019093019250611a3e915050565b600080611ab361119c565b5490506000611ac3606483611f4e565b90506000611acf61119c565b62ffffff881660009081526065919091016020908152604082205490870151909250611afb9083612ed9565b90506000611b0889611fb7565b90506000670de0b6b3a7640000611b1f8385612ed9565b611b299190612ef0565b90506000611b378287612711565b90506001600160a01b038a16611b555796506104ef95505050505050565b670de0b6b3a7640000611b688883612ed9565b611b729190612ef0565b9b9a5050505050505050505050565b600080602060008451602086016000885af180611ba4576040513d6000823e3d81fd5b50506000513d91508115611bbc578060011415611bc9565b6001600160a01b0384163b155b156109c357604051635274afe760e01b81526001600160a01b03851660048201526024016103b7565b6000808383604051611c05929190612f04565b6040518091039020905060008186604051602001611c24929190612f14565b60408051808303601f1901815291905280516020909101209695505050505050565b60006001600160a01b038216611c5e57506000919050565b7f00000000000000000000000000000000000000000000000000000000000000006001600160a01b0316826001600160a01b03161480611ccf57507f00000000000000000000000000000000000000000000000000000000000000006001600160a01b0316826001600160a01b0316145b80611d0b57507f00000000000000000000000000000000000000000000000000000000000000006001600160a01b0316826001600160a01b0316145b80610ab457507f00000000000000000000000000000000000000000000000000000000000000006001600160a01b0316826001600160a01b03161492915050565b6000805b8251811015611dad576000838281518110611d6d57611d6d6126fb565b6020026020010151806020019051810190611d889190612f28565b9050336001600160a01b03821603611da4576001925050611dad565b50600101611d50565b5080611dcc576040516326b9cdff60e11b815260040160405180910390fd5b5050565b6001611dda610f7e565b600087815260669190910160205260409020805460ff191691151591909117905583516001600160a01b0316611e2357604051631e4ec46b60e01b815260040160405180910390fd5b83513b611e4357604051631e4ec46b60e01b815260040160405180910390fd5b600063424ad82c60e01b86858585604051602401611e649493929190612f45565b604051602081830303815290604052906001600160e01b0319166020820180516001600160e01b03838183161783525050505090506000611eb386600001518760200151600061010086611fdf565b50905080611ed757604051630c3d362160e21b8152600481018890526024016103b7565b611eea6064611ee461119c565b54611f4e565b611ef2610ef1565b336000908152606591909101602052604081208054909190611f15908490612711565b909155505060405187907fb3f2643376154cdcc78e83cff26c3fcacf4a35a6e0107d90817d80973fa4d86090600090a250505050505050565b60008082611f705760405163c6af252960e01b81526004016103b79190612f86565b506000612710611f8c61ffff8616670de0b6b3a7640000612ed9565b611f969190612ef0565b9050600083611fad83670de0b6b3a7640000612ed9565b610e609190612ef0565b6000611fc161119c565b62ffffff909216600090815260669290920160205250604090205490565b6000606060008060008661ffff166001600160401b03811115612004576120046120dc565b6040519080825280601f01601f19166020018201604052801561202e576020820181803683370190505b5090506000808751602089018b8e8ef191503d92508683111561204f578692505b828152826000602083013e90999098509650505050505050565b60006020828403121561207b57600080fd5b5035919050565b62ffffff8116811461116957600080fd5b6000602082840312156120a557600080fd5b81356104ef81612082565b6000806000606084860312156120c557600080fd5b505081359360208301359350604090920135919050565b634e487b7160e01b600052604160045260246000fd5b604080519081016001600160401b0381118282101715612114576121146120dc565b60405290565b60405161016081016001600160401b0381118282101715612114576121146120dc565b604051606081016001600160401b0381118282101715612114576121146120dc565b60405160e081016001600160401b0381118282101715612114576121146120dc565b604051601f8201601f191681016001600160401b03811182821017156121a9576121a96120dc565b604052919050565b60006001600160401b038211156121ca576121ca6120dc565b5060051b60200190565b600082601f8301126121e557600080fd5b81356121f86121f3826121b1565b612181565b8082825260208201915060208360051b86010192508583111561221a57600080fd5b602085015b8381101561223757803583526020928301920161221f565b5095945050505050565b6000806040838503121561225457600080fd5b82356001600160401b0381111561226a57600080fd5b8301601f8101851361227b57600080fd5b80356122896121f3826121b1565b8082825260208201915060208360051b8501019250878311156122ab57600080fd5b6020840193505b828410156122d65783356122c581612082565b8252602093840193909101906122b2565b945050505060208301356001600160401b038111156122f457600080fd5b612300858286016121d4565b9150509250929050565b60008083601f84011261231c57600080fd5b5081356001600160401b0381111561233357600080fd5b6020830191508360208260051b850101111561234e57600080fd5b9250929050565b6000806000806040858703121561236b57600080fd5b84356001600160401b0381111561238157600080fd5b61238d8782880161230a565b90955093505060208501356001600160401b038111156123ac57600080fd5b6123b88782880161230a565b95989497509550505050565b803580151581146123d457600080fd5b919050565b6001600160a01b038116811461116957600080fd5b60006040828403121561240057600080fd5b6124086120f2565b90508135612415816123d9565b815260209182013591810191909152919050565b60008083601f84011261243b57600080fd5b5081356001600160401b0381111561245257600080fd5b60208301915083602082850101111561234e57600080fd5b60008060008060008060c0878903121561248357600080fd5b863561248e81612082565b955061249c602088016123c4565b945060408701356124ac816123d9565b93506124bb88606089016123ee565b925060a08701356001600160401b038111156124d657600080fd5b6124e289828a01612429565b979a9699509497509295939492505050565b6000806000806080858703121561250a57600080fd5b5050823594602084013594506040840135936060013592509050565b60008060006040848603121561253b57600080fd5b83356001600160401b0381111561255157600080fd5b840160e0818703121561256357600080fd5b925060208401356001600160401b0381111561257e57600080fd5b61258a86828701612429565b9497909650939450505050565b6000602082840312156125a957600080fd5b81356104ef816123d9565b600080600080608085870312156125ca57600080fd5b84356001600160401b038111156125e057600080fd5b6125ec878288016121d4565b94505060208501356001600160401b0381111561260857600080fd5b612614878288016121d4565b93505060408501356001600160401b0381111561263057600080fd5b61263c878288016121d4565b92505060608501356001600160401b0381111561265857600080fd5b612664878288016121d4565b91505092959194509250565b60008060008084860360a081121561268757600080fd5b853561269281612082565b94506126a0602087016123c4565b935060408601356126b0816123d9565b92506040605f19820112156126c457600080fd5b509295919450926060019150565b634e487b7160e01b600052601160045260246000fd5b81810381811115610ab457610ab46126d2565b634e487b7160e01b600052603260045260246000fd5b80820180821115610ab457610ab46126d2565b60005b8381101561273f578181015183820152602001612727565b50506000910152565b60008151808452612760816020860160208601612724565b601f01601f19169290920160200192915050565b60ff88168152861515602082015262ffffff8616604082015260c0606082015260006127a360c0830187612748565b6001600160a01b038616608084015282810360a0840152838152838560208301376000602085830101526020601f19601f86011682010191505098975050505050505050565b6000808335601e1984360301811261280057600080fd5b8301803591506001600160401b0382111561281a57600080fd5b60200191503681900382131561234e57600080fd5b80516123d4816123d9565b80516bffffffffffffffffffffffff811681146123d457600080fd5b80516001600160401b03811681146123d457600080fd5b805163ffffffff811681146123d457600080fd5b805168ffffffffffffffffff811681146123d457600080fd5b805164ffffffffff811681146123d457600080fd5b60006101608284031280156128c357600080fd5b506128cc61211a565b825181526128dc6020840161282f565b60208201526128ed6040840161283a565b60408201526128fe6060840161282f565b606082015261290f60808401612856565b608082015261292060a0840161286d565b60a082015261293160c08401612881565b60c082015261294260e08401612881565b60e0820152612954610100840161289a565b610100820152612967610120840161289a565b61012082015261297a610140840161286d565b6101408201529392505050565b634e487b7160e01b600052601260045260246000fd5b60006001600160a01b038316806129b6576129b6612987565b6001600160a01b03929092169190910692915050565b6000602082840312156129de57600080fd5b6104ef826123c4565b6000604082840312156129f957600080fd5b6104ef83836123ee565b600060018201612a1557612a156126d2565b5060010190565b6000808335601e19843603018112612a3357600080fd5b8301803591506001600160401b03821115612a4d57600080fd5b6020019150600581901b360382131561234e57600080fd5b60ff8181168382160190811115610ab457610ab46126d2565b60006001600160401b03821115612a9757612a976120dc565b50601f01601f191660200190565b600082601f830112612ab657600080fd5b8135612ac46121f3826121b1565b8082825260208201915060208360051b860101925085831115612ae657600080fd5b602085015b838110156122375780356001600160401b03811115612b0957600080fd5b8601603f81018813612b1a57600080fd5b6020810135612b2b6121f382612a7e565b8181526040838301018a1015612b4057600080fd5b81604084016020830137600060208383010152808652505050602083019250602081019050612aeb565b600080600080600060a08688031215612b8257600080fd5b85356001600160401b03811115612b9857600080fd5b612ba4888289016121d4565b95505060208601356001600160401b03811115612bc057600080fd5b612bcc88828901612aa5565b94505060408601356001600160401b03811115612be857600080fd5b612bf488828901612aa5565b93505060608601356001600160401b03811115612c1057600080fd5b612c1c88828901612aa5565b92505060808601356001600160401b03811115612c3857600080fd5b612c4488828901612aa5565b9150509295509295909350565b600082601f830112612c6257600080fd5b8151612c706121f382612a7e565b818152846020838601011115612c8557600080fd5b612c96826020830160208701612724565b949350505050565b6000808284036080811215612cb257600080fd5b6060811215612cc057600080fd5b50612cc961213d565b835160038110612cd857600080fd5b8152602084015160ff81168114612cee57600080fd5b60208201526040840151612d01816123d9565b604082015260608401519092506001600160401b03811115612d2257600080fd5b61230085828601612c51565b80516123d481612082565b600060408284031215612d4b57600080fd5b612d536120f2565b90508151612d60816123d9565b808252506020820151602082015292915050565b600082601f830112612d8557600080fd5b8151612d936121f3826121b1565b8082825260208201915060208360051b860101925085831115612db557600080fd5b602085015b838110156122375780516001600160401b03811115612dd857600080fd5b612de7886020838a0101612c51565b84525060209283019201612dba565b600060208284031215612e0857600080fd5b81516001600160401b03811115612e1e57600080fd5b82016101008185031215612e3157600080fd5b612e3961215f565b815181526020808301519082015260408201516001600160401b03811115612e6057600080fd5b612e6c86828501612c51565b604083015250612e7e60608301612d2e565b6060820152612e8f60808301612d2e565b6080820152612ea18560a08401612d39565b60a082015260e08201516001600160401b03811115612ebf57600080fd5b612ecb86828501612d74565b60c083015250949350505050565b8082028115828204841417610ab457610ab46126d2565b600082612eff57612eff612987565b500490565b8183823760009101908152919050565b828152606082602083013760800192915050565b600060208284031215612f3a57600080fd5b81516104ef816123d9565b84815262ffffff84166020820152608060408201526000612f696080830185612748565b8281036060840152612f7b8185612748565b979650505050505050565b6020810160028310612fa857634e487b7160e01b600052602160045260246000fd5b9190529056fea2646970667358221220eea6ce10704f397d590cbc96d5ac2f2ad01a36bed5120511a917495928f0a22564736f6c634300081c0033",
  "linkReferences": {},
  "deployedLinkReferences": {}
}