{
  "_format": "hh-sol-artifact-1",
  "contractName": "ConceroVerifier",
  "sourceName": "contracts/ConceroVerifier/ConceroVerifier.sol",
  "abi": [
    {
      "inputs": [
        {
          "internalType": "uint24",
          "name": "chainSelector",
          "type": "uint24"
        },
        {
          "internalType": "address",
          "name": "USDC",
          "type": "address"
        },
        {
          "components": [
            {
              "internalType": "address",
              "name": "router",
              "type": "address"
            },
            {
              "internalType": "bytes32",
              "name": "donId",
              "type": "bytes32"
            },
            {
              "internalType": "uint64",
              "name": "subscriptionId",
              "type": "uint64"
            },
            {
              "internalType": "uint64",
              "name": "donHostedSecretsVersion",
              "type": "uint64"
            },
            {
              "internalType": "uint8",
              "name": "donHostedSecretsSlotId",
              "type": "uint8"
            },
            {
              "internalType": "uint16",
              "name": "premiumFeeUsdBps",
              "type": "uint16"
            },
            {
              "internalType": "uint32",
              "name": "callbackGasLimit",
              "type": "uint32"
            },
            {
              "internalType": "bytes32",
              "name": "requestCLFMessageReportJsCodeHash",
              "type": "bytes32"
            },
            {
              "internalType": "bytes32",
              "name": "requestOperatorRegistrationJsCodeHash",
              "type": "bytes32"
            }
          ],
          "internalType": "struct CLFParams",
          "name": "clfParams",
          "type": "tuple"
        }
      ],
      "stateMutability": "nonpayable",
      "type": "constructor"
    },
    {
      "inputs": [],
      "name": "EmptyArgs",
      "type": "error"
    },
    {
      "inputs": [],
      "name": "EmptySource",
      "type": "error"
    },
    {
      "inputs": [
        {
          "internalType": "uint256",
          "name": "requiredAmount",
          "type": "uint256"
        },
        {
          "internalType": "uint256",
          "name": "availableAmount",
          "type": "uint256"
        }
      ],
      "name": "InsufficientFee",
      "type": "error"
    },
    {
      "inputs": [
        {
          "internalType": "uint256",
          "name": "provided",
          "type": "uint256"
        },
        {
          "internalType": "uint256",
          "name": "required",
          "type": "uint256"
        }
      ],
      "name": "InsufficientFee",
      "type": "error"
    },
    {
      "inputs": [
        {
          "internalType": "uint256",
          "name": "provided",
          "type": "uint256"
        },
        {
          "internalType": "uint256",
          "name": "required",
          "type": "uint256"
        }
      ],
      "name": "InsufficientOperatorDeposit",
      "type": "error"
    },
    {
      "inputs": [],
      "name": "InvalidAddress",
      "type": "error"
    },
    {
      "inputs": [],
      "name": "InvalidAmount",
      "type": "error"
    },
    {
      "inputs": [],
      "name": "InvalidMessageVersion",
      "type": "error"
    },
    {
      "inputs": [],
      "name": "InvalidNamespace",
      "type": "error"
    },
    {
      "inputs": [],
      "name": "LengthMismatch",
      "type": "error"
    },
    {
      "inputs": [],
      "name": "MessageAlreadyProcessed",
      "type": "error"
    },
    {
      "inputs": [],
      "name": "NoInlineSecrets",
      "type": "error"
    },
    {
      "inputs": [],
      "name": "OnlyRouterCanFulfill",
      "type": "error"
    },
    {
      "inputs": [],
      "name": "OperatorAddressMismatch",
      "type": "error"
    },
    {
      "inputs": [],
      "name": "OperatorAlreadyRegistered",
      "type": "error"
    },
    {
      "inputs": [],
      "name": "OperatorNotRegistered",
      "type": "error"
    },
    {
      "inputs": [
        {
          "internalType": "enum CommonErrors.RequiredVariableUnsetType",
          "name": "variableType",
          "type": "uint8"
        }
      ],
      "name": "RequiredVariableUnset",
      "type": "error"
    },
    {
      "inputs": [
        {
          "internalType": "address",
          "name": "token",
          "type": "address"
        }
      ],
      "name": "SafeERC20FailedOperation",
      "type": "error"
    },
    {
      "inputs": [],
      "name": "TransferFailed",
      "type": "error"
    },
    {
      "inputs": [],
      "name": "TransferFailed",
      "type": "error"
    },
    {
      "inputs": [],
      "name": "Unauthorized",
      "type": "error"
    },
    {
      "inputs": [],
      "name": "UnauthorizedOperator",
      "type": "error"
    },
    {
      "inputs": [],
      "name": "WrongClfResultType",
      "type": "error"
    },
    {
      "anonymous": false,
      "inputs": [
        {
          "indexed": false,
          "internalType": "bytes",
          "name": "err",
          "type": "bytes"
        }
      ],
      "name": "CLFRequestError",
      "type": "event"
    },
    {
      "anonymous": false,
      "inputs": [
        {
          "indexed": true,
          "internalType": "bytes32",
          "name": "messageId",
          "type": "bytes32"
        }
      ],
      "name": "MessageReport",
      "type": "event"
    },
    {
      "anonymous": false,
      "inputs": [
        {
          "indexed": true,
          "internalType": "bytes32",
          "name": "messageId",
          "type": "bytes32"
        }
      ],
      "name": "MessageReportRequested",
      "type": "event"
    },
    {
      "anonymous": false,
      "inputs": [
        {
          "indexed": true,
          "internalType": "address",
          "name": "operator",
          "type": "address"
        },
        {
          "indexed": false,
          "internalType": "uint256",
          "name": "amount",
          "type": "uint256"
        }
      ],
      "name": "OperatorDepositWithdrawn",
      "type": "event"
    },
    {
      "anonymous": false,
      "inputs": [
        {
          "indexed": true,
          "internalType": "address",
          "name": "operator",
          "type": "address"
        },
        {
          "indexed": false,
          "internalType": "uint256",
          "name": "amount",
          "type": "uint256"
        }
      ],
      "name": "OperatorDeposited",
      "type": "event"
    },
    {
      "anonymous": false,
      "inputs": [
        {
          "indexed": true,
          "internalType": "address",
          "name": "operator",
          "type": "address"
        },
        {
          "indexed": false,
          "internalType": "uint256",
          "name": "amount",
          "type": "uint256"
        }
      ],
      "name": "OperatorFeeWithdrawn",
      "type": "event"
    },
    {
      "anonymous": false,
      "inputs": [
        {
          "indexed": true,
          "internalType": "address",
          "name": "operator",
          "type": "address"
        },
        {
          "indexed": false,
          "internalType": "enum CommonTypes.ChainType[]",
          "name": "chainTypes",
          "type": "uint8[]"
        },
        {
          "indexed": false,
          "internalType": "enum Types.OperatorRegistrationAction[]",
          "name": "operatorActions",
          "type": "uint8[]"
        }
      ],
      "name": "OperatorRegistered",
      "type": "event"
    },
    {
      "anonymous": false,
      "inputs": [
        {
          "indexed": true,
          "internalType": "address",
          "name": "requester",
          "type": "address"
        },
        {
          "indexed": false,
          "internalType": "enum CommonTypes.ChainType[]",
          "name": "chainTypes",
          "type": "uint8[]"
        },
        {
          "indexed": false,
          "internalType": "enum Types.OperatorRegistrationAction[]",
          "name": "operatorActions",
          "type": "uint8[]"
        },
        {
          "indexed": false,
          "internalType": "bytes[]",
          "name": "operatorAddresses",
          "type": "bytes[]"
        }
      ],
      "name": "OperatorRegistrationRequested",
      "type": "event"
    },
    {
      "anonymous": false,
      "inputs": [
        {
          "indexed": true,
          "internalType": "bytes32",
          "name": "id",
          "type": "bytes32"
        }
      ],
      "name": "RequestFulfilled",
      "type": "event"
    },
    {
      "anonymous": false,
      "inputs": [
        {
          "indexed": true,
          "internalType": "bytes32",
          "name": "id",
          "type": "bytes32"
        }
      ],
      "name": "RequestSent",
      "type": "event"
    },
    {
      "stateMutability": "payable",
      "type": "fallback"
    },
    {
      "inputs": [],
      "name": "getCLFCost",
      "outputs": [
        {
          "internalType": "uint256",
          "name": "",
          "type": "uint256"
        }
      ],
      "stateMutability": "view",
      "type": "function"
    },
    {
      "inputs": [],
      "name": "getCohortsCount",
      "outputs": [
        {
          "internalType": "uint8",
          "name": "",
          "type": "uint8"
        }
      ],
      "stateMutability": "pure",
      "type": "function"
    },
    {
      "inputs": [],
      "name": "getMinimumOperatorDeposit",
      "outputs": [
        {
          "internalType": "uint256",
          "name": "",
          "type": "uint256"
        }
      ],
      "stateMutability": "view",
      "type": "function"
    },
    {
      "inputs": [
        {
          "internalType": "address",
          "name": "operator",
          "type": "address"
        }
      ],
      "name": "getOperatorDeposit",
      "outputs": [
        {
          "internalType": "uint256",
          "name": "",
          "type": "uint256"
        }
      ],
      "stateMutability": "view",
      "type": "function"
    },
    {
      "inputs": [
        {
          "internalType": "address",
          "name": "operator",
          "type": "address"
        }
      ],
      "name": "getOperatorFeesEarned",
      "outputs": [
        {
          "internalType": "uint256",
          "name": "",
          "type": "uint256"
        }
      ],
      "stateMutability": "view",
      "type": "function"
    },
    {
      "inputs": [
        {
          "internalType": "enum CommonTypes.ChainType",
          "name": "chainType",
          "type": "uint8"
        }
      ],
      "name": "getRegisteredOperators",
      "outputs": [
        {
          "internalType": "bytes[]",
          "name": "",
          "type": "bytes[]"
        }
      ],
      "stateMutability": "view",
      "type": "function"
    },
    {
      "inputs": [
        {
          "internalType": "bytes32",
          "name": "namespace",
          "type": "bytes32"
        },
        {
          "internalType": "uint256",
          "name": "offset",
          "type": "uint256"
        },
        {
          "internalType": "bytes32",
          "name": "mappingKey",
          "type": "bytes32"
        }
      ],
      "name": "getStorage",
      "outputs": [
        {
          "internalType": "uint256",
          "name": "",
          "type": "uint256"
        }
      ],
      "stateMutability": "view",
      "type": "function"
    },
    {
      "inputs": [],
      "name": "getWithdrawableConceroFee",
      "outputs": [
        {
          "internalType": "uint256",
          "name": "availableFees",
          "type": "uint256"
        }
      ],
      "stateMutability": "view",
      "type": "function"
    },
    {
      "inputs": [
        {
          "internalType": "bytes32",
          "name": "requestId",
          "type": "bytes32"
        },
        {
          "internalType": "bytes",
          "name": "response",
          "type": "bytes"
        },
        {
          "internalType": "bytes",
          "name": "err",
          "type": "bytes"
        }
      ],
      "name": "handleOracleFulfillment",
      "outputs": [],
      "stateMutability": "nonpayable",
      "type": "function"
    },
    {
      "inputs": [],
      "name": "i_owner",
      "outputs": [
        {
          "internalType": "address",
          "name": "",
          "type": "address"
        }
      ],
      "stateMutability": "view",
      "type": "function"
    },
    {
      "inputs": [
        {
          "internalType": "uint24",
          "name": "chainSelector",
          "type": "uint24"
        }
      ],
      "name": "isChainSupported",
      "outputs": [
        {
          "internalType": "bool",
          "name": "",
          "type": "bool"
        }
      ],
      "stateMutability": "view",
      "type": "function"
    },
    {
      "inputs": [
        {
          "internalType": "address",
          "name": "operator",
          "type": "address"
        }
      ],
      "name": "isOperatorRegistered",
      "outputs": [
        {
          "internalType": "bool",
          "name": "",
          "type": "bool"
        }
      ],
      "stateMutability": "view",
      "type": "function"
    },
    {
      "inputs": [
        {
          "internalType": "address",
          "name": "operator",
          "type": "address"
        }
      ],
      "name": "operatorDeposit",
      "outputs": [],
      "stateMutability": "payable",
      "type": "function"
    },
    {
      "inputs": [
        {
          "internalType": "bytes32",
          "name": "messageId",
          "type": "bytes32"
        },
        {
          "internalType": "bytes32",
          "name": "messageHashSum",
          "type": "bytes32"
        },
        {
          "internalType": "uint24",
          "name": "srcChainSelector",
          "type": "uint24"
        },
        {
          "internalType": "bytes",
          "name": "srcChainData",
          "type": "bytes"
        }
      ],
      "name": "requestMessageReport",
      "outputs": [
        {
          "internalType": "bytes32",
          "name": "",
          "type": "bytes32"
        }
      ],
      "stateMutability": "nonpayable",
      "type": "function"
    },
    {
      "inputs": [
        {
          "internalType": "enum CommonTypes.ChainType[]",
          "name": "chainTypes",
          "type": "uint8[]"
        },
        {
          "internalType": "enum Types.OperatorRegistrationAction[]",
          "name": "operatorActions",
          "type": "uint8[]"
        },
        {
          "internalType": "bytes[]",
          "name": "operatorAddresses",
          "type": "bytes[]"
        }
      ],
      "name": "requestOperatorRegistration",
      "outputs": [
        {
          "internalType": "bytes32",
          "name": "clfRequestId",
          "type": "bytes32"
        }
      ],
      "stateMutability": "nonpayable",
      "type": "function"
    },
    {
      "inputs": [
        {
          "internalType": "uint256",
          "name": "amount",
          "type": "uint256"
        }
      ],
      "name": "setNativeUsdRate",
      "outputs": [],
      "stateMutability": "nonpayable",
      "type": "function"
    },
    {
      "inputs": [
        {
          "internalType": "bytes32",
          "name": "namespace",
          "type": "bytes32"
        },
        {
          "internalType": "uint256",
          "name": "offset",
          "type": "uint256"
        },
        {
          "internalType": "bytes32",
          "name": "mappingKey",
          "type": "bytes32"
        },
        {
          "internalType": "uint256",
          "name": "value",
          "type": "uint256"
        }
      ],
      "name": "setStorage",
      "outputs": [],
      "stateMutability": "nonpayable",
      "type": "function"
    },
    {
      "inputs": [
        {
          "internalType": "bytes32[]",
          "name": "namespaces",
          "type": "bytes32[]"
        },
        {
          "internalType": "uint256[]",
          "name": "offsets",
          "type": "uint256[]"
        },
        {
          "internalType": "bytes32[]",
          "name": "mappingKeys",
          "type": "bytes32[]"
        },
        {
          "internalType": "uint256[]",
          "name": "values",
          "type": "uint256[]"
        }
      ],
      "name": "setStorageBulk",
      "outputs": [],
      "stateMutability": "nonpayable",
      "type": "function"
    },
    {
      "inputs": [
        {
          "internalType": "uint24[]",
          "name": "chainSelectors",
          "type": "uint24[]"
        },
        {
          "internalType": "bool[]",
          "name": "isSupported",
          "type": "bool[]"
        }
      ],
      "name": "setSupportedChains",
      "outputs": [],
      "stateMutability": "nonpayable",
      "type": "function"
    },
    {
      "inputs": [
        {
          "internalType": "address[]",
          "name": "tokens",
          "type": "address[]"
        },
        {
          "internalType": "uint256[]",
          "name": "amounts",
          "type": "uint256[]"
        }
      ],
      "name": "withdrawConceroFees",
      "outputs": [],
      "stateMutability": "nonpayable",
      "type": "function"
    },
    {
      "inputs": [
        {
          "internalType": "uint256",
          "name": "amount",
          "type": "uint256"
        }
      ],
      "name": "withdrawOperatorDeposit",
      "outputs": [
        {
          "internalType": "bool",
          "name": "success",
          "type": "bool"
        }
      ],
      "stateMutability": "nonpayable",
      "type": "function"
    },
    {
      "inputs": [
        {
          "internalType": "uint256",
          "name": "amount",
          "type": "uint256"
        }
      ],
      "name": "withdrawOperatorFee",
      "outputs": [
        {
          "internalType": "bool",
          "name": "success",
          "type": "bool"
        }
      ],
      "stateMutability": "nonpayable",
      "type": "function"
    },
    {
      "stateMutability": "payable",
      "type": "receive"
    }
  ],
  "bytecode": "0x61020060405234801561001157600080fd5b506040516143633803806143638339810160408190526100309161016a565b805160208201516040830151606084015160808086015160a08088015160c0808a015160e0808c01516101009c8d01516001600160a01b039c8d169098523390955262ffffff909d1690915297909916909952610140949094526001600160401b039283166101605291166101805260ff9091166101e05261ffff9093166101a05263ffffffff166101c052919091526101205261024e565b80516001600160a01b03811681146100e057600080fd5b919050565b60405161012081016001600160401b038111828210171561011657634e487b7160e01b600052604160045260246000fd5b60405290565b80516001600160401b03811681146100e057600080fd5b805160ff811681146100e057600080fd5b805161ffff811681146100e057600080fd5b805163ffffffff811681146100e057600080fd5b600080600083850361016081121561018157600080fd5b845162ffffff8116811461019457600080fd5b93506101a2602086016100c9565b9250610120603f19820112156101b757600080fd5b506101c06100e5565b6101cc604086016100c9565b8152606085015160208201526101e46080860161011c565b60408201526101f560a0860161011c565b606082015261020660c08601610133565b608082015261021760e08601610144565b60a08201526102296101008601610156565b60c082015261012085015160e082015261014090940151610100850152509093909250565b60805160a05160c05160e05161010051610120516101405161016051610180516101a0516101c0516101e05161405561030e600039600050506000610d1001526000610d3e01526000505060006120a7015260006120cc01526000611928015260006116c40152600050506000610cac01526000818161039e015281816108420152818161097a01528181610a1f01528181610d8a01528181610dfc01528181610fd60152611110015260008181610423015261258b01526140556000f3fe60806040526004361061012c5760003560e01c80639544ea44116100a5578063cc7668821161006c578063cc76688214610337578063cea34c9a14610357578063d105313114610377578063dba6335f1461038c578063e716afde146103d8578063fbfbdff8146103f857005b80639544ea44146102ad5780639a5d5ca9146102c2578063a96fdd99146102e2578063b91443e7146102f7578063c34f38c51461031757005b80633ae56951116100f45780633ae56951146101f15780635a8733b3146102115780636b1906f8146102315780636ea101ab146102515780638e3438f51461026457806390239ec71461028057005b80630ca761751461012e5780631feb291f1461014e57806327e5f442146101835780632a65d9ab146101a357806331d49194146101d1575b005b34801561013a57600080fd5b5061012c610149366004612dc0565b610418565b34801561015a57600080fd5b5061016e610169366004612e30565b61049c565b60405190151581526020015b60405180910390f35b34801561018f57600080fd5b5061016e61019e366004612e5a565b610636565b3480156101af57600080fd5b506101c36101be366004612e8c565b610661565b60405190815260200161017a565b3480156101dd57600080fd5b5061016e6101ec366004612e30565b61068d565b3480156101fd57600080fd5b506101c361020c366004612ea9565b610819565b34801561021d57600080fd5b5061012c61022c366004612f19565b610837565b34801561023d57600080fd5b5061016e61024c366004612e8c565b610a57565b61012c61025f366004612e8c565b610a86565b34801561027057600080fd5b506040516001815260200161017a565b34801561028c57600080fd5b506102a061029b366004612f95565b610b84565b60405161017a9190613002565b3480156102b957600080fd5b506101c3610c9b565b3480156102ce57600080fd5b5061012c6102dd366004613067565b610d7f565b3480156102ee57600080fd5b506101c3610de2565b34801561030357600080fd5b5061012c610312366004613124565b610df1565b34801561032357600080fd5b506101c36103323660046131e0565b610e7c565b34801561034357600080fd5b506101c3610352366004613236565b610f36565b34801561036357600080fd5b5061012c610372366004612f19565b610fcb565b34801561038357600080fd5b506101c36110da565b34801561039857600080fd5b506103c07f000000000000000000000000000000000000000000000000000000000000000081565b6040516001600160a01b03909116815260200161017a565b3480156103e457600080fd5b5061012c6103f3366004612e30565b611105565b34801561040457600080fd5b506101c3610413366004612e8c565b61115a565b336001600160a01b037f000000000000000000000000000000000000000000000000000000000000000016146104615760405163c6829f8360e01b815260040160405180910390fd5b61046c838383611186565b60405183907f85e1543bf2f84fe80c6badbce3648c8539ad1df4d2b3d822938ca0538be727e690600090a2505050565b60006104a6611235565b336000908152606791909101602052604090205460ff166104da576040516326b9cdff60e11b815260040160405180910390fd5b60006104e4611235565b336000908152606a9190910160205260409020549050826105185760405163162908e360e11b815260040160405180910390fd5b8281808211156105495760405163a458261b60e01b8152600481019290925260248201526044015b60405180910390fd5b50610556905083826132ef565b61055e611235565b336000908152606a9190910160205260409020558261057b611235565b805460009061058b9084906132ef565b909155505060405133908490600081818185875af1925050503d80600081146105d0576040519150601f19603f3d011682016040523d82523d6000602084013e6105d5565b606091505b505080925050816105f9576040516312171d8360e31b815260040160405180910390fd5b60405183815233907fc43e057480321c0f9aec5029e2f42bb82383abd09bc79fd2fbcb50c507173572906020015b60405180910390a2505b919050565b60006106406112c1565b62ffffff909216600090815260689290920160205250604090205460ff1690565b600061066b611235565b6001600160a01b039092166000908152606a9290920160205250604090205490565b6000610697611235565b336000908152606791909101602052604090205460ff166106cb576040516326b9cdff60e11b815260040160405180910390fd5b60006106d5611235565b33600090815260689190910160205260409020549050826107095760405163162908e360e11b815260040160405180910390fd5b8083818111156107355760405163052dcc5960e51b815260048101929092526024820152604401610540565b50610742905083826132ef565b61074a611235565b336000908152606891909101602052604090205582610767611235565b600101600082825461077991906132ef565b909155505060405133908490600081818185875af1925050503d80600081146107be576040519150601f19603f3d011682016040523d82523d6000602084013e6107c3565b606091505b505080925050816107e7576040516312171d8360e31b815260040160405180910390fd5b60405183815233907f84863957610e3c6567187cf240a9979c5c8d56d4dba4473b5ac46a10d324697490602001610627565b6000610824846112fd565b61082f84848461148f565b949350505050565b336001600160a01b037f0000000000000000000000000000000000000000000000000000000000000000161461087f576040516282b42960e81b815260040160405180910390fd5b828114801561088d57508215155b6108ad576040516001621398b960e31b0319815260040160405180910390fd5b6000806108b86110da565b905060005b85811015610a4e5760008787838181106108d9576108d9613302565b90506020020160208101906108ee9190612e8c565b9050600086868481811061090457610904613302565b9050602002013590506000811161092e5760405163162908e360e11b815260040160405180910390fd5b6001600160a01b038216610a10576109468186613318565b94508484808211156109745760405163a458261b60e01b815260048101929092526024820152604401610540565b505060007f00000000000000000000000000000000000000000000000000000000000000006001600160a01b03168260405160006040518083038185875af1925050503d80600081146109e3576040519150601f19603f3d011682016040523d82523d6000602084013e6109e8565b606091505b5050905080610a0a576040516312171d8360e31b815260040160405180910390fd5b50610a44565b610a446001600160a01b0383167f0000000000000000000000000000000000000000000000000000000000000000836114bf565b50506001016108bd565b50505050505050565b6000610a61611235565b6001600160a01b03909216600090815260679290920160205250604090205460ff1690565b6000610a90610c9b565b9050348180821015610abe5760405163052dcc5960e51b815260048101929092526024820152604401610540565b50506001600160a01b038216610ae75760405163e6c4247b60e01b815260040160405180910390fd5b34610af0611235565b6068016000846001600160a01b03166001600160a01b031681526020019081526020016000206000828254610b259190613318565b90915550349050610b34611235565b6001016000828254610b469190613318565b909155505060405134815233907f06653c045d0a3144153a51ac6909baae43b8d5b67184cb74e988b72858727fe49060200160405180910390a25050565b6060610b8e611235565b6066016000836001811115610ba557610ba561332b565b6001811115610bb657610bb661332b565b8152602001908152602001600020805480602002602001604051908101604052809291908181526020016000905b82821015610c90578382906000526020600020018054610c0390613341565b80601f0160208091040260200160405190810160405280929190818152602001828054610c2f90613341565b8015610c7c5780601f10610c5157610100808354040283529160200191610c7c565b820191906000526020600020905b815481529060010190602001808311610c5f57829003601f168201915b505050505081526020019060010190610be4565b505050509050919050565b600080610ca6611516565b62ffffff7f000000000000000000000000000000000000000000000000000000000000000016600090815260659190910160205260409020549050600181610d025760405163c6af252960e01b81526004016105409190613399565b506000610d358263ffffffff7f0000000000000000000000000000000000000000000000000000000000000000166133ac565b90506000610d6b7f0000000000000000000000000000000000000000000000000000000000000000610d65611516565b54611530565b9050610d778183613318565b935050505090565b336001600160a01b037f00000000000000000000000000000000000000000000000000000000000000001614610dc7576040516282b42960e81b815260040160405180910390fd5b610dd0846112fd565b610ddc848484846115a4565b50505050565b6000610dec610c9b565b905090565b336001600160a01b037f00000000000000000000000000000000000000000000000000000000000000001614610e39576040516282b42960e81b815260040160405180910390fd5b60005b8451811015610e6f57610e67858281518110610e5a57610e5a613302565b60200260200101516112fd565b600101610e3c565b50610ddc848484846115cc565b6000610e86611235565b336000908152606791909101602052604090205460ff16610eba576040516326b9cdff60e11b815260040160405180910390fd5b610ec26112c1565b6000868152606791909101602052604090205460ff1615610ef657604051637b04260960e01b815260040160405180910390fd5b6001610f006112c1565b600087815260679190910160205260409020805460ff1916911515919091179055610f2d85858585611678565b95945050505050565b60008584148015610f4657508582145b610f66576040516001621398b960e31b0319815260040160405180910390fd5b610f748787878787876118e1565b9050336001600160a01b03167f8dd8d12374b84b953ae64df22c21c4595675aa2fd20893fdeef36a1e0c80ba81888888888888604051610fb9969594939291906134c5565b60405180910390a29695505050505050565b336001600160a01b037f00000000000000000000000000000000000000000000000000000000000000001614611013576040516282b42960e81b815260040160405180910390fd5b828114611036576040516001621398b960e31b0319815260040160405180910390fd5b60005b838110156110d357600085858381811061105557611055613302565b905060200201602081019061106a9190612e5a565b9050600084848481811061108057611080613302565b9050602002016020810190611095919061350e565b9050806110a06112c1565b62ffffff93909316600090815260689093016020526040909220805460ff19169215159290921790915550600101611039565b5050505050565b60006110e4611235565b600101546110f0611235565b546110fb9190613318565b610dec90476132ef565b336001600160a01b037f0000000000000000000000000000000000000000000000000000000000000000161461114d576040516282b42960e81b815260040160405180910390fd5b80611156611516565b5550565b6000611164611235565b6001600160a01b03909216600090815260689290920160205250604090205490565b6000808380602001905181019061119d9190613575565b90925090506001825160028111156111b7576111b761332b565b036111cc576111c7858585611acb565b61120f565b6002825160028111156111e1576111e161332b565b036111f6576111c78582858560400151611c0c565b6040516314c45b6b60e01b815260040160405180910390fd5b6112176112c1565b600095865260660160205250506040909220805460ff191690555050565b604080517f636f6e6365726f76657269666965722e6f70657261746f722e73746f726167656020820152600091829160ff1991600191015b6040516020818303038152906040528051906020012060001c61129091906132ef565b6040516020016112a291815260200190565b60408051601f1981840301815291905280516020909101201692915050565b604080517f636f6e6365726f76657269666965722e76657269666965722e73746f726167656020820152600091829160ff19916001910161126d565b604080517f636f6e6365726f76657269666965722e76657269666965722e73746f72616765602082015260ff1991600191016040516020818303038152906040528051906020012060001c61135291906132ef565b60405160200161136491815260200190565b60405160208183030381529060405280519060200120168114806114045750604080517f636f6e6365726f76657269666965722e6f70657261746f722e73746f72616765602082015260ff1991600191016040516020818303038152906040528051906020012060001c6113d891906132ef565b6040516020016113ea91815260200190565b604051602081830303815290604052805190602001201681145b8061146f575060405160ff19906001906114209060200161360f565b6040516020818303038152906040528051906020012060001c61144391906132ef565b60405160200161145591815260200190565b604051602081830303815290604052805190602001201681145b61148c57604051630a02739760e41b815260040160405180910390fd5b50565b60008180156114b057604080518481528686016020820152205491506114b7565b8484015491505b509392505050565b604080516001600160a01b038416602482015260448082018490528251808303909101815260649091019091526020810180516001600160e01b031663a9059cbb60e01b179052611511908490611eec565b505050565b60008060ff60001b19600160405160200161126d9061360f565b600080826115525760405163c6af252960e01b81526004016105409190613399565b50600061271061156e61ffff8616670de0b6b3a76400006133ac565b6115789190613658565b905060008361158f83670de0b6b3a76400006133ac565b6115999190613658565b925050505b92915050565b8180156115c357604080518481528686016020820152208290556110d3565b50919092015550565b825184511480156115de575081518351145b80156115eb575080518251145b61160b576040516001621398b960e31b0319815260040160405180910390fd5b60005b84518110156110d3576020810260200185015160208202602001850151602083026020018501516020840260200185015181600081146116605760408051848152868601602082015220829055611667565b8484018290555b50506001909301925061160e915050565b60006116903361168b6064610d65611516565b611f5d565b5060408051600680825260e08201909252600091816020015b60608152602001906001900390816116a957905050604080517f00000000000000000000000000000000000000000000000000000000000000006020820152919250016040516020818303038152906040528160008151811061170e5761170e613302565b60200260200101819052508360405160200161173d919060e89190911b6001600160e81b031916815260030190565b6040516020818303038152906040528160018151811061175f5761175f613302565b60200260200101819052508560405160200161177d91815260200190565b6040516020818303038152906040528160028151811061179f5761179f613302565b6020026020010181905250846040516020016117bd91815260200190565b604051602081830303815290604052816003815181106117df576117df613302565b6020026020010181905250826040516020016117fb919061366c565b6040516020818303038152906040528160048151811061181d5761181d613302565b60200260200101819052503360405160200161184c919060609190911b6001600160601b031916815260140190565b6040516020818303038152906040528160058151811061186e5761186e613302565b602002602001018190525061188281612026565b9150600161188e6112c1565b60008481526066919091016020526040808220805460ff191693151593909317909255905187917ffb81e755bba86f865a4c093b06fe6468a7eedaa06466653b988545795ccdf76091a250949350505050565b60006118f43361168b6064610d65611516565b5060408051600580825260c08201909252600091816020015b606081526020019060019003908161190d57905050604080517f00000000000000000000000000000000000000000000000000000000000000006020820152919250016040516020818303038152906040528160008151811061197257611972613302565b60200260200101819052508787604051602001611990929190613688565b604051602081830303815290604052816001815181106119b2576119b2613302565b602002602001018190525085856040516020016119d0929190613688565b604051602081830303815290604052816002815181106119f2576119f2613302565b60200260200101819052508383604051602001611a1092919061369c565b60405160208183030381529060405281600381518110611a3257611a32613302565b602002602001018190525033604051602001611a5d91906001600160a01b0391909116815260200190565b60405160208183030381529060405281600481518110611a7f57611a7f613302565b6020026020010181905250611a9381612026565b91506001611a9f6112c1565b600084815260669190910160205260409020805460ff1916911515919091179055509695505050505050565b805115611b0e577fbcf5ce4fda95e104d7172732bf495e532c7355ebce10657ed2161d41d3a2b0e581604051611b0191906136b0565b60405180910390a1505050565b600080611b1a846120f7565b91509150816020015160ff16600103611b3b57611b3681612133565b611b54565b6040516344b479f560e11b815260040160405180910390fd5b6000611b5e611516565b549050611b6c606482611530565b611b74611235565b606a01600085604001516001600160a01b03166001600160a01b031681526020019081526020016000206000828254611bad9190613318565b90915550611bbe9050606482611530565b611bc6611235565b606801600085604001516001600160a01b03166001600160a01b031681526020019081526020016000206000828254611bff9190613318565b9091555050505050505050565b815115611c4f577fbcf5ce4fda95e104d7172732bf495e532c7355ebce10657ed2161d41d3a2b0e582604051611c4291906136b0565b60405180910390a1610ddc565b600083806020019051810190611c6591906137ac565b604081015151815151919250148015611c845750602081015151815151145b611ca4576040516001621398b960e31b0319815260040160405180910390fd5b60005b815151811015611e9c57600082600001518281518110611cc957611cc9613302565b60200260200101519050600083602001518381518110611ceb57611ceb613302565b6020026020010151905060006001811115611d0857611d0861332b565b826001811115611d1a57611d1a61332b565b03611e9257600084604001518481518110611d3757611d37613302565b6020026020010151806020019051810190611d5291906138d3565b9050856001600160a01b0316816001600160a01b031614611d8657604051634265bbb960e11b815260040160405180910390fd5b6001826001811115611d9a57611d9a61332b565b03611e0d576040516001600160601b0319606083901b166020820152611dd390849060340160405160208183030381529060405261217c565b6001611ddd611235565b6001600160a01b038816600090815260679190910160205260409020805460ff1916911515919091179055611e90565b6000826001811115611e2157611e2161332b565b03611e90576040516001600160601b0319606083901b166020820152611e5a908490603401604051602081830303815290604052612208565b6000611e64611235565b6001600160a01b038816600090815260679190910160205260409020805460ff19169115159190911790555b505b5050600101611ca7565b50805160208201516040516001600160a01b038516927fe45aa49322ca788544241b0cf4a43007ed43fb0fc18024f8664bafa21616f64392611edd926138f0565b60405180910390a25050505050565b600080602060008451602086016000885af180611f0f576040513d6000823e3d81fd5b50506000513d91508115611f27578060011415611f34565b6001600160a01b0384163b155b15610ddc57604051635274afe760e01b81526001600160a01b0385166004820152602401610540565b600080611f68611235565b6001600160a01b03851660009081526068919091016020526040902054905082611f90611235565b6001600160a01b03861660009081526068919091016020526040902054829185911015611fd95760405163052dcc5960e51b815260048101929092526024820152604401610540565b505082611fe4611235565b6068016000866001600160a01b03166001600160a01b03168152602001908152602001600020600082825461201991906132ef565b9091555092949350505050565b60006120696040805160e0810190915280600081526020016000815260200160008152602001606081526020016060815260200160608152602001606081525090565b61208f604051806101c001604052806101828152602001613e9e61018291398290612283565b6120998184612294565b6120f06120a5826122be565b7f0000000000000000000000000000000000000000000000000000000000000000620186a07f0000000000000000000000000000000000000000000000000000000000000000612586565b9392505050565b604080516060810182526000808252602082018190529181019190915260608280602001905181019061212a9190613575565b91509150915091565b60008180602001905181019061214991906139ea565b8051604051919250907fe926aaee2b4b6afb102e3dd8011621cf4b6e8eeae7dde6190388b45bbb39749c90600090a25050565b6000612186611235565b606601600084600181111561219d5761219d61332b565b60018111156121ae576121ae61332b565b8152602001908152602001600020905060006121ca8284612658565b50905080156121ec576040516342ee68b560e01b815260040160405180910390fd5b8154600181018355600083815260209020016110d38482613b14565b6000612212611235565b60660160008460018111156122295761222961332b565b600181111561223a5761223a61332b565b815260200190815260200160002090506000806122578385612658565b9150915081612279576040516325ec6c1f60e01b815260040160405180910390fd5b6110d383826126c8565b612290826000808461274d565b5050565b80516000036122b65760405163fe936cb760e01b815260040160405180910390fd5b60c090910152565b606060006122cd6101006127cb565b90506123066040518060400160405280600c81526020016b31b7b232a637b1b0ba34b7b760a11b815250826127ec90919063ffffffff16565b825161232490600281111561231d5761231d61332b565b8290612805565b6040805180820190915260088152676c616e677561676560c01b602082015261234e9082906127ec565b604083015161236590801561231d5761231d61332b565b604080518082019091526006815265736f7572636560d01b602082015261238d9082906127ec565b606083015161239d9082906127ec565b60a08301515115612429576040805180820190915260048152636172677360e01b60208201526123ce9082906127ec565b6123d78161283e565b60005b8360a001515181101561241f576124178460a00151828151811061240057612400613302565b6020026020010151836127ec90919063ffffffff16565b6001016123da565b5061242981612862565b608083015151156124ed5760008360200151600281111561244c5761244c61332b565b0361246a5760405163a80d31f760e01b815260040160405180910390fd5b60408051808201909152600f81526e39b2b1b932ba39a637b1b0ba34b7b760891b602082015261249b9082906127ec565b6124b48360200151600281111561231d5761231d61332b565b6040805180820190915260078152667365637265747360c81b60208201526124dd9082906127ec565b60808301516124ed908290612880565b60c0830151511561257e5760408051808201909152600981526862797465734172677360b81b60208201526125239082906127ec565b61252c8161283e565b60005b8360c00151518110156125745761256c8460c00151828151811061255557612555613302565b60200260200101518361288090919063ffffffff16565b60010161252f565b5061257e81612862565b515192915050565b6000807f00000000000000000000000000000000000000000000000000000000000000006001600160a01b031663461d27628688600188886040518663ffffffff1660e01b81526004016125de959493929190613bd5565b6020604051808303816000875af11580156125fd573d6000803e3d6000fd5b505050506040513d601f19601f820116820180604052508101906126219190613c1e565b60405190915081907f1131472297a800fee664d1d89cfa8f7676ff07189ecc53f80bbb5f4969099db890600090a295945050505050565b60008060005b84548110156126b857838051906020012085828154811061268157612681613302565b906000526020600020016040516126989190613c37565b6040518091039020036126b0576001925090506126c1565b60010161265e565b50600080915091505b9250929050565b815482906126d8906001906132ef565b815481106126e8576126e8613302565b9060005260206000200182828154811061270457612704613302565b90600052602060002001908161271a9190613cac565b508180548061272b5761272b613d80565b6001900381819060005260206000200160006127479190612c2b565b90555050565b805160000361276f576040516322ce3edd60e01b815260040160405180910390fd5b838360028111156127825761278261332b565b908160028111156127955761279561332b565b905250604084018280156127ab576127ab61332b565b908180156127bb576127bb61332b565b9052506060909301929092525050565b6127d3612c65565b80516127df908361288d565b5060006020820152919050565b6127f98260038351612904565b81516115119082612a1d565b81516128129060c2612a3e565b50612290828260405160200161282a91815260200190565b604051602081830303815290604052612880565b612849816004612aa7565b60018160200181815161285c9190613318565b90525050565b61286d816007612aa7565b60018160200181815161285c91906132ef565b6127f98260028351612904565b6040805180820190915260608152600060208201526128ad602083613d96565b156128d5576128bd602083613d96565b6128c89060206132ef565b6128d29083613318565b91505b6020808401839052604051808552600081529081840101818110156128f957600080fd5b604052509192915050565b6017816001600160401b03161161292a578251610ddc9060e0600585901b168317612a3e565b60ff816001600160401b03161161296a578251612952906018611fe0600586901b1617612a3e565b508251610ddc906001600160401b0383166001612abe565b61ffff816001600160401b0316116129ab578251612993906019611fe0600586901b1617612a3e565b508251610ddc906001600160401b0383166002612abe565b63ffffffff816001600160401b0316116129ee5782516129d690601a611fe0600586901b1617612a3e565b508251610ddc906001600160401b0383166004612abe565b8251612a0590601b611fe0600586901b1617612a3e565b508251610ddc906001600160401b0383166008612abe565b6040805180820190915260608152600060208201526120f083838451612b43565b6040805180820190915260608152600060208201528251516000612a63826001613318565b905084602001518210612a8457612a8485612a7f8360026133ac565b612c14565b8451602083820101858153508051821115612a9d578181525b5093949350505050565b815161151190601f611fe0600585901b1617612a3e565b6040805180820190915260608152600060208201528351516000612ae28285613318565b90508560200151811115612aff57612aff86612a7f8360026133ac565b60006001612b0f86610100613e91565b612b1991906132ef565b90508651828101878319825116178152508051831115612b37578281525b50959695505050505050565b6040805180820190915260608152600060208201528251821115612b6657600080fd5b8351516000612b758483613318565b90508560200151811115612b9257612b9286612a7f8360026133ac565b855180518382016020019160009180851115612bac578482525b505050602086015b60208610612bec5780518252612bcb602083613318565b9150612bd8602082613318565b9050612be56020876132ef565b9550612bb4565b51815160001960208890036101000a0190811690199190911617905250849150509392505050565b8151612c20838361288d565b50610ddc8382612a1d565b508054612c3790613341565b6000825580601f10612c47575050565b601f01602090049060005260206000209081019061148c9190612c9a565b6040518060400160405280612c8d604051806040016040528060608152602001600081525090565b8152602001600081525090565b5b80821115612caf5760008155600101612c9b565b5090565b634e487b7160e01b600052604160045260246000fd5b604051606081016001600160401b0381118282101715612ceb57612ceb612cb3565b60405290565b60405160e081016001600160401b0381118282101715612ceb57612ceb612cb3565b604051601f8201601f191681016001600160401b0381118282101715612d3b57612d3b612cb3565b604052919050565b60006001600160401b03821115612d5c57612d5c612cb3565b50601f01601f191660200190565b600082601f830112612d7b57600080fd5b8135612d8e612d8982612d43565b612d13565b818152846020838601011115612da357600080fd5b816020850160208301376000918101602001919091529392505050565b600080600060608486031215612dd557600080fd5b8335925060208401356001600160401b03811115612df257600080fd5b612dfe86828701612d6a565b92505060408401356001600160401b03811115612e1a57600080fd5b612e2686828701612d6a565b9150509250925092565b600060208284031215612e4257600080fd5b5035919050565b62ffffff8116811461148c57600080fd5b600060208284031215612e6c57600080fd5b81356120f081612e49565b6001600160a01b038116811461148c57600080fd5b600060208284031215612e9e57600080fd5b81356120f081612e77565b600080600060608486031215612ebe57600080fd5b505081359360208301359350604090920135919050565b60008083601f840112612ee757600080fd5b5081356001600160401b03811115612efe57600080fd5b6020830191508360208260051b85010111156126c157600080fd5b60008060008060408587031215612f2f57600080fd5b84356001600160401b03811115612f4557600080fd5b612f5187828801612ed5565b90955093505060208501356001600160401b03811115612f7057600080fd5b612f7c87828801612ed5565b95989497509550505050565b6002811061148c57600080fd5b600060208284031215612fa757600080fd5b81356120f081612f88565b60005b83811015612fcd578181015183820152602001612fb5565b50506000910152565b60008151808452612fee816020860160208601612fb2565b601f01601f19169290920160200192915050565b6000602082016020835280845180835260408501915060408160051b86010192506020860160005b8281101561305b57603f19878603018452613046858351612fd6565b9450602093840193919091019060010161302a565b50929695505050505050565b6000806000806080858703121561307d57600080fd5b5050823594602084013594506040840135936060013592509050565b60006001600160401b038211156130b2576130b2612cb3565b5060051b60200190565b600082601f8301126130cd57600080fd5b81356130db612d8982613099565b8082825260208201915060208360051b8601019250858311156130fd57600080fd5b602085015b8381101561311a578035835260209283019201613102565b5095945050505050565b6000806000806080858703121561313a57600080fd5b84356001600160401b0381111561315057600080fd5b61315c878288016130bc565b94505060208501356001600160401b0381111561317857600080fd5b613184878288016130bc565b93505060408501356001600160401b038111156131a057600080fd5b6131ac878288016130bc565b92505060608501356001600160401b038111156131c857600080fd5b6131d4878288016130bc565b91505092959194509250565b600080600080608085870312156131f657600080fd5b8435935060208501359250604085013561320f81612e49565b915060608501356001600160401b0381111561322a57600080fd5b6131d487828801612d6a565b6000806000806000806060878903121561324f57600080fd5b86356001600160401b0381111561326557600080fd5b61327189828a01612ed5565b90975095505060208701356001600160401b0381111561329057600080fd5b61329c89828a01612ed5565b90955093505060408701356001600160401b038111156132bb57600080fd5b6132c789828a01612ed5565b979a9699509497509295939492505050565b634e487b7160e01b600052601160045260246000fd5b8181038181111561159e5761159e6132d9565b634e487b7160e01b600052603260045260246000fd5b8082018082111561159e5761159e6132d9565b634e487b7160e01b600052602160045260246000fd5b600181811c9082168061335557607f821691505b60208210810361337557634e487b7160e01b600052602260045260246000fd5b50919050565b6002811061148c57634e487b7160e01b600052602160045260246000fd5b602081016133a68361337b565b91905290565b808202811582820484141761159e5761159e6132d9565b81835260208301925060008160005b84811015612a9d5781356133e581612f88565b6133ee8161337b565b865260209586019591909101906001016133d2565b81835281816020850137506000828201602090810191909152601f909101601f19169091010190565b60008383855260208501945060208460051b8201018360005b868110156134b957838303601f19018852813536879003601e1901811261346b57600080fd5b86016020810190356001600160401b0381111561348757600080fd5b80360382131561349657600080fd5b6134a1858284613403565b60209a8b019a90955093909301925050600101613445565b50909695505050505050565b6060815260006134d960608301888a6133c3565b82810360208401526134ec8187896133c3565b9050828103604084015261350181858761342c565b9998505050505050505050565b60006020828403121561352057600080fd5b813580151581146120f057600080fd5b600082601f83011261354157600080fd5b815161354f612d8982612d43565b81815284602083860101111561356457600080fd5b61082f826020830160208701612fb2565b600080828403608081121561358957600080fd5b606081121561359757600080fd5b506135a0612cc9565b8351600381106135af57600080fd5b8152602084015160ff811681146135c557600080fd5b602082015260408401516135d881612e77565b604082015260608401519092506001600160401b038111156135f957600080fd5b61360585828601613530565b9150509250929050565b7f636f6e6365726f76657269666965722e7072696365666565642e73746f7261678152606560f81b602082015260210190565b634e487b7160e01b600052601260045260246000fd5b60008261366757613667613642565b500490565b6000825161367e818460208701612fb2565b9190910192915050565b60208152600061082f6020830184866133c3565b60208152600061082f60208301848661342c565b6020815260006120f06020830184612fd6565b600082601f8301126136d457600080fd5b81516136e2612d8982613099565b8082825260208201915060208360051b86010192508583111561370457600080fd5b602085015b8381101561311a57805161371c81612f88565b835260209283019201613709565b600082601f83011261373b57600080fd5b8151613749612d8982613099565b8082825260208201915060208360051b86010192508583111561376b57600080fd5b602085015b8381101561311a5780516001600160401b0381111561378e57600080fd5b61379d886020838a0101613530565b84525060209283019201613770565b6000602082840312156137be57600080fd5b81516001600160401b038111156137d457600080fd5b8201606081850312156137e657600080fd5b6137ee612cc9565b81516001600160401b0381111561380457600080fd5b8201601f8101861361381557600080fd5b8051613823612d8982613099565b8082825260208201915060208360051b85010192508883111561384557600080fd5b6020840193505b8284101561387057835161385f81612f88565b82526020938401939091019061384c565b845250505060208201516001600160401b0381111561388e57600080fd5b61389a868285016136c3565b60208301525060408201516001600160401b038111156138b957600080fd5b6138c58682850161372a565b604083015250949350505050565b6000602082840312156138e557600080fd5b81516120f081612e77565b6040808252835190820181905260009060208501906060840190835b8181101561393357835161391f8161337b565b83526020938401939092019160010161390c565b50508381036020808601919091528551808352918101925085019060005b818110156139795782516139648161337b565b84526020938401939290920191600101613951565b50919695505050505050565b805161063181612e49565b6000604082840312156139a257600080fd5b604080519081016001600160401b03811182821017156139c4576139c4612cb3565b806040525080915082516139d781612e77565b8152602092830151920191909152919050565b6000602082840312156139fc57600080fd5b81516001600160401b03811115613a1257600080fd5b82016101008185031215613a2557600080fd5b613a2d612cf1565b815181526020808301519082015260408201516001600160401b03811115613a5457600080fd5b613a6086828501613530565b604083015250613a7260608301613985565b6060820152613a8360808301613985565b6080820152613a958560a08401613990565b60a082015260e08201516001600160401b03811115613ab357600080fd5b613abf8682850161372a565b60c083015250949350505050565b601f82111561151157806000526020600020601f840160051c81016020851015613af45750805b601f840160051c820191505b818110156110d35760008155600101613b00565b81516001600160401b03811115613b2d57613b2d612cb3565b613b4181613b3b8454613341565b84613acd565b6020601f821160018114613b785760008315613b5d5750848201515b600184901b600019600386901b1c198216175b8555506110d3565b600084815260208120601f198516915b82811015613ba85787850151825560209485019460019092019101613b88565b5084821015613bc65786840151600019600387901b60f8161c191681555b50505050600190811b01905550565b6001600160401b038616815260a060208201526000613bf760a0830187612fd6565b61ffff9590951660408301525063ffffffff92909216606083015260809091015292915050565b600060208284031215613c3057600080fd5b5051919050565b6000808354613c4581613341565b600182168015613c5c5760018114613c7157613ca1565b60ff1983168652811515820286019350613ca1565b86600052602060002060005b83811015613c9957815488820152600190910190602001613c7d565b505081860193505b509195945050505050565b818103613cb7575050565b613cc18254613341565b6001600160401b03811115613cd857613cd8612cb3565b613ce681613b3b8454613341565b6000601f821160018114613d185760008315613b5d575081850154600184901b600019600386901b1c19821617613b70565b600085815260209020601f19841690600086815260209020845b83811015613d525782860154825560019586019590910190602001613d32565b5085831015613d705781850154600019600388901b60f8161c191681555b5050505050600190811b01905550565b634e487b7160e01b600052603160045260246000fd5b600082613da557613da5613642565b500690565b6001815b6001841115613de557808504811115613dc957613dc96132d9565b6001841615613dd757908102905b60019390931c928002613dae565b935093915050565b600082613dfc5750600161159e565b81613e095750600061159e565b8160018114613e1f5760028114613e2957613e45565b600191505061159e565b60ff841115613e3a57613e3a6132d9565b50506001821b61159e565b5060208310610133831016604e8410600b8410161715613e68575081810a61159e565b613e756000198484613daa565b8060001904821115613e8957613e896132d9565b029392505050565b60006120f08383613ded56fe766172206e3b282865293d3e655b652e483d305d3d27482729286e7c7c3d7b7d293b76617220613d6177616974206665746368282768747470733a2f2f7261772e67697468756275736572636f6e74656e742e636f6d2f636f6e6365726f2f76322d636f6e7472616374732f726566732f68656164732f6d61737465722f636c662f646973742f6d6573736167655265706f72742e6d696e2e6a7327292e7468656e282874293d3e742e746578742829292c6f3d273078272b41727261792e66726f6d286e65772055696e743841727261792861776169742063727970746f2e737562746c652e64696765737428275348412d323536272c6e65772054657874456e636f64657228292e656e636f64652861292929292e6d6170282874293d3e742e746f537472696e67283136292e706164537461727428322c27302729292e6a6f696e282727293b6966286f213d3d6279746573417267735b305d297468726f77202768617368206d69736d61746368273b72657475726e206576616c2861293ba264697066735822122015c891d100070ae44e65f4a7d724985c880233895fc5e03f84d44c51b93d19e864736f6c634300081c0033",
  "linkReferences": {},
  "deployedLinkReferences": {}
}