{
  "_format": "hh-sol-artifact-1",
  "contractName": "ConceroVerifier",
  "sourceName": "contracts/ConceroVerifier/ConceroVerifier.sol",
  "abi": [
    {
      "inputs": [
        {
          "internalType": "uint24",
          "name": "chainSelector",
          "type": "uint24"
        },
        {
          "internalType": "address",
          "name": "USDC",
          "type": "address"
        },
        {
          "internalType": "address",
          "name": "clfRouter",
          "type": "address"
        },
        {
          "internalType": "bytes32",
          "name": "clfDonId",
          "type": "bytes32"
        },
        {
          "internalType": "uint64",
          "name": "clfSubscriptionId",
          "type": "uint64"
        },
        {
          "internalType": "uint64",
          "name": "clfDonHostedSecretsVersion",
          "type": "uint64"
        },
        {
          "internalType": "uint8",
          "name": "clfDonHostedSecretsSlotId",
          "type": "uint8"
        },
        {
          "internalType": "uint16",
          "name": "clfPremiumFeeUsdBps",
          "type": "uint16"
        },
        {
          "internalType": "uint32",
          "name": "clfCallbackGasLimit",
          "type": "uint32"
        },
        {
          "internalType": "bytes32",
          "name": "requestCLFMessageReportJsCodeHash",
          "type": "bytes32"
        },
        {
          "internalType": "bytes32",
          "name": "requestOperatorRegistrationJsCodeHash",
          "type": "bytes32"
        }
      ],
      "stateMutability": "nonpayable",
      "type": "constructor"
    },
    {
      "inputs": [],
      "name": "EmptyArgs",
      "type": "error"
    },
    {
      "inputs": [],
      "name": "EmptySource",
      "type": "error"
    },
    {
      "inputs": [
        {
          "internalType": "uint256",
          "name": "requiredAmount",
          "type": "uint256"
        },
        {
          "internalType": "uint256",
          "name": "availableAmount",
          "type": "uint256"
        }
      ],
      "name": "InsufficientFee",
      "type": "error"
    },
    {
      "inputs": [
        {
          "internalType": "uint256",
          "name": "provided",
          "type": "uint256"
        },
        {
          "internalType": "uint256",
          "name": "required",
          "type": "uint256"
        }
      ],
      "name": "InsufficientFee",
      "type": "error"
    },
    {
      "inputs": [
        {
          "internalType": "uint256",
          "name": "provided",
          "type": "uint256"
        },
        {
          "internalType": "uint256",
          "name": "required",
          "type": "uint256"
        }
      ],
      "name": "InsufficientOperatorDeposit",
      "type": "error"
    },
    {
      "inputs": [],
      "name": "InvalidAddress",
      "type": "error"
    },
    {
      "inputs": [],
      "name": "InvalidAmount",
      "type": "error"
    },
    {
      "inputs": [],
      "name": "InvalidNamespace",
      "type": "error"
    },
    {
      "inputs": [],
      "name": "LengthMismatch",
      "type": "error"
    },
    {
      "inputs": [],
      "name": "MessageAlreadyProcessed",
      "type": "error"
    },
    {
      "inputs": [],
      "name": "NoInlineSecrets",
      "type": "error"
    },
    {
      "inputs": [],
      "name": "NotOwner",
      "type": "error"
    },
    {
      "inputs": [],
      "name": "OnlyRouterCanFulfill",
      "type": "error"
    },
    {
      "inputs": [],
      "name": "OperatorAddressMismatch",
      "type": "error"
    },
    {
      "inputs": [],
      "name": "OperatorAlreadyRegistered",
      "type": "error"
    },
    {
      "inputs": [],
      "name": "OperatorNotRegistered",
      "type": "error"
    },
    {
      "inputs": [
        {
          "internalType": "enum CommonErrors.RequiredVariableUnsetType",
          "name": "variableType",
          "type": "uint8"
        }
      ],
      "name": "RequiredVariableUnset",
      "type": "error"
    },
    {
      "inputs": [
        {
          "internalType": "address",
          "name": "token",
          "type": "address"
        }
      ],
      "name": "SafeERC20FailedOperation",
      "type": "error"
    },
    {
      "inputs": [],
      "name": "TransferFailed",
      "type": "error"
    },
    {
      "inputs": [],
      "name": "TransferFailed",
      "type": "error"
    },
    {
      "inputs": [],
      "name": "UnauthorizedOperator",
      "type": "error"
    },
    {
      "anonymous": false,
      "inputs": [
        {
          "indexed": false,
          "internalType": "bytes",
          "name": "err",
          "type": "bytes"
        }
      ],
      "name": "CLFRequestError",
      "type": "event"
    },
    {
      "anonymous": false,
      "inputs": [
        {
          "indexed": true,
          "internalType": "bytes32",
          "name": "messageId",
          "type": "bytes32"
        }
      ],
      "name": "MessageReport",
      "type": "event"
    },
    {
      "anonymous": false,
      "inputs": [
        {
          "indexed": true,
          "internalType": "bytes32",
          "name": "internalMessageConfig",
          "type": "bytes32"
        },
        {
          "indexed": true,
          "internalType": "bytes32",
          "name": "messageId",
          "type": "bytes32"
        },
        {
          "indexed": false,
          "internalType": "bytes32",
          "name": "messageHashSum",
          "type": "bytes32"
        },
        {
          "indexed": false,
          "internalType": "bytes",
          "name": "srcChainData",
          "type": "bytes"
        }
      ],
      "name": "MessageReportRequested",
      "type": "event"
    },
    {
      "anonymous": false,
      "inputs": [
        {
          "indexed": true,
          "internalType": "address",
          "name": "operator",
          "type": "address"
        },
        {
          "indexed": false,
          "internalType": "uint256",
          "name": "amount",
          "type": "uint256"
        }
      ],
      "name": "OperatorDepositWithdrawn",
      "type": "event"
    },
    {
      "anonymous": false,
      "inputs": [
        {
          "indexed": true,
          "internalType": "address",
          "name": "operator",
          "type": "address"
        },
        {
          "indexed": false,
          "internalType": "uint256",
          "name": "amount",
          "type": "uint256"
        }
      ],
      "name": "OperatorDeposited",
      "type": "event"
    },
    {
      "anonymous": false,
      "inputs": [
        {
          "indexed": true,
          "internalType": "address",
          "name": "operator",
          "type": "address"
        },
        {
          "indexed": false,
          "internalType": "uint256",
          "name": "amount",
          "type": "uint256"
        }
      ],
      "name": "OperatorFeeWithdrawn",
      "type": "event"
    },
    {
      "anonymous": false,
      "inputs": [
        {
          "indexed": true,
          "internalType": "address",
          "name": "operator",
          "type": "address"
        },
        {
          "indexed": false,
          "internalType": "enum CommonTypes.ChainType[]",
          "name": "chainTypes",
          "type": "uint8[]"
        },
        {
          "indexed": false,
          "internalType": "enum Types.OperatorRegistrationAction[]",
          "name": "operatorActions",
          "type": "uint8[]"
        }
      ],
      "name": "OperatorRegistered",
      "type": "event"
    },
    {
      "anonymous": false,
      "inputs": [
        {
          "indexed": true,
          "internalType": "address",
          "name": "requester",
          "type": "address"
        },
        {
          "indexed": false,
          "internalType": "enum CommonTypes.ChainType[]",
          "name": "chainTypes",
          "type": "uint8[]"
        },
        {
          "indexed": false,
          "internalType": "enum Types.OperatorRegistrationAction[]",
          "name": "operatorActions",
          "type": "uint8[]"
        },
        {
          "indexed": false,
          "internalType": "bytes[]",
          "name": "operatorAddresses",
          "type": "bytes[]"
        }
      ],
      "name": "OperatorRegistrationRequested",
      "type": "event"
    },
    {
      "anonymous": false,
      "inputs": [
        {
          "indexed": true,
          "internalType": "bytes32",
          "name": "id",
          "type": "bytes32"
        }
      ],
      "name": "RequestFulfilled",
      "type": "event"
    },
    {
      "anonymous": false,
      "inputs": [
        {
          "indexed": true,
          "internalType": "bytes32",
          "name": "id",
          "type": "bytes32"
        }
      ],
      "name": "RequestSent",
      "type": "event"
    },
    {
      "stateMutability": "payable",
      "type": "fallback"
    },
    {
      "inputs": [],
      "name": "getCLFDeposit",
      "outputs": [
        {
          "internalType": "uint256",
          "name": "depositNative",
          "type": "uint256"
        }
      ],
      "stateMutability": "view",
      "type": "function"
    },
    {
      "inputs": [],
      "name": "getCohortsCount",
      "outputs": [
        {
          "internalType": "uint8",
          "name": "",
          "type": "uint8"
        }
      ],
      "stateMutability": "pure",
      "type": "function"
    },
    {
      "inputs": [
        {
          "internalType": "address",
          "name": "operator",
          "type": "address"
        }
      ],
      "name": "getOperatorDeposit",
      "outputs": [
        {
          "internalType": "uint256",
          "name": "",
          "type": "uint256"
        }
      ],
      "stateMutability": "view",
      "type": "function"
    },
    {
      "inputs": [
        {
          "internalType": "address",
          "name": "operator",
          "type": "address"
        }
      ],
      "name": "getOperatorFeesEarned",
      "outputs": [
        {
          "internalType": "uint256",
          "name": "",
          "type": "uint256"
        }
      ],
      "stateMutability": "view",
      "type": "function"
    },
    {
      "inputs": [
        {
          "internalType": "enum CommonTypes.ChainType",
          "name": "chainType",
          "type": "uint8"
        }
      ],
      "name": "getRegisteredOperators",
      "outputs": [
        {
          "internalType": "bytes[]",
          "name": "",
          "type": "bytes[]"
        }
      ],
      "stateMutability": "view",
      "type": "function"
    },
    {
      "inputs": [
        {
          "internalType": "bytes32",
          "name": "namespace",
          "type": "bytes32"
        },
        {
          "internalType": "uint256",
          "name": "offset",
          "type": "uint256"
        },
        {
          "internalType": "bytes32",
          "name": "mappingKey",
          "type": "bytes32"
        }
      ],
      "name": "getStorage",
      "outputs": [
        {
          "internalType": "uint256",
          "name": "",
          "type": "uint256"
        }
      ],
      "stateMutability": "view",
      "type": "function"
    },
    {
      "inputs": [],
      "name": "getWithdrawableConceroFee",
      "outputs": [
        {
          "internalType": "uint256",
          "name": "availableFees",
          "type": "uint256"
        }
      ],
      "stateMutability": "view",
      "type": "function"
    },
    {
      "inputs": [
        {
          "internalType": "bytes32",
          "name": "requestId",
          "type": "bytes32"
        },
        {
          "internalType": "bytes",
          "name": "response",
          "type": "bytes"
        },
        {
          "internalType": "bytes",
          "name": "err",
          "type": "bytes"
        }
      ],
      "name": "handleOracleFulfillment",
      "outputs": [],
      "stateMutability": "nonpayable",
      "type": "function"
    },
    {
      "inputs": [],
      "name": "i_owner",
      "outputs": [
        {
          "internalType": "address",
          "name": "",
          "type": "address"
        }
      ],
      "stateMutability": "view",
      "type": "function"
    },
    {
      "inputs": [
        {
          "internalType": "address",
          "name": "operator",
          "type": "address"
        }
      ],
      "name": "isOperatorRegistered",
      "outputs": [
        {
          "internalType": "bool",
          "name": "",
          "type": "bool"
        }
      ],
      "stateMutability": "view",
      "type": "function"
    },
    {
      "inputs": [
        {
          "internalType": "address",
          "name": "operator",
          "type": "address"
        }
      ],
      "name": "operatorDeposit",
      "outputs": [],
      "stateMutability": "payable",
      "type": "function"
    },
    {
      "inputs": [
        {
          "internalType": "bytes32",
          "name": "internalMessageConfig",
          "type": "bytes32"
        },
        {
          "internalType": "bytes32",
          "name": "messageId",
          "type": "bytes32"
        },
        {
          "internalType": "bytes32",
          "name": "messageHashSum",
          "type": "bytes32"
        },
        {
          "internalType": "bytes",
          "name": "srcChainData",
          "type": "bytes"
        }
      ],
      "name": "requestMessageReport",
      "outputs": [
        {
          "internalType": "bytes32",
          "name": "",
          "type": "bytes32"
        }
      ],
      "stateMutability": "nonpayable",
      "type": "function"
    },
    {
      "inputs": [
        {
          "internalType": "enum CommonTypes.ChainType[]",
          "name": "chainTypes",
          "type": "uint8[]"
        },
        {
          "internalType": "enum Types.OperatorRegistrationAction[]",
          "name": "operatorActions",
          "type": "uint8[]"
        },
        {
          "internalType": "bytes[]",
          "name": "operatorAddresses",
          "type": "bytes[]"
        }
      ],
      "name": "requestOperatorRegistration",
      "outputs": [
        {
          "internalType": "bytes32",
          "name": "clfRequestId",
          "type": "bytes32"
        }
      ],
      "stateMutability": "nonpayable",
      "type": "function"
    },
    {
      "inputs": [
        {
          "internalType": "uint256",
          "name": "amount",
          "type": "uint256"
        }
      ],
      "name": "setNativeUsdRate",
      "outputs": [],
      "stateMutability": "nonpayable",
      "type": "function"
    },
    {
      "inputs": [
        {
          "internalType": "bytes32",
          "name": "namespace",
          "type": "bytes32"
        },
        {
          "internalType": "uint256",
          "name": "offset",
          "type": "uint256"
        },
        {
          "internalType": "bytes32",
          "name": "mappingKey",
          "type": "bytes32"
        },
        {
          "internalType": "uint256",
          "name": "value",
          "type": "uint256"
        }
      ],
      "name": "setStorage",
      "outputs": [],
      "stateMutability": "nonpayable",
      "type": "function"
    },
    {
      "inputs": [
        {
          "internalType": "bytes32[]",
          "name": "namespaces",
          "type": "bytes32[]"
        },
        {
          "internalType": "uint256[]",
          "name": "offsets",
          "type": "uint256[]"
        },
        {
          "internalType": "bytes32[]",
          "name": "mappingKeys",
          "type": "bytes32[]"
        },
        {
          "internalType": "uint256[]",
          "name": "values",
          "type": "uint256[]"
        }
      ],
      "name": "setStorageBulk",
      "outputs": [],
      "stateMutability": "nonpayable",
      "type": "function"
    },
    {
      "inputs": [
        {
          "internalType": "address[]",
          "name": "tokens",
          "type": "address[]"
        },
        {
          "internalType": "uint256[]",
          "name": "amounts",
          "type": "uint256[]"
        }
      ],
      "name": "withdrawConceroFees",
      "outputs": [],
      "stateMutability": "nonpayable",
      "type": "function"
    },
    {
      "inputs": [
        {
          "internalType": "uint256",
          "name": "amount",
          "type": "uint256"
        }
      ],
      "name": "withdrawOperatorDeposit",
      "outputs": [
        {
          "internalType": "bool",
          "name": "success",
          "type": "bool"
        }
      ],
      "stateMutability": "nonpayable",
      "type": "function"
    },
    {
      "inputs": [
        {
          "internalType": "uint256",
          "name": "amount",
          "type": "uint256"
        }
      ],
      "name": "withdrawOperatorFee",
      "outputs": [
        {
          "internalType": "bool",
          "name": "success",
          "type": "bool"
        }
      ],
      "stateMutability": "nonpayable",
      "type": "function"
    },
    {
      "stateMutability": "payable",
      "type": "receive"
    }
  ],
  "bytecode": "0x6102003461019b57601f6138f038819003918201601f19168301916001600160401b038311848410176101a0578084926101609460405283398101031261019b5780519062ffffff8216820361019b5761005b602082016101b6565b91610068604083016101b6565b92606083015161007a608085016101ca565b61008660a086016101ca565b9060c08601519260ff8416840361019b5760e08701519461ffff8616860361019b576101008801519663ffffffff8816880361019b576101406101208a01519901519960018060a01b03166080523360a05260c05260e0526101405261016052610180526101e0526101a0526101c052610100526101205260405161371190816101df82396080518181816102840152612dfa015260a0518181816106e701528181610a6501528181610cd901528181610d2201526111a8015260c05181610fef015260e0518150506101005181611625015261012051816119ce01526101405181612467015261016051816124890152610180518150506101a0518161106601526101c0518161102801526101e051815050f35b600080fd5b634e487b7160e01b600052604160045260246000fd5b51906001600160a01b038216820361019b57565b51906001600160401b038216820361019b5756fe60806040526004361015610010575b005b60003560e01c80630ca76175146101405780631c471e941461013b5780631feb291f146101365780632a65d9ab1461013157806331d491941461012c5780633ae56951146101275780635a8733b314610122578063624db6321461011d5780636b1906f8146101185780636ea101ab146101135780638e3438f51461010e57806390239ec7146101095780639a5d5ca914610104578063b91443e7146100ff578063cc766882146100fa578063d1053131146100f5578063dba6335f146100f0578063e716afde146100eb5763fbfbdff80361000e57610d5b565b610d08565b610cc3565b610ca8565b610bc2565b610b2a565b610a3b565b6109ac565b6108de565b61082d565b6107f3565b6107d8565b610694565b610619565b610545565b610510565b6103fc565b610384565b61022f565b634e487b7160e01b600052604160045260246000fd5b60e081019081106001600160401b0382111761017657604052565b610145565b604081019081106001600160401b0382111761017657604052565b90601f801991011681019081106001600160401b0382111761017657604052565b604051906101c660c083610196565b565b6001600160401b03811161017657601f01601f191660200190565b81601f8201121561022a578035906101fa826101c8565b926102086040519485610196565b8284526020838301011161022a57816000926020809301838601378301015290565b600080fd5b3461022a57606036600319011261022a576004356024356001600160401b03811161022a576102629036906004016101e3565b6044356001600160401b03811161022a576102819036906004016101e3565b907f00000000000000000000000000000000000000000000000000000000000000006001600160a01b0316330361037357602081015160001a6102c381610fb9565b806103195750906102d391611d90565b60666102dd6114d7565b0181600052602052604060002060ff1981541690557f85e1543bf2f84fe80c6badbce3648c8539ad1df4d2b3d822938ca0538be727e6600080a2005b80610325600192610fb9565b03610339579061033491611b59565b6102d3565b5061036b7fbcf5ce4fda95e104d7172732bf495e532c7355ebce10657ed2161d41d3a2b0e59160405191829182611458565b0390a16102d3565b63c6829f8360e01b60005260046000fd5b3461022a57608036600319011261022a576024356064356004356044356001600160401b03831161022a576020936103c36103f49436906004016101e3565b926103ef60ff6103e860676103d6611469565b33600090815291016020526040902090565b5416610d87565b610d9f565b604051908152f35b3461022a57602036600319011261022a5760043561042260ff6103e860676103d6611469565b61044833606a610430611469565b019060018060a01b0316600052602052604060002090565b54610454821515610e41565b610462818381811115610e59565b8181039081116104fa5761047a33606a610430611469565b55610483611469565b9081548181039081116104fa576104f69255600080808084335af1906104a7610ead565b506104b182610edd565b60405190815233907fc43e057480321c0f9aec5029e2f42bb82383abd09bc79fd2fbcb50c5071735729080602081015b0390a260405190151581529081906020820190565b0390f35b610e79565b6001600160a01b0381160361022a57565b3461022a57602036600319011261022a57602061053c600435610532816104ff565b606a610430611469565b54604051908152f35b3461022a57602036600319011261022a5760043561056b60ff6103e860676103d6611469565b610579336068610430611469565b54610585821515610e41565b610593828280821115610ef5565b8181039081116104fa576105ab336068610430611469565b5560016105b6611469565b019081548181039081116104fa576104f69255600080808084335af1906105db610ead565b506105e582610edd565b60405190815233907f84863957610e3c6567187cf240a9979c5c8d56d4dba4473b5ac46a10d32469749080602081016104e1565b3461022a57606036600319011261022a57602060243560443560043561063e816117a5565b811561065b57604080519283529201838201522054604051908152f35b905001546103f4565b9181601f8401121561022a578235916001600160401b03831161022a576020808501948460051b01011161022a57565b3461022a57604036600319011261022a576004356001600160401b03811161022a576106c4903690600401610664565b6024356001600160401b03811161022a576106e3903690600401610664565b92907f000000000000000000000000000000000000000000000000000000000000000061071a336001600160a01b03831614610f15565b848414806107cf575b61072c90610f2d565b600061073661142d565b9360005b86811061074357005b610756610751828985610f5b565b610f70565b9284610763838b89610f5b565b3594610770861515610e41565b6001600160a01b0316806107bb575050906107b5600080808061079589600198610f96565b986107a48d8b81811115610e59565b8a5af16107af610ead565b50610edd565b0161073a565b946107ca9160019493966117fa565b6107b5565b50831515610723565b3461022a57600036600319011261022a5760206103f4610fde565b3461022a57602036600319011261022a57602060ff610821600435610817816104ff565b6067610430611469565b54166040519015158152f35b602036600319011261022a57600435610845816104ff565b61085a610850610fde565b3481341015610ef5565b6001600160a01b038116156108cd57610877906068610430611469565b8054903482018092116104fa5755600161088f611469565b0161089b348254610f96565b905560405134815233907f06653c045d0a3144153a51ac6909baae43b8d5b67184cb74e988b72858727fe490602090a2005b63e6c4247b60e01b60005260046000fd5b3461022a57600036600319011261022a57602060405160018152f35b6002111561022a57565b60005b8381106109175750506000910152565b8181015183820152602001610907565b9060209161094081518092818552858086019101610904565b601f01601f1916010190565b602081016020825282518091526040820191602060408360051b8301019401926000915b83831061097f57505050505090565b909192939460208061099d600193603f198682030187528951610927565b97019301930191939290610970565b3461022a57602036600319011261022a576109dc6004356109cc816108fa565b60666109d6611469565b016110ac565b80546109e781610ab6565b916109f56040519384610196565b818352602083019060005260206000206000915b838310610a1e57604051806104f6878261094c565b600160208192610a2d856110fe565b815201920192019190610a09565b3461022a57608036600319011261022a57606435602435604435600435610a8c6001600160a01b037f0000000000000000000000000000000000000000000000000000000000000000163314610f15565b610a95816117a5565b8115610aad5760408051928352920160208201522055005b90500155600080f35b6001600160401b0381116101765760051b60200190565b9080601f8301121561022a578135610ae481610ab6565b92610af26040519485610196565b81845260208085019260051b82010192831161022a57602001905b828210610b1a5750505090565b8135815260209182019101610b0d565b3461022a57608036600319011261022a576004356001600160401b03811161022a57610b5a903690600401610acd565b6024356001600160401b03811161022a57610b79903690600401610acd565b906044356001600160401b03811161022a57610b99903690600401610acd565b606435926001600160401b03841161022a57610bbc61000e943690600401610acd565b926111a0565b3461022a57606036600319011261022a576004356001600160401b03811161022a57610bf2903690600401610664565b906024356001600160401b03811161022a57610c12903690600401610664565b9190604435906001600160401b03821161022a576104f694610c8c610c5c7f8dd8d12374b84b953ae64df22c21c4595675aa2fd20893fdeef36a1e0c80ba81943690600401610664565b9087841480610c9f575b610c6f90610f2d565b610c7d82828a88888c611998565b976040519586953399876113f3565b0390a26040519081529081906020820190565b50838214610c66565b3461022a57600036600319011261022a5760206103f461142d565b3461022a57600036600319011261022a576040517f00000000000000000000000000000000000000000000000000000000000000006001600160a01b03168152602090f35b3461022a57602036600319011261022a57600435610d50337f00000000000000000000000000000000000000000000000000000000000000006001600160a01b031614610f15565b610d58611761565b55005b3461022a57602036600319011261022a57602061053c600435610d7d816104ff565b6068610430611469565b15610d8e57565b6326b9cdff60e11b60005260046000fd5b9291906067610dac6114d7565b018160005260205260ff60406000205416610e3057610e2d936067610dcf6114d7565b01826000526020526040600020600160ff1982541617905581817f9f384a5369a0beb40a3608d4b70fca237a50092bdf6c74d2bbe18920de793fd46040518681526040602082015280610e25604082018a610927565b0390a36115d1565b90565b637b04260960e01b60005260046000fd5b15610e4857565b63162908e360e11b60005260046000fd5b15610e62575050565b63a458261b60e01b60005260045260245260446000fd5b634e487b7160e01b600052601160045260246000fd5b601f198101919082116104fa57565b6000198101919082116104fa57565b3d15610ed8573d90610ebe826101c8565b91610ecc6040519384610196565b82523d6000602084013e565b606090565b15610ee457565b6312171d8360e31b60005260046000fd5b15610efe575050565b63052dcc5960e51b60005260045260245260446000fd5b15610f1c57565b6330cd747160e01b60005260046000fd5b15610f3457565b631fec674760e31b60005260046000fd5b634e487b7160e01b600052603260045260246000fd5b9190811015610f6b5760051b0190565b610f45565b35610e2d816104ff565b60840190816084116104fa57565b90602082018092116104fa57565b919082018092116104fa57565b634e487b7160e01b600052602160045260246000fd5b60021115610fc357565b610fa3565b908160011b91808304600214901517156104fa57565b6065610fe8611761565b0162ffffff7f00000000000000000000000000000000000000000000000000000000000000001660005260205260406000205480156110965763ffffffff7f0000000000000000000000000000000000000000000000000000000000000000168181029181830414901517156104fa5761108a611063611761565b547f0000000000000000000000000000000000000000000000000000000000000000611905565b81018091116104fa5790565b63c6af252960e01b600052600160045260246000fd5b906110b681610fb9565b600052602052604060002090565b90600182811c921680156110f4575b60208310146110de57565b634e487b7160e01b600052602260045260246000fd5b91607f16916110d3565b9060405191826000825492611112846110c4565b808452936001811690811561117e5750600114611137575b506101c692500383610196565b90506000929192526020600020906000915b8183106111625750509060206101c6928201013861112a565b6020919350806001915483858901015201910190918492611149565b9050602092506101c694915060ff191682840152151560051b8201013861112a565b93916111d6337f00000000000000000000000000000000000000000000000000000000000000006001600160a01b031614610f15565b60005b85518110156111fe57806111f86111f2600193896112f4565b516117a5565b016111d9565b5090919284518351809114908161128c575b5080611281575b61122090610f2d565b60005b8551811015611279578060019160051b6020818901015190602081880101519060208082890101519187010151928160001461127057604080519283529201602082015220555b01611223565b9050015561126a565b505050509050565b508151815114611217565b905082511438611210565b805115610f6b5760200190565b805160011015610f6b5760400190565b805160021015610f6b5760600190565b805160031015610f6b5760800190565b805160041015610f6b5760a00190565b805160051015610f6b5760c00190565b8051821015610f6b5760209160051b010190565b9160209082815201919060005b8181106113225750505090565b9091926020806001928635611336816108fa565b61133f81610fb9565b8152019401929101611315565b908060209392818452848401376000828201840152601f01601f1916010190565b90602083828152019060208160051b85010193836000915b8383106113955750505050505090565b909192939495601f198282030186528635601e198436030181121561022a57830190602082359201916001600160401b03811161022a57803603831361022a576113e5602092839260019561134c565b980196019493019190611385565b94929093611411610e2d979561141f94606089526060890191611308565b918683036020880152611308565b92604081850391015261136d565b47611436611469565b546001611441611469565b015481018091116104fa5781039081116104fa5790565b906020610e2d928181520190610927565b60405160208101907f636f6e6365726f76657269666965722e6f70657261746f722e73746f726167658252602081526114a3604082610196565b51902060001981019081116104fa576040519060208201908152602082526114cc604083610196565b9051902060ff191690565b60405160208101907f636f6e6365726f76657269666965722e76657269666965722e73746f726167658252602081526114a3604082610196565b60405160e091906115228382610196565b6006815291601f19018260005b82811061153b57505050565b80606060208093850101520161152f565b60405160c0919061155d8382610196565b6005815291601f19018260005b82811061157657505050565b80606060208093850101520161156a565b9061159182610ab6565b61159e6040519182610196565b82815280926115af601f1991610ab6565b019060005b8281106115c057505050565b8060606020809385010152016115b4565b91611733936116826116cb6116ee936116826116a3611682976116046115fe6115f8611761565b546118b7565b33611fb7565b50611682611690611613611511565b9b8c6116646040519161165f836116517f00000000000000000000000000000000000000000000000000000000000000006020830160209181520190565b03601f198101855284610196565b611297565b5261166e8d611297565b506040519283916020830160209181520190565b03601f198101835282610196565b6116998b6112a4565b5261166e8a6112a4565b6116ac886112b4565b526116b6876112b4565b50604051928391602083019190602083019252565b6116d4856112c4565b526116de846112c4565b5060405192839160208301611458565b6116f7826112d4565b52611701816112d4565b50604080513360208201529061171a9082908101611682565b611723826112e4565b5261172d816112e4565b50611ff6565b610e2d6117548260666117446114d7565b0190600052602052604060002090565b805460ff19166001179055565b60405160208101907f636f6e6365726f76657269666965722e7072696365666565642e73746f7261678252606560f81b6040820152602181526114a3604182610196565b6117ad6114d7565b81149081156117e8575b81156117d7575b50156117c657565b630a02739760e41b60005260046000fd5b90506117e1611761565b14386117be565b90506117f2611469565b8114906117b7565b60405163a9059cbb60e01b60208281019182526001600160a01b0390941660248301526044808301959095529381529092600091611839606482610196565b519082855af11561188b576000513d61188257506001600160a01b0381163b155b6118615750565b635274afe760e01b60009081526001600160a01b0391909116600452602490fd5b6001141561185a565b6040513d6000823e3d90fd5b81156118a1570490565b634e487b7160e01b600052601260045260246000fd5b600081156118f15750600081156118dd57506e01ed09bead87c0378d8e64000000000490565b634e487b7160e01b81526012600452602490fd5b63c6af252960e01b81526004819052602490fd5b81156119605761ffff16670de0b6b3a7640000810290808204670de0b6b3a764000014901517156104fa57612710900490670de0b6b3a7640000820291808304670de0b6b3a764000014901517156104fa57610e2d91611897565b63c6af252960e01b600052600060045260246000fd5b916020610e2d938181520191611308565b916020610e2d93818152019161136d565b939092611a33611a599361173397956119b56115fe6115f8611761565b50611a206119c161154c565b986040516119fa816116827f00000000000000000000000000000000000000000000000000000000000000006020830160209181520190565b611a038b611297565b52611a0d8a611297565b5061168260405193849260208401611976565b611a29886112a4565b52611a0d876112a4565b611a3c856112b4565b52611a46846112b4565b5061168260405193849260208401611987565b611a62826112c4565b52611a6c816112c4565b506040805133602082015290611a859082908101611682565b611a8e826112d4565b5261172d816112d4565b51610e2d81610fb9565b9081602091031261022a5751610e2d816104ff565b15611abe57565b634265bbb960e11b60005260046000fd5b6040810160408252825180915260206060830193019060005b818110611b385750505060208183039101526020808351928381520192019060005b818110611b175750505090565b9091926020806001928651611b2b81610fb9565b8152019401929101611b0a565b9091936020806001928751611b4c81610fb9565b8152019501929101611ae8565b8151611d5957611b699150612604565b805160208201805151606084018051519295936001600160a01b0316929091611b9e9181149081611d4a575b50949394610f2d565b604060009301925b85518051821015611d025790611bc6611bc1826001946112f4565b611a98565b611bd4611bc18388516112f4565b611bdd82610fb9565b8115611bec575b505001611ba6565b611c19611c0d611bfd8588516112f4565b5160208082518301019101611aa2565b6001600160a01b031690565b90611c3160a086901b86900380841690891614611ab7565b611c3a81610fb9565b808503611c97575060405160609190911b6bffffffffffffffffffffffff19166020820152611c7f91611c7a82603481015b03601f198101845283610196565b61288d565b611c90611754856067610430611469565b3880611be4565b611ca081610fb9565b15611cad575b5050611c90565b60405160609190911b6bffffffffffffffffffffffff19166020820152611ce091611cdb8260348101611c6c565b612707565b611cfb611cf1856067610430611469565b805460ff19169055565b3880611ca6565b5050507fe45aa49322ca788544241b0cf4a43007ed43fb0fc18024f8664bafa21616f64391929351925190611d4560405192839260018060a01b03169583611acf565b0390a2565b90506040860151511438611b95565b50611d8b7fbcf5ce4fda95e104d7172732bf495e532c7355ebce10657ed2161d41d3a2b0e59160405191829182611458565b0390a1565b91908051611f835750611da16129b2565b506000602083015192604081015192606082015160808301519560a084015160e01c611dcc81612a1b565b95805b828110611f4a575050611de190610f7a565b9560026020888701015160f01c970194611dfa88612a5e565b956000905b8961ffff831610611f2257505050611e1687611587565b9560005b61ffff811689811015611e625761ffff91611e5a828a611e536001958e6020611e416129f6565b948860051b01015160208501526112f4565b528b6112f4565b500116611e1a565b50509091945060a0929650611eaf959397611e7b6101b7565b928684526020840152604083019788526060830152608082015201528060f81c9160ff8260f01c169160018060a01b031690565b915050611ef8611ede611eed611ec3611761565b54611ecd816118b7565b611ee6611ede87606a610430611469565b918254610f96565b90556118b7565b926068610430611469565b9055517fe926aaee2b4b6afb102e3dd8011621cf4b6e8eeae7dde6190388b45bbb39749c600080a2565b6001611f4182602061ffff948701015160208660051b8d010152610f88565b92011690611dff565b80611f70611f62611f5c600194610f7a565b8a612a4d565b516001600160f81b03191690565b831a611f7c828b612a4d565b5301611dcf565b7fbcf5ce4fda95e104d7172732bf495e532c7355ebce10657ed2161d41d3a2b0e5919250611d8b9060405191829182611458565b611fe590610d7d83611fcd836068610430611469565b5481611fdd856068610430611469565b541015610ef5565b8054908282039182116104fa575590565b612465610e2d916124606040519161200d8361015b565b60008352600060208401526000604084015260608084015260606080840152606060a0840152606060c084015261245a61038061204d6040519182610196565b61034981527f747279207b20636f6e7374205b742c20705d203d2061776169742050726f6d6960208201527f73652e616c6c285b206665746368282768747470733a2f2f7261772e6769746860408201527f756275736572636f6e74656e742e636f6d2f6574686572732d696f2f6574686560608201527f72732e6a732f76362e31302e302f646973742f6574686572732e756d642e6d6960808201527f6e2e6a7327292c206665746368282768747470733a2f2f7261772e676974687560a08201527f6275736572636f6e74656e742e636f6d2f636f6e6365726f2f76322d636f6e7460c08201527f72616374732f726566732f68656164732f6d61737465722f636c662f6469737460e08201527f2f726571756573745265706f72742e6d696e2e6a7327292c205d293b20636f6e6101008201527f7374205b652c20635d203d2061776169742050726f6d6973652e616c6c285b746101208201527f2e7465787428292c20702e7465787428295d293b20636f6e73742067203d20616101408201527f73796e632073203d3e207b2072657475726e20282027307827202b20417272616101608201527f792e66726f6d286e65772055696e7438417272617928617761697420637279706101808201527f746f2e737562746c652e64696765737428275348412d323536272c206e6577206101a08201527f54657874456e636f64657228292e656e636f6465287329292929202e6d6170286101c08201527f76203d3e2028273027202b20762e746f537472696e6728313629292e736c69636101e08201527f65282d32292e746f4c6f77657243617365282929202e6a6f696e2827272920296102008201527f3b207d3b20636f6e73742072203d20617761697420672863293b20636f6e73746102208201527f2078203d20617761697420672865293b20636f6e73742062203d2062797465736102408201527f417267735b305d2e746f4c6f7765724361736528293b20636f6e7374206f203d6102608201527f206279746573417267735b315d2e746f4c6f7765724361736528293b206966206102808201527f2872203d3d3d20622026262078203d3d3d206f29207b20636f6e7374206574686102a08201527f657273203d206e65772046756e6374696f6e2865202b20273b2072657475726e6102c08201527f206574686572733b272928293b2072657475726e206177616974206576616c286102e08201527f63293b207d207468726f77206e6577204572726f722860247b727d213d247b626103008201527f7d7c7c247b787d213d247b6f7d60293b207d20636174636820286529207b20746103208201527f68726f77206e6577204572726f7228652e6d6573736167652e736c6963652830610340820152682c2032353529293b7d60b81b61036082015284612fca565b82612a86565b612bc7565b7f0000000000000000000000000000000000000000000000000000000000000000907f000000000000000000000000000000000000000000000000000000000000000090612da3565b60405190608082018281106001600160401b038211176101765760405260608083600081528160208201528160408201520152565b9080601f8301121561022a5781516124fa81610ab6565b926125086040519485610196565b81845260208085019260051b82010192831161022a57602001905b8282106125305750505090565b60208091835161253f816108fa565b815201910190612523565b81601f8201121561022a5780519061256182610ab6565b9261256f6040519485610196565b82845260208085019360051b8301019181831161022a5760208101935b83851061259b57505050505090565b84516001600160401b03811161022a5782019083603f8301121561022a576020820151906125c8826101c8565b6125d56040519182610196565b828152604084840101861061022a576125f960209493859460408685019101610904565b81520194019361258c565b61260c6124ae565b506126156124ae565b9080518101906080816020840193031261022a5760208101519160408201516001600160401b03811161022a5782019181603f8401121561022a5760208301519261265f84610ab6565b9361266d6040519586610196565b8085526020808087019260051b840101019184831161022a57604001905b8282106126ed5750505060608101516001600160401b03811161022a578260206126b7928401016124e3565b916080820151916001600160401b03831161022a576126d9920160200161254a565b606085015260408401526020830152815290565b6020809183516126fc816108fa565b81520191019061268b565b61271861271f9160666109d6611469565b9182612e91565b90156127f257815460001981019081116104fa576127406127489184612803565b509183612803565b9190916127d75761275891612ee2565b805480156127dc57600019019061276f8282612803565b6127d75761277d81546110c4565b908161278857505055565b601f821160011461279b57600090555055565b6127c36127d4926001601f6127b585600052602060002090565b920160051c82019101612831565b600081815260208120918190559055565b55565b61281b565b634e487b7160e01b600052603160045260246000fd5b6325ec6c1f60e01b60005260046000fd5b8054821015610f6b5760005260206000200190600090565b634e487b7160e01b600052600060045260246000fd5b81811061283c575050565b60008155600101612831565b9190601f811161285757505050565b6101c6926000526020600020906020601f840160051c83019310612883575b601f0160051c0190612831565b9091508190612876565b61289e9092919260666109d6611469565b6128a88382612e91565b506129a157805468010000000000000000811015610176576128cf91600182018155612803565b6127d75782516001600160401b038111610176576128f7816128f184546110c4565b84612848565b6020601f821160011461293857819061292993949560009261292d575b50508160011b916000199060031b1c19161790565b9055565b015190503880612914565b601f1982169061294d84600052602060002090565b9160005b81811061298957509583600195969710612970575b505050811b019055565b015160001960f88460031b161c19169055388080612966565b9192602060018192868b015181550194019201612951565b6342ee68b560e01b60005260046000fd5b6040519060c082018281106001600160401b0382111761017657604052606060a0836000815260006020820152600060408201526000838201528260808201520152565b60408051909190612a078382610196565b60208152918290601f190190369060200137565b90612a25826101c8565b612a326040519182610196565b8281528092612a43601f19916101c8565b0190602036910137565b908151811015610f6b570160200190565b90612a6882610ab6565b612a756040519182610196565b8281528092612a43601f1991610ab6565b815115612a935760c00152565b63fe936cb760e01b60005260046000fd5b60405190612ab3604083610196565b600c82526b31b7b232a637b1b0ba34b7b760a11b6020830152565b60031115610fc357565b60405190612ae7604083610196565b60088252676c616e677561676560c01b6020830152565b60011115610fc357565b60405190612b17604083610196565b6006825265736f7572636560d01b6020830152565b60405190612b3b604083610196565b60048252636172677360e01b6020830152565b60405190612b5d604083610196565b600f82526e39b2b1b932ba39a637b1b0ba34b7b760891b6020830152565b60405190612b8a604083610196565b60078252667365637265747360c81b6020830152565b60405190612baf604083610196565b600982526862797465734172677360b81b6020830152565b612bcf61300d565b90612be1612bdb612aa4565b8361303e565b612bfe8151612bef81612ace565b612bf881612ace565b83613127565b612c09612bdb612ad8565b612c236040820151612c1a81612afe565b612bf881612afe565b612c2e612bdb612b08565b612c3c60608201518361303e565b60a08101805151612d3b575b506080810190815151612cbc575b60c0915001805151612c69575b50515190565b91612c75612bdb612ba0565b612c7e82613154565b60005b83518051821015612ca95790612ca3612c9c826001946112f4565b5185613199565b01612c81565b50509150612cb681613176565b38612c63565b602081018051612ccb81612ace565b612cd481612ace565b15612d2a5760c092612d0d612d2592612cf4612cee612b4e565b8861303e565b51612cfe81612ace565b612d0781612ace565b86613127565b612d1e612d18612b7b565b8661303e565b5184613199565b612c56565b63a80d31f760e01b60005260046000fd5b92612d4d612d47612b2c565b8461303e565b612d5683613154565b60005b84518051821015612d815790612d7b612d74826001946112f4565b518661303e565b01612d59565b50509250612d8e82613176565b38612c48565b9081602091031261022a575190565b916020916001600160401b0391612ddc604051958694859463230e93b160e11b865216600485015260a0602485015260a4840190610927565b60016044840152620186a060648401526084830191909152038160007f00000000000000000000000000000000000000000000000000000000000000006001600160a01b03165af1908115612e8c57600091612e5d575b50807f1131472297a800fee664d1d89cfa8f7676ff07189ecc53f80bbb5f4969099db8600080a290565b612e7f915060203d602011612e85575b612e778183610196565b810190612d94565b38612e33565b503d612e6d565b61188b565b919060005b8354811015612ed657612eb2612eac8286612803565b506110fe565b602081519101208251602084012014612ecd57600101612e96565b92505060019190565b50509050600090600090565b919091828114612fc557612ef683546110c4565b6001600160401b03811161017657612f12816128f184546110c4565b600093601f8211600114612f4f576129299293948291600092612f445750508160011b916000199060031b1c19161790565b015490503880612914565b612f63601f19831691600052602060002090565b94612f7384600052602060002090565b91815b818110612fad57509583600195969710612f9457505050811b019055565b015460001960f88460031b161c19169055388080612966565b9192600180602092868b015481550194019201612f76565b509050565b6000825115612fe457506000808252604082015260600152565b6322ce3edd60e01b8152600490fd5b604051906130008261017b565b6000602083606081520152565b6040516130198161017b565b6000613023612ff3565b8083526130396101006020850192848452613232565b505290565b815161308f9291906001600160401b03166017811161309257815161307a916130749061306d60605b60ff1690565b1760ff1690565b906133b4565b505b5190613086612ff3565b5080519161361e565b50565b60ff81116130bf5781516130b991906130b190601860605b17906133b4565b50825161359e565b5061307c565b61ffff81116130e45781516130b991906130dc90601960606130aa565b508251613525565b63ffffffff811161310b5781516130b9919061310390601a60606130aa565b5082516134ac565b81516130b9919061311f90601b60606130aa565b50825161342e565b906101c6916131368151613344565b506040519160208301526020825261314f604083610196565b613199565b602090613163609f82516133b4565b5001805190600182018092116104fa5752565b60209061318560ff82516133b4565b500180516000198101919082116104fa5752565b815161308f9291906001600160401b0316601781116131c657815161307a916130749061306d6040613067565b60ff81116131e25781516130b991906130b190601860406130aa565b61ffff81116131ff5781516130b991906130dc90601960406130aa565b63ffffffff811161321e5781516130b9919061310390601a60406130aa565b81516130b9919061311f90601b60406130aa565b9061323b612ff3565b50601f81168061326a575b508060208301526040519081835260008252810160200190811061022a5760405290565b602003602081116104fa5781018091116104fa5738613246565b9061328d612ff3565b508051613298612ff3565b506132a68251821115613617565b825151916132b48284610f96565b906020850151821161332d575b602091855183815196820101958211613325575b505001905b60208110156132ff57600019906020036101000a019081199051169082511617905290565b909161331a6133146133209285518152610f88565b93610f88565b91610e8f565b6132da565b5238806132d5565b61333f61333983610fc8565b866136c4565b6132c1565b61334c612ff3565b5080515160018101908181116104fa576020830151811015613385575b60c26020845192830101538051821161338157505090565b5290565b8160011b828104600214831517156104fa576133ae906133a785519186613232565b5084613284565b50613369565b906133bd612ff3565b5081515160018101918282116104fa5760208401518210156133f0575b6020845192830101538051821161338157505090565b8260011b838104600214841517156104fa576134199061341286519187613232565b5085613284565b506133da565b601f81116104fa576101000a90565b90613437612ff3565b508151518060080191826008116104fa5760208401518311613484575b613466613461600861341f565b610e9e565b90600885519384010191198251161790528051821161338157505090565b8260011b838104600214841517156104fa576134a69061341286519187613232565b50613454565b906134b5612ff3565b508151518060040191826004116104fa57602084015183116134fd575b6134df613461600461341f565b90600485519384010191198251161790528051821161338157505090565b8260011b838104600214841517156104fa5761351f9061341286519187613232565b506134d2565b9061352e612ff3565b508151518060020191826002116104fa5760208401518311613576575b613558613461600261341f565b90600285519384010191198251161790528051821161338157505090565b8260011b838104600214841517156104fa576135989061341286519187613232565b5061354b565b906135a7612ff3565b508151518060010191826001116104fa57602084015183116135ef575b6135d1613461600161341f565b90600185519384010191198251161790528051821161338157505090565b8260011b838104600214841517156104fa576136119061341286519187613232565b506135c4565b1561022a57565b91613627612ff3565b506136358251821115613617565b6020835151926136458385610f96565b8286015181116136ad575b8551838151968201019582116136a5575b505001905b602081101561368b57600019906020036101000a019081199051169082511617905290565b909161331a6133146136a09285518152610f88565b613666565b523880613661565b6136bf6136b982610fc8565b876136c4565b613650565b9061308f916136d581519282613232565b5061328456fea26469706673582212205fdfa45bc2a42d279cd0572ca6455468eedb0374707bcb7ae1eca9da04139cfd64736f6c634300081c0033",
  "linkReferences": {},
  "deployedLinkReferences": {}
}