{
  "_format": "hh-sol-artifact-1",
  "contractName": "ConceroVerifier",
  "sourceName": "contracts/ConceroVerifier/ConceroVerifier.sol",
  "abi": [
    {
      "inputs": [
        {
          "internalType": "uint24",
          "name": "chainSelector",
          "type": "uint24"
        },
        {
          "internalType": "address",
          "name": "USDC",
          "type": "address"
        },
        {
          "components": [
            {
              "internalType": "address",
              "name": "router",
              "type": "address"
            },
            {
              "internalType": "bytes32",
              "name": "donId",
              "type": "bytes32"
            },
            {
              "internalType": "uint64",
              "name": "subscriptionId",
              "type": "uint64"
            },
            {
              "internalType": "uint64",
              "name": "donHostedSecretsVersion",
              "type": "uint64"
            },
            {
              "internalType": "uint8",
              "name": "donHostedSecretsSlotId",
              "type": "uint8"
            },
            {
              "internalType": "uint16",
              "name": "premiumFeeUsdBps",
              "type": "uint16"
            },
            {
              "internalType": "uint32",
              "name": "callbackGasLimit",
              "type": "uint32"
            },
            {
              "internalType": "bytes32",
              "name": "requestCLFMessageReportJsCodeHash",
              "type": "bytes32"
            },
            {
              "internalType": "bytes32",
              "name": "requestOperatorRegistrationJsCodeHash",
              "type": "bytes32"
            }
          ],
          "internalType": "struct CLFParams",
          "name": "clfParams",
          "type": "tuple"
        }
      ],
      "stateMutability": "nonpayable",
      "type": "constructor"
    },
    {
      "inputs": [],
      "name": "EmptyArgs",
      "type": "error"
    },
    {
      "inputs": [],
      "name": "EmptySource",
      "type": "error"
    },
    {
      "inputs": [
        {
          "internalType": "uint256",
          "name": "requiredAmount",
          "type": "uint256"
        },
        {
          "internalType": "uint256",
          "name": "availableAmount",
          "type": "uint256"
        }
      ],
      "name": "InsufficientFee",
      "type": "error"
    },
    {
      "inputs": [
        {
          "internalType": "uint256",
          "name": "provided",
          "type": "uint256"
        },
        {
          "internalType": "uint256",
          "name": "required",
          "type": "uint256"
        }
      ],
      "name": "InsufficientFee",
      "type": "error"
    },
    {
      "inputs": [
        {
          "internalType": "uint256",
          "name": "provided",
          "type": "uint256"
        },
        {
          "internalType": "uint256",
          "name": "required",
          "type": "uint256"
        }
      ],
      "name": "InsufficientOperatorDeposit",
      "type": "error"
    },
    {
      "inputs": [],
      "name": "InvalidAddress",
      "type": "error"
    },
    {
      "inputs": [],
      "name": "InvalidAmount",
      "type": "error"
    },
    {
      "inputs": [],
      "name": "InvalidNamespace",
      "type": "error"
    },
    {
      "inputs": [],
      "name": "LengthMismatch",
      "type": "error"
    },
    {
      "inputs": [],
      "name": "MessageAlreadyProcessed",
      "type": "error"
    },
    {
      "inputs": [],
      "name": "NoInlineSecrets",
      "type": "error"
    },
    {
      "inputs": [],
      "name": "NotOwner",
      "type": "error"
    },
    {
      "inputs": [],
      "name": "OnlyRouterCanFulfill",
      "type": "error"
    },
    {
      "inputs": [],
      "name": "OperatorAddressMismatch",
      "type": "error"
    },
    {
      "inputs": [],
      "name": "OperatorAlreadyRegistered",
      "type": "error"
    },
    {
      "inputs": [],
      "name": "OperatorNotRegistered",
      "type": "error"
    },
    {
      "inputs": [
        {
          "internalType": "enum CommonErrors.RequiredVariableUnsetType",
          "name": "variableType",
          "type": "uint8"
        }
      ],
      "name": "RequiredVariableUnset",
      "type": "error"
    },
    {
      "inputs": [
        {
          "internalType": "address",
          "name": "token",
          "type": "address"
        }
      ],
      "name": "SafeERC20FailedOperation",
      "type": "error"
    },
    {
      "inputs": [],
      "name": "TransferFailed",
      "type": "error"
    },
    {
      "inputs": [],
      "name": "TransferFailed",
      "type": "error"
    },
    {
      "inputs": [],
      "name": "UnauthorizedOperator",
      "type": "error"
    },
    {
      "anonymous": false,
      "inputs": [
        {
          "indexed": false,
          "internalType": "bytes",
          "name": "err",
          "type": "bytes"
        }
      ],
      "name": "CLFRequestError",
      "type": "event"
    },
    {
      "anonymous": false,
      "inputs": [
        {
          "indexed": true,
          "internalType": "bytes32",
          "name": "messageId",
          "type": "bytes32"
        }
      ],
      "name": "MessageReport",
      "type": "event"
    },
    {
      "anonymous": false,
      "inputs": [
        {
          "indexed": true,
          "internalType": "bytes32",
          "name": "internalMessageConfig",
          "type": "bytes32"
        },
        {
          "indexed": true,
          "internalType": "bytes32",
          "name": "messageId",
          "type": "bytes32"
        },
        {
          "indexed": false,
          "internalType": "bytes32",
          "name": "messageHashSum",
          "type": "bytes32"
        },
        {
          "indexed": false,
          "internalType": "bytes",
          "name": "srcChainData",
          "type": "bytes"
        }
      ],
      "name": "MessageReportRequested",
      "type": "event"
    },
    {
      "anonymous": false,
      "inputs": [
        {
          "indexed": true,
          "internalType": "address",
          "name": "operator",
          "type": "address"
        },
        {
          "indexed": false,
          "internalType": "uint256",
          "name": "amount",
          "type": "uint256"
        }
      ],
      "name": "OperatorDepositWithdrawn",
      "type": "event"
    },
    {
      "anonymous": false,
      "inputs": [
        {
          "indexed": true,
          "internalType": "address",
          "name": "operator",
          "type": "address"
        },
        {
          "indexed": false,
          "internalType": "uint256",
          "name": "amount",
          "type": "uint256"
        }
      ],
      "name": "OperatorDeposited",
      "type": "event"
    },
    {
      "anonymous": false,
      "inputs": [
        {
          "indexed": true,
          "internalType": "address",
          "name": "operator",
          "type": "address"
        },
        {
          "indexed": false,
          "internalType": "uint256",
          "name": "amount",
          "type": "uint256"
        }
      ],
      "name": "OperatorFeeWithdrawn",
      "type": "event"
    },
    {
      "anonymous": false,
      "inputs": [
        {
          "indexed": true,
          "internalType": "address",
          "name": "operator",
          "type": "address"
        },
        {
          "indexed": false,
          "internalType": "enum CommonTypes.ChainType[]",
          "name": "chainTypes",
          "type": "uint8[]"
        },
        {
          "indexed": false,
          "internalType": "enum Types.OperatorRegistrationAction[]",
          "name": "operatorActions",
          "type": "uint8[]"
        }
      ],
      "name": "OperatorRegistered",
      "type": "event"
    },
    {
      "anonymous": false,
      "inputs": [
        {
          "indexed": true,
          "internalType": "address",
          "name": "requester",
          "type": "address"
        },
        {
          "indexed": false,
          "internalType": "enum CommonTypes.ChainType[]",
          "name": "chainTypes",
          "type": "uint8[]"
        },
        {
          "indexed": false,
          "internalType": "enum Types.OperatorRegistrationAction[]",
          "name": "operatorActions",
          "type": "uint8[]"
        },
        {
          "indexed": false,
          "internalType": "bytes[]",
          "name": "operatorAddresses",
          "type": "bytes[]"
        }
      ],
      "name": "OperatorRegistrationRequested",
      "type": "event"
    },
    {
      "anonymous": false,
      "inputs": [
        {
          "indexed": true,
          "internalType": "bytes32",
          "name": "id",
          "type": "bytes32"
        }
      ],
      "name": "RequestFulfilled",
      "type": "event"
    },
    {
      "anonymous": false,
      "inputs": [
        {
          "indexed": true,
          "internalType": "bytes32",
          "name": "id",
          "type": "bytes32"
        }
      ],
      "name": "RequestSent",
      "type": "event"
    },
    {
      "stateMutability": "payable",
      "type": "fallback"
    },
    {
      "inputs": [],
      "name": "getCLFDeposit",
      "outputs": [
        {
          "internalType": "uint256",
          "name": "depositNative",
          "type": "uint256"
        }
      ],
      "stateMutability": "view",
      "type": "function"
    },
    {
      "inputs": [],
      "name": "getCohortsCount",
      "outputs": [
        {
          "internalType": "uint8",
          "name": "",
          "type": "uint8"
        }
      ],
      "stateMutability": "pure",
      "type": "function"
    },
    {
      "inputs": [
        {
          "internalType": "address",
          "name": "operator",
          "type": "address"
        }
      ],
      "name": "getOperatorDeposit",
      "outputs": [
        {
          "internalType": "uint256",
          "name": "",
          "type": "uint256"
        }
      ],
      "stateMutability": "view",
      "type": "function"
    },
    {
      "inputs": [
        {
          "internalType": "address",
          "name": "operator",
          "type": "address"
        }
      ],
      "name": "getOperatorFeesEarned",
      "outputs": [
        {
          "internalType": "uint256",
          "name": "",
          "type": "uint256"
        }
      ],
      "stateMutability": "view",
      "type": "function"
    },
    {
      "inputs": [
        {
          "internalType": "enum CommonTypes.ChainType",
          "name": "chainType",
          "type": "uint8"
        }
      ],
      "name": "getRegisteredOperators",
      "outputs": [
        {
          "internalType": "bytes[]",
          "name": "",
          "type": "bytes[]"
        }
      ],
      "stateMutability": "view",
      "type": "function"
    },
    {
      "inputs": [
        {
          "internalType": "bytes32",
          "name": "namespace",
          "type": "bytes32"
        },
        {
          "internalType": "uint256",
          "name": "offset",
          "type": "uint256"
        },
        {
          "internalType": "bytes32",
          "name": "mappingKey",
          "type": "bytes32"
        }
      ],
      "name": "getStorage",
      "outputs": [
        {
          "internalType": "uint256",
          "name": "",
          "type": "uint256"
        }
      ],
      "stateMutability": "view",
      "type": "function"
    },
    {
      "inputs": [],
      "name": "getWithdrawableConceroFee",
      "outputs": [
        {
          "internalType": "uint256",
          "name": "availableFees",
          "type": "uint256"
        }
      ],
      "stateMutability": "view",
      "type": "function"
    },
    {
      "inputs": [
        {
          "internalType": "bytes32",
          "name": "requestId",
          "type": "bytes32"
        },
        {
          "internalType": "bytes",
          "name": "response",
          "type": "bytes"
        },
        {
          "internalType": "bytes",
          "name": "err",
          "type": "bytes"
        }
      ],
      "name": "handleOracleFulfillment",
      "outputs": [],
      "stateMutability": "nonpayable",
      "type": "function"
    },
    {
      "inputs": [],
      "name": "i_owner",
      "outputs": [
        {
          "internalType": "address",
          "name": "",
          "type": "address"
        }
      ],
      "stateMutability": "view",
      "type": "function"
    },
    {
      "inputs": [
        {
          "internalType": "address",
          "name": "operator",
          "type": "address"
        }
      ],
      "name": "isOperatorRegistered",
      "outputs": [
        {
          "internalType": "bool",
          "name": "",
          "type": "bool"
        }
      ],
      "stateMutability": "view",
      "type": "function"
    },
    {
      "inputs": [
        {
          "internalType": "address",
          "name": "operator",
          "type": "address"
        }
      ],
      "name": "operatorDeposit",
      "outputs": [],
      "stateMutability": "payable",
      "type": "function"
    },
    {
      "inputs": [
        {
          "internalType": "bytes32",
          "name": "internalMessageConfig",
          "type": "bytes32"
        },
        {
          "internalType": "bytes32",
          "name": "messageId",
          "type": "bytes32"
        },
        {
          "internalType": "bytes32",
          "name": "messageHashSum",
          "type": "bytes32"
        },
        {
          "internalType": "bytes",
          "name": "srcChainData",
          "type": "bytes"
        }
      ],
      "name": "requestMessageReport",
      "outputs": [
        {
          "internalType": "bytes32",
          "name": "",
          "type": "bytes32"
        }
      ],
      "stateMutability": "nonpayable",
      "type": "function"
    },
    {
      "inputs": [
        {
          "internalType": "enum CommonTypes.ChainType[]",
          "name": "chainTypes",
          "type": "uint8[]"
        },
        {
          "internalType": "enum Types.OperatorRegistrationAction[]",
          "name": "operatorActions",
          "type": "uint8[]"
        },
        {
          "internalType": "bytes[]",
          "name": "operatorAddresses",
          "type": "bytes[]"
        }
      ],
      "name": "requestOperatorRegistration",
      "outputs": [
        {
          "internalType": "bytes32",
          "name": "clfRequestId",
          "type": "bytes32"
        }
      ],
      "stateMutability": "nonpayable",
      "type": "function"
    },
    {
      "inputs": [
        {
          "internalType": "uint256",
          "name": "amount",
          "type": "uint256"
        }
      ],
      "name": "setNativeUsdRate",
      "outputs": [],
      "stateMutability": "nonpayable",
      "type": "function"
    },
    {
      "inputs": [
        {
          "internalType": "bytes32",
          "name": "namespace",
          "type": "bytes32"
        },
        {
          "internalType": "uint256",
          "name": "offset",
          "type": "uint256"
        },
        {
          "internalType": "bytes32",
          "name": "mappingKey",
          "type": "bytes32"
        },
        {
          "internalType": "uint256",
          "name": "value",
          "type": "uint256"
        }
      ],
      "name": "setStorage",
      "outputs": [],
      "stateMutability": "nonpayable",
      "type": "function"
    },
    {
      "inputs": [
        {
          "internalType": "bytes32[]",
          "name": "namespaces",
          "type": "bytes32[]"
        },
        {
          "internalType": "uint256[]",
          "name": "offsets",
          "type": "uint256[]"
        },
        {
          "internalType": "bytes32[]",
          "name": "mappingKeys",
          "type": "bytes32[]"
        },
        {
          "internalType": "uint256[]",
          "name": "values",
          "type": "uint256[]"
        }
      ],
      "name": "setStorageBulk",
      "outputs": [],
      "stateMutability": "nonpayable",
      "type": "function"
    },
    {
      "inputs": [
        {
          "internalType": "address[]",
          "name": "tokens",
          "type": "address[]"
        },
        {
          "internalType": "uint256[]",
          "name": "amounts",
          "type": "uint256[]"
        }
      ],
      "name": "withdrawConceroFees",
      "outputs": [],
      "stateMutability": "nonpayable",
      "type": "function"
    },
    {
      "inputs": [
        {
          "internalType": "uint256",
          "name": "amount",
          "type": "uint256"
        }
      ],
      "name": "withdrawOperatorDeposit",
      "outputs": [
        {
          "internalType": "bool",
          "name": "success",
          "type": "bool"
        }
      ],
      "stateMutability": "nonpayable",
      "type": "function"
    },
    {
      "inputs": [
        {
          "internalType": "uint256",
          "name": "amount",
          "type": "uint256"
        }
      ],
      "name": "withdrawOperatorFee",
      "outputs": [
        {
          "internalType": "bool",
          "name": "success",
          "type": "bool"
        }
      ],
      "stateMutability": "nonpayable",
      "type": "function"
    },
    {
      "stateMutability": "payable",
      "type": "receive"
    }
  ],
  "bytecode": "0x61020060405234801561001157600080fd5b506040516142453803806142458339810160408190526100309161016a565b805160208201516040830151606084015160808086015160a08088015160c0808a015160e0808c01516101009c8d01516001600160a01b039c8d169098523390955262ffffff909d1690915297909916909952610140949094526001600160401b039283166101605291166101805260ff9091166101e05261ffff9093166101a05263ffffffff166101c052919091526101205261024e565b80516001600160a01b03811681146100e057600080fd5b919050565b60405161012081016001600160401b038111828210171561011657634e487b7160e01b600052604160045260246000fd5b60405290565b80516001600160401b03811681146100e057600080fd5b805160ff811681146100e057600080fd5b805161ffff811681146100e057600080fd5b805163ffffffff811681146100e057600080fd5b600080600083850361016081121561018157600080fd5b845162ffffff8116811461019457600080fd5b93506101a2602086016100c9565b9250610120603f19820112156101b757600080fd5b506101c06100e5565b6101cc604086016100c9565b8152606085015160208201526101e46080860161011c565b60408201526101f560a0860161011c565b606082015261020660c08601610133565b608082015261021760e08601610144565b60a08201526102296101008601610156565b60c082015261012085015160e082015261014090940151610100850152509093909250565b60805160a05160c05160e05161010051610120516101405161016051610180516101a0516101c0516101e051613f3e610307600039600050506000610b2a01526000610b580152600050506000611ea501526000611eca01526000611781015260006111db0152600050506000610ac60152600081816103280152818161089f015281816109d801528181610a7d01528181610de801528181610e4c0152610f9d0152600081816103ad01526124da0152613f3e6000f3fe60806040526004361061010b5760003560e01c80636ea101ab1161009a578063cc76688211610061578063cc766882146102e1578063d105313114610301578063dba6335f14610316578063e716afde14610362578063fbfbdff81461038257005b80636ea101ab146102455780638e3438f51461025857806390239ec7146102745780639a5d5ca9146102a1578063b91443e7146102c157005b806331d49194116100de57806331d49194146101b05780633ae56951146101d05780635a8733b3146101f0578063624db632146102105780636b1906f81461022557005b80630ca761751461010d5780631c471e941461012d5780631feb291f146101605780632a65d9ab14610190575b005b34801561011957600080fd5b5061010b610128366004612cc5565b6103a2565b34801561013957600080fd5b5061014d610148366004612d35565b610426565b6040519081526020015b60405180910390f35b34801561016c57600080fd5b5061018061017b366004612d8e565b610525565b6040519015158152602001610157565b34801561019c57600080fd5b5061014d6101ab366004612dbc565b6106be565b3480156101bc57600080fd5b506101806101cb366004612d8e565b6106ea565b3480156101dc57600080fd5b5061014d6101eb366004612dd9565b610876565b3480156101fc57600080fd5b5061010b61020b366004612e49565b610894565b34801561021c57600080fd5b5061014d610ab5565b34801561023157600080fd5b50610180610240366004612dbc565b610b99565b61010b610253366004612dbc565b610bc8565b34801561026457600080fd5b5060405160018152602001610157565b34801561028057600080fd5b5061029461028f366004612ec5565b610cc6565b6040516101579190612f32565b3480156102ad57600080fd5b5061010b6102bc366004612f97565b610ddd565b3480156102cd57600080fd5b5061010b6102dc366004613054565b610e41565b3480156102ed57600080fd5b5061014d6102fc366004613104565b610ecd565b34801561030d57600080fd5b5061014d610f62565b34801561032257600080fd5b5061034a7f000000000000000000000000000000000000000000000000000000000000000081565b6040516001600160a01b039091168152602001610157565b34801561036e57600080fd5b5061010b61037d366004612d8e565b610f92565b34801561038e57600080fd5b5061014d61039d366004612dbc565b610fe8565b336001600160a01b037f000000000000000000000000000000000000000000000000000000000000000016146103eb5760405163c6829f8360e01b815260040160405180910390fd5b6103f6838383611014565b60405183907f85e1543bf2f84fe80c6badbce3648c8539ad1df4d2b3d822938ca0538be727e690600090a2505050565b60006104306110c7565b336000908152606791909101602052604090205460ff16610464576040516326b9cdff60e11b815260040160405180910390fd5b61046c611153565b6000858152606791909101602052604090205460ff16156104a057604051637b04260960e01b815260040160405180910390fd5b60016104aa611153565b606701600086815260200190815260200160002060006101000a81548160ff02191690831515021790555083857f9f384a5369a0beb40a3608d4b70fca237a50092bdf6c74d2bbe18920de793fd485856040516105089291906131a7565b60405180910390a361051c8585858561118f565b95945050505050565b600061052f6110c7565b336000908152606791909101602052604090205460ff16610563576040516326b9cdff60e11b815260040160405180910390fd5b600061056d6110c7565b336000908152606a9190910160205260409020549050826105a15760405163162908e360e11b815260040160405180910390fd5b8281808211156105d25760405163a458261b60e01b8152600481019290925260248201526044015b60405180910390fd5b506105df905083826131d6565b6105e76110c7565b336000908152606a919091016020526040902055826106046110c7565b80546000906106149084906131d6565b909155505060405133908490600081818185875af1925050503d8060008114610659576040519150601f19603f3d011682016040523d82523d6000602084013e61065e565b606091505b50508092505081610682576040516312171d8360e31b815260040160405180910390fd5b60405183815233907fc43e057480321c0f9aec5029e2f42bb82383abd09bc79fd2fbcb50c507173572906020015b60405180910390a250919050565b60006106c86110c7565b6001600160a01b039092166000908152606a9290920160205250604090205490565b60006106f46110c7565b336000908152606791909101602052604090205460ff16610728576040516326b9cdff60e11b815260040160405180910390fd5b60006107326110c7565b33600090815260689190910160205260409020549050826107665760405163162908e360e11b815260040160405180910390fd5b8083818111156107925760405163052dcc5960e51b8152600481019290925260248201526044016105c9565b5061079f905083826131d6565b6107a76110c7565b3360009081526068919091016020526040902055826107c46110c7565b60010160008282546107d691906131d6565b909155505060405133908490600081818185875af1925050503d806000811461081b576040519150601f19603f3d011682016040523d82523d6000602084013e610820565b606091505b50508092505081610844576040516312171d8360e31b815260040160405180910390fd5b60405183815233907f84863957610e3c6567187cf240a9979c5c8d56d4dba4473b5ac46a10d3246974906020016106b0565b6000610881846113ba565b61088c84848461154c565b949350505050565b336001600160a01b037f000000000000000000000000000000000000000000000000000000000000000016146108dd576040516330cd747160e01b815260040160405180910390fd5b82811480156108eb57508215155b61090b576040516001621398b960e31b0319815260040160405180910390fd5b600080610916610f62565b905060005b85811015610aac576000878783818110610937576109376131e9565b905060200201602081019061094c9190612dbc565b90506000868684818110610962576109626131e9565b9050602002013590506000811161098c5760405163162908e360e11b815260040160405180910390fd5b6001600160a01b038216610a6e576109a481866131ff565b94508484808211156109d25760405163a458261b60e01b8152600481019290925260248201526044016105c9565b505060007f00000000000000000000000000000000000000000000000000000000000000006001600160a01b03168260405160006040518083038185875af1925050503d8060008114610a41576040519150601f19603f3d011682016040523d82523d6000602084013e610a46565b606091505b5050905080610a68576040516312171d8360e31b815260040160405180910390fd5b50610aa2565b610aa26001600160a01b0383167f00000000000000000000000000000000000000000000000000000000000000008361157c565b505060010161091b565b50505050505050565b600080610ac06115d3565b62ffffff7f000000000000000000000000000000000000000000000000000000000000000016600090815260659190910160205260409020549050600181610b1c5760405163c6af252960e01b81526004016105c99190613246565b506000610b4f8263ffffffff7f000000000000000000000000000000000000000000000000000000000000000016613259565b90506000610b857f0000000000000000000000000000000000000000000000000000000000000000610b7f6115d3565b546115ed565b9050610b9181836131ff565b935050505090565b6000610ba36110c7565b6001600160a01b03909216600090815260679290920160205250604090205460ff1690565b6000610bd2610ab5565b9050348180821015610c005760405163052dcc5960e51b8152600481019290925260248201526044016105c9565b50506001600160a01b038216610c295760405163e6c4247b60e01b815260040160405180910390fd5b34610c326110c7565b6068016000846001600160a01b03166001600160a01b031681526020019081526020016000206000828254610c6791906131ff565b90915550349050610c766110c7565b6001016000828254610c8891906131ff565b909155505060405134815233907f06653c045d0a3144153a51ac6909baae43b8d5b67184cb74e988b72858727fe49060200160405180910390a25050565b6060610cd06110c7565b6066016000836001811115610ce757610ce7613212565b6001811115610cf857610cf8613212565b8152602001908152602001600020805480602002602001604051908101604052809291908181526020016000905b82821015610dd2578382906000526020600020018054610d4590613270565b80601f0160208091040260200160405190810160405280929190818152602001828054610d7190613270565b8015610dbe5780601f10610d9357610100808354040283529160200191610dbe565b820191906000526020600020905b815481529060010190602001808311610da157829003601f168201915b505050505081526020019060010190610d26565b505050509050919050565b336001600160a01b037f00000000000000000000000000000000000000000000000000000000000000001614610e26576040516330cd747160e01b815260040160405180910390fd5b610e2f846113ba565b610e3b84848484611661565b50505050565b336001600160a01b037f00000000000000000000000000000000000000000000000000000000000000001614610e8a576040516330cd747160e01b815260040160405180910390fd5b60005b8451811015610ec057610eb8858281518110610eab57610eab6131e9565b60200260200101516113ba565b600101610e8d565b50610e3b8484848461168e565b60008584148015610edd57508582145b610efd576040516001621398b960e31b0319815260040160405180910390fd5b610f0b87878787878761173a565b9050336001600160a01b03167f8dd8d12374b84b953ae64df22c21c4595675aa2fd20893fdeef36a1e0c80ba81888888888888604051610f50969594939291906133ac565b60405180910390a29695505050505050565b6000610f6c6110c7565b60010154610f786110c7565b54610f8391906131ff565b610f8d90476131d6565b905090565b336001600160a01b037f00000000000000000000000000000000000000000000000000000000000000001614610fdb576040516330cd747160e01b815260040160405180910390fd5b80610fe46115d3565b5550565b6000610ff26110c7565b6001600160a01b03909216600090815260689290920160205250604090205490565b6020820151600090811a9081600181111561103157611031613212565b0361104657611041848484611924565b6110a2565b600181600181111561105a5761105a613212565b0361106a57611041848484611a65565b7fbcf5ce4fda95e104d7172732bf495e532c7355ebce10657ed2161d41d3a2b0e58260405161109991906133f5565b60405180910390a15b6110aa611153565b600094855260660160205250506040909120805460ff1916905550565b604080517f636f6e6365726f76657269666965722e6f70657261746f722e73746f726167656020820152600091829160ff1991600191015b6040516020818303038152906040528051906020012060001c61112291906131d6565b60405160200161113491815260200190565b60408051601f1981840301815291905280516020909101201692915050565b604080517f636f6e6365726f76657269666965722e76657269666965722e73746f726167656020820152600091829160ff1991600191016110ff565b60006111a7336111a26064610b7f6115d3565b611d5b565b5060408051600680825260e08201909252600091816020015b60608152602001906001900390816111c057905050604080517f000000000000000000000000000000000000000000000000000000000000000060208201529192500160405160208183030381529060405281600081518110611225576112256131e9565b60200260200101819052508560405160200161124391815260200190565b60405160208183030381529060405281600181518110611265576112656131e9565b60200260200101819052508460405160200161128391815260200190565b604051602081830303815290604052816002815181106112a5576112a56131e9565b6020026020010181905250836040516020016112c391815260200190565b604051602081830303815290604052816003815181106112e5576112e56131e9565b60200260200101819052508260405160200161130191906133f5565b60405160208183030381529060405281600481518110611323576113236131e9565b60200260200101819052503360405160200161134e91906001600160a01b0391909116815260200190565b60405160208183030381529060405281600581518110611370576113706131e9565b602002602001018190525061138481611e24565b91506001611390611153565b600084815260669190910160205260409020805460ff191691151591909117905550949350505050565b604080517f636f6e6365726f76657269666965722e76657269666965722e73746f72616765602082015260ff1991600191016040516020818303038152906040528051906020012060001c61140f91906131d6565b60405160200161142191815260200190565b60405160208183030381529060405280519060200120168114806114c15750604080517f636f6e6365726f76657269666965722e6f70657261746f722e73746f72616765602082015260ff1991600191016040516020818303038152906040528051906020012060001c61149591906131d6565b6040516020016114a791815260200190565b604051602081830303815290604052805190602001201681145b8061152c575060405160ff19906001906114dd90602001613408565b6040516020818303038152906040528051906020012060001c61150091906131d6565b60405160200161151291815260200190565b604051602081830303815290604052805190602001201681145b61154957604051630a02739760e41b815260040160405180910390fd5b50565b600081801561156d5760408051848152868601602082015220549150611574565b8484015491505b509392505050565b604080516001600160a01b038416602482015260448082018490528251808303909101815260649091019091526020810180516001600160e01b031663a9059cbb60e01b1790526115ce908490611ef5565b505050565b60008060ff60001b1960016040516020016110ff90613408565b6000808261160f5760405163c6af252960e01b81526004016105c99190613246565b50600061271061162b61ffff8616670de0b6b3a7640000613259565b6116359190613451565b905060008361164c83670de0b6b3a7640000613259565b6116569190613451565b925050505b92915050565b8180156116805760408051848152868601602082015220829055611687565b8484018290555b5050505050565b825184511480156116a0575081518351145b80156116ad575080518251145b6116cd576040516001621398b960e31b0319815260040160405180910390fd5b60005b8451811015611687576020810260200185015160208202602001850151602083026020018501516020840260200185015181600081146117225760408051848152868601602082015220829055611729565b8484018290555b5050600190930192506116d0915050565b600061174d336111a26064610b7f6115d3565b5060408051600580825260c08201909252600091816020015b606081526020019060019003908161176657905050604080517f0000000000000000000000000000000000000000000000000000000000000000602082015291925001604051602081830303815290604052816000815181106117cb576117cb6131e9565b602002602001018190525087876040516020016117e9929190613465565b6040516020818303038152906040528160018151811061180b5761180b6131e9565b60200260200101819052508585604051602001611829929190613465565b6040516020818303038152906040528160028151811061184b5761184b6131e9565b60200260200101819052508383604051602001611869929190613479565b6040516020818303038152906040528160038151811061188b5761188b6131e9565b6020026020010181905250336040516020016118b691906001600160a01b0391909116815260200190565b604051602081830303815290604052816004815181106118d8576118d86131e9565b60200260200101819052506118ec81611e24565b915060016118f8611153565b600084815260669190910160205260409020805460ff1916911515919091179055509695505050505050565b805115611967577fbcf5ce4fda95e104d7172732bf495e532c7355ebce10657ed2161d41d3a2b0e58160405161195a91906133f5565b60405180910390a1505050565b600061197283611f66565b905060006119838260000151612003565b9250505060006119916115d3565b54905061199f6064826115ed565b6119a76110c7565b606a016000846001600160a01b03166001600160a01b0316815260200190815260200160002060008282546119dc91906131ff565b909155506119ed90506064826115ed565b6119f56110c7565b6068016000846001600160a01b03166001600160a01b031681526020019081526020016000206000828254611a2a91906131ff565b909155505060408084015190517fe926aaee2b4b6afb102e3dd8011621cf4b6e8eeae7dde6190388b45bbb39749c90600090a2505050505050565b805115611a9b577fbcf5ce4fda95e104d7172732bf495e532c7355ebce10657ed2161d41d3a2b0e58160405161195a91906133f5565b6000611aa683612044565b90506000611ab78260000151612003565b92505050816060015151826020015151148015611add5750816040015151826020015151145b611afd576040516001621398b960e31b0319815260040160405180910390fd5b60005b826020015151811015611d0857600083602001518281518110611b2557611b256131e9565b60200260200101519050600084604001518381518110611b4757611b476131e9565b6020026020010151905060006001811115611b6457611b64613212565b826001811115611b7657611b76613212565b03611cfe57600085606001518481518110611b9357611b936131e9565b60200260200101519050600081806020019051810190611bb3919061348d565b9050856001600160a01b0316816001600160a01b031614611be757604051634265bbb960e11b815260040160405180910390fd5b6001836001811115611bfb57611bfb613212565b03611c73576040516bffffffffffffffffffffffff19606083901b166020820152611c399085906034016040516020818303038152906040526120cb565b6001611c436110c7565b6001600160a01b038816600090815260679190910160205260409020805460ff1916911515919091179055611cfb565b6000836001811115611c8757611c87613212565b03611cfb576040516bffffffffffffffffffffffff19606083901b166020820152611cc5908590603401604051602081830303815290604052612157565b6000611ccf6110c7565b6001600160a01b038816600090815260679190910160205260409020805460ff19169115159190911790555b50505b5050600101611b00565b50806001600160a01b03167fe45aa49322ca788544241b0cf4a43007ed43fb0fc18024f8664bafa21616f64383602001518460400151604051611d4c9291906134aa565b60405180910390a25050505050565b600080611d666110c7565b6001600160a01b03851660009081526068919091016020526040902054905082611d8e6110c7565b6001600160a01b03861660009081526068919091016020526040902054829185911015611dd75760405163052dcc5960e51b8152600481019290925260248201526044016105c9565b505082611de26110c7565b6068016000866001600160a01b03166001600160a01b031681526020019081526020016000206000828254611e1791906131d6565b9091555092949350505050565b6000611e676040805160e0810190915280600081526020016000815260200160008152602001606081526020016060815260200160608152602001606081525090565b611e8d6040518061038001604052806103498152602001613bc0610349913982906121d2565b611e9781846121e3565b611eee611ea38261220d565b7f0000000000000000000000000000000000000000000000000000000000000000620186a07f00000000000000000000000000000000000000000000000000000000000000006124d5565b9392505050565b600080602060008451602086016000885af180611f18576040513d6000823e3d81fd5b50506000513d91508115611f30578060011415611f3d565b6001600160a01b0384163b155b15610e3b57604051635274afe760e01b81526001600160a01b03851660048201526024016105c9565b6040805160c0810182526000808252602082018190529181018290526060808201929092526080810182905260a08101919091526040805160c0810182526000808252602082018190529181018290526060808201929092526080810182905260a081019190915282806020019051810190611fe29190613606565b60a08701526080860152606085015260408401526020830152815292915050565b6000808060ff61201660086101006131d6565b85901c16925060ff600861202c816101006131d6565b61203691906131d6565b93959385901c169392915050565b6120726040518060800160405280600080191681526020016060815260200160608152602001606081525090565b6120a06040518060800160405280600080191681526020016060815260200160608152602001606081525090565b828060200190518101906120b491906136fb565b606085015260408401526020830152815292915050565b60006120d56110c7565b60660160008460018111156120ec576120ec613212565b60018111156120fd576120fd613212565b81526020019081526020016000209050600061211982846125a7565b509050801561213b576040516342ee68b560e01b815260040160405180910390fd5b8154600181018355600083815260209020016116878482613836565b60006121616110c7565b606601600084600181111561217857612178613212565b600181111561218957612189613212565b815260200190815260200160002090506000806121a683856125a7565b91509150816121c8576040516325ec6c1f60e01b815260040160405180910390fd5b6116878382612617565b6121df826000808461269c565b5050565b80516000036122055760405163fe936cb760e01b815260040160405180910390fd5b60c090910152565b6060600061221c61010061271a565b90506122556040518060400160405280600c81526020016b31b7b232a637b1b0ba34b7b760a11b8152508261273b90919063ffffffff16565b825161227390600281111561226c5761226c613212565b8290612754565b6040805180820190915260088152676c616e677561676560c01b602082015261229d90829061273b565b60408301516122b490801561226c5761226c613212565b604080518082019091526006815265736f7572636560d01b60208201526122dc90829061273b565b60608301516122ec90829061273b565b60a08301515115612378576040805180820190915260048152636172677360e01b602082015261231d90829061273b565b6123268161278d565b60005b8360a001515181101561236e576123668460a00151828151811061234f5761234f6131e9565b60200260200101518361273b90919063ffffffff16565b600101612329565b50612378816127b1565b6080830151511561243c5760008360200151600281111561239b5761239b613212565b036123b95760405163a80d31f760e01b815260040160405180910390fd5b60408051808201909152600f81526e39b2b1b932ba39a637b1b0ba34b7b760891b60208201526123ea90829061273b565b6124038360200151600281111561226c5761226c613212565b6040805180820190915260078152667365637265747360c81b602082015261242c90829061273b565b608083015161243c9082906127cf565b60c083015151156124cd5760408051808201909152600981526862797465734172677360b81b602082015261247290829061273b565b61247b8161278d565b60005b8360c00151518110156124c3576124bb8460c0015182815181106124a4576124a46131e9565b6020026020010151836127cf90919063ffffffff16565b60010161247e565b506124cd816127b1565b515192915050565b6000807f00000000000000000000000000000000000000000000000000000000000000006001600160a01b031663461d27628688600188886040518663ffffffff1660e01b815260040161252d9594939291906138f7565b6020604051808303816000875af115801561254c573d6000803e3d6000fd5b505050506040513d601f19601f820116820180604052508101906125709190613940565b60405190915081907f1131472297a800fee664d1d89cfa8f7676ff07189ecc53f80bbb5f4969099db890600090a295945050505050565b60008060005b84548110156126075783805190602001208582815481106125d0576125d06131e9565b906000526020600020016040516125e79190613959565b6040518091039020036125ff57600192509050612610565b6001016125ad565b50600080915091505b9250929050565b81548290612627906001906131d6565b81548110612637576126376131e9565b90600052602060002001828281548110612653576126536131e9565b90600052602060002001908161266991906139ce565b508180548061267a5761267a613aa2565b6001900381819060005260206000200160006126969190612b7a565b90555050565b80516000036126be576040516322ce3edd60e01b815260040160405180910390fd5b838360028111156126d1576126d1613212565b908160028111156126e4576126e4613212565b905250604084018280156126fa576126fa613212565b9081801561270a5761270a613212565b9052506060909301929092525050565b612722612bb4565b805161272e90836127dc565b5060006020820152919050565b6127488260038351612853565b81516115ce908261296c565b81516127619060c261298d565b506121df828260405160200161277991815260200190565b6040516020818303038152906040526127cf565b6127988160046129f6565b6001816020018181516127ab91906131ff565b90525050565b6127bc8160076129f6565b6001816020018181516127ab91906131d6565b6127488260028351612853565b6040805180820190915260608152600060208201526127fc602083613ab8565b156128245761280c602083613ab8565b6128179060206131d6565b61282190836131ff565b91505b60208084018390526040518085526000815290818401018181101561284857600080fd5b604052509192915050565b6017816001600160401b031611612879578251610e3b9060e0600585901b16831761298d565b60ff816001600160401b0316116128b95782516128a1906018611fe0600586901b161761298d565b508251610e3b906001600160401b0383166001612a0d565b61ffff816001600160401b0316116128fa5782516128e2906019611fe0600586901b161761298d565b508251610e3b906001600160401b0383166002612a0d565b63ffffffff816001600160401b03161161293d57825161292590601a611fe0600586901b161761298d565b508251610e3b906001600160401b0383166004612a0d565b825161295490601b611fe0600586901b161761298d565b508251610e3b906001600160401b0383166008612a0d565b604080518082019091526060815260006020820152611eee83838451612a92565b60408051808201909152606081526000602082015282515160006129b28260016131ff565b9050846020015182106129d3576129d3856129ce836002613259565b612b63565b84516020838201018581535080518211156129ec578181525b5093949350505050565b81516115ce90601f611fe0600585901b161761298d565b6040805180820190915260608152600060208201528351516000612a3182856131ff565b90508560200151811115612a4e57612a4e866129ce836002613259565b60006001612a5e86610100613bb3565b612a6891906131d6565b90508651828101878319825116178152508051831115612a86578281525b50959695505050505050565b6040805180820190915260608152600060208201528251821115612ab557600080fd5b8351516000612ac484836131ff565b90508560200151811115612ae157612ae1866129ce836002613259565b855180518382016020019160009180851115612afb578482525b505050602086015b60208610612b3b5780518252612b1a6020836131ff565b9150612b276020826131ff565b9050612b346020876131d6565b9550612b03565b51815160001960208890036101000a0190811690199190911617905250849150509392505050565b8151612b6f83836127dc565b50610e3b838261296c565b508054612b8690613270565b6000825580601f10612b96575050565b601f0160209004906000526020600020908101906115499190612be9565b6040518060400160405280612bdc604051806040016040528060608152602001600081525090565b8152602001600081525090565b5b80821115612bfe5760008155600101612bea565b5090565b634e487b7160e01b600052604160045260246000fd5b604051601f8201601f191681016001600160401b0381118282101715612c4057612c40612c02565b604052919050565b60006001600160401b03821115612c6157612c61612c02565b50601f01601f191660200190565b600082601f830112612c8057600080fd5b8135612c93612c8e82612c48565b612c18565b818152846020838601011115612ca857600080fd5b816020850160208301376000918101602001919091529392505050565b600080600060608486031215612cda57600080fd5b8335925060208401356001600160401b03811115612cf757600080fd5b612d0386828701612c6f565b92505060408401356001600160401b03811115612d1f57600080fd5b612d2b86828701612c6f565b9150509250925092565b60008060008060808587031215612d4b57600080fd5b84359350602085013592506040850135915060608501356001600160401b03811115612d7657600080fd5b612d8287828801612c6f565b91505092959194509250565b600060208284031215612da057600080fd5b5035919050565b6001600160a01b038116811461154957600080fd5b600060208284031215612dce57600080fd5b8135611eee81612da7565b600080600060608486031215612dee57600080fd5b505081359360208301359350604090920135919050565b60008083601f840112612e1757600080fd5b5081356001600160401b03811115612e2e57600080fd5b6020830191508360208260051b850101111561261057600080fd5b60008060008060408587031215612e5f57600080fd5b84356001600160401b03811115612e7557600080fd5b612e8187828801612e05565b90955093505060208501356001600160401b03811115612ea057600080fd5b612eac87828801612e05565b95989497509550505050565b6002811061154957600080fd5b600060208284031215612ed757600080fd5b8135611eee81612eb8565b60005b83811015612efd578181015183820152602001612ee5565b50506000910152565b60008151808452612f1e816020860160208601612ee2565b601f01601f19169290920160200192915050565b6000602082016020835280845180835260408501915060408160051b86010192506020860160005b82811015612f8b57603f19878603018452612f76858351612f06565b94506020938401939190910190600101612f5a565b50929695505050505050565b60008060008060808587031215612fad57600080fd5b5050823594602084013594506040840135936060013592509050565b60006001600160401b03821115612fe257612fe2612c02565b5060051b60200190565b600082601f830112612ffd57600080fd5b813561300b612c8e82612fc9565b8082825260208201915060208360051b86010192508583111561302d57600080fd5b602085015b8381101561304a578035835260209283019201613032565b5095945050505050565b6000806000806080858703121561306a57600080fd5b84356001600160401b0381111561308057600080fd5b61308c87828801612fec565b94505060208501356001600160401b038111156130a857600080fd5b6130b487828801612fec565b93505060408501356001600160401b038111156130d057600080fd5b6130dc87828801612fec565b92505060608501356001600160401b038111156130f857600080fd5b612d8287828801612fec565b6000806000806000806060878903121561311d57600080fd5b86356001600160401b0381111561313357600080fd5b61313f89828a01612e05565b90975095505060208701356001600160401b0381111561315e57600080fd5b61316a89828a01612e05565b90955093505060408701356001600160401b0381111561318957600080fd5b61319589828a01612e05565b979a9699509497509295939492505050565b82815260406020820152600061088c6040830184612f06565b634e487b7160e01b600052601160045260246000fd5b8181038181111561165b5761165b6131c0565b634e487b7160e01b600052603260045260246000fd5b8082018082111561165b5761165b6131c0565b634e487b7160e01b600052602160045260246000fd5b6002811061154957634e487b7160e01b600052602160045260246000fd5b6020810161325383613228565b91905290565b808202811582820484141761165b5761165b6131c0565b600181811c9082168061328457607f821691505b6020821081036132a457634e487b7160e01b600052602260045260246000fd5b50919050565b81835260208301925060008160005b848110156129ec5781356132cc81612eb8565b6132d581613228565b865260209586019591909101906001016132b9565b81835281816020850137506000828201602090810191909152601f909101601f19169091010190565b60008383855260208501945060208460051b8201018360005b868110156133a057838303601f19018852813536879003601e1901811261335257600080fd5b86016020810190356001600160401b0381111561336e57600080fd5b80360382131561337d57600080fd5b6133888582846132ea565b60209a8b019a9095509390930192505060010161332c565b50909695505050505050565b6060815260006133c060608301888a6132aa565b82810360208401526133d38187896132aa565b905082810360408401526133e8818587613313565b9998505050505050505050565b602081526000611eee6020830184612f06565b7f636f6e6365726f76657269666965722e7072696365666565642e73746f7261678152606560f81b602082015260210190565b634e487b7160e01b600052601260045260246000fd5b6000826134605761346061343b565b500490565b60208152600061088c6020830184866132aa565b60208152600061088c602083018486613313565b60006020828403121561349f57600080fd5b8151611eee81612da7565b6040808252835190820181905260009060208501906060840190835b818110156134ed5783516134d981613228565b8352602093840193909201916001016134c6565b50508381036020808601919091528551808352918101925085019060005b8181101561353357825161351e81613228565b8452602093840193929092019160010161350b565b50919695505050505050565b600082601f83011261355057600080fd5b815161355e612c8e82612c48565b81815284602083860101111561357357600080fd5b61088c826020830160208701612ee2565b600082601f83011261359557600080fd5b81516135a3612c8e82612fc9565b8082825260208201915060208360051b8601019250858311156135c557600080fd5b602085015b8381101561304a5780516001600160401b038111156135e857600080fd5b6135f7886020838a010161353f565b845250602092830192016135ca565b60008060008060008060c0878903121561361f57600080fd5b86516020880151604089015160608a015160808b0151939950919750955093506001600160401b0381111561365357600080fd5b61365f89828a0161353f565b92505060a08701516001600160401b0381111561367b57600080fd5b61368789828a01613584565b9150509295509295509295565b600082601f8301126136a557600080fd5b81516136b3612c8e82612fc9565b8082825260208201915060208360051b8601019250858311156136d557600080fd5b602085015b8381101561304a5780516136ed81612eb8565b8352602092830192016136da565b6000806000806080858703121561371157600080fd5b845160208601519094506001600160401b0381111561372f57600080fd5b8501601f8101871361374057600080fd5b805161374e612c8e82612fc9565b8082825260208201915060208360051b85010192508983111561377057600080fd5b6020840193505b8284101561379b57835161378a81612eb8565b825260209384019390910190613777565b8096505050505060408501516001600160401b038111156137bb57600080fd5b6137c787828801613694565b92505060608501516001600160401b038111156137e357600080fd5b612d8287828801613584565b601f8211156115ce57806000526020600020601f840160051c810160208510156138165750805b601f840160051c820191505b818110156116875760008155600101613822565b81516001600160401b0381111561384f5761384f612c02565b6138638161385d8454613270565b846137ef565b6020601f82116001811461389a576000831561387f5750848201515b600184901b600019600386901b1c198216175b855550611687565b600084815260208120601f198516915b828110156138ca57878501518255602094850194600190920191016138aa565b50848210156138e85786840151600019600387901b60f8161c191681555b50505050600190811b01905550565b6001600160401b038616815260a06020820152600061391960a0830187612f06565b61ffff9590951660408301525063ffffffff92909216606083015260809091015292915050565b60006020828403121561395257600080fd5b5051919050565b600080835461396781613270565b60018216801561397e5760018114613993576139c3565b60ff19831686528115158202860193506139c3565b86600052602060002060005b838110156139bb5781548882015260019091019060200161399f565b505081860193505b509195945050505050565b8181036139d9575050565b6139e38254613270565b6001600160401b038111156139fa576139fa612c02565b613a088161385d8454613270565b6000601f821160018114613a3a576000831561387f575081850154600184901b600019600386901b1c19821617613892565b600085815260209020601f19841690600086815260209020845b83811015613a745782860154825560019586019590910190602001613a54565b5085831015613a925781850154600019600388901b60f8161c191681555b5050505050600190811b01905550565b634e487b7160e01b600052603160045260246000fd5b600082613ac757613ac761343b565b500690565b6001815b6001841115613b0757808504811115613aeb57613aeb6131c0565b6001841615613af957908102905b60019390931c928002613ad0565b935093915050565b600082613b1e5750600161165b565b81613b2b5750600061165b565b8160018114613b415760028114613b4b57613b67565b600191505061165b565b60ff841115613b5c57613b5c6131c0565b50506001821b61165b565b5060208310610133831016604e8410600b8410161715613b8a575081810a61165b565b613b976000198484613acc565b8060001904821115613bab57613bab6131c0565b029392505050565b6000611eee8383613b0f56fe747279207b20636f6e7374205b742c20705d203d2061776169742050726f6d6973652e616c6c285b206665746368282768747470733a2f2f7261772e67697468756275736572636f6e74656e742e636f6d2f6574686572732d696f2f6574686572732e6a732f76362e31302e302f646973742f6574686572732e756d642e6d696e2e6a7327292c206665746368282768747470733a2f2f7261772e67697468756275736572636f6e74656e742e636f6d2f636f6e6365726f2f76322d636f6e7472616374732f726566732f68656164732f6d61737465722f636c662f646973742f726571756573745265706f72742e6d696e2e6a7327292c205d293b20636f6e7374205b652c20635d203d2061776169742050726f6d6973652e616c6c285b742e7465787428292c20702e7465787428295d293b20636f6e73742067203d206173796e632073203d3e207b2072657475726e20282027307827202b2041727261792e66726f6d286e65772055696e743841727261792861776169742063727970746f2e737562746c652e64696765737428275348412d323536272c206e65772054657874456e636f64657228292e656e636f6465287329292929202e6d61702876203d3e2028273027202b20762e746f537472696e6728313629292e736c696365282d32292e746f4c6f77657243617365282929202e6a6f696e2827272920293b207d3b20636f6e73742072203d20617761697420672863293b20636f6e73742078203d20617761697420672865293b20636f6e73742062203d206279746573417267735b305d2e746f4c6f7765724361736528293b20636f6e7374206f203d206279746573417267735b315d2e746f4c6f7765724361736528293b206966202872203d3d3d20622026262078203d3d3d206f29207b20636f6e737420657468657273203d206e65772046756e6374696f6e2865202b20273b2072657475726e206574686572733b272928293b2072657475726e206177616974206576616c2863293b207d207468726f77206e6577204572726f722860247b727d213d247b627d7c7c247b787d213d247b6f7d60293b207d20636174636820286529207b207468726f77206e6577204572726f7228652e6d6573736167652e736c69636528302c2032353529293b7da26469706673582212209f2a9853812114dcdada4c72ce8c6d6e539e66a1493329d167a4ab907767a2e264736f6c634300081c0033",
  "linkReferences": {},
  "deployedLinkReferences": {}
}