{
  "_format": "hh-sol-artifact-1",
  "contractName": "ConceroRouter",
  "sourceName": "contracts/ConceroRouter/ConceroRouter.sol",
  "abi": [
    {
      "inputs": [
        {
          "internalType": "uint24",
          "name": "chainSelector",
          "type": "uint24"
        },
        {
          "internalType": "address",
          "name": "USDC",
          "type": "address"
        },
        {
          "internalType": "address",
          "name": "conceroVerifier",
          "type": "address"
        },
        {
          "internalType": "uint64",
          "name": "conceroVerifierSubId",
          "type": "uint64"
        },
        {
          "internalType": "address[4]",
          "name": "clfSigners",
          "type": "address[4]"
        }
      ],
      "stateMutability": "nonpayable",
      "type": "constructor"
    },
    {
      "inputs": [
        {
          "internalType": "address",
          "name": "signer",
          "type": "address"
        }
      ],
      "name": "DuplicateSignatureDetected",
      "type": "error"
    },
    {
      "inputs": [],
      "name": "IncorrectNumberOfSignatures",
      "type": "error"
    },
    {
      "inputs": [
        {
          "internalType": "uint256",
          "name": "provided",
          "type": "uint256"
        },
        {
          "internalType": "uint256",
          "name": "required",
          "type": "uint256"
        }
      ],
      "name": "InsufficientFee",
      "type": "error"
    },
    {
      "inputs": [],
      "name": "InvalidAmount",
      "type": "error"
    },
    {
      "inputs": [],
      "name": "InvalidClfReportClient",
      "type": "error"
    },
    {
      "inputs": [],
      "name": "InvalidClfReportSubscriptionId",
      "type": "error"
    },
    {
      "inputs": [
        {
          "internalType": "enum Message.MessageConfigErrorType",
          "name": "error",
          "type": "uint8"
        }
      ],
      "name": "InvalidClientMessageConfig",
      "type": "error"
    },
    {
      "inputs": [],
      "name": "InvalidDstChainData",
      "type": "error"
    },
    {
      "inputs": [],
      "name": "InvalidMessageHashSum",
      "type": "error"
    },
    {
      "inputs": [],
      "name": "InvalidNamespace",
      "type": "error"
    },
    {
      "inputs": [],
      "name": "InvalidReceiver",
      "type": "error"
    },
    {
      "inputs": [],
      "name": "LengthMismatch",
      "type": "error"
    },
    {
      "inputs": [
        {
          "internalType": "bytes32",
          "name": "messageId",
          "type": "bytes32"
        }
      ],
      "name": "MessageAlreadyProcessed",
      "type": "error"
    },
    {
      "inputs": [
        {
          "internalType": "bytes32",
          "name": "messageId",
          "type": "bytes32"
        }
      ],
      "name": "MessageDeliveryFailed",
      "type": "error"
    },
    {
      "inputs": [],
      "name": "MessageTooLarge",
      "type": "error"
    },
    {
      "inputs": [],
      "name": "NotOwner",
      "type": "error"
    },
    {
      "inputs": [
        {
          "internalType": "enum CommonErrors.RequiredVariableUnsetType",
          "name": "variableType",
          "type": "uint8"
        }
      ],
      "name": "RequiredVariableUnset",
      "type": "error"
    },
    {
      "inputs": [
        {
          "internalType": "address",
          "name": "token",
          "type": "address"
        }
      ],
      "name": "SafeERC20FailedOperation",
      "type": "error"
    },
    {
      "inputs": [],
      "name": "TransferFailed",
      "type": "error"
    },
    {
      "inputs": [],
      "name": "UnauthorizedOperator",
      "type": "error"
    },
    {
      "inputs": [
        {
          "internalType": "address",
          "name": "signer",
          "type": "address"
        }
      ],
      "name": "UnauthorizedSigner",
      "type": "error"
    },
    {
      "inputs": [],
      "name": "UnsupportedFeeTokenType",
      "type": "error"
    },
    {
      "anonymous": false,
      "inputs": [
        {
          "indexed": true,
          "internalType": "bytes32",
          "name": "id",
          "type": "bytes32"
        }
      ],
      "name": "ConceroMessageDelivered",
      "type": "event"
    },
    {
      "anonymous": false,
      "inputs": [
        {
          "indexed": true,
          "internalType": "bytes32",
          "name": "id",
          "type": "bytes32"
        }
      ],
      "name": "ConceroMessageReceived",
      "type": "event"
    },
    {
      "anonymous": false,
      "inputs": [
        {
          "indexed": true,
          "internalType": "bytes32",
          "name": "internalMessageConfig",
          "type": "bytes32"
        },
        {
          "indexed": true,
          "internalType": "bytes32",
          "name": "messageId",
          "type": "bytes32"
        },
        {
          "indexed": false,
          "internalType": "bytes",
          "name": "dstChainData",
          "type": "bytes"
        },
        {
          "indexed": false,
          "internalType": "bytes",
          "name": "message",
          "type": "bytes"
        },
        {
          "indexed": false,
          "internalType": "bytes",
          "name": "sender",
          "type": "bytes"
        }
      ],
      "name": "ConceroMessageSent",
      "type": "event"
    },
    {
      "anonymous": false,
      "inputs": [
        {
          "indexed": true,
          "internalType": "address",
          "name": "operator",
          "type": "address"
        },
        {
          "indexed": false,
          "internalType": "uint256",
          "name": "amount",
          "type": "uint256"
        }
      ],
      "name": "OperatorFeeWithdrawn",
      "type": "event"
    },
    {
      "stateMutability": "payable",
      "type": "fallback"
    },
    {
      "inputs": [
        {
          "internalType": "bytes32",
          "name": "config",
          "type": "bytes32"
        },
        {
          "internalType": "bytes",
          "name": "dstChainData",
          "type": "bytes"
        },
        {
          "internalType": "bytes",
          "name": "message",
          "type": "bytes"
        }
      ],
      "name": "conceroSend",
      "outputs": [
        {
          "internalType": "bytes32",
          "name": "",
          "type": "bytes32"
        }
      ],
      "stateMutability": "payable",
      "type": "function"
    },
    {
      "inputs": [
        {
          "internalType": "address",
          "name": "operator",
          "type": "address"
        }
      ],
      "name": "getCohort",
      "outputs": [
        {
          "internalType": "uint8",
          "name": "",
          "type": "uint8"
        }
      ],
      "stateMutability": "view",
      "type": "function"
    },
    {
      "inputs": [
        {
          "internalType": "bytes32",
          "name": "clientMessageConfig",
          "type": "bytes32"
        },
        {
          "internalType": "bytes",
          "name": "dstChainData",
          "type": "bytes"
        }
      ],
      "name": "getMessageFee",
      "outputs": [
        {
          "internalType": "uint256",
          "name": "",
          "type": "uint256"
        }
      ],
      "stateMutability": "view",
      "type": "function"
    },
    {
      "inputs": [
        {
          "internalType": "bytes32",
          "name": "namespace",
          "type": "bytes32"
        },
        {
          "internalType": "uint256",
          "name": "offset",
          "type": "uint256"
        },
        {
          "internalType": "bytes32",
          "name": "mappingKey",
          "type": "bytes32"
        }
      ],
      "name": "getStorage",
      "outputs": [
        {
          "internalType": "uint256",
          "name": "",
          "type": "uint256"
        }
      ],
      "stateMutability": "view",
      "type": "function"
    },
    {
      "inputs": [],
      "name": "getWithdrawableConceroFee",
      "outputs": [
        {
          "internalType": "uint256",
          "name": "",
          "type": "uint256"
        }
      ],
      "stateMutability": "view",
      "type": "function"
    },
    {
      "inputs": [],
      "name": "i_owner",
      "outputs": [
        {
          "internalType": "address",
          "name": "",
          "type": "address"
        }
      ],
      "stateMutability": "view",
      "type": "function"
    },
    {
      "inputs": [
        {
          "internalType": "uint24",
          "name": "chainSelector",
          "type": "uint24"
        }
      ],
      "name": "isChainSupported",
      "outputs": [
        {
          "internalType": "bool",
          "name": "",
          "type": "bool"
        }
      ],
      "stateMutability": "view",
      "type": "function"
    },
    {
      "inputs": [
        {
          "internalType": "uint24[]",
          "name": "dstChainSelectors",
          "type": "uint24[]"
        },
        {
          "internalType": "uint256[]",
          "name": "gasPrices",
          "type": "uint256[]"
        }
      ],
      "name": "setLastGasPrices",
      "outputs": [],
      "stateMutability": "nonpayable",
      "type": "function"
    },
    {
      "inputs": [
        {
          "internalType": "uint24[]",
          "name": "dstChainSelectors",
          "type": "uint24[]"
        },
        {
          "internalType": "uint256[]",
          "name": "rates",
          "type": "uint256[]"
        }
      ],
      "name": "setNativeNativeRates",
      "outputs": [],
      "stateMutability": "nonpayable",
      "type": "function"
    },
    {
      "inputs": [
        {
          "internalType": "uint256",
          "name": "amount",
          "type": "uint256"
        }
      ],
      "name": "setNativeUsdRate",
      "outputs": [],
      "stateMutability": "nonpayable",
      "type": "function"
    },
    {
      "inputs": [
        {
          "internalType": "bytes32",
          "name": "namespace",
          "type": "bytes32"
        },
        {
          "internalType": "uint256",
          "name": "offset",
          "type": "uint256"
        },
        {
          "internalType": "bytes32",
          "name": "mappingKey",
          "type": "bytes32"
        },
        {
          "internalType": "uint256",
          "name": "value",
          "type": "uint256"
        }
      ],
      "name": "setStorage",
      "outputs": [],
      "stateMutability": "nonpayable",
      "type": "function"
    },
    {
      "inputs": [
        {
          "internalType": "bytes32[]",
          "name": "namespaces",
          "type": "bytes32[]"
        },
        {
          "internalType": "uint256[]",
          "name": "offsets",
          "type": "uint256[]"
        },
        {
          "internalType": "bytes32[]",
          "name": "mappingKeys",
          "type": "bytes32[]"
        },
        {
          "internalType": "uint256[]",
          "name": "values",
          "type": "uint256[]"
        }
      ],
      "name": "setStorageBulk",
      "outputs": [],
      "stateMutability": "nonpayable",
      "type": "function"
    },
    {
      "inputs": [
        {
          "components": [
            {
              "internalType": "bytes32[3]",
              "name": "context",
              "type": "bytes32[3]"
            },
            {
              "internalType": "bytes",
              "name": "report",
              "type": "bytes"
            },
            {
              "internalType": "bytes32[]",
              "name": "rs",
              "type": "bytes32[]"
            },
            {
              "internalType": "bytes32[]",
              "name": "ss",
              "type": "bytes32[]"
            },
            {
              "internalType": "bytes32",
              "name": "rawVs",
              "type": "bytes32"
            }
          ],
          "internalType": "struct Types.ClfDonReportSubmission",
          "name": "reportSubmission",
          "type": "tuple"
        },
        {
          "internalType": "bytes",
          "name": "message",
          "type": "bytes"
        }
      ],
      "name": "submitMessageReport",
      "outputs": [],
      "stateMutability": "nonpayable",
      "type": "function"
    },
    {
      "inputs": [
        {
          "internalType": "address[]",
          "name": "tokens",
          "type": "address[]"
        },
        {
          "internalType": "uint256[]",
          "name": "amounts",
          "type": "uint256[]"
        }
      ],
      "name": "withdrawConceroFees",
      "outputs": [],
      "stateMutability": "nonpayable",
      "type": "function"
    },
    {
      "inputs": [
        {
          "internalType": "uint256",
          "name": "amount",
          "type": "uint256"
        }
      ],
      "name": "withdrawOperatorFee",
      "outputs": [
        {
          "internalType": "bool",
          "name": "success",
          "type": "bool"
        }
      ],
      "stateMutability": "nonpayable",
      "type": "function"
    },
    {
      "stateMutability": "payable",
      "type": "receive"
    }
  ],
  "bytecode": "0x6101a060405234801561001157600080fd5b50604051613048380380613048833981016040819052610030916100bf565b3360805262ffffff9490941660a0526001600160a01b0392831660c0528351831660e0526020840151831661010052604084015183166101205260609093015182166101405216610160526001600160401b0316610180526101a2565b80516001600160a01b03811681146100a457600080fd5b919050565b634e487b7160e01b600052604160045260246000fd5b600080600080600061010086880312156100d857600080fd5b855162ffffff811681146100eb57600080fd5b94506100f96020870161008d565b93506101076040870161008d565b60608701519093506001600160401b038116811461012457600080fd5b9150609f8601871361013557600080fd5b604051608081016001600160401b0381118282101715610157576101576100a9565b6040528061010088018981111561016d57600080fd5b608089015b81811015610191576101838161008d565b835260209283019201610172565b505050809150509295509295909350565b60805160a05160c05160e0516101005161012051610140516101605161018051612e016102476000396000611409015260006113b301526000611cc801526000611c8c01526000611c5001526000611c150152600050506000610a8e0152600081816102b0015281816104a101528181610581015281816106ba0152818161075f01528181610b5301528181610bc401528181610c9f0152610d450152612e016000f3fe6080604052600436106100df5760003560e01c80638df4bab511610084578063b91443e711610056578063b91443e714610269578063d105313114610289578063dba6335f1461029e578063e716afde146102ea57005b80638df4bab5146101e45780639a5d5ca9146101f7578063a897805914610217578063b8b164851461024957005b806348fd88ab116100bd57806348fd88ab146101645780635a8733b31461018457806366c82913146101a4578063825fa4bf146101c457005b80631feb291f146100e157806327e5f442146101165780633ae5695114610136575b005b3480156100ed57600080fd5b506101016100fc3660046120a5565b61030a565b60405190151581526020015b60405180910390f35b34801561012257600080fd5b506101016101313660046120d1565b610465565b34801561014257600080fd5b506101566101513660046120ec565b610476565b60405190815260200161010d565b34801561017057600080fd5b506100df61017f366004612217565b610496565b34801561019057600080fd5b506100df61019f366004612329565b610576565b3480156101b057600080fd5b506100df6101bf3660046123d9565b610797565b3480156101d057600080fd5b506101566101df3660046124c2565b6109dc565b6101566101f23660046124fe565b610a3f565b34801561020357600080fd5b506100df61021236600461257b565b610b48565b34801561022357600080fd5b506102376102323660046125c2565b610bac565b60405160ff909116815260200161010d565b34801561025557600080fd5b506100df610264366004612217565b610bb9565b34801561027557600080fd5b506100df6102843660046125df565b610c94565b34801561029557600080fd5b50610156610d20565b3480156102aa57600080fd5b506102d27f000000000000000000000000000000000000000000000000000000000000000081565b6040516001600160a01b03909116815260200161010d565b3480156102f657600080fd5b506100df6103053660046120a5565b610d3a565b600080610315610d90565b33600090815260659190910160205260409020549050826103495760405163162908e360e11b815260040160405180910390fd5b82818082111561037a5760405163a458261b60e01b8152600481019290925260248201526044015b60405180910390fd5b50610387905083826126b1565b61038f610d90565b3360009081526065919091016020526040902055826103ac610d90565b80546000906103bc9084906126b1565b909155505060405133908490600081818185875af1925050503d8060008114610401576040519150601f19603f3d011682016040523d82523d6000602084013e610406565b606091505b5050809250508161042a576040516312171d8360e31b815260040160405180910390fd5b60405183815233907fc43e057480321c0f9aec5029e2f42bb82383abd09bc79fd2fbcb50c5071735729060200160405180910390a250919050565b600061047082610e1d565b92915050565b600061048184610e28565b61048c848484610fd9565b90505b9392505050565b336001600160a01b037f000000000000000000000000000000000000000000000000000000000000000016146104df576040516330cd747160e01b815260040160405180910390fd5b8051825114610504576040516001621398b960e31b0319815260040160405180910390fd5b60005b825181101561057157818181518110610522576105226126c4565b6020026020010151610532611009565b6065016000858481518110610549576105496126c4565b60209081029190910181015162ffffff16825281019190915260400160002055600101610507565b505050565b336001600160a01b037f000000000000000000000000000000000000000000000000000000000000000016146105bf576040516330cd747160e01b815260040160405180910390fd5b82811480156105cd57508215155b6105ed576040516001621398b960e31b0319815260040160405180910390fd5b6000806105f8610d20565b905060005b8581101561078e576000878783818110610619576106196126c4565b905060200201602081019061062e91906125c2565b90506000868684818110610644576106446126c4565b9050602002013590506000811161066e5760405163162908e360e11b815260040160405180910390fd5b6001600160a01b0382166107505761068681866126da565b94508484808211156106b45760405163a458261b60e01b815260048101929092526024820152604401610371565b505060007f00000000000000000000000000000000000000000000000000000000000000006001600160a01b03168260405160006040518083038185875af1925050503d8060008114610723576040519150601f19603f3d011682016040523d82523d6000602084013e610728565b606091505b505090508061074a576040516312171d8360e31b815260040160405180910390fd5b50610784565b6107846001600160a01b0383167f000000000000000000000000000000000000000000000000000000000000000083611046565b50506001016105fd565b50505050505050565b60006107ae6107a960608601866126ed565b611098565b90506107b9846110f2565b600081606001516000815181106107d2576107d26126c4565b60200260200101518060200190518101906107ed91906127b3565b90506107f8816113b1565b60006108218360200151600081518110610814576108146126c4565b602002602001015161145d565b9050848460405161083392919061288b565b604051809103902081606001511461085e576040516398eac98f60e01b815260040160405180910390fd5b610866611508565b60408083018051600090815260669390930160205291205490519060ff16156108a55760405163398560f160e11b815260040161037191815260200190565b506000805b8260c001515181101561090f5760008360c0015182815181106108cf576108cf6126c4565b60200260200101518060200190518101906108ea919061289b565b9050336001600160a01b0382160361090657600192505061090f565b506001016108aa565b508061092e576040516326b9cdff60e11b815260040160405180910390fd5b60408083015190517ff67870b75d64e9a5f00100af39eb94911d9399b05f9df6d6db0cafc61128d5a490600090a26000601861096d60086101006126b1565b61097791906126b1565b836020015160001c901c90506109d283604001518460a001518386608001518b8b8080601f01602080910402602001604051908101604052809392919081815260200183838082843760009201919091525061154592505050565b5050505050505050565b600080607784901c60ff1660018111156109f8576109f86128b8565b90506000816001811115610a0e57610a0e6128b8565b14610a2c5760405163049f464b60e41b815260040160405180910390fd5b610a378484836116d8565b949350505050565b6000610a818686868080601f01602080910402602001604051908101604052809392919081815260200183838082843760009201919091525061181692505050565b600080610abb88888888887f0000000000000000000000000000000000000000000000000000000000000000610ab5611508565b546118d5565b915091506001610ac9611508565b8054600090610ad99084906126da565b909155505060408051336020820152839183917f2e19c29faa3a1877512bdb2fc9cd5b02c4dc7ddb561e4df140c68886fbbad92c918b918b918b918b910160408051601f1981840301815290829052610b359594939291612947565b60405180910390a3509695505050505050565b336001600160a01b037f00000000000000000000000000000000000000000000000000000000000000001614610b91576040516330cd747160e01b815260040160405180910390fd5b610b9a84610e28565b610ba684848484611979565b50505050565b60006104706001836129a4565b336001600160a01b037f00000000000000000000000000000000000000000000000000000000000000001614610c02576040516330cd747160e01b815260040160405180910390fd5b8051825114610c27576040516001621398b960e31b0319815260040160405180910390fd5b60005b825181101561057157818181518110610c4557610c456126c4565b6020026020010151610c55611009565b6066016000858481518110610c6c57610c6c6126c4565b60209081029190910181015162ffffff16825281019190915260400160002055600101610c2a565b336001600160a01b037f00000000000000000000000000000000000000000000000000000000000000001614610cdd576040516330cd747160e01b815260040160405180910390fd5b60005b8451811015610d1357610d0b858281518110610cfe57610cfe6126c4565b6020026020010151610e28565b600101610ce0565b50610ba6848484846119a6565b6000610d2a610d90565b54610d3590476126b1565b905090565b336001600160a01b037f00000000000000000000000000000000000000000000000000000000000000001614610d83576040516330cd747160e01b815260040160405180910390fd5b80610d8c611009565b5550565b6040517f636f6e6365726f726f757465722e6f70657261746f722e73746f7261676500006020820152600090819060ff1990600190603e015b6040516020818303038152906040528051906020012060001c610dec91906126b1565b604051602001610dfe91815260200190565b60408051601f1981840301815291905280516020909101201692915050565b600061047082611a52565b6040517f636f6e6365726f726f757465722e726f757465722e73746f7261676500000000602082015260ff1990600190603c016040516020818303038152906040528051906020012060001c610e7e91906126b1565b604051602001610e9091815260200190565b6040516020818303038152906040528051906020012016811480610f3157506040517f636f6e6365726f726f757465722e6f70657261746f722e73746f726167650000602082015260ff1990600190603e016040516020818303038152906040528051906020012060001c610f0591906126b1565b604051602001610f1791815260200190565b604051602081830303815290604052805190602001201681145b80610fb957506040517f636f6e6365726f726f757465722e7072696365666565642e73746f7261676500602082015260ff1990600190603f016040516020818303038152906040528051906020012060001c610f8d91906126b1565b604051602001610f9f91815260200190565b604051602081830303815290604052805190602001201681145b610fd657604051630a02739760e41b815260040160405180910390fd5b50565b6000818015610ffa5760408051848152868601602082015220549150611001565b8484015491505b509392505050565b6040517f636f6e6365726f726f757465722e7072696365666565642e73746f72616765006020820152600090819060ff1990600190603f01610dc9565b604080516001600160a01b038416602482015260448082018490528251808303909101815260649091019091526020810180516001600160e01b031663a9059cbb60e01b179052610571908490611b36565b6110ca6040518060a0016040528060608152602001606081526020016060815260200160608152602001606081525090565b6110d682840184612a55565b6080860152606085015260408401526020830152815292915050565b600061110a8261110560608201826126ed565b611ba7565b9050600061111b6080840184612b3c565b80806020026020016040519081016040528093929190818152602001838360200280828437600092018290525093945061115c9250505060a0850185612b3c565b80806020026020016040519081016040528093929190818152602001838360200280828437600092019190915250508251855193945060c0880135936003935014905080156111ab5750808451145b6111c8576040516301227b8d60e11b815260040160405180910390fd5b600084516001600160401b038111156111e3576111e3612118565b60405190808252806020026020018201604052801561120c578160200160208202803683370190505b50905060005b85518110156109d257600086828151811061122f5761122f6126c4565b60200260200101519050600086838151811061124d5761124d6126c4565b60200260200101519050600060018a88866020811061126e5761126e6126c4565b61127b91901a601b612b85565b6040805160008152602081018083529390935260ff90911690820152606081018590526080810184905260a0016020604051602081039080840390855afa1580156112ca573d6000803e3d6000fd5b5050506020604051035190506112df81611bfb565b819061130a5760405163e74c68bb60e01b81526001600160a01b039091166004820152602401610371565b5060005b8481101561137957816001600160a01b0316868281518110611332576113326126c4565b60200260200101516001600160a01b03161415829061137057604051630e256b9960e21b81526001600160a01b039091166004820152602401610371565b5060010161130e565b508085858151811061138d5761138d6126c4565b6001600160a01b039290921660209283029190910190910152505050600101611212565b7f00000000000000000000000000000000000000000000000000000000000000006001600160a01b031681606001516001600160a01b03161461140757604051632b6971c560e21b815260040160405180910390fd5b7f00000000000000000000000000000000000000000000000000000000000000006001600160401b031681608001516001600160401b031614610fd65760405163091e4cf160e31b815260040160405180910390fd5b6040805160e0810182526000808252602082018190529181018290526060808201929092526080810182905260a0810182905260c08101919091526040805160e0810182526000808252602082018190529181018290526060808201929092526080810182905260a0810182905260c0810191909152828060200190518101906114e79190612be3565b60c087015260a0860152606085015260408401526020830152815292915050565b6040517f636f6e6365726f726f757465722e726f757465722e73746f72616765000000006020820152600090819060ff1990600190603c01610dc9565b60008480602001905181019061155b9190612cec565b90506001611567611508565b600088815260669190910160205260409020805460ff191691151591909117905580516001600160a01b03166115b057604051631e4ec46b60e01b815260040160405180910390fd5b80513b6115d057604051631e4ec46b60e01b815260040160405180910390fd5b600063424ad82c60e01b87846040516024016115ed929190612d45565b604051602081830303815290604052906001600160e01b0319166020820180516001600160e01b0383818316178352505050509050600061163c83600001518460200151600061010086611d01565b5090508061166057604051630c3d362160e21b815260048101899052602401610371565b611673606461166d611009565b54611d8b565b61167b610d90565b33600090815260659190910160205260408120805490919061169e9084906126da565b909155505060405188907fb3f2643376154cdcc78e83cff26c3fcacf4a35a6e0107d90817d80973fa4d86090600090a25050505050505050565b6000806116e3611009565b6000015490506000848060200190518101906116ff9190612cec565b9050600062ffffff611713601860206126da565b601861172260086101006126b1565b61172c91906126b1565b61173691906126b1565b88901c1690506000611749606485611d8b565b90506000611755611009565b62ffffff8416600090815260659190910160209081526040822054908601519092506117819083612d5e565b9050600061178e85611dfd565b90506000670de0b6b3a76400006117a58385612d5e565b6117af9190612d75565b905060006117bd82876126da565b905060008b60018111156117d3576117d36128b8565b036117e857985061048f975050505050505050565b670de0b6b3a76400006117fb8a83612d5e565b6118059190612d75565b9d9c50505050505050505050505050565b6000607783901c60ff166001811115611831576118316128b8565b905060006118408484846116d8565b90506000826001811115611856576118566128b8565b036118bc573481808210156118875760405163a458261b60e01b815260048101929092526024820152604401610371565b5050604051309082156108fc029083906000818181858888f193505050501580156118b6573d6000803e3d6000fd5b50610ba6565b60405163049f464b60e41b815260040160405180910390fd5b6000806118e689858a8a8a8a611e59565b604080518082019091523381524360208201526119038a86611eac565b6020808301518351604080518085018a9052808201939093526bffffffffffffffffffffffff19606092831b169183019190915262ffffff60c01b60c08a901b166074830152607c80830185905281518084039091018152609c9092019052805191012090925092505097509795505050505050565b818015611998576040805184815286860160208201522082905561199f565b8484018290555b5050505050565b825184511480156119b8575081518351145b80156119c5575080518251145b6119e5576040516001621398b960e31b0319815260040160405180910390fd5b60005b845181101561199f57602081026020018501516020820260200185015160208302602001850151602084026020018501518160008114611a3a5760408051848152868601602082015220829055611a41565b8484018290555b5050600190930192506119e8915050565b600062ffffff821660011480611a6d575062ffffff8216600a145b80611a7d575062ffffff82166089145b80611a8e575062ffffff8216612105145b80611a9f575062ffffff821661a4b1145b80611ab0575062ffffff821661a86a145b15611abd57506001919050565b62ffffff821662aa36a71480611ada575062ffffff821662aa37dc145b80611aec575062ffffff821662013882145b80611afe575062ffffff821662014a34145b80611b10575062ffffff821662066eee145b80611b21575062ffffff821661a869145b15611b2e57506001919050565b506000919050565b600080602060008451602086016000885af180611b59576040513d6000823e3d81fd5b50506000513d91508115611b71578060011415611b7e565b6001600160a01b0384163b155b15610ba657604051635274afe760e01b81526001600160a01b0385166004820152602401610371565b6000808383604051611bba92919061288b565b6040518091039020905060008186604051602001611bd9929190612d89565b60408051808303601f1901815291905280516020909101209695505050505050565b60006001600160a01b038216611c1357506000919050565b7f00000000000000000000000000000000000000000000000000000000000000006001600160a01b0316826001600160a01b03161480611c8457507f00000000000000000000000000000000000000000000000000000000000000006001600160a01b0316826001600160a01b0316145b80611cc057507f00000000000000000000000000000000000000000000000000000000000000006001600160a01b0316826001600160a01b0316145b8061047057507f00000000000000000000000000000000000000000000000000000000000000006001600160a01b0316826001600160a01b03161492915050565b6000606060008060008661ffff166001600160401b03811115611d2657611d26612118565b6040519080825280601f01601f191660200182016040528015611d50576020820181803683370190505b5090506000808751602089018b8e8ef191503d925086831115611d71578692505b828152826000602083013e90999098509650505050505050565b60008082611dad5760405163c6af252960e01b81526004016103719190612d9d565b506000612710611dc961ffff8616670de0b6b3a7640000612d5e565b611dd39190612d75565b9050600083611dea83670de0b6b3a7640000612d5e565b611df49190612d75565b95945050505050565b600062ffffff821660891480611e1a575062ffffff821662013882145b15611e4557611e27611009565b62ffffff909216600090815260669290920160205250604090205490565b50670de0b6b3a7640000919050565b919050565b611e638686611eeb565b82611e81576040516301bc6ebd60e31b815260040160405180910390fd5b620f42408110611ea457604051636ceaf82160e01b815260040160405180910390fd5b505050505050565b60006018611ebd60086101006126b1565b611ec791906126b1565b62ffffff8316901b611edc60086101006126b1565b6001901b841717905092915050565b816000611efa601860206126da565b6018611f0960086101006126b1565b611f1391906126b1565b611f1d91906126b1565b82901c905060006010611f32601860206126da565b6018611f4160086101006126b1565b611f4b91906126b1565b611f5591906126b1565b611f5f91906126b1565b83901c90506000601080611f75601860206126da565b6018611f8460086101006126b1565b611f8e91906126b1565b611f9891906126b1565b611fa291906126b1565b611fac91906126b1565b84901c90506000607785901c60ff166001811115611fcc57611fcc6128b8565b90506000816001811115611fe257611fe26128b8565b14600390612004576040516323d54c2f60e01b81526004016103719190612db7565b5061200e84610e1d565b60079061202f576040516323d54c2f60e01b81526004016103719190612db7565b5060008361ffff161180156120495750606461ffff841611155b60009061206a576040516323d54c2f60e01b81526004016103719190612db7565b5060008261ffff161180156120845750606461ffff831611155b6001906109d2576040516323d54c2f60e01b81526004016103719190612db7565b6000602082840312156120b757600080fd5b5035919050565b803562ffffff81168114611e5457600080fd5b6000602082840312156120e357600080fd5b61048f826120be565b60008060006060848603121561210157600080fd5b505081359360208301359350604090920135919050565b634e487b7160e01b600052604160045260246000fd5b60405161016081016001600160401b038111828210171561215157612151612118565b60405290565b604051601f8201601f191681016001600160401b038111828210171561217f5761217f612118565b604052919050565b60006001600160401b038211156121a0576121a0612118565b5060051b60200190565b600082601f8301126121bb57600080fd5b81356121ce6121c982612187565b612157565b8082825260208201915060208360051b8601019250858311156121f057600080fd5b602085015b8381101561220d5780358352602092830192016121f5565b5095945050505050565b6000806040838503121561222a57600080fd5b82356001600160401b0381111561224057600080fd5b8301601f8101851361225157600080fd5b803561225f6121c982612187565b8082825260208201915060208360051b85010192508783111561228157600080fd5b6020840193505b828410156122aa57612299846120be565b825260209384019390910190612288565b945050505060208301356001600160401b038111156122c857600080fd5b6122d4858286016121aa565b9150509250929050565b60008083601f8401126122f057600080fd5b5081356001600160401b0381111561230757600080fd5b6020830191508360208260051b850101111561232257600080fd5b9250929050565b6000806000806040858703121561233f57600080fd5b84356001600160401b0381111561235557600080fd5b612361878288016122de565b90955093505060208501356001600160401b0381111561238057600080fd5b61238c878288016122de565b95989497509550505050565b60008083601f8401126123aa57600080fd5b5081356001600160401b038111156123c157600080fd5b60208301915083602082850101111561232257600080fd5b6000806000604084860312156123ee57600080fd5b83356001600160401b0381111561240457600080fd5b840160e0818703121561241657600080fd5b925060208401356001600160401b0381111561243157600080fd5b61243d86828701612398565b9497909650939450505050565b60006001600160401b0382111561246357612463612118565b50601f01601f191660200190565b600082601f83011261248257600080fd5b81356124906121c98261244a565b8181528460208386010111156124a557600080fd5b816020850160208301376000918101602001919091529392505050565b600080604083850312156124d557600080fd5b8235915060208301356001600160401b038111156124f257600080fd5b6122d485828601612471565b60008060008060006060868803121561251657600080fd5b8535945060208601356001600160401b0381111561253357600080fd5b61253f88828901612398565b90955093505060408601356001600160401b0381111561255e57600080fd5b61256a88828901612398565b969995985093965092949392505050565b6000806000806080858703121561259157600080fd5b5050823594602084013594506040840135936060013592509050565b6001600160a01b0381168114610fd657600080fd5b6000602082840312156125d457600080fd5b813561048f816125ad565b600080600080608085870312156125f557600080fd5b84356001600160401b0381111561260b57600080fd5b612617878288016121aa565b94505060208501356001600160401b0381111561263357600080fd5b61263f878288016121aa565b93505060408501356001600160401b0381111561265b57600080fd5b612667878288016121aa565b92505060608501356001600160401b0381111561268357600080fd5b61268f878288016121aa565b91505092959194509250565b634e487b7160e01b600052601160045260246000fd5b818103818111156104705761047061269b565b634e487b7160e01b600052603260045260246000fd5b808201808211156104705761047061269b565b6000808335601e1984360301811261270457600080fd5b8301803591506001600160401b0382111561271e57600080fd5b60200191503681900382131561232257600080fd5b8051611e54816125ad565b80516bffffffffffffffffffffffff81168114611e5457600080fd5b80516001600160401b0381168114611e5457600080fd5b805163ffffffff81168114611e5457600080fd5b805168ffffffffffffffffff81168114611e5457600080fd5b805164ffffffffff81168114611e5457600080fd5b60006101608284031280156127c757600080fd5b506127d061212e565b825181526127e060208401612733565b60208201526127f16040840161273e565b604082015261280260608401612733565b60608201526128136080840161275a565b608082015261282460a08401612771565b60a082015261283560c08401612785565b60c082015261284660e08401612785565b60e0820152612858610100840161279e565b61010082015261286b610120840161279e565b61012082015261287e6101408401612771565b6101408201529392505050565b8183823760009101908152919050565b6000602082840312156128ad57600080fd5b815161048f816125ad565b634e487b7160e01b600052602160045260246000fd5b81835281816020850137506000828201602090810191909152601f909101601f19169091010190565b60005b838110156129125781810151838201526020016128fa565b50506000910152565b600081518084526129338160208601602086016128f7565b601f01601f19169290920160200192915050565b60608152600061295b6060830187896128ce565b828103602084015261296e8186886128ce565b90508281036040840152612982818561291b565b98975050505050505050565b634e487b7160e01b600052601260045260246000fd5b60006001600160a01b038316806129bd576129bd61298e565b6001600160a01b03929092169190910692915050565b600082601f8301126129e457600080fd5b81356129f26121c982612187565b8082825260208201915060208360051b860101925085831115612a1457600080fd5b602085015b8381101561220d5780356001600160401b03811115612a3757600080fd5b612a46886020838a0101612471565b84525060209283019201612a19565b600080600080600060a08688031215612a6d57600080fd5b85356001600160401b03811115612a8357600080fd5b612a8f888289016121aa565b95505060208601356001600160401b03811115612aab57600080fd5b612ab7888289016129d3565b94505060408601356001600160401b03811115612ad357600080fd5b612adf888289016129d3565b93505060608601356001600160401b03811115612afb57600080fd5b612b07888289016129d3565b92505060808601356001600160401b03811115612b2357600080fd5b612b2f888289016129d3565b9150509295509295909350565b6000808335601e19843603018112612b5357600080fd5b8301803591506001600160401b03821115612b6d57600080fd5b6020019150600581901b360382131561232257600080fd5b60ff81811683821601908111156104705761047061269b565b600082601f830112612baf57600080fd5b8151612bbd6121c98261244a565b818152846020838601011115612bd257600080fd5b610a378260208301602087016128f7565b60008060008060008060c08789031215612bfc57600080fd5b86516020880151604089015160608a015160808b0151939950919750955093506001600160401b03811115612c3057600080fd5b612c3c89828a01612b9e565b92505060a08701516001600160401b03811115612c5857600080fd5b8701601f81018913612c6957600080fd5b8051612c776121c982612187565b8082825260208201915060208360051b85010192508b831115612c9957600080fd5b602084015b83811015612cda5780516001600160401b03811115612cbc57600080fd5b612ccb8e602083890101612b9e565b84525060209283019201612c9e565b50809450505050509295509295509295565b60006040828403128015612cff57600080fd5b50604080519081016001600160401b0381118282101715612d2257612d22612118565b6040528251612d30816125ad565b81526020928301519281019290925250919050565b82815260406020820152600061048c604083018461291b565b80820281158282048414176104705761047061269b565b600082612d8457612d8461298e565b500490565b828152606082602083013760800192915050565b6020810160028310612db157612db16128b8565b91905290565b6020810160098310612db157612db16128b856fea2646970667358221220bfad099de4f169e682feff4e3b8648e3d86edfdc6303bbd67b2ab1ffd892b68c64736f6c634300081c0033",
  "linkReferences": {},
  "deployedLinkReferences": {}
}