{
  "_format": "hh-sol-artifact-1",
  "contractName": "ConceroRouter",
  "sourceName": "contracts/ConceroRouter/ConceroRouter.sol",
  "abi": [
    {
      "inputs": [
        {
          "internalType": "uint24",
          "name": "chainSelector",
          "type": "uint24"
        },
        {
          "internalType": "address",
          "name": "USDC",
          "type": "address"
        },
        {
          "internalType": "address",
          "name": "conceroVerifier",
          "type": "address"
        },
        {
          "internalType": "uint64",
          "name": "conceroVerifierSubId",
          "type": "uint64"
        },
        {
          "internalType": "address[4]",
          "name": "clfSigners",
          "type": "address[4]"
        }
      ],
      "stateMutability": "nonpayable",
      "type": "constructor"
    },
    {
      "inputs": [
        {
          "internalType": "address",
          "name": "signer",
          "type": "address"
        }
      ],
      "name": "DuplicateSignatureDetected",
      "type": "error"
    },
    {
      "inputs": [],
      "name": "IncorrectNumberOfSignatures",
      "type": "error"
    },
    {
      "inputs": [
        {
          "internalType": "uint256",
          "name": "provided",
          "type": "uint256"
        },
        {
          "internalType": "uint256",
          "name": "required",
          "type": "uint256"
        }
      ],
      "name": "InsufficientFee",
      "type": "error"
    },
    {
      "inputs": [],
      "name": "InvalidAmount",
      "type": "error"
    },
    {
      "inputs": [],
      "name": "InvalidClfReportClient",
      "type": "error"
    },
    {
      "inputs": [],
      "name": "InvalidClfReportSubscriptionId",
      "type": "error"
    },
    {
      "inputs": [
        {
          "internalType": "enum Message.MessageConfigErrorType",
          "name": "error",
          "type": "uint8"
        }
      ],
      "name": "InvalidClientMessageConfig",
      "type": "error"
    },
    {
      "inputs": [],
      "name": "InvalidDstChainData",
      "type": "error"
    },
    {
      "inputs": [],
      "name": "InvalidMessageHashSum",
      "type": "error"
    },
    {
      "inputs": [],
      "name": "InvalidNamespace",
      "type": "error"
    },
    {
      "inputs": [],
      "name": "InvalidReceiver",
      "type": "error"
    },
    {
      "inputs": [],
      "name": "LengthMismatch",
      "type": "error"
    },
    {
      "inputs": [
        {
          "internalType": "bytes32",
          "name": "messageId",
          "type": "bytes32"
        }
      ],
      "name": "MessageAlreadyProcessed",
      "type": "error"
    },
    {
      "inputs": [
        {
          "internalType": "bytes32",
          "name": "messageId",
          "type": "bytes32"
        }
      ],
      "name": "MessageDeliveryFailed",
      "type": "error"
    },
    {
      "inputs": [],
      "name": "MessageTooLarge",
      "type": "error"
    },
    {
      "inputs": [],
      "name": "NotOwner",
      "type": "error"
    },
    {
      "inputs": [
        {
          "internalType": "enum CommonErrors.RequiredVariableUnsetType",
          "name": "variableType",
          "type": "uint8"
        }
      ],
      "name": "RequiredVariableUnset",
      "type": "error"
    },
    {
      "inputs": [
        {
          "internalType": "address",
          "name": "token",
          "type": "address"
        }
      ],
      "name": "SafeERC20FailedOperation",
      "type": "error"
    },
    {
      "inputs": [],
      "name": "TransferFailed",
      "type": "error"
    },
    {
      "inputs": [],
      "name": "UnauthorizedOperator",
      "type": "error"
    },
    {
      "inputs": [
        {
          "internalType": "address",
          "name": "signer",
          "type": "address"
        }
      ],
      "name": "UnauthorizedSigner",
      "type": "error"
    },
    {
      "inputs": [],
      "name": "UnsupportedFeeTokenType",
      "type": "error"
    },
    {
      "anonymous": false,
      "inputs": [
        {
          "indexed": true,
          "internalType": "bytes32",
          "name": "id",
          "type": "bytes32"
        }
      ],
      "name": "ConceroMessageDelivered",
      "type": "event"
    },
    {
      "anonymous": false,
      "inputs": [
        {
          "indexed": true,
          "internalType": "bytes32",
          "name": "id",
          "type": "bytes32"
        }
      ],
      "name": "ConceroMessageReceived",
      "type": "event"
    },
    {
      "anonymous": false,
      "inputs": [
        {
          "indexed": true,
          "internalType": "bytes32",
          "name": "internalMessageConfig",
          "type": "bytes32"
        },
        {
          "indexed": true,
          "internalType": "bytes32",
          "name": "messageId",
          "type": "bytes32"
        },
        {
          "indexed": false,
          "internalType": "bytes",
          "name": "dstChainData",
          "type": "bytes"
        },
        {
          "indexed": false,
          "internalType": "bytes",
          "name": "message",
          "type": "bytes"
        }
      ],
      "name": "ConceroMessageSent",
      "type": "event"
    },
    {
      "anonymous": false,
      "inputs": [
        {
          "indexed": true,
          "internalType": "address",
          "name": "operator",
          "type": "address"
        },
        {
          "indexed": false,
          "internalType": "uint256",
          "name": "amount",
          "type": "uint256"
        }
      ],
      "name": "OperatorFeeWithdrawn",
      "type": "event"
    },
    {
      "stateMutability": "payable",
      "type": "fallback"
    },
    {
      "inputs": [
        {
          "internalType": "bytes32",
          "name": "config",
          "type": "bytes32"
        },
        {
          "internalType": "bytes",
          "name": "dstChainData",
          "type": "bytes"
        },
        {
          "internalType": "bytes",
          "name": "message",
          "type": "bytes"
        }
      ],
      "name": "conceroSend",
      "outputs": [
        {
          "internalType": "bytes32",
          "name": "",
          "type": "bytes32"
        }
      ],
      "stateMutability": "payable",
      "type": "function"
    },
    {
      "inputs": [
        {
          "internalType": "address",
          "name": "operator",
          "type": "address"
        }
      ],
      "name": "getCohort",
      "outputs": [
        {
          "internalType": "uint8",
          "name": "",
          "type": "uint8"
        }
      ],
      "stateMutability": "view",
      "type": "function"
    },
    {
      "inputs": [
        {
          "internalType": "bytes32",
          "name": "clientMessageConfig",
          "type": "bytes32"
        },
        {
          "internalType": "bytes",
          "name": "dstChainData",
          "type": "bytes"
        }
      ],
      "name": "getMessageFeeNative",
      "outputs": [
        {
          "internalType": "uint256",
          "name": "",
          "type": "uint256"
        }
      ],
      "stateMutability": "view",
      "type": "function"
    },
    {
      "inputs": [
        {
          "internalType": "bytes32",
          "name": "clientMessageConfig",
          "type": "bytes32"
        },
        {
          "internalType": "bytes",
          "name": "dstChainData",
          "type": "bytes"
        }
      ],
      "name": "getMessageFeeUSDC",
      "outputs": [
        {
          "internalType": "uint256",
          "name": "",
          "type": "uint256"
        }
      ],
      "stateMutability": "view",
      "type": "function"
    },
    {
      "inputs": [
        {
          "internalType": "bytes32",
          "name": "namespace",
          "type": "bytes32"
        },
        {
          "internalType": "uint256",
          "name": "offset",
          "type": "uint256"
        },
        {
          "internalType": "bytes32",
          "name": "mappingKey",
          "type": "bytes32"
        }
      ],
      "name": "getStorage",
      "outputs": [
        {
          "internalType": "uint256",
          "name": "",
          "type": "uint256"
        }
      ],
      "stateMutability": "view",
      "type": "function"
    },
    {
      "inputs": [],
      "name": "getWithdrawableConceroFee",
      "outputs": [
        {
          "internalType": "uint256",
          "name": "",
          "type": "uint256"
        }
      ],
      "stateMutability": "view",
      "type": "function"
    },
    {
      "inputs": [],
      "name": "i_owner",
      "outputs": [
        {
          "internalType": "address",
          "name": "",
          "type": "address"
        }
      ],
      "stateMutability": "view",
      "type": "function"
    },
    {
      "inputs": [
        {
          "internalType": "uint24",
          "name": "chainSelector",
          "type": "uint24"
        }
      ],
      "name": "isChainSupported",
      "outputs": [
        {
          "internalType": "bool",
          "name": "",
          "type": "bool"
        }
      ],
      "stateMutability": "view",
      "type": "function"
    },
    {
      "inputs": [
        {
          "internalType": "uint24[]",
          "name": "dstChainSelectors",
          "type": "uint24[]"
        },
        {
          "internalType": "uint256[]",
          "name": "gasPrices",
          "type": "uint256[]"
        }
      ],
      "name": "setLastGasPrices",
      "outputs": [],
      "stateMutability": "nonpayable",
      "type": "function"
    },
    {
      "inputs": [
        {
          "internalType": "uint24[]",
          "name": "dstChainSelectors",
          "type": "uint24[]"
        },
        {
          "internalType": "uint256[]",
          "name": "rates",
          "type": "uint256[]"
        }
      ],
      "name": "setNativeNativeRates",
      "outputs": [],
      "stateMutability": "nonpayable",
      "type": "function"
    },
    {
      "inputs": [
        {
          "internalType": "uint256",
          "name": "amount",
          "type": "uint256"
        }
      ],
      "name": "setNativeUsdRate",
      "outputs": [],
      "stateMutability": "nonpayable",
      "type": "function"
    },
    {
      "inputs": [
        {
          "internalType": "bytes32",
          "name": "namespace",
          "type": "bytes32"
        },
        {
          "internalType": "uint256",
          "name": "offset",
          "type": "uint256"
        },
        {
          "internalType": "bytes32",
          "name": "mappingKey",
          "type": "bytes32"
        },
        {
          "internalType": "uint256",
          "name": "value",
          "type": "uint256"
        }
      ],
      "name": "setStorage",
      "outputs": [],
      "stateMutability": "nonpayable",
      "type": "function"
    },
    {
      "inputs": [
        {
          "internalType": "bytes32[]",
          "name": "namespaces",
          "type": "bytes32[]"
        },
        {
          "internalType": "uint256[]",
          "name": "offsets",
          "type": "uint256[]"
        },
        {
          "internalType": "bytes32[]",
          "name": "mappingKeys",
          "type": "bytes32[]"
        },
        {
          "internalType": "uint256[]",
          "name": "values",
          "type": "uint256[]"
        }
      ],
      "name": "setStorageBulk",
      "outputs": [],
      "stateMutability": "nonpayable",
      "type": "function"
    },
    {
      "inputs": [
        {
          "components": [
            {
              "internalType": "bytes32[3]",
              "name": "context",
              "type": "bytes32[3]"
            },
            {
              "internalType": "bytes",
              "name": "report",
              "type": "bytes"
            },
            {
              "internalType": "bytes32[]",
              "name": "rs",
              "type": "bytes32[]"
            },
            {
              "internalType": "bytes32[]",
              "name": "ss",
              "type": "bytes32[]"
            },
            {
              "internalType": "bytes32",
              "name": "rawVs",
              "type": "bytes32"
            }
          ],
          "internalType": "struct Types.ClfDonReportSubmission",
          "name": "reportSubmission",
          "type": "tuple"
        },
        {
          "internalType": "bytes",
          "name": "message",
          "type": "bytes"
        }
      ],
      "name": "submitMessageReport",
      "outputs": [],
      "stateMutability": "nonpayable",
      "type": "function"
    },
    {
      "inputs": [
        {
          "internalType": "address[]",
          "name": "tokens",
          "type": "address[]"
        },
        {
          "internalType": "uint256[]",
          "name": "amounts",
          "type": "uint256[]"
        }
      ],
      "name": "withdrawConceroFees",
      "outputs": [],
      "stateMutability": "nonpayable",
      "type": "function"
    },
    {
      "inputs": [
        {
          "internalType": "uint256",
          "name": "amount",
          "type": "uint256"
        }
      ],
      "name": "withdrawOperatorFee",
      "outputs": [
        {
          "internalType": "bool",
          "name": "success",
          "type": "bool"
        }
      ],
      "stateMutability": "nonpayable",
      "type": "function"
    },
    {
      "stateMutability": "payable",
      "type": "receive"
    }
  ],
  "bytecode": "0x6101a060405234801561001157600080fd5b50604051613031380380613031833981016040819052610030916100bf565b3360805262ffffff9490941660a0526001600160a01b0392831660c0528351831660e0526020840151831661010052604084015183166101205260609093015182166101405216610160526001600160401b0316610180526101a2565b80516001600160a01b03811681146100a457600080fd5b919050565b634e487b7160e01b600052604160045260246000fd5b600080600080600061010086880312156100d857600080fd5b855162ffffff811681146100eb57600080fd5b94506100f96020870161008d565b93506101076040870161008d565b60608701519093506001600160401b038116811461012457600080fd5b9150609f8601871361013557600080fd5b604051608081016001600160401b0381118282101715610157576101576100a9565b6040528061010088018981111561016d57600080fd5b608089015b81811015610191576101838161008d565b835260209283019201610172565b505050809150509295509295909350565b60805160a05160c05160e0516101005161012051610140516101605161018051612dea61024760003960006115600152600061150a01526000611d9f01526000611d6301526000611d2701526000611cec0152600050506000610aa80152600081816102db01528181610555015281816106350152818161076e0152818161081301528181610b4f01528181610bc001528181610c9b0152610d410152612dea6000f3fe6080604052600436106100ea5760003560e01c80638df4bab511610084578063b91443e711610056578063b91443e714610294578063d1053131146102b4578063dba6335f146102c9578063e716afde1461031557005b80638df4bab51461020f5780639a5d5ca914610222578063a897805914610242578063b8b164851461027457005b806348ef7541116100bd57806348ef75411461018f57806348fd88ab146101af5780635a8733b3146101cf57806366c82913146101ef57005b80631feb291f146100ec57806327e5f442146101215780633ae569511461014157806341940ab21461016f575b005b3480156100f857600080fd5b5061010c6101073660046120ae565b610335565b60405190151581526020015b60405180910390f35b34801561012d57600080fd5b5061010c61013c3660046120da565b610490565b34801561014d57600080fd5b5061016161015c3660046120f5565b6104a1565b604051908152602001610118565b34801561017b57600080fd5b5061016161018a36600461220d565b6104c1565b34801561019b57600080fd5b506101616101aa36600461220d565b610525565b3480156101bb57600080fd5b506100ea6101ca3660046122de565b61054a565b3480156101db57600080fd5b506100ea6101ea3660046123e6565b61062a565b3480156101fb57600080fd5b506100ea61020a366004612496565b61084b565b61016161021d366004612507565b610a59565b34801561022e57600080fd5b506100ea61023d366004612584565b610b44565b34801561024e57600080fd5b5061026261025d3660046125cb565b610ba8565b60405160ff9091168152602001610118565b34801561028057600080fd5b506100ea61028f3660046122de565b610bb5565b3480156102a057600080fd5b506100ea6102af3660046125e8565b610c90565b3480156102c057600080fd5b50610161610d1c565b3480156102d557600080fd5b506102fd7f000000000000000000000000000000000000000000000000000000000000000081565b6040516001600160a01b039091168152602001610118565b34801561032157600080fd5b506100ea6103303660046120ae565b610d36565b600080610340610d8c565b33600090815260659190910160205260409020549050826103745760405163162908e360e11b815260040160405180910390fd5b8281808211156103a55760405163a458261b60e01b8152600481019290925260248201526044015b60405180910390fd5b506103b2905083826126ba565b6103ba610d8c565b3360009081526065919091016020526040902055826103d7610d8c565b80546000906103e79084906126ba565b909155505060405133908490600081818185875af1925050503d806000811461042c576040519150601f19603f3d011682016040523d82523d6000602084013e610431565b606091505b50508092505081610455576040516312171d8360e31b815260040160405180910390fd5b60405183815233907fc43e057480321c0f9aec5029e2f42bb82383abd09bc79fd2fbcb50c5071735729060200160405180910390a250919050565b600061049b82610e19565b92915050565b60006104ac84610e24565b6104b7848484610fd5565b90505b9392505050565b600080607784901c60ff1660018111156104dd576104dd6126cd565b905060005b8160018111156104f4576104f46126cd565b146105125760405163049f464b60e41b815260040160405180910390fd5b61051d848483611005565b949350505050565b600080607784901c60ff166001811115610541576105416126cd565b905060016104e2565b336001600160a01b037f00000000000000000000000000000000000000000000000000000000000000001614610593576040516330cd747160e01b815260040160405180910390fd5b80518251146105b8576040516001621398b960e31b0319815260040160405180910390fd5b60005b8251811015610625578181815181106105d6576105d66126e3565b60200260200101516105e6611143565b60650160008584815181106105fd576105fd6126e3565b60209081029190910181015162ffffff168252810191909152604001600020556001016105bb565b505050565b336001600160a01b037f00000000000000000000000000000000000000000000000000000000000000001614610673576040516330cd747160e01b815260040160405180910390fd5b828114801561068157508215155b6106a1576040516001621398b960e31b0319815260040160405180910390fd5b6000806106ac610d1c565b905060005b858110156108425760008787838181106106cd576106cd6126e3565b90506020020160208101906106e291906125cb565b905060008686848181106106f8576106f86126e3565b905060200201359050600081116107225760405163162908e360e11b815260040160405180910390fd5b6001600160a01b0382166108045761073a81866126f9565b94508484808211156107685760405163a458261b60e01b81526004810192909252602482015260440161039c565b505060007f00000000000000000000000000000000000000000000000000000000000000006001600160a01b03168260405160006040518083038185875af1925050503d80600081146107d7576040519150601f19603f3d011682016040523d82523d6000602084013e6107dc565b606091505b50509050806107fe576040516312171d8360e31b815260040160405180910390fd5b50610838565b6108386001600160a01b0383167f000000000000000000000000000000000000000000000000000000000000000083611180565b50506001016106b1565b50505050505050565b600061086261085d606086018661270c565b6111d2565b905061086d8461122c565b60008160600151600081518110610886576108866126e3565b60200260200101518060200190518101906108a191906127d2565b90506108ac81611508565b60006108d583602001516000815181106108c8576108c86126e3565b60200260200101516115b4565b905084846040516108e79291906128aa565b6040518091039020816060015114610912576040516398eac98f60e01b815260040160405180910390fd5b61091a611651565b60408083018051600090815260669390930160205291205490519060ff16156109595760405163398560f160e11b815260040161039c91815260200190565b506000805b8260a00151518110156109c35760008360a001518281518110610983576109836126e3565b602002602001015180602001905181019061099e91906128ba565b9050336001600160a01b038216036109ba5760019250506109c3565b5060010161095e565b50806109e2576040516326b9cdff60e11b815260040160405180910390fd5b60408083015190517ff67870b75d64e9a5f00100af39eb94911d9399b05f9df6d6db0cafc61128d5a490600090a26108428260400151836080015188888080601f01602080910402602001604051908101604052809392919081815260200183838082843760009201919091525061168e92505050565b6000610a9b8686868080601f01602080910402602001604051908101604052809392919081815260200183838082843760009201919091525061181f92505050565b600080610ad588888888887f0000000000000000000000000000000000000000000000000000000000000000610acf611651565b546118de565b915091506001610ae3611651565b8054600090610af39084906126f9565b9250508190555081817f7f771d035a5fa0cbad024c5212266f1beac4285e2ee476beeb5ac56100e3703c89898989604051610b319493929190612900565b60405180910390a3509695505050505050565b336001600160a01b037f00000000000000000000000000000000000000000000000000000000000000001614610b8d576040516330cd747160e01b815260040160405180910390fd5b610b9684610e24565b610ba284848484611982565b50505050565b600061049b600183612948565b336001600160a01b037f00000000000000000000000000000000000000000000000000000000000000001614610bfe576040516330cd747160e01b815260040160405180910390fd5b8051825114610c23576040516001621398b960e31b0319815260040160405180910390fd5b60005b825181101561062557818181518110610c4157610c416126e3565b6020026020010151610c51611143565b6066016000858481518110610c6857610c686126e3565b60209081029190910181015162ffffff16825281019190915260400160002055600101610c26565b336001600160a01b037f00000000000000000000000000000000000000000000000000000000000000001614610cd9576040516330cd747160e01b815260040160405180910390fd5b60005b8451811015610d0f57610d07858281518110610cfa57610cfa6126e3565b6020026020010151610e24565b600101610cdc565b50610ba2848484846119af565b6000610d26610d8c565b54610d3190476126ba565b905090565b336001600160a01b037f00000000000000000000000000000000000000000000000000000000000000001614610d7f576040516330cd747160e01b815260040160405180910390fd5b80610d88611143565b5550565b6040517f636f6e6365726f726f757465722e6f70657261746f722e73746f7261676500006020820152600090819060ff1990600190603e015b6040516020818303038152906040528051906020012060001c610de891906126ba565b604051602001610dfa91815260200190565b60408051601f1981840301815291905280516020909101201692915050565b600061049b82611a5b565b6040517f636f6e6365726f726f757465722e726f757465722e73746f7261676500000000602082015260ff1990600190603c016040516020818303038152906040528051906020012060001c610e7a91906126ba565b604051602001610e8c91815260200190565b6040516020818303038152906040528051906020012016811480610f2d57506040517f636f6e6365726f726f757465722e6f70657261746f722e73746f726167650000602082015260ff1990600190603e016040516020818303038152906040528051906020012060001c610f0191906126ba565b604051602001610f1391815260200190565b604051602081830303815290604052805190602001201681145b80610fb557506040517f636f6e6365726f726f757465722e7072696365666565642e73746f7261676500602082015260ff1990600190603f016040516020818303038152906040528051906020012060001c610f8991906126ba565b604051602001610f9b91815260200190565b604051602081830303815290604052805190602001201681145b610fd257604051630a02739760e41b815260040160405180910390fd5b50565b6000818015610ff65760408051848152868601602082015220549150610ffd565b8484015491505b509392505050565b600080611010611143565b60000154905060008480602001905181019061102c9190612977565b9050600062ffffff611040601860206126f9565b601861104f60086101006126ba565b61105991906126ba565b61106391906126ba565b88901c1690506000611076606485611b3f565b90506000611082611143565b62ffffff8416600090815260659190910160209081526040822054908601519092506110ae90836129d0565b905060006110bb85611bb1565b90506000670de0b6b3a76400006110d283856129d0565b6110dc91906129e7565b905060006110ea82876126f9565b905060008b6001811115611100576111006126cd565b036111155798506104ba975050505050505050565b670de0b6b3a76400006111288a836129d0565b61113291906129e7565b9d9c50505050505050505050505050565b6040517f636f6e6365726f726f757465722e7072696365666565642e73746f72616765006020820152600090819060ff1990600190603f01610dc5565b604080516001600160a01b038416602482015260448082018490528251808303909101815260649091019091526020810180516001600160e01b031663a9059cbb60e01b179052610625908490611c0d565b6112046040518060a0016040528060608152602001606081526020016060815260200160608152602001606081525090565b61121082840184612a7d565b6080860152606085015260408401526020830152815292915050565b60006112448261123f606082018261270c565b611c7e565b905060006112556080840184612b64565b8080602002602001604051908101604052809392919081815260200183836020028082843760009201829052509394506112969250505060a0850185612b64565b80806020026020016040519081016040528093929190818152602001838360200280828437600092019190915250508251855193945060c0880135936003935014905080156112e55750808451145b611302576040516301227b8d60e11b815260040160405180910390fd5b600084516001600160401b0381111561131d5761131d612121565b604051908082528060200260200182016040528015611346578160200160208202803683370190505b50905060005b85518110156114fe5760006113628260086129d0565b85901c60ff16905061137581601b612bad565b9050600087838151811061138b5761138b6126e3565b6020026020010151905060008784815181106113a9576113a96126e3565b60200260200101519050600060018b858585604051600081526020016040526040516113f1949392919093845260ff9290921660208401526040830152606082015260800190565b6020604051602081039080840390855afa158015611413573d6000803e3d6000fd5b50505060206040510351905061142881611cd2565b81906114535760405163e74c68bb60e01b81526001600160a01b03909116600482015260240161039c565b5060005b858110156114c257816001600160a01b031687828151811061147b5761147b6126e3565b60200260200101516001600160a01b0316141582906114b957604051630e256b9960e21b81526001600160a01b03909116600482015260240161039c565b50600101611457565b50808686815181106114d6576114d66126e3565b6001600160a01b039092166020928302919091019091015250506001909201915061134c9050565b5050505050505050565b7f00000000000000000000000000000000000000000000000000000000000000006001600160a01b031681606001516001600160a01b03161461155e57604051632b6971c560e21b815260040160405180910390fd5b7f00000000000000000000000000000000000000000000000000000000000000006001600160401b031681608001516001600160401b031614610fd25760405163091e4cf160e31b815260040160405180910390fd5b6040805160c0810182526000808252602082018190529181018290526060808201929092526080810182905260a08101919091526040805160c0810182526000808252602082018190529181018290526060808201929092526080810182905260a0810191909152828060200190518101906116309190612c2f565b60a08701526080860152606085015260408401526020830152815292915050565b6040517f636f6e6365726f726f757465722e726f757465722e73746f72616765000000006020820152600090819060ff1990600190603c01610dc5565b6000828060200190518101906116a49190612977565b905060016116b0611651565b600086815260669190910160205260409020805460ff191691151591909117905580516001600160a01b03166116f957604051631e4ec46b60e01b815260040160405180910390fd5b80513b61171957604051631e4ec46b60e01b815260040160405180910390fd5b6000635ca46be560e01b8584604051602401611736929190612d38565b604051602081830303815290604052906001600160e01b0319166020820180516001600160e01b0383818316178352505050509050600061178583600001518460200151600061010086611dd8565b509050806117a957604051630c3d362160e21b81526004810187905260240161039c565b6117bc60646117b6611143565b54611b3f565b6117c4610d8c565b3360009081526065919091016020526040812080549091906117e79084906126f9565b909155505060405186907fb3f2643376154cdcc78e83cff26c3fcacf4a35a6e0107d90817d80973fa4d86090600090a2505050505050565b6000607783901c60ff16600181111561183a5761183a6126cd565b90506000611849848484611005565b9050600082600181111561185f5761185f6126cd565b036118c5573481808210156118905760405163a458261b60e01b81526004810192909252602482015260440161039c565b5050604051309082156108fc029083906000818181858888f193505050501580156118bf573d6000803e3d6000fd5b50610ba2565b60405163049f464b60e41b815260040160405180910390fd5b6000806118ef89858a8a8a8a611e62565b6040805180820190915233815243602082015261190c8a86611eb5565b6020808301518351604080518085018a9052808201939093526bffffffffffffffffffffffff19606092831b169183019190915262ffffff60c01b60c08a901b166074830152607c80830185905281518084039091018152609c9092019052805191012090925092505097509795505050505050565b8180156119a157604080518481528686016020820152208290556119a8565b8484018290555b5050505050565b825184511480156119c1575081518351145b80156119ce575080518251145b6119ee576040516001621398b960e31b0319815260040160405180910390fd5b60005b84518110156119a857602081026020018501516020820260200185015160208302602001850151602084026020018501518160008114611a435760408051848152868601602082015220829055611a4a565b8484018290555b5050600190930192506119f1915050565b600062ffffff821660011480611a76575062ffffff8216600a145b80611a86575062ffffff82166089145b80611a97575062ffffff8216612105145b80611aa8575062ffffff821661a4b1145b80611ab9575062ffffff821661a86a145b15611ac657506001919050565b62ffffff821662aa36a71480611ae3575062ffffff821662aa37dc145b80611af5575062ffffff821662013882145b80611b07575062ffffff821662014a34145b80611b19575062ffffff821662066eee145b80611b2a575062ffffff821661a869145b15611b3757506001919050565b506000919050565b60008082611b615760405163c6af252960e01b815260040161039c9190612d72565b506000612710611b7d61ffff8616670de0b6b3a76400006129d0565b611b8791906129e7565b9050600083611b9e83670de0b6b3a76400006129d0565b611ba891906129e7565b95945050505050565b600062ffffff821660891480611bce575062ffffff821662013882145b15611bf957611bdb611143565b62ffffff909216600090815260669290920160205250604090205490565b50670de0b6b3a7640000919050565b919050565b600080602060008451602086016000885af180611c30576040513d6000823e3d81fd5b50506000513d91508115611c48578060011415611c55565b6001600160a01b0384163b155b15610ba257604051635274afe760e01b81526001600160a01b038516600482015260240161039c565b6000808383604051611c919291906128aa565b6040518091039020905060008186604051602001611cb0929190612d8c565b60408051808303601f1901815291905280516020909101209695505050505050565b60006001600160a01b038216611cea57506000919050565b7f00000000000000000000000000000000000000000000000000000000000000006001600160a01b0316826001600160a01b03161480611d5b57507f00000000000000000000000000000000000000000000000000000000000000006001600160a01b0316826001600160a01b0316145b80611d9757507f00000000000000000000000000000000000000000000000000000000000000006001600160a01b0316826001600160a01b0316145b8061049b57507f00000000000000000000000000000000000000000000000000000000000000006001600160a01b0316826001600160a01b03161492915050565b6000606060008060008661ffff166001600160401b03811115611dfd57611dfd612121565b6040519080825280601f01601f191660200182016040528015611e27576020820181803683370190505b5090506000808751602089018b8e8ef191503d925086831115611e48578692505b828152826000602083013e90999098509650505050505050565b611e6c8686611ef4565b82611e8a576040516301bc6ebd60e31b815260040160405180910390fd5b620f42408110611ead57604051636ceaf82160e01b815260040160405180910390fd5b505050505050565b60006018611ec660086101006126ba565b611ed091906126ba565b62ffffff8316901b611ee560086101006126ba565b6001901b841717905092915050565b816000611f03601860206126f9565b6018611f1260086101006126ba565b611f1c91906126ba565b611f2691906126ba565b82901c905060006010611f3b601860206126f9565b6018611f4a60086101006126ba565b611f5491906126ba565b611f5e91906126ba565b611f6891906126ba565b83901c90506000601080611f7e601860206126f9565b6018611f8d60086101006126ba565b611f9791906126ba565b611fa191906126ba565b611fab91906126ba565b611fb591906126ba565b84901c90506000607785901c60ff166001811115611fd557611fd56126cd565b90506000816001811115611feb57611feb6126cd565b1460039061200d576040516323d54c2f60e01b815260040161039c9190612da0565b5061201784610e19565b600790612038576040516323d54c2f60e01b815260040161039c9190612da0565b5060008361ffff161180156120525750606461ffff841611155b600090612073576040516323d54c2f60e01b815260040161039c9190612da0565b5060008261ffff1611801561208d5750606461ffff831611155b6001906114fe576040516323d54c2f60e01b815260040161039c9190612da0565b6000602082840312156120c057600080fd5b5035919050565b803562ffffff81168114611c0857600080fd5b6000602082840312156120ec57600080fd5b6104ba826120c7565b60008060006060848603121561210a57600080fd5b505081359360208301359350604090920135919050565b634e487b7160e01b600052604160045260246000fd5b60405161016081016001600160401b038111828210171561215a5761215a612121565b60405290565b604051601f8201601f191681016001600160401b038111828210171561218857612188612121565b604052919050565b60006001600160401b038211156121a9576121a9612121565b50601f01601f191660200190565b600082601f8301126121c857600080fd5b81356121db6121d682612190565b612160565b8181528460208386010111156121f057600080fd5b816020850160208301376000918101602001919091529392505050565b6000806040838503121561222057600080fd5b8235915060208301356001600160401b0381111561223d57600080fd5b612249858286016121b7565b9150509250929050565b60006001600160401b0382111561226c5761226c612121565b5060051b60200190565b600082601f83011261228757600080fd5b81356122956121d682612253565b8082825260208201915060208360051b8601019250858311156122b757600080fd5b602085015b838110156122d45780358352602092830192016122bc565b5095945050505050565b600080604083850312156122f157600080fd5b82356001600160401b0381111561230757600080fd5b8301601f8101851361231857600080fd5b80356123266121d682612253565b8082825260208201915060208360051b85010192508783111561234857600080fd5b6020840193505b8284101561237157612360846120c7565b82526020938401939091019061234f565b945050505060208301356001600160401b0381111561238f57600080fd5b61224985828601612276565b60008083601f8401126123ad57600080fd5b5081356001600160401b038111156123c457600080fd5b6020830191508360208260051b85010111156123df57600080fd5b9250929050565b600080600080604085870312156123fc57600080fd5b84356001600160401b0381111561241257600080fd5b61241e8782880161239b565b90955093505060208501356001600160401b0381111561243d57600080fd5b6124498782880161239b565b95989497509550505050565b60008083601f84011261246757600080fd5b5081356001600160401b0381111561247e57600080fd5b6020830191508360208285010111156123df57600080fd5b6000806000604084860312156124ab57600080fd5b83356001600160401b038111156124c157600080fd5b840160e081870312156124d357600080fd5b925060208401356001600160401b038111156124ee57600080fd5b6124fa86828701612455565b9497909650939450505050565b60008060008060006060868803121561251f57600080fd5b8535945060208601356001600160401b0381111561253c57600080fd5b61254888828901612455565b90955093505060408601356001600160401b0381111561256757600080fd5b61257388828901612455565b969995985093965092949392505050565b6000806000806080858703121561259a57600080fd5b5050823594602084013594506040840135936060013592509050565b6001600160a01b0381168114610fd257600080fd5b6000602082840312156125dd57600080fd5b81356104ba816125b6565b600080600080608085870312156125fe57600080fd5b84356001600160401b0381111561261457600080fd5b61262087828801612276565b94505060208501356001600160401b0381111561263c57600080fd5b61264887828801612276565b93505060408501356001600160401b0381111561266457600080fd5b61267087828801612276565b92505060608501356001600160401b0381111561268c57600080fd5b61269887828801612276565b91505092959194509250565b634e487b7160e01b600052601160045260246000fd5b8181038181111561049b5761049b6126a4565b634e487b7160e01b600052602160045260246000fd5b634e487b7160e01b600052603260045260246000fd5b8082018082111561049b5761049b6126a4565b6000808335601e1984360301811261272357600080fd5b8301803591506001600160401b0382111561273d57600080fd5b6020019150368190038213156123df57600080fd5b8051611c08816125b6565b80516bffffffffffffffffffffffff81168114611c0857600080fd5b80516001600160401b0381168114611c0857600080fd5b805163ffffffff81168114611c0857600080fd5b805168ffffffffffffffffff81168114611c0857600080fd5b805164ffffffffff81168114611c0857600080fd5b60006101608284031280156127e657600080fd5b506127ef612137565b825181526127ff60208401612752565b60208201526128106040840161275d565b604082015261282160608401612752565b606082015261283260808401612779565b608082015261284360a08401612790565b60a082015261285460c084016127a4565b60c082015261286560e084016127a4565b60e082015261287761010084016127bd565b61010082015261288a61012084016127bd565b61012082015261289d6101408401612790565b6101408201529392505050565b8183823760009101908152919050565b6000602082840312156128cc57600080fd5b81516104ba816125b6565b81835281816020850137506000828201602090810191909152601f909101601f19169091010190565b6040815260006129146040830186886128d7565b82810360208401526129278185876128d7565b979650505050505050565b634e487b7160e01b600052601260045260246000fd5b60006001600160a01b0383168061296157612961612932565b6001600160a01b03929092169190910692915050565b6000604082840312801561298a57600080fd5b50604080519081016001600160401b03811182821017156129ad576129ad612121565b60405282516129bb816125b6565b81526020928301519281019290925250919050565b808202811582820484141761049b5761049b6126a4565b6000826129f6576129f6612932565b500490565b600082601f830112612a0c57600080fd5b8135612a1a6121d682612253565b8082825260208201915060208360051b860101925085831115612a3c57600080fd5b602085015b838110156122d45780356001600160401b03811115612a5f57600080fd5b612a6e886020838a01016121b7565b84525060209283019201612a41565b600080600080600060a08688031215612a9557600080fd5b85356001600160401b03811115612aab57600080fd5b612ab788828901612276565b95505060208601356001600160401b03811115612ad357600080fd5b612adf888289016129fb565b94505060408601356001600160401b03811115612afb57600080fd5b612b07888289016129fb565b93505060608601356001600160401b03811115612b2357600080fd5b612b2f888289016129fb565b92505060808601356001600160401b03811115612b4b57600080fd5b612b57888289016129fb565b9150509295509295909350565b6000808335601e19843603018112612b7b57600080fd5b8301803591506001600160401b03821115612b9557600080fd5b6020019150600581901b36038213156123df57600080fd5b60ff818116838216019081111561049b5761049b6126a4565b60005b83811015612be1578181015183820152602001612bc9565b50506000910152565b600082601f830112612bfb57600080fd5b8151612c096121d682612190565b818152846020838601011115612c1e57600080fd5b61051d826020830160208701612bc6565b60008060008060008060c08789031215612c4857600080fd5b86516020880151604089015160608a015160808b0151939950919750955093506001600160401b03811115612c7c57600080fd5b612c8889828a01612bea565b92505060a08701516001600160401b03811115612ca457600080fd5b8701601f81018913612cb557600080fd5b8051612cc36121d682612253565b8082825260208201915060208360051b85010192508b831115612ce557600080fd5b602084015b83811015612d265780516001600160401b03811115612d0857600080fd5b612d178e602083890101612bea565b84525060209283019201612cea565b50809450505050509295509295509295565b8281526040602082015260008251806040840152612d5d816060850160208701612bc6565b601f01601f1916919091016060019392505050565b6020810160028310612d8657612d866126cd565b91905290565b828152606082602083013760800192915050565b6020810160098310612d8657612d866126cd56fea2646970667358221220c2167d37141652fa67b6293605240f385eb58bded93d3141b6f8ad8565159b6664736f6c634300081c0033",
  "linkReferences": {},
  "deployedLinkReferences": {}
}