{
  "_format": "hh-sol-artifact-1",
  "contractName": "ConceroVerifier",
  "sourceName": "contracts/ConceroVerifier/ConceroVerifier.sol",
  "abi": [
    {
      "inputs": [
        {
          "internalType": "uint24",
          "name": "chainSelector",
          "type": "uint24"
        },
        {
          "internalType": "address",
          "name": "USDC",
          "type": "address"
        },
        {
          "components": [
            {
              "internalType": "address",
              "name": "router",
              "type": "address"
            },
            {
              "internalType": "bytes32",
              "name": "donId",
              "type": "bytes32"
            },
            {
              "internalType": "uint64",
              "name": "subscriptionId",
              "type": "uint64"
            },
            {
              "internalType": "uint64",
              "name": "donHostedSecretsVersion",
              "type": "uint64"
            },
            {
              "internalType": "uint8",
              "name": "donHostedSecretsSlotId",
              "type": "uint8"
            },
            {
              "internalType": "uint16",
              "name": "premiumFeeUsdBps",
              "type": "uint16"
            },
            {
              "internalType": "uint32",
              "name": "callbackGasLimit",
              "type": "uint32"
            },
            {
              "internalType": "bytes32",
              "name": "requestCLFMessageReportJsCodeHash",
              "type": "bytes32"
            },
            {
              "internalType": "bytes32",
              "name": "requestOperatorRegistrationJsCodeHash",
              "type": "bytes32"
            }
          ],
          "internalType": "struct CLFParams",
          "name": "clfParams",
          "type": "tuple"
        }
      ],
      "stateMutability": "nonpayable",
      "type": "constructor"
    },
    {
      "inputs": [],
      "name": "EmptyArgs",
      "type": "error"
    },
    {
      "inputs": [],
      "name": "EmptySource",
      "type": "error"
    },
    {
      "inputs": [
        {
          "internalType": "uint256",
          "name": "requiredAmount",
          "type": "uint256"
        },
        {
          "internalType": "uint256",
          "name": "availableAmount",
          "type": "uint256"
        }
      ],
      "name": "InsufficientFee",
      "type": "error"
    },
    {
      "inputs": [
        {
          "internalType": "uint256",
          "name": "provided",
          "type": "uint256"
        },
        {
          "internalType": "uint256",
          "name": "required",
          "type": "uint256"
        }
      ],
      "name": "InsufficientFee",
      "type": "error"
    },
    {
      "inputs": [
        {
          "internalType": "uint256",
          "name": "provided",
          "type": "uint256"
        },
        {
          "internalType": "uint256",
          "name": "required",
          "type": "uint256"
        }
      ],
      "name": "InsufficientOperatorDeposit",
      "type": "error"
    },
    {
      "inputs": [],
      "name": "InvalidAddress",
      "type": "error"
    },
    {
      "inputs": [],
      "name": "InvalidAmount",
      "type": "error"
    },
    {
      "inputs": [],
      "name": "InvalidNamespace",
      "type": "error"
    },
    {
      "inputs": [],
      "name": "LengthMismatch",
      "type": "error"
    },
    {
      "inputs": [],
      "name": "MessageAlreadyProcessed",
      "type": "error"
    },
    {
      "inputs": [],
      "name": "NoInlineSecrets",
      "type": "error"
    },
    {
      "inputs": [],
      "name": "OnlyRouterCanFulfill",
      "type": "error"
    },
    {
      "inputs": [],
      "name": "OperatorAddressMismatch",
      "type": "error"
    },
    {
      "inputs": [],
      "name": "OperatorAlreadyRegistered",
      "type": "error"
    },
    {
      "inputs": [],
      "name": "OperatorNotRegistered",
      "type": "error"
    },
    {
      "inputs": [
        {
          "internalType": "enum CommonErrors.RequiredVariableUnsetType",
          "name": "variableType",
          "type": "uint8"
        }
      ],
      "name": "RequiredVariableUnset",
      "type": "error"
    },
    {
      "inputs": [
        {
          "internalType": "address",
          "name": "token",
          "type": "address"
        }
      ],
      "name": "SafeERC20FailedOperation",
      "type": "error"
    },
    {
      "inputs": [],
      "name": "TransferFailed",
      "type": "error"
    },
    {
      "inputs": [],
      "name": "TransferFailed",
      "type": "error"
    },
    {
      "inputs": [],
      "name": "Unauthorized",
      "type": "error"
    },
    {
      "inputs": [],
      "name": "UnauthorizedOperator",
      "type": "error"
    },
    {
      "inputs": [],
      "name": "WrongClfResultType",
      "type": "error"
    },
    {
      "anonymous": false,
      "inputs": [
        {
          "indexed": false,
          "internalType": "bytes",
          "name": "err",
          "type": "bytes"
        }
      ],
      "name": "CLFRequestError",
      "type": "event"
    },
    {
      "anonymous": false,
      "inputs": [
        {
          "indexed": true,
          "internalType": "bytes32",
          "name": "messageId",
          "type": "bytes32"
        }
      ],
      "name": "MessageReport",
      "type": "event"
    },
    {
      "anonymous": false,
      "inputs": [
        {
          "indexed": true,
          "internalType": "bytes32",
          "name": "messageId",
          "type": "bytes32"
        }
      ],
      "name": "MessageReportRequested",
      "type": "event"
    },
    {
      "anonymous": false,
      "inputs": [
        {
          "indexed": true,
          "internalType": "address",
          "name": "operator",
          "type": "address"
        },
        {
          "indexed": false,
          "internalType": "uint256",
          "name": "amount",
          "type": "uint256"
        }
      ],
      "name": "OperatorDepositWithdrawn",
      "type": "event"
    },
    {
      "anonymous": false,
      "inputs": [
        {
          "indexed": true,
          "internalType": "address",
          "name": "operator",
          "type": "address"
        },
        {
          "indexed": false,
          "internalType": "uint256",
          "name": "amount",
          "type": "uint256"
        }
      ],
      "name": "OperatorDeposited",
      "type": "event"
    },
    {
      "anonymous": false,
      "inputs": [
        {
          "indexed": true,
          "internalType": "address",
          "name": "operator",
          "type": "address"
        },
        {
          "indexed": false,
          "internalType": "uint256",
          "name": "amount",
          "type": "uint256"
        }
      ],
      "name": "OperatorFeeWithdrawn",
      "type": "event"
    },
    {
      "anonymous": false,
      "inputs": [
        {
          "indexed": true,
          "internalType": "address",
          "name": "operator",
          "type": "address"
        },
        {
          "indexed": false,
          "internalType": "enum CommonTypes.ChainType[]",
          "name": "chainTypes",
          "type": "uint8[]"
        },
        {
          "indexed": false,
          "internalType": "enum Types.OperatorRegistrationAction[]",
          "name": "operatorActions",
          "type": "uint8[]"
        }
      ],
      "name": "OperatorRegistered",
      "type": "event"
    },
    {
      "anonymous": false,
      "inputs": [
        {
          "indexed": true,
          "internalType": "address",
          "name": "requester",
          "type": "address"
        },
        {
          "indexed": false,
          "internalType": "enum CommonTypes.ChainType[]",
          "name": "chainTypes",
          "type": "uint8[]"
        },
        {
          "indexed": false,
          "internalType": "enum Types.OperatorRegistrationAction[]",
          "name": "operatorActions",
          "type": "uint8[]"
        },
        {
          "indexed": false,
          "internalType": "bytes[]",
          "name": "operatorAddresses",
          "type": "bytes[]"
        }
      ],
      "name": "OperatorRegistrationRequested",
      "type": "event"
    },
    {
      "anonymous": false,
      "inputs": [
        {
          "indexed": true,
          "internalType": "bytes32",
          "name": "id",
          "type": "bytes32"
        }
      ],
      "name": "RequestFulfilled",
      "type": "event"
    },
    {
      "anonymous": false,
      "inputs": [
        {
          "indexed": true,
          "internalType": "bytes32",
          "name": "id",
          "type": "bytes32"
        }
      ],
      "name": "RequestSent",
      "type": "event"
    },
    {
      "stateMutability": "payable",
      "type": "fallback"
    },
    {
      "inputs": [],
      "name": "getCLFDeposit",
      "outputs": [
        {
          "internalType": "uint256",
          "name": "depositNative",
          "type": "uint256"
        }
      ],
      "stateMutability": "view",
      "type": "function"
    },
    {
      "inputs": [],
      "name": "getCohortsCount",
      "outputs": [
        {
          "internalType": "uint8",
          "name": "",
          "type": "uint8"
        }
      ],
      "stateMutability": "pure",
      "type": "function"
    },
    {
      "inputs": [
        {
          "internalType": "address",
          "name": "operator",
          "type": "address"
        }
      ],
      "name": "getOperatorDeposit",
      "outputs": [
        {
          "internalType": "uint256",
          "name": "",
          "type": "uint256"
        }
      ],
      "stateMutability": "view",
      "type": "function"
    },
    {
      "inputs": [
        {
          "internalType": "address",
          "name": "operator",
          "type": "address"
        }
      ],
      "name": "getOperatorFeesEarned",
      "outputs": [
        {
          "internalType": "uint256",
          "name": "",
          "type": "uint256"
        }
      ],
      "stateMutability": "view",
      "type": "function"
    },
    {
      "inputs": [
        {
          "internalType": "enum CommonTypes.ChainType",
          "name": "chainType",
          "type": "uint8"
        }
      ],
      "name": "getRegisteredOperators",
      "outputs": [
        {
          "internalType": "bytes[]",
          "name": "",
          "type": "bytes[]"
        }
      ],
      "stateMutability": "view",
      "type": "function"
    },
    {
      "inputs": [
        {
          "internalType": "bytes32",
          "name": "namespace",
          "type": "bytes32"
        },
        {
          "internalType": "uint256",
          "name": "offset",
          "type": "uint256"
        },
        {
          "internalType": "bytes32",
          "name": "mappingKey",
          "type": "bytes32"
        }
      ],
      "name": "getStorage",
      "outputs": [
        {
          "internalType": "uint256",
          "name": "",
          "type": "uint256"
        }
      ],
      "stateMutability": "view",
      "type": "function"
    },
    {
      "inputs": [],
      "name": "getWithdrawableConceroFee",
      "outputs": [
        {
          "internalType": "uint256",
          "name": "availableFees",
          "type": "uint256"
        }
      ],
      "stateMutability": "view",
      "type": "function"
    },
    {
      "inputs": [
        {
          "internalType": "bytes32",
          "name": "requestId",
          "type": "bytes32"
        },
        {
          "internalType": "bytes",
          "name": "response",
          "type": "bytes"
        },
        {
          "internalType": "bytes",
          "name": "err",
          "type": "bytes"
        }
      ],
      "name": "handleOracleFulfillment",
      "outputs": [],
      "stateMutability": "nonpayable",
      "type": "function"
    },
    {
      "inputs": [],
      "name": "i_owner",
      "outputs": [
        {
          "internalType": "address",
          "name": "",
          "type": "address"
        }
      ],
      "stateMutability": "view",
      "type": "function"
    },
    {
      "inputs": [
        {
          "internalType": "uint24",
          "name": "chainSelector",
          "type": "uint24"
        }
      ],
      "name": "isChainSupported",
      "outputs": [
        {
          "internalType": "bool",
          "name": "",
          "type": "bool"
        }
      ],
      "stateMutability": "view",
      "type": "function"
    },
    {
      "inputs": [
        {
          "internalType": "address",
          "name": "operator",
          "type": "address"
        }
      ],
      "name": "isOperatorRegistered",
      "outputs": [
        {
          "internalType": "bool",
          "name": "",
          "type": "bool"
        }
      ],
      "stateMutability": "view",
      "type": "function"
    },
    {
      "inputs": [
        {
          "internalType": "address",
          "name": "operator",
          "type": "address"
        }
      ],
      "name": "operatorDeposit",
      "outputs": [],
      "stateMutability": "payable",
      "type": "function"
    },
    {
      "inputs": [
        {
          "internalType": "bytes32",
          "name": "messageId",
          "type": "bytes32"
        },
        {
          "internalType": "bytes32",
          "name": "messageHashSum",
          "type": "bytes32"
        },
        {
          "internalType": "uint24",
          "name": "srcChainSelector",
          "type": "uint24"
        },
        {
          "internalType": "bytes",
          "name": "srcChainData",
          "type": "bytes"
        }
      ],
      "name": "requestMessageReport",
      "outputs": [
        {
          "internalType": "bytes32",
          "name": "",
          "type": "bytes32"
        }
      ],
      "stateMutability": "nonpayable",
      "type": "function"
    },
    {
      "inputs": [
        {
          "internalType": "enum CommonTypes.ChainType[]",
          "name": "chainTypes",
          "type": "uint8[]"
        },
        {
          "internalType": "enum Types.OperatorRegistrationAction[]",
          "name": "operatorActions",
          "type": "uint8[]"
        },
        {
          "internalType": "bytes[]",
          "name": "operatorAddresses",
          "type": "bytes[]"
        }
      ],
      "name": "requestOperatorRegistration",
      "outputs": [
        {
          "internalType": "bytes32",
          "name": "clfRequestId",
          "type": "bytes32"
        }
      ],
      "stateMutability": "nonpayable",
      "type": "function"
    },
    {
      "inputs": [
        {
          "internalType": "uint256",
          "name": "amount",
          "type": "uint256"
        }
      ],
      "name": "setNativeUsdRate",
      "outputs": [],
      "stateMutability": "nonpayable",
      "type": "function"
    },
    {
      "inputs": [
        {
          "internalType": "bytes32",
          "name": "namespace",
          "type": "bytes32"
        },
        {
          "internalType": "uint256",
          "name": "offset",
          "type": "uint256"
        },
        {
          "internalType": "bytes32",
          "name": "mappingKey",
          "type": "bytes32"
        },
        {
          "internalType": "uint256",
          "name": "value",
          "type": "uint256"
        }
      ],
      "name": "setStorage",
      "outputs": [],
      "stateMutability": "nonpayable",
      "type": "function"
    },
    {
      "inputs": [
        {
          "internalType": "bytes32[]",
          "name": "namespaces",
          "type": "bytes32[]"
        },
        {
          "internalType": "uint256[]",
          "name": "offsets",
          "type": "uint256[]"
        },
        {
          "internalType": "bytes32[]",
          "name": "mappingKeys",
          "type": "bytes32[]"
        },
        {
          "internalType": "uint256[]",
          "name": "values",
          "type": "uint256[]"
        }
      ],
      "name": "setStorageBulk",
      "outputs": [],
      "stateMutability": "nonpayable",
      "type": "function"
    },
    {
      "inputs": [
        {
          "internalType": "uint24[]",
          "name": "chainSelectors",
          "type": "uint24[]"
        },
        {
          "internalType": "bool[]",
          "name": "isSupported",
          "type": "bool[]"
        }
      ],
      "name": "setSupportedChains",
      "outputs": [],
      "stateMutability": "nonpayable",
      "type": "function"
    },
    {
      "inputs": [
        {
          "internalType": "address[]",
          "name": "tokens",
          "type": "address[]"
        },
        {
          "internalType": "uint256[]",
          "name": "amounts",
          "type": "uint256[]"
        }
      ],
      "name": "withdrawConceroFees",
      "outputs": [],
      "stateMutability": "nonpayable",
      "type": "function"
    },
    {
      "inputs": [
        {
          "internalType": "uint256",
          "name": "amount",
          "type": "uint256"
        }
      ],
      "name": "withdrawOperatorDeposit",
      "outputs": [
        {
          "internalType": "bool",
          "name": "success",
          "type": "bool"
        }
      ],
      "stateMutability": "nonpayable",
      "type": "function"
    },
    {
      "inputs": [
        {
          "internalType": "uint256",
          "name": "amount",
          "type": "uint256"
        }
      ],
      "name": "withdrawOperatorFee",
      "outputs": [
        {
          "internalType": "bool",
          "name": "success",
          "type": "bool"
        }
      ],
      "stateMutability": "nonpayable",
      "type": "function"
    },
    {
      "stateMutability": "payable",
      "type": "receive"
    }
  ],
  "bytecode": "0x61020060405234801561001157600080fd5b5060405161431b38038061431b8339810160408190526100309161016a565b805160208201516040830151606084015160808086015160a08088015160c0808a015160e0808c01516101009c8d01516001600160a01b039c8d169098523390955262ffffff909d1690915297909916909952610140949094526001600160401b039283166101605291166101805260ff9091166101e05261ffff9093166101a05263ffffffff166101c052919091526101205261024e565b80516001600160a01b03811681146100e057600080fd5b919050565b60405161012081016001600160401b038111828210171561011657634e487b7160e01b600052604160045260246000fd5b60405290565b80516001600160401b03811681146100e057600080fd5b805160ff811681146100e057600080fd5b805161ffff811681146100e057600080fd5b805163ffffffff811681146100e057600080fd5b600080600083850361016081121561018157600080fd5b845162ffffff8116811461019457600080fd5b93506101a2602086016100c9565b9250610120603f19820112156101b757600080fd5b506101c06100e5565b6101cc604086016100c9565b8152606085015160208201526101e46080860161011c565b60408201526101f560a0860161011c565b606082015261020660c08601610133565b608082015261021760e08601610144565b60a08201526102296101008601610156565b60c082015261012085015160e082015261014090940151610100850152509093909250565b60805160a05160c05160e05161010051610120516101405161016051610180516101a0516101c0516101e05161400d61030e600039600050506000610aac01526000610ada015260005050600061205f01526000612084015260006118fe0152600061169a0152600050506000610a4801526000818161037e015281816108220152818161095a015281816109ff01528181610d6a01528181610dcd01528181610fa701526110e60152600081816104030152612543015261400d6000f3fe6080604052600436106101215760003560e01c80638e3438f5116100a5578063cc7668821161006c578063cc76688214610317578063cea34c9a14610337578063d105313114610357578063dba6335f1461036c578063e716afde146103b8578063fbfbdff8146103d857005b80638e3438f51461026e57806390239ec71461028a5780639a5d5ca9146102b7578063b91443e7146102d7578063c34f38c5146102f757005b80633ae56951116100e95780633ae56951146101e65780635a8733b314610206578063624db632146102265780636b1906f81461023b5780636ea101ab1461025b57005b80630ca76175146101235780631feb291f1461014357806327e5f442146101785780632a65d9ab1461019857806331d49194146101c6575b005b34801561012f57600080fd5b5061012161013e366004612d78565b6103f8565b34801561014f57600080fd5b5061016361015e366004612de8565b61047c565b60405190151581526020015b60405180910390f35b34801561018457600080fd5b50610163610193366004612e12565b610616565b3480156101a457600080fd5b506101b86101b3366004612e44565b610641565b60405190815260200161016f565b3480156101d257600080fd5b506101636101e1366004612de8565b61066d565b3480156101f257600080fd5b506101b8610201366004612e61565b6107f9565b34801561021257600080fd5b50610121610221366004612ed1565b610817565b34801561023257600080fd5b506101b8610a37565b34801561024757600080fd5b50610163610256366004612e44565b610b1b565b610121610269366004612e44565b610b4a565b34801561027a57600080fd5b506040516001815260200161016f565b34801561029657600080fd5b506102aa6102a5366004612f4d565b610c48565b60405161016f9190612fba565b3480156102c357600080fd5b506101216102d236600461301f565b610d5f565b3480156102e357600080fd5b506101216102f23660046130dc565b610dc2565b34801561030357600080fd5b506101b8610312366004613198565b610e4d565b34801561032357600080fd5b506101b86103323660046131ee565b610f07565b34801561034357600080fd5b50610121610352366004612ed1565b610f9c565b34801561036357600080fd5b506101b86110ab565b34801561037857600080fd5b506103a07f000000000000000000000000000000000000000000000000000000000000000081565b6040516001600160a01b03909116815260200161016f565b3480156103c457600080fd5b506101216103d3366004612de8565b6110db565b3480156103e457600080fd5b506101b86103f3366004612e44565b611130565b336001600160a01b037f000000000000000000000000000000000000000000000000000000000000000016146104415760405163c6829f8360e01b815260040160405180910390fd5b61044c83838361115c565b60405183907f85e1543bf2f84fe80c6badbce3648c8539ad1df4d2b3d822938ca0538be727e690600090a2505050565b600061048661120b565b336000908152606791909101602052604090205460ff166104ba576040516326b9cdff60e11b815260040160405180910390fd5b60006104c461120b565b336000908152606a9190910160205260409020549050826104f85760405163162908e360e11b815260040160405180910390fd5b8281808211156105295760405163a458261b60e01b8152600481019290925260248201526044015b60405180910390fd5b50610536905083826132a7565b61053e61120b565b336000908152606a9190910160205260409020558261055b61120b565b805460009061056b9084906132a7565b909155505060405133908490600081818185875af1925050503d80600081146105b0576040519150601f19603f3d011682016040523d82523d6000602084013e6105b5565b606091505b505080925050816105d9576040516312171d8360e31b815260040160405180910390fd5b60405183815233907fc43e057480321c0f9aec5029e2f42bb82383abd09bc79fd2fbcb50c507173572906020015b60405180910390a2505b919050565b6000610620611297565b62ffffff909216600090815260689290920160205250604090205460ff1690565b600061064b61120b565b6001600160a01b039092166000908152606a9290920160205250604090205490565b600061067761120b565b336000908152606791909101602052604090205460ff166106ab576040516326b9cdff60e11b815260040160405180910390fd5b60006106b561120b565b33600090815260689190910160205260409020549050826106e95760405163162908e360e11b815260040160405180910390fd5b8083818111156107155760405163052dcc5960e51b815260048101929092526024820152604401610520565b50610722905083826132a7565b61072a61120b565b33600090815260689190910160205260409020558261074761120b565b600101600082825461075991906132a7565b909155505060405133908490600081818185875af1925050503d806000811461079e576040519150601f19603f3d011682016040523d82523d6000602084013e6107a3565b606091505b505080925050816107c7576040516312171d8360e31b815260040160405180910390fd5b60405183815233907f84863957610e3c6567187cf240a9979c5c8d56d4dba4473b5ac46a10d324697490602001610607565b6000610804846112d3565b61080f848484611465565b949350505050565b336001600160a01b037f0000000000000000000000000000000000000000000000000000000000000000161461085f576040516282b42960e81b815260040160405180910390fd5b828114801561086d57508215155b61088d576040516001621398b960e31b0319815260040160405180910390fd5b6000806108986110ab565b905060005b85811015610a2e5760008787838181106108b9576108b96132ba565b90506020020160208101906108ce9190612e44565b905060008686848181106108e4576108e46132ba565b9050602002013590506000811161090e5760405163162908e360e11b815260040160405180910390fd5b6001600160a01b0382166109f05761092681866132d0565b94508484808211156109545760405163a458261b60e01b815260048101929092526024820152604401610520565b505060007f00000000000000000000000000000000000000000000000000000000000000006001600160a01b03168260405160006040518083038185875af1925050503d80600081146109c3576040519150601f19603f3d011682016040523d82523d6000602084013e6109c8565b606091505b50509050806109ea576040516312171d8360e31b815260040160405180910390fd5b50610a24565b610a246001600160a01b0383167f000000000000000000000000000000000000000000000000000000000000000083611495565b505060010161089d565b50505050505050565b600080610a426114ec565b62ffffff7f000000000000000000000000000000000000000000000000000000000000000016600090815260659190910160205260409020549050600181610a9e5760405163c6af252960e01b81526004016105209190613317565b506000610ad18263ffffffff7f00000000000000000000000000000000000000000000000000000000000000001661332a565b90506000610b077f0000000000000000000000000000000000000000000000000000000000000000610b016114ec565b54611506565b9050610b1381836132d0565b935050505090565b6000610b2561120b565b6001600160a01b03909216600090815260679290920160205250604090205460ff1690565b6000610b54610a37565b9050348180821015610b825760405163052dcc5960e51b815260048101929092526024820152604401610520565b50506001600160a01b038216610bab5760405163e6c4247b60e01b815260040160405180910390fd5b34610bb461120b565b6068016000846001600160a01b03166001600160a01b031681526020019081526020016000206000828254610be991906132d0565b90915550349050610bf861120b565b6001016000828254610c0a91906132d0565b909155505060405134815233907f06653c045d0a3144153a51ac6909baae43b8d5b67184cb74e988b72858727fe49060200160405180910390a25050565b6060610c5261120b565b6066016000836001811115610c6957610c696132e3565b6001811115610c7a57610c7a6132e3565b8152602001908152602001600020805480602002602001604051908101604052809291908181526020016000905b82821015610d54578382906000526020600020018054610cc790613341565b80601f0160208091040260200160405190810160405280929190818152602001828054610cf390613341565b8015610d405780601f10610d1557610100808354040283529160200191610d40565b820191906000526020600020905b815481529060010190602001808311610d2357829003601f168201915b505050505081526020019060010190610ca8565b505050509050919050565b336001600160a01b037f00000000000000000000000000000000000000000000000000000000000000001614610da7576040516282b42960e81b815260040160405180910390fd5b610db0846112d3565b610dbc8484848461157a565b50505050565b336001600160a01b037f00000000000000000000000000000000000000000000000000000000000000001614610e0a576040516282b42960e81b815260040160405180910390fd5b60005b8451811015610e4057610e38858281518110610e2b57610e2b6132ba565b60200260200101516112d3565b600101610e0d565b50610dbc848484846115a2565b6000610e5761120b565b336000908152606791909101602052604090205460ff16610e8b576040516326b9cdff60e11b815260040160405180910390fd5b610e93611297565b6000868152606791909101602052604090205460ff1615610ec757604051637b04260960e01b815260040160405180910390fd5b6001610ed1611297565b600087815260679190910160205260409020805460ff1916911515919091179055610efe8585858561164e565b95945050505050565b60008584148015610f1757508582145b610f37576040516001621398b960e31b0319815260040160405180910390fd5b610f458787878787876118b7565b9050336001600160a01b03167f8dd8d12374b84b953ae64df22c21c4595675aa2fd20893fdeef36a1e0c80ba81888888888888604051610f8a9695949392919061347d565b60405180910390a29695505050505050565b336001600160a01b037f00000000000000000000000000000000000000000000000000000000000000001614610fe4576040516282b42960e81b815260040160405180910390fd5b828114611007576040516001621398b960e31b0319815260040160405180910390fd5b60005b838110156110a4576000858583818110611026576110266132ba565b905060200201602081019061103b9190612e12565b90506000848484818110611051576110516132ba565b905060200201602081019061106691906134c6565b905080611071611297565b62ffffff93909316600090815260689093016020526040909220805460ff1916921515929092179091555060010161100a565b5050505050565b60006110b561120b565b600101546110c161120b565b546110cc91906132d0565b6110d690476132a7565b905090565b336001600160a01b037f00000000000000000000000000000000000000000000000000000000000000001614611123576040516282b42960e81b815260040160405180910390fd5b8061112c6114ec565b5550565b600061113a61120b565b6001600160a01b03909216600090815260689290920160205250604090205490565b60008083806020019051810190611173919061352d565b909250905060018251600281111561118d5761118d6132e3565b036111a25761119d858585611aa1565b6111e5565b6002825160028111156111b7576111b76132e3565b036111cc5761119d8582858560400151611bc4565b6040516314c45b6b60e01b815260040160405180910390fd5b6111ed611297565b600095865260660160205250506040909220805460ff191690555050565b604080517f636f6e6365726f76657269666965722e6f70657261746f722e73746f726167656020820152600091829160ff1991600191015b6040516020818303038152906040528051906020012060001c61126691906132a7565b60405160200161127891815260200190565b60408051601f1981840301815291905280516020909101201692915050565b604080517f636f6e6365726f76657269666965722e76657269666965722e73746f726167656020820152600091829160ff199160019101611243565b604080517f636f6e6365726f76657269666965722e76657269666965722e73746f72616765602082015260ff1991600191016040516020818303038152906040528051906020012060001c61132891906132a7565b60405160200161133a91815260200190565b60405160208183030381529060405280519060200120168114806113da5750604080517f636f6e6365726f76657269666965722e6f70657261746f722e73746f72616765602082015260ff1991600191016040516020818303038152906040528051906020012060001c6113ae91906132a7565b6040516020016113c091815260200190565b604051602081830303815290604052805190602001201681145b80611445575060405160ff19906001906113f6906020016135c7565b6040516020818303038152906040528051906020012060001c61141991906132a7565b60405160200161142b91815260200190565b604051602081830303815290604052805190602001201681145b61146257604051630a02739760e41b815260040160405180910390fd5b50565b6000818015611486576040805184815286860160208201522054915061148d565b8484015491505b509392505050565b604080516001600160a01b038416602482015260448082018490528251808303909101815260649091019091526020810180516001600160e01b031663a9059cbb60e01b1790526114e7908490611ea4565b505050565b60008060ff60001b196001604051602001611243906135c7565b600080826115285760405163c6af252960e01b81526004016105209190613317565b50600061271061154461ffff8616670de0b6b3a764000061332a565b61154e9190613610565b905060008361156583670de0b6b3a764000061332a565b61156f9190613610565b925050505b92915050565b81801561159957604080518481528686016020820152208290556110a4565b50919092015550565b825184511480156115b4575081518351145b80156115c1575080518251145b6115e1576040516001621398b960e31b0319815260040160405180910390fd5b60005b84518110156110a457602081026020018501516020820260200185015160208302602001850151602084026020018501518160008114611636576040805184815286860160208201522082905561163d565b8484018290555b5050600190930192506115e4915050565b6000611666336116616064610b016114ec565b611f15565b5060408051600680825260e08201909252600091816020015b606081526020019060019003908161167f57905050604080517f0000000000000000000000000000000000000000000000000000000000000000602082015291925001604051602081830303815290604052816000815181106116e4576116e46132ba565b602002602001018190525083604051602001611713919060e89190911b6001600160e81b031916815260030190565b60405160208183030381529060405281600181518110611735576117356132ba565b60200260200101819052508560405160200161175391815260200190565b60405160208183030381529060405281600281518110611775576117756132ba565b60200260200101819052508460405160200161179391815260200190565b604051602081830303815290604052816003815181106117b5576117b56132ba565b6020026020010181905250826040516020016117d19190613624565b604051602081830303815290604052816004815181106117f3576117f36132ba565b602002602001018190525033604051602001611822919060609190911b6001600160601b031916815260140190565b60405160208183030381529060405281600581518110611844576118446132ba565b602002602001018190525061185881611fde565b91506001611864611297565b60008481526066919091016020526040808220805460ff191693151593909317909255905187917ffb81e755bba86f865a4c093b06fe6468a7eedaa06466653b988545795ccdf76091a250949350505050565b60006118ca336116616064610b016114ec565b5060408051600580825260c08201909252600091816020015b60608152602001906001900390816118e357905050604080517f000000000000000000000000000000000000000000000000000000000000000060208201529192500160405160208183030381529060405281600081518110611948576119486132ba565b60200260200101819052508787604051602001611966929190613640565b60405160208183030381529060405281600181518110611988576119886132ba565b602002602001018190525085856040516020016119a6929190613640565b604051602081830303815290604052816002815181106119c8576119c86132ba565b602002602001018190525083836040516020016119e6929190613654565b60405160208183030381529060405281600381518110611a0857611a086132ba565b602002602001018190525033604051602001611a3391906001600160a01b0391909116815260200190565b60405160208183030381529060405281600481518110611a5557611a556132ba565b6020026020010181905250611a6981611fde565b91506001611a75611297565b600084815260669190910160205260409020805460ff1916911515919091179055509695505050505050565b805115611ae4577fbcf5ce4fda95e104d7172732bf495e532c7355ebce10657ed2161d41d3a2b0e581604051611ad79190613668565b60405180910390a1505050565b600080611af0846120af565b91509150816020015160ff16600103611b0c57611b0c816120eb565b6000611b166114ec565b549050611b24606482611506565b611b2c61120b565b606a01600085604001516001600160a01b03166001600160a01b031681526020019081526020016000206000828254611b6591906132d0565b90915550611b769050606482611506565b611b7e61120b565b606801600085604001516001600160a01b03166001600160a01b031681526020019081526020016000206000828254611bb791906132d0565b9091555050505050505050565b815115611c07577fbcf5ce4fda95e104d7172732bf495e532c7355ebce10657ed2161d41d3a2b0e582604051611bfa9190613668565b60405180910390a1610dbc565b600083806020019051810190611c1d9190613764565b604081015151815151919250148015611c3c5750602081015151815151145b611c5c576040516001621398b960e31b0319815260040160405180910390fd5b60005b815151811015611e5457600082600001518281518110611c8157611c816132ba565b60200260200101519050600083602001518381518110611ca357611ca36132ba565b6020026020010151905060006001811115611cc057611cc06132e3565b826001811115611cd257611cd26132e3565b03611e4a57600084604001518481518110611cef57611cef6132ba565b6020026020010151806020019051810190611d0a919061388b565b9050856001600160a01b0316816001600160a01b031614611d3e57604051634265bbb960e11b815260040160405180910390fd5b6001826001811115611d5257611d526132e3565b03611dc5576040516001600160601b0319606083901b166020820152611d8b908490603401604051602081830303815290604052612134565b6001611d9561120b565b6001600160a01b038816600090815260679190910160205260409020805460ff1916911515919091179055611e48565b6000826001811115611dd957611dd96132e3565b03611e48576040516001600160601b0319606083901b166020820152611e129084906034016040516020818303038152906040526121c0565b6000611e1c61120b565b6001600160a01b038816600090815260679190910160205260409020805460ff19169115159190911790555b505b5050600101611c5f565b50805160208201516040516001600160a01b038516927fe45aa49322ca788544241b0cf4a43007ed43fb0fc18024f8664bafa21616f64392611e95926138a8565b60405180910390a25050505050565b600080602060008451602086016000885af180611ec7576040513d6000823e3d81fd5b50506000513d91508115611edf578060011415611eec565b6001600160a01b0384163b155b15610dbc57604051635274afe760e01b81526001600160a01b0385166004820152602401610520565b600080611f2061120b565b6001600160a01b03851660009081526068919091016020526040902054905082611f4861120b565b6001600160a01b03861660009081526068919091016020526040902054829185911015611f915760405163052dcc5960e51b815260048101929092526024820152604401610520565b505082611f9c61120b565b6068016000866001600160a01b03166001600160a01b031681526020019081526020016000206000828254611fd191906132a7565b9091555092949350505050565b60006120216040805160e0810190915280600081526020016000815260200160008152602001606081526020016060815260200160608152602001606081525090565b612047604051806101c001604052806101828152602001613e566101829139829061223b565b612051818461224c565b6120a861205d82612276565b7f0000000000000000000000000000000000000000000000000000000000000000620186a07f000000000000000000000000000000000000000000000000000000000000000061253e565b9392505050565b60408051606081018252600080825260208201819052918101919091526060828060200190518101906120e2919061352d565b91509150915091565b60008180602001905181019061210191906139a2565b8051604051919250907fe926aaee2b4b6afb102e3dd8011621cf4b6e8eeae7dde6190388b45bbb39749c90600090a25050565b600061213e61120b565b6066016000846001811115612155576121556132e3565b6001811115612166576121666132e3565b8152602001908152602001600020905060006121828284612610565b50905080156121a4576040516342ee68b560e01b815260040160405180910390fd5b8154600181018355600083815260209020016110a48482613acc565b60006121ca61120b565b60660160008460018111156121e1576121e16132e3565b60018111156121f2576121f26132e3565b8152602001908152602001600020905060008061220f8385612610565b9150915081612231576040516325ec6c1f60e01b815260040160405180910390fd5b6110a48382612680565b6122488260008084612705565b5050565b805160000361226e5760405163fe936cb760e01b815260040160405180910390fd5b60c090910152565b60606000612285610100612783565b90506122be6040518060400160405280600c81526020016b31b7b232a637b1b0ba34b7b760a11b815250826127a490919063ffffffff16565b82516122dc9060028111156122d5576122d56132e3565b82906127bd565b6040805180820190915260088152676c616e677561676560c01b60208201526123069082906127a4565b604083015161231d9080156122d5576122d56132e3565b604080518082019091526006815265736f7572636560d01b60208201526123459082906127a4565b60608301516123559082906127a4565b60a083015151156123e1576040805180820190915260048152636172677360e01b60208201526123869082906127a4565b61238f816127f6565b60005b8360a00151518110156123d7576123cf8460a0015182815181106123b8576123b86132ba565b6020026020010151836127a490919063ffffffff16565b600101612392565b506123e18161281a565b608083015151156124a557600083602001516002811115612404576124046132e3565b036124225760405163a80d31f760e01b815260040160405180910390fd5b60408051808201909152600f81526e39b2b1b932ba39a637b1b0ba34b7b760891b60208201526124539082906127a4565b61246c836020015160028111156122d5576122d56132e3565b6040805180820190915260078152667365637265747360c81b60208201526124959082906127a4565b60808301516124a5908290612838565b60c083015151156125365760408051808201909152600981526862797465734172677360b81b60208201526124db9082906127a4565b6124e4816127f6565b60005b8360c001515181101561252c576125248460c00151828151811061250d5761250d6132ba565b60200260200101518361283890919063ffffffff16565b6001016124e7565b506125368161281a565b515192915050565b6000807f00000000000000000000000000000000000000000000000000000000000000006001600160a01b031663461d27628688600188886040518663ffffffff1660e01b8152600401612596959493929190613b8d565b6020604051808303816000875af11580156125b5573d6000803e3d6000fd5b505050506040513d601f19601f820116820180604052508101906125d99190613bd6565b60405190915081907f1131472297a800fee664d1d89cfa8f7676ff07189ecc53f80bbb5f4969099db890600090a295945050505050565b60008060005b8454811015612670578380519060200120858281548110612639576126396132ba565b906000526020600020016040516126509190613bef565b60405180910390200361266857600192509050612679565b600101612616565b50600080915091505b9250929050565b81548290612690906001906132a7565b815481106126a0576126a06132ba565b906000526020600020018282815481106126bc576126bc6132ba565b9060005260206000200190816126d29190613c64565b50818054806126e3576126e3613d38565b6001900381819060005260206000200160006126ff9190612be3565b90555050565b8051600003612727576040516322ce3edd60e01b815260040160405180910390fd5b8383600281111561273a5761273a6132e3565b9081600281111561274d5761274d6132e3565b90525060408401828015612763576127636132e3565b90818015612773576127736132e3565b9052506060909301929092525050565b61278b612c1d565b80516127979083612845565b5060006020820152919050565b6127b182600383516128bc565b81516114e790826129d5565b81516127ca9060c26129f6565b5061224882826040516020016127e291815260200190565b604051602081830303815290604052612838565b612801816004612a5f565b60018160200181815161281491906132d0565b90525050565b612825816007612a5f565b60018160200181815161281491906132a7565b6127b182600283516128bc565b604080518082019091526060815260006020820152612865602083613d4e565b1561288d57612875602083613d4e565b6128809060206132a7565b61288a90836132d0565b91505b6020808401839052604051808552600081529081840101818110156128b157600080fd5b604052509192915050565b6017816001600160401b0316116128e2578251610dbc9060e0600585901b1683176129f6565b60ff816001600160401b03161161292257825161290a906018611fe0600586901b16176129f6565b508251610dbc906001600160401b0383166001612a76565b61ffff816001600160401b03161161296357825161294b906019611fe0600586901b16176129f6565b508251610dbc906001600160401b0383166002612a76565b63ffffffff816001600160401b0316116129a657825161298e90601a611fe0600586901b16176129f6565b508251610dbc906001600160401b0383166004612a76565b82516129bd90601b611fe0600586901b16176129f6565b508251610dbc906001600160401b0383166008612a76565b6040805180820190915260608152600060208201526120a883838451612afb565b6040805180820190915260608152600060208201528251516000612a1b8260016132d0565b905084602001518210612a3c57612a3c85612a3783600261332a565b612bcc565b8451602083820101858153508051821115612a55578181525b5093949350505050565b81516114e790601f611fe0600585901b16176129f6565b6040805180820190915260608152600060208201528351516000612a9a82856132d0565b90508560200151811115612ab757612ab786612a3783600261332a565b60006001612ac786610100613e49565b612ad191906132a7565b90508651828101878319825116178152508051831115612aef578281525b50959695505050505050565b6040805180820190915260608152600060208201528251821115612b1e57600080fd5b8351516000612b2d84836132d0565b90508560200151811115612b4a57612b4a86612a3783600261332a565b855180518382016020019160009180851115612b64578482525b505050602086015b60208610612ba45780518252612b836020836132d0565b9150612b906020826132d0565b9050612b9d6020876132a7565b9550612b6c565b51815160001960208890036101000a0190811690199190911617905250849150509392505050565b8151612bd88383612845565b50610dbc83826129d5565b508054612bef90613341565b6000825580601f10612bff575050565b601f0160209004906000526020600020908101906114629190612c52565b6040518060400160405280612c45604051806040016040528060608152602001600081525090565b8152602001600081525090565b5b80821115612c675760008155600101612c53565b5090565b634e487b7160e01b600052604160045260246000fd5b604051606081016001600160401b0381118282101715612ca357612ca3612c6b565b60405290565b60405160e081016001600160401b0381118282101715612ca357612ca3612c6b565b604051601f8201601f191681016001600160401b0381118282101715612cf357612cf3612c6b565b604052919050565b60006001600160401b03821115612d1457612d14612c6b565b50601f01601f191660200190565b600082601f830112612d3357600080fd5b8135612d46612d4182612cfb565b612ccb565b818152846020838601011115612d5b57600080fd5b816020850160208301376000918101602001919091529392505050565b600080600060608486031215612d8d57600080fd5b8335925060208401356001600160401b03811115612daa57600080fd5b612db686828701612d22565b92505060408401356001600160401b03811115612dd257600080fd5b612dde86828701612d22565b9150509250925092565b600060208284031215612dfa57600080fd5b5035919050565b62ffffff8116811461146257600080fd5b600060208284031215612e2457600080fd5b81356120a881612e01565b6001600160a01b038116811461146257600080fd5b600060208284031215612e5657600080fd5b81356120a881612e2f565b600080600060608486031215612e7657600080fd5b505081359360208301359350604090920135919050565b60008083601f840112612e9f57600080fd5b5081356001600160401b03811115612eb657600080fd5b6020830191508360208260051b850101111561267957600080fd5b60008060008060408587031215612ee757600080fd5b84356001600160401b03811115612efd57600080fd5b612f0987828801612e8d565b90955093505060208501356001600160401b03811115612f2857600080fd5b612f3487828801612e8d565b95989497509550505050565b6002811061146257600080fd5b600060208284031215612f5f57600080fd5b81356120a881612f40565b60005b83811015612f85578181015183820152602001612f6d565b50506000910152565b60008151808452612fa6816020860160208601612f6a565b601f01601f19169290920160200192915050565b6000602082016020835280845180835260408501915060408160051b86010192506020860160005b8281101561301357603f19878603018452612ffe858351612f8e565b94506020938401939190910190600101612fe2565b50929695505050505050565b6000806000806080858703121561303557600080fd5b5050823594602084013594506040840135936060013592509050565b60006001600160401b0382111561306a5761306a612c6b565b5060051b60200190565b600082601f83011261308557600080fd5b8135613093612d4182613051565b8082825260208201915060208360051b8601019250858311156130b557600080fd5b602085015b838110156130d25780358352602092830192016130ba565b5095945050505050565b600080600080608085870312156130f257600080fd5b84356001600160401b0381111561310857600080fd5b61311487828801613074565b94505060208501356001600160401b0381111561313057600080fd5b61313c87828801613074565b93505060408501356001600160401b0381111561315857600080fd5b61316487828801613074565b92505060608501356001600160401b0381111561318057600080fd5b61318c87828801613074565b91505092959194509250565b600080600080608085870312156131ae57600080fd5b843593506020850135925060408501356131c781612e01565b915060608501356001600160401b038111156131e257600080fd5b61318c87828801612d22565b6000806000806000806060878903121561320757600080fd5b86356001600160401b0381111561321d57600080fd5b61322989828a01612e8d565b90975095505060208701356001600160401b0381111561324857600080fd5b61325489828a01612e8d565b90955093505060408701356001600160401b0381111561327357600080fd5b61327f89828a01612e8d565b979a9699509497509295939492505050565b634e487b7160e01b600052601160045260246000fd5b8181038181111561157457611574613291565b634e487b7160e01b600052603260045260246000fd5b8082018082111561157457611574613291565b634e487b7160e01b600052602160045260246000fd5b6002811061146257634e487b7160e01b600052602160045260246000fd5b60208101613324836132f9565b91905290565b808202811582820484141761157457611574613291565b600181811c9082168061335557607f821691505b60208210810361337557634e487b7160e01b600052602260045260246000fd5b50919050565b81835260208301925060008160005b84811015612a5557813561339d81612f40565b6133a6816132f9565b8652602095860195919091019060010161338a565b81835281816020850137506000828201602090810191909152601f909101601f19169091010190565b60008383855260208501945060208460051b8201018360005b8681101561347157838303601f19018852813536879003601e1901811261342357600080fd5b86016020810190356001600160401b0381111561343f57600080fd5b80360382131561344e57600080fd5b6134598582846133bb565b60209a8b019a909550939093019250506001016133fd565b50909695505050505050565b60608152600061349160608301888a61337b565b82810360208401526134a481878961337b565b905082810360408401526134b98185876133e4565b9998505050505050505050565b6000602082840312156134d857600080fd5b813580151581146120a857600080fd5b600082601f8301126134f957600080fd5b8151613507612d4182612cfb565b81815284602083860101111561351c57600080fd5b61080f826020830160208701612f6a565b600080828403608081121561354157600080fd5b606081121561354f57600080fd5b50613558612c81565b83516003811061356757600080fd5b8152602084015160ff8116811461357d57600080fd5b6020820152604084015161359081612e2f565b604082015260608401519092506001600160401b038111156135b157600080fd5b6135bd858286016134e8565b9150509250929050565b7f636f6e6365726f76657269666965722e7072696365666565642e73746f7261678152606560f81b602082015260210190565b634e487b7160e01b600052601260045260246000fd5b60008261361f5761361f6135fa565b500490565b60008251613636818460208701612f6a565b9190910192915050565b60208152600061080f60208301848661337b565b60208152600061080f6020830184866133e4565b6020815260006120a86020830184612f8e565b600082601f83011261368c57600080fd5b815161369a612d4182613051565b8082825260208201915060208360051b8601019250858311156136bc57600080fd5b602085015b838110156130d25780516136d481612f40565b8352602092830192016136c1565b600082601f8301126136f357600080fd5b8151613701612d4182613051565b8082825260208201915060208360051b86010192508583111561372357600080fd5b602085015b838110156130d25780516001600160401b0381111561374657600080fd5b613755886020838a01016134e8565b84525060209283019201613728565b60006020828403121561377657600080fd5b81516001600160401b0381111561378c57600080fd5b82016060818503121561379e57600080fd5b6137a6612c81565b81516001600160401b038111156137bc57600080fd5b8201601f810186136137cd57600080fd5b80516137db612d4182613051565b8082825260208201915060208360051b8501019250888311156137fd57600080fd5b6020840193505b8284101561382857835161381781612f40565b825260209384019390910190613804565b845250505060208201516001600160401b0381111561384657600080fd5b6138528682850161367b565b60208301525060408201516001600160401b0381111561387157600080fd5b61387d868285016136e2565b604083015250949350505050565b60006020828403121561389d57600080fd5b81516120a881612e2f565b6040808252835190820181905260009060208501906060840190835b818110156138eb5783516138d7816132f9565b8352602093840193909201916001016138c4565b50508381036020808601919091528551808352918101925085019060005b8181101561393157825161391c816132f9565b84526020938401939290920191600101613909565b50919695505050505050565b805161061181612e01565b60006040828403121561395a57600080fd5b604080519081016001600160401b038111828210171561397c5761397c612c6b565b8060405250809150825161398f81612e2f565b8152602092830151920191909152919050565b6000602082840312156139b457600080fd5b81516001600160401b038111156139ca57600080fd5b820161010081850312156139dd57600080fd5b6139e5612ca9565b815181526020808301519082015260408201516001600160401b03811115613a0c57600080fd5b613a18868285016134e8565b604083015250613a2a6060830161393d565b6060820152613a3b6080830161393d565b6080820152613a4d8560a08401613948565b60a082015260e08201516001600160401b03811115613a6b57600080fd5b613a77868285016136e2565b60c083015250949350505050565b601f8211156114e757806000526020600020601f840160051c81016020851015613aac5750805b601f840160051c820191505b818110156110a45760008155600101613ab8565b81516001600160401b03811115613ae557613ae5612c6b565b613af981613af38454613341565b84613a85565b6020601f821160018114613b305760008315613b155750848201515b600184901b600019600386901b1c198216175b8555506110a4565b600084815260208120601f198516915b82811015613b605787850151825560209485019460019092019101613b40565b5084821015613b7e5786840151600019600387901b60f8161c191681555b50505050600190811b01905550565b6001600160401b038616815260a060208201526000613baf60a0830187612f8e565b61ffff9590951660408301525063ffffffff92909216606083015260809091015292915050565b600060208284031215613be857600080fd5b5051919050565b6000808354613bfd81613341565b600182168015613c145760018114613c2957613c59565b60ff1983168652811515820286019350613c59565b86600052602060002060005b83811015613c5157815488820152600190910190602001613c35565b505081860193505b509195945050505050565b818103613c6f575050565b613c798254613341565b6001600160401b03811115613c9057613c90612c6b565b613c9e81613af38454613341565b6000601f821160018114613cd05760008315613b15575081850154600184901b600019600386901b1c19821617613b28565b600085815260209020601f19841690600086815260209020845b83811015613d0a5782860154825560019586019590910190602001613cea565b5085831015613d285781850154600019600388901b60f8161c191681555b5050505050600190811b01905550565b634e487b7160e01b600052603160045260246000fd5b600082613d5d57613d5d6135fa565b500690565b6001815b6001841115613d9d57808504811115613d8157613d81613291565b6001841615613d8f57908102905b60019390931c928002613d66565b935093915050565b600082613db457506001611574565b81613dc157506000611574565b8160018114613dd75760028114613de157613dfd565b6001915050611574565b60ff841115613df257613df2613291565b50506001821b611574565b5060208310610133831016604e8410600b8410161715613e20575081810a611574565b613e2d6000198484613d62565b8060001904821115613e4157613e41613291565b029392505050565b60006120a88383613da556fe766172206e3b282865293d3e655b652e483d305d3d27482729286e7c7c3d7b7d293b76617220613d6177616974206665746368282768747470733a2f2f7261772e67697468756275736572636f6e74656e742e636f6d2f636f6e6365726f2f76322d636f6e7472616374732f726566732f68656164732f6d61737465722f636c662f646973742f6d6573736167655265706f72742e6d696e2e6a7327292e7468656e282874293d3e742e746578742829292c6f3d273078272b41727261792e66726f6d286e65772055696e743841727261792861776169742063727970746f2e737562746c652e64696765737428275348412d323536272c6e65772054657874456e636f64657228292e656e636f64652861292929292e6d6170282874293d3e742e746f537472696e67283136292e706164537461727428322c27302729292e6a6f696e282727293b6966286f213d3d6279746573417267735b305d297468726f77202768617368206d69736d61746368273b72657475726e206576616c2861293ba26469706673582212208ab7a809a77a448b2d3a67436492659c852a8853771b833d55f14721af97c1e564736f6c634300081c0033",
  "linkReferences": {},
  "deployedLinkReferences": {}
}