{
  "_format": "hh-sol-artifact-1",
  "contractName": "ConceroRouter",
  "sourceName": "contracts/ConceroRouter/ConceroRouter.sol",
  "abi": [
    {
      "inputs": [
        {
          "internalType": "uint24",
          "name": "chainSelector",
          "type": "uint24"
        },
        {
          "internalType": "address",
          "name": "feedUpdater",
          "type": "address"
        },
        {
          "internalType": "address",
          "name": "conceroVerifier",
          "type": "address"
        },
        {
          "internalType": "uint64",
          "name": "conceroVerifierSubId",
          "type": "uint64"
        },
        {
          "internalType": "address[4]",
          "name": "clfSigners",
          "type": "address[4]"
        }
      ],
      "stateMutability": "nonpayable",
      "type": "constructor"
    },
    {
      "inputs": [
        {
          "internalType": "address",
          "name": "signer",
          "type": "address"
        }
      ],
      "name": "DuplicateSignatureDetected",
      "type": "error"
    },
    {
      "inputs": [],
      "name": "FinalityNotYetSupported",
      "type": "error"
    },
    {
      "inputs": [],
      "name": "IncorrectNumberOfSignatures",
      "type": "error"
    },
    {
      "inputs": [
        {
          "internalType": "uint256",
          "name": "provided",
          "type": "uint256"
        },
        {
          "internalType": "uint256",
          "name": "required",
          "type": "uint256"
        }
      ],
      "name": "InsufficientFee",
      "type": "error"
    },
    {
      "inputs": [],
      "name": "InvalidAmount",
      "type": "error"
    },
    {
      "inputs": [],
      "name": "InvalidClfReportClient",
      "type": "error"
    },
    {
      "inputs": [],
      "name": "InvalidClfReportSubscriptionId",
      "type": "error"
    },
    {
      "inputs": [
        {
          "internalType": "uint24",
          "name": "dstChainSelector",
          "type": "uint24"
        }
      ],
      "name": "InvalidDstChainSelector",
      "type": "error"
    },
    {
      "inputs": [],
      "name": "InvalidGasLimit",
      "type": "error"
    },
    {
      "inputs": [],
      "name": "InvalidMessageHashSum",
      "type": "error"
    },
    {
      "inputs": [],
      "name": "InvalidNamespace",
      "type": "error"
    },
    {
      "inputs": [],
      "name": "InvalidReceiver",
      "type": "error"
    },
    {
      "inputs": [],
      "name": "LengthMismatch",
      "type": "error"
    },
    {
      "inputs": [
        {
          "internalType": "bytes32",
          "name": "messageId",
          "type": "bytes32"
        }
      ],
      "name": "MessageAlreadyProcessed",
      "type": "error"
    },
    {
      "inputs": [
        {
          "internalType": "bytes32",
          "name": "messageId",
          "type": "bytes32"
        }
      ],
      "name": "MessageDeliveryFailed",
      "type": "error"
    },
    {
      "inputs": [],
      "name": "MessageTooLarge",
      "type": "error"
    },
    {
      "inputs": [
        {
          "internalType": "enum CommonErrors.RequiredVariableUnsetType",
          "name": "variableType",
          "type": "uint8"
        }
      ],
      "name": "RequiredVariableUnset",
      "type": "error"
    },
    {
      "inputs": [
        {
          "internalType": "address",
          "name": "token",
          "type": "address"
        }
      ],
      "name": "SafeERC20FailedOperation",
      "type": "error"
    },
    {
      "inputs": [],
      "name": "TransferFailed",
      "type": "error"
    },
    {
      "inputs": [],
      "name": "Unauthorized",
      "type": "error"
    },
    {
      "inputs": [],
      "name": "UnauthorizedOperator",
      "type": "error"
    },
    {
      "inputs": [
        {
          "internalType": "address",
          "name": "signer",
          "type": "address"
        }
      ],
      "name": "UnauthorizedSigner",
      "type": "error"
    },
    {
      "inputs": [
        {
          "internalType": "uint24",
          "name": "chainSelector",
          "type": "uint24"
        }
      ],
      "name": "UnsupportedChainSelector",
      "type": "error"
    },
    {
      "inputs": [],
      "name": "UnsupportedFeeTokenType",
      "type": "error"
    },
    {
      "anonymous": false,
      "inputs": [
        {
          "indexed": true,
          "internalType": "bytes32",
          "name": "id",
          "type": "bytes32"
        }
      ],
      "name": "ConceroMessageDelivered",
      "type": "event"
    },
    {
      "anonymous": false,
      "inputs": [
        {
          "indexed": true,
          "internalType": "bytes32",
          "name": "id",
          "type": "bytes32"
        }
      ],
      "name": "ConceroMessageReceived",
      "type": "event"
    },
    {
      "anonymous": false,
      "inputs": [
        {
          "indexed": true,
          "internalType": "bytes32",
          "name": "messageId",
          "type": "bytes32"
        },
        {
          "indexed": false,
          "internalType": "uint8",
          "name": "version",
          "type": "uint8"
        },
        {
          "indexed": false,
          "internalType": "bool",
          "name": "shouldFinaliseSrc",
          "type": "bool"
        },
        {
          "indexed": false,
          "internalType": "uint24",
          "name": "dstChainSelector",
          "type": "uint24"
        },
        {
          "indexed": false,
          "internalType": "bytes",
          "name": "dstChainData",
          "type": "bytes"
        },
        {
          "indexed": false,
          "internalType": "address",
          "name": "sender",
          "type": "address"
        },
        {
          "indexed": false,
          "internalType": "bytes",
          "name": "message",
          "type": "bytes"
        }
      ],
      "name": "ConceroMessageSent",
      "type": "event"
    },
    {
      "anonymous": false,
      "inputs": [
        {
          "indexed": true,
          "internalType": "address",
          "name": "operator",
          "type": "address"
        },
        {
          "indexed": false,
          "internalType": "uint256",
          "name": "amount",
          "type": "uint256"
        }
      ],
      "name": "OperatorFeeWithdrawn",
      "type": "event"
    },
    {
      "stateMutability": "payable",
      "type": "fallback"
    },
    {
      "inputs": [
        {
          "internalType": "uint24",
          "name": "dstChainSelector",
          "type": "uint24"
        },
        {
          "internalType": "bool",
          "name": "shouldFinaliseSrc",
          "type": "bool"
        },
        {
          "internalType": "address",
          "name": "feeToken",
          "type": "address"
        },
        {
          "components": [
            {
              "internalType": "address",
              "name": "receiver",
              "type": "address"
            },
            {
              "internalType": "uint256",
              "name": "gasLimit",
              "type": "uint256"
            }
          ],
          "internalType": "struct ConceroTypes.EvmDstChainData",
          "name": "dstChainData",
          "type": "tuple"
        },
        {
          "internalType": "bytes",
          "name": "message",
          "type": "bytes"
        }
      ],
      "name": "conceroSend",
      "outputs": [
        {
          "internalType": "bytes32",
          "name": "",
          "type": "bytes32"
        }
      ],
      "stateMutability": "payable",
      "type": "function"
    },
    {
      "inputs": [
        {
          "internalType": "address",
          "name": "operator",
          "type": "address"
        }
      ],
      "name": "getCohort",
      "outputs": [
        {
          "internalType": "uint8",
          "name": "",
          "type": "uint8"
        }
      ],
      "stateMutability": "pure",
      "type": "function"
    },
    {
      "inputs": [
        {
          "internalType": "uint24",
          "name": "dstChainSelector",
          "type": "uint24"
        },
        {
          "internalType": "bool",
          "name": "shouldFinaliseSrc",
          "type": "bool"
        },
        {
          "internalType": "address",
          "name": "feeToken",
          "type": "address"
        },
        {
          "components": [
            {
              "internalType": "address",
              "name": "receiver",
              "type": "address"
            },
            {
              "internalType": "uint256",
              "name": "gasLimit",
              "type": "uint256"
            }
          ],
          "internalType": "struct ConceroTypes.EvmDstChainData",
          "name": "dstChainData",
          "type": "tuple"
        }
      ],
      "name": "getMessageFee",
      "outputs": [
        {
          "internalType": "uint256",
          "name": "",
          "type": "uint256"
        }
      ],
      "stateMutability": "view",
      "type": "function"
    },
    {
      "inputs": [],
      "name": "getMessageVersion",
      "outputs": [
        {
          "internalType": "uint8",
          "name": "",
          "type": "uint8"
        }
      ],
      "stateMutability": "pure",
      "type": "function"
    },
    {
      "inputs": [
        {
          "internalType": "bytes32",
          "name": "namespace",
          "type": "bytes32"
        },
        {
          "internalType": "uint256",
          "name": "offset",
          "type": "uint256"
        },
        {
          "internalType": "bytes32",
          "name": "mappingKey",
          "type": "bytes32"
        }
      ],
      "name": "getStorage",
      "outputs": [
        {
          "internalType": "uint256",
          "name": "",
          "type": "uint256"
        }
      ],
      "stateMutability": "view",
      "type": "function"
    },
    {
      "inputs": [],
      "name": "getWithdrawableConceroFee",
      "outputs": [
        {
          "internalType": "uint256",
          "name": "",
          "type": "uint256"
        }
      ],
      "stateMutability": "view",
      "type": "function"
    },
    {
      "inputs": [],
      "name": "i_owner",
      "outputs": [
        {
          "internalType": "address",
          "name": "",
          "type": "address"
        }
      ],
      "stateMutability": "view",
      "type": "function"
    },
    {
      "inputs": [
        {
          "internalType": "uint24",
          "name": "chainSelector",
          "type": "uint24"
        }
      ],
      "name": "isChainSupported",
      "outputs": [
        {
          "internalType": "bool",
          "name": "",
          "type": "bool"
        }
      ],
      "stateMutability": "view",
      "type": "function"
    },
    {
      "inputs": [
        {
          "internalType": "uint24[]",
          "name": "dstChainSelectors",
          "type": "uint24[]"
        },
        {
          "internalType": "uint256[]",
          "name": "gasPrices",
          "type": "uint256[]"
        }
      ],
      "name": "setLastGasPrices",
      "outputs": [],
      "stateMutability": "nonpayable",
      "type": "function"
    },
    {
      "inputs": [
        {
          "internalType": "uint24[]",
          "name": "dstChainSelectors",
          "type": "uint24[]"
        },
        {
          "internalType": "uint256[]",
          "name": "rates",
          "type": "uint256[]"
        }
      ],
      "name": "setNativeNativeRates",
      "outputs": [],
      "stateMutability": "nonpayable",
      "type": "function"
    },
    {
      "inputs": [
        {
          "internalType": "uint256",
          "name": "amount",
          "type": "uint256"
        }
      ],
      "name": "setNativeUsdRate",
      "outputs": [],
      "stateMutability": "nonpayable",
      "type": "function"
    },
    {
      "inputs": [
        {
          "internalType": "bytes32",
          "name": "namespace",
          "type": "bytes32"
        },
        {
          "internalType": "uint256",
          "name": "offset",
          "type": "uint256"
        },
        {
          "internalType": "bytes32",
          "name": "mappingKey",
          "type": "bytes32"
        },
        {
          "internalType": "uint256",
          "name": "value",
          "type": "uint256"
        }
      ],
      "name": "setStorage",
      "outputs": [],
      "stateMutability": "nonpayable",
      "type": "function"
    },
    {
      "inputs": [
        {
          "internalType": "bytes32[]",
          "name": "namespaces",
          "type": "bytes32[]"
        },
        {
          "internalType": "uint256[]",
          "name": "offsets",
          "type": "uint256[]"
        },
        {
          "internalType": "bytes32[]",
          "name": "mappingKeys",
          "type": "bytes32[]"
        },
        {
          "internalType": "uint256[]",
          "name": "values",
          "type": "uint256[]"
        }
      ],
      "name": "setStorageBulk",
      "outputs": [],
      "stateMutability": "nonpayable",
      "type": "function"
    },
    {
      "inputs": [
        {
          "internalType": "uint24[]",
          "name": "chainSelectors",
          "type": "uint24[]"
        },
        {
          "internalType": "bool[]",
          "name": "isSupported",
          "type": "bool[]"
        }
      ],
      "name": "setSupportedChains",
      "outputs": [],
      "stateMutability": "nonpayable",
      "type": "function"
    },
    {
      "inputs": [
        {
          "components": [
            {
              "internalType": "bytes32[3]",
              "name": "context",
              "type": "bytes32[3]"
            },
            {
              "internalType": "bytes",
              "name": "report",
              "type": "bytes"
            },
            {
              "internalType": "bytes32[]",
              "name": "rs",
              "type": "bytes32[]"
            },
            {
              "internalType": "bytes32[]",
              "name": "ss",
              "type": "bytes32[]"
            },
            {
              "internalType": "bytes32",
              "name": "rawVs",
              "type": "bytes32"
            }
          ],
          "internalType": "struct Types.ClfDonReportSubmission",
          "name": "reportSubmission",
          "type": "tuple"
        },
        {
          "internalType": "bytes",
          "name": "messageBody",
          "type": "bytes"
        }
      ],
      "name": "submitMessageReport",
      "outputs": [],
      "stateMutability": "nonpayable",
      "type": "function"
    },
    {
      "inputs": [
        {
          "internalType": "address[]",
          "name": "tokens",
          "type": "address[]"
        },
        {
          "internalType": "uint256[]",
          "name": "amounts",
          "type": "uint256[]"
        }
      ],
      "name": "withdrawConceroFees",
      "outputs": [],
      "stateMutability": "nonpayable",
      "type": "function"
    },
    {
      "inputs": [
        {
          "internalType": "uint256",
          "name": "amount",
          "type": "uint256"
        }
      ],
      "name": "withdrawOperatorFee",
      "outputs": [
        {
          "internalType": "bool",
          "name": "success",
          "type": "bool"
        }
      ],
      "stateMutability": "nonpayable",
      "type": "function"
    },
    {
      "stateMutability": "payable",
      "type": "receive"
    }
  ],
  "bytecode": "0x6101a060405234801561001157600080fd5b506040516131fd3803806131fd833981016040819052610030916100c0565b3360805262ffffff9490941660a05283516001600160a01b0390811660c0526020850151811660e0526040850151811661010052606090940151841661012052908316610140526001600160401b03166101605216610180526101a3565b80516001600160a01b03811681146100a557600080fd5b919050565b634e487b7160e01b600052604160045260246000fd5b600080600080600061010086880312156100d957600080fd5b855162ffffff811681146100ec57600080fd5b94506100fa6020870161008e565b93506101086040870161008e565b60608701519093506001600160401b038116811461012557600080fd5b9150609f8601871361013657600080fd5b604051608081016001600160401b0381118282101715610158576101586100aa565b6040528061010088018981111561016e57600080fd5b608089015b81811015610192576101848161008e565b835260209283019201610173565b505050809150509295509295909350565b60805160a05160c05160e0516101005161012051610140516101605161018051612f966102676000396000818161050101528181610ae60152610e95015260006117df0152600061178901526000611cc501526000611c8901526000611c4d01526000611c1201526000818161141301526118960152600081816102d601528181610533015281816106a1015281816107d90152818161087e01528181610a7001528181610b1801528181610c8101528181610d0c0152610ec70152612f966000f3fe6080604052600436106100f55760003560e01c80639a5d5ca91161008f578063cea34c9a11610061578063cea34c9a1461028f578063d1053131146102af578063dba6335f146102c4578063e45700ff14610310578063e716afde1461033057005b80639a5d5ca91461020f578063a89780591461022f578063b8b164851461024f578063b91443e71461026f57005b806350c454ab116100c857806350c454ab1461019a5780635a8733b3146101bc5780636666dd5c146101dc57806366c82913146101ef57005b80631feb291f146100f757806327e5f4421461012c5780633ae569511461014c57806348fd88ab1461017a575b005b34801561010357600080fd5b5061011761011236600461201b565b610350565b60405190151581526020015b60405180910390f35b34801561013857600080fd5b50610117610147366004612045565b6104ab565b34801561015857600080fd5b5061016c610167366004612062565b6104d6565b604051908152602001610123565b34801561018657600080fd5b506100f56101953660046121f3565b6104f6565b3480156101a657600080fd5b5060015b60405160ff9091168152602001610123565b3480156101c857600080fd5b506100f56101d7366004612307565b610696565b61016c6101ea36600461241c565b6108b6565b3480156101fb57600080fd5b506100f561020a3660046124a6565b610966565b34801561021b57600080fd5b506100f561022a366004612517565b610a65565b34801561023b57600080fd5b506101aa61024a366004612549565b610ac8565b34801561025b57600080fd5b506100f561026a3660046121f3565b610adb565b34801561027b57600080fd5b506100f561028a366004612566565b610c76565b34801561029b57600080fd5b506100f56102aa366004612307565b610d01565b3480156102bb57600080fd5b5061016c610e05565b3480156102d057600080fd5b506102f87f000000000000000000000000000000000000000000000000000000000000000081565b6040516001600160a01b039091168152602001610123565b34801561031c57600080fd5b5061016c61032b366004612622565b610e1f565b34801561033c57600080fd5b506100f561034b36600461201b565b610e8a565b60008061035b610f12565b336000908152606591909101602052604090205490508261038f5760405163162908e360e11b815260040160405180910390fd5b8281808211156103c05760405163a458261b60e01b8152600481019290925260248201526044015b60405180910390fd5b506103cd9050838261269a565b6103d5610f12565b3360009081526065919091016020526040902055826103f2610f12565b805460009061040290849061269a565b909155505060405133908490600081818185875af1925050503d8060008114610447576040519150601f19603f3d011682016040523d82523d6000602084013e61044c565b606091505b50508092505081610470576040516312171d8360e31b815260040160405180910390fd5b60405183815233907fc43e057480321c0f9aec5029e2f42bb82383abd09bc79fd2fbcb50c5071735729060200160405180910390a250919050565b60006104b5610f9f565b62ffffff909216600090815260699290920160205250604090205460ff1690565b60006104e184610fdc565b6104ec84848461118d565b90505b9392505050565b336001600160a01b037f00000000000000000000000000000000000000000000000000000000000000001614806105555750336001600160a01b037f000000000000000000000000000000000000000000000000000000000000000016145b610571576040516282b42960e81b815260040160405180910390fd5b8051825114610596576040516001621398b960e31b0319815260040160405180910390fd5b60005b8251811015610691576105aa610f9f565b60690160008483815181106105c1576105c16126ad565b602002602001015162ffffff1662ffffff16815260200190815260200160002060009054906101000a900460ff16838281518110610601576106016126ad565b60200260200101519061062f576040516310ee64f960e31b815262ffffff90911660048201526024016103b7565b50818181518110610642576106426126ad565b60200260200101516106526111bd565b6065016000858481518110610669576106696126ad565b60209081029190910181015162ffffff16825281019190915260400160002055600101610599565b505050565b336001600160a01b037f000000000000000000000000000000000000000000000000000000000000000016146106de576040516282b42960e81b815260040160405180910390fd5b82811480156106ec57508215155b61070c576040516001621398b960e31b0319815260040160405180910390fd5b600080610717610e05565b905060005b858110156108ad576000878783818110610738576107386126ad565b905060200201602081019061074d9190612549565b90506000868684818110610763576107636126ad565b9050602002013590506000811161078d5760405163162908e360e11b815260040160405180910390fd5b6001600160a01b03821661086f576107a581866126c3565b94508484808211156107d35760405163a458261b60e01b8152600481019290925260248201526044016103b7565b505060007f00000000000000000000000000000000000000000000000000000000000000006001600160a01b03168260405160006040518083038185875af1925050503d8060008114610842576040519150601f19603f3d011682016040523d82523d6000602084013e610847565b606091505b5050905080610869576040516312171d8360e31b815260040160405180910390fd5b506108a3565b6108a36001600160a01b0383167f0000000000000000000000000000000000000000000000000000000000000000836111fa565b505060010161071c565b50505050505050565b60006108c687878787878761124c565b6108d1878686611333565b60006108dc886113ca565b9050807f1b2c7119df1fb41a1d1e38a61a000a0ef02c906e96988cf02cf497c05cd8a0e16001898b89604051602001610930919081516001600160a01b031681526020918201519181019190915260400190565b60408051601f19818403018152908290526109539493929133908c908c90612726565b60405180910390a2979650505050505050565b61096f83611472565b6000610986610981606086018661279b565b61172d565b9050600081606001516000815181106109a1576109a16126ad565b60200260200101518060200190518101906109bc9190612861565b90506109c781611787565b60005b826020015151811015610a5d57600080610a00856020015184815181106109f3576109f36126ad565b6020026020010151611833565b91509150816020015160ff16600103610a5357610a538188888080601f01602080910402602001604051908101604052809392919081815260200183838082843760009201919091525061186f92505050565b50506001016109ca565b505050505050565b336001600160a01b037f00000000000000000000000000000000000000000000000000000000000000001614610aad576040516282b42960e81b815260040160405180910390fd5b610ab684610fdc565b610ac284848484611986565b50505050565b6000610ad560018361294f565b92915050565b336001600160a01b037f0000000000000000000000000000000000000000000000000000000000000000161480610b3a5750336001600160a01b037f000000000000000000000000000000000000000000000000000000000000000016145b610b56576040516282b42960e81b815260040160405180910390fd5b8051825114610b7b576040516001621398b960e31b0319815260040160405180910390fd5b60005b825181101561069157610b8f610f9f565b6069016000848381518110610ba657610ba66126ad565b602002602001015162ffffff1662ffffff16815260200190815260200160002060009054906101000a900460ff16838281518110610be657610be66126ad565b602002602001015190610c14576040516310ee64f960e31b815262ffffff90911660048201526024016103b7565b50818181518110610c2757610c276126ad565b6020026020010151610c376111bd565b6066016000858481518110610c4e57610c4e6126ad565b60209081029190910181015162ffffff16825281019190915260400160002055600101610b7e565b336001600160a01b037f00000000000000000000000000000000000000000000000000000000000000001614610cbe576040516282b42960e81b815260040160405180910390fd5b60005b8451811015610cf457610cec858281518110610cdf57610cdf6126ad565b6020026020010151610fdc565b600101610cc1565b50610ac2848484846119ae565b336001600160a01b037f00000000000000000000000000000000000000000000000000000000000000001614610d49576040516282b42960e81b815260040160405180910390fd5b828114610d6c576040516001621398b960e31b0319815260040160405180910390fd5b60005b83811015610dfe57828282818110610d8957610d896126ad565b9050602002016020810190610d9e919061297e565b610da6610f9f565b6069016000878785818110610dbd57610dbd6126ad565b9050602002016020810190610dd29190612045565b62ffffff1681526020810191909152604001600020805460ff1916911515919091179055600101610d6f565b5050505050565b6000610e0f610f12565b54610e1a904761269a565b905090565b60006001600160a01b03831615610e495760405163049f464b60e41b815260040160405180910390fd5b8315610e6857604051630f63f17560e11b815260040160405180910390fd5b610e818584610e7c36869003860186612999565b611a5a565b95945050505050565b336001600160a01b037f0000000000000000000000000000000000000000000000000000000000000000161480610ee95750336001600160a01b037f000000000000000000000000000000000000000000000000000000000000000016145b610f05576040516282b42960e81b815260040160405180910390fd5b80610f0e6111bd565b5550565b6040517f636f6e6365726f726f757465722e6f70657261746f722e73746f7261676500006020820152600090819060ff1990600190603e015b6040516020818303038152906040528051906020012060001c610f6e919061269a565b604051602001610f8091815260200190565b60408051601f1981840301815291905280516020909101201692915050565b6040517f636f6e6365726f726f757465722e726f757465722e73746f72616765000000006020820152600090819060ff1990600190603c01610f4b565b6040517f636f6e6365726f726f757465722e726f757465722e73746f7261676500000000602082015260ff1990600190603c016040516020818303038152906040528051906020012060001c611032919061269a565b60405160200161104491815260200190565b60405160208183030381529060405280519060200120168114806110e557506040517f636f6e6365726f726f757465722e6f70657261746f722e73746f726167650000602082015260ff1990600190603e016040516020818303038152906040528051906020012060001c6110b9919061269a565b6040516020016110cb91815260200190565b604051602081830303815290604052805190602001201681145b8061116d57506040517f636f6e6365726f726f757465722e7072696365666565642e73746f7261676500602082015260ff1990600190603f016040516020818303038152906040528051906020012060001c611141919061269a565b60405160200161115391815260200190565b604051602081830303815290604052805190602001201681145b61118a57604051630a02739760e41b815260040160405180910390fd5b50565b60008180156111ae57604080518481528686016020820152205491506111b5565b8484015491505b509392505050565b6040517f636f6e6365726f726f757465722e7072696365666565642e73746f72616765006020820152600090819060ff1990600190603f01610f4b565b604080516001600160a01b038416602482015260448082018490528251808303909101815260649091019091526020810180516001600160e01b031663a9059cbb60e01b179052610691908490611b33565b6001600160a01b038416156112745760405163049f464b60e41b815260040160405180910390fd5b82516001600160a01b031661129c57604051631e4ec46b60e01b815260040160405180910390fd5b60008360200151116112c1576040516304c5ed9760e51b815260040160405180910390fd5b620f424081106112e457604051636ceaf82160e01b815260040160405180910390fd5b841561130357604051630f63f17560e11b815260040160405180910390fd5b61130c866104ab565b86906108ad57604051630775dd4160e21b815262ffffff90911660048201526024016103b7565b6000611340848484611a5a565b90506001600160a01b0383166113b15734818082101561137c5760405163a458261b60e01b8152600481019290925260248201526044016103b7565b5050604051309082156108fc029083906000818181858888f193505050501580156113ab573d6000803e3d6000fd5b50610ac2565b60405163049f464b60e41b815260040160405180910390fd5b60006113d4610f9f565b80546000906113e2906129b5565b9182905550604080516020810192909252439082015233606090811b6bffffffffffffffffffffffff1916908201527f000000000000000000000000000000000000000000000000000000000000000060e890811b6001600160e81b031990811660748401529084901b166077820152607a01604051602081830303815290604052805190602001209050919050565b600061148a82611485606082018261279b565b611ba4565b9050600061149b60808401846129ce565b8080602002602001604051908101604052809392919081815260200183836020028082843760009201829052509394506114dc9250505060a08501856129ce565b8080602002602001604051908101604052809392919081815260200183836020028082843760009201919091525050825185519394506003931491505080156115255750808351145b611542576040516301227b8d60e11b815260040160405180910390fd5b600083516001600160401b0381111561155d5761155d61208e565b604051908082528060200260200182016040528015611586578160200160208202803683370190505b50905060005b84518110156108ad5760006001878960c0013584602081106115b0576115b06126ad565b6115bd91901a601b612a17565b8885815181106115cf576115cf6126ad565b60200260200101518886815181106115e9576115e96126ad565b602002602001015160405160008152602001604052604051611627949392919093845260ff9290921660208401526040830152606082015260800190565b6020604051602081039080840390855afa158015611649573d6000803e3d6000fd5b50505060206040510351905061165e81611bf8565b81906116895760405163e74c68bb60e01b81526001600160a01b0390911660048201526024016103b7565b5060005b828110156116f857816001600160a01b03168482815181106116b1576116b16126ad565b60200260200101516001600160a01b0316141582906116ef57604051630e256b9960e21b81526001600160a01b0390911660048201526024016103b7565b5060010161168d565b508083838151811061170c5761170c6126ad565b6001600160a01b03909216602092830291909101909101525060010161158c565b61175f6040518060a0016040528060608152602001606081526020016060815260200160608152602001606081525090565b61176b82840184612b1c565b6080860152606085015260408401526020830152815292915050565b7f00000000000000000000000000000000000000000000000000000000000000006001600160a01b031681606001516001600160a01b0316146117dd57604051632b6971c560e21b815260040160405180910390fd5b7f00000000000000000000000000000000000000000000000000000000000000006001600160401b031681608001516001600160401b03161461118a5760405163091e4cf160e31b815260040160405180910390fd5b60408051606081018252600080825260208201819052918101919091526060828060200190518101906118669190612c50565b91509150915091565b6000828060200190518101906118859190612da8565b90506118948160c00151611cfe565b7f000000000000000000000000000000000000000000000000000000000000000062ffffff16816080015162ffffff16146118ce57505050565b81805190602001208160200151146118f9576040516398eac98f60e01b815260040160405180910390fd5b611901610f9f565b81516000908152606691909101602052604090205481519060ff161561193d5760405163398560f160e11b81526004016103b791815260200190565b5080516040517ff67870b75d64e9a5f00100af39eb94911d9399b05f9df6d6db0cafc61128d5a490600090a261069181600001518260a001518360600151846040015186611d82565b8180156119a55760408051848152868601602082015220829055610dfe565b50919092015550565b825184511480156119c0575081518351145b80156119cd575080518251145b6119ed576040516001621398b960e31b0319815260040160405180910390fd5b60005b8451811015610dfe57602081026020018501516020820260200185015160208302602001850151602084026020018501518160008114611a425760408051848152868601602082015220829055611a49565b8484018290555b5050600190930192506119f0915050565b600080611a656111bd565b5490506000611a75606483611f00565b90506000611a816111bd565b62ffffff881660009081526065919091016020908152604082205490870151909250611aad9083612e8b565b90506000611aba89611f69565b90506000670de0b6b3a7640000611ad18385612e8b565b611adb9190612ea2565b90506000611ae982876126c3565b90506001600160a01b038a16611b075796506104ef95505050505050565b670de0b6b3a7640000611b1a8883612e8b565b611b249190612ea2565b9b9a5050505050505050505050565b600080602060008451602086016000885af180611b56576040513d6000823e3d81fd5b50506000513d91508115611b6e578060011415611b7b565b6001600160a01b0384163b155b15610ac257604051635274afe760e01b81526001600160a01b03851660048201526024016103b7565b6000808383604051611bb7929190612eb6565b6040518091039020905060008186604051602001611bd6929190612ec6565b60408051808303601f1901815291905280516020909101209695505050505050565b60006001600160a01b038216611c1057506000919050565b7f00000000000000000000000000000000000000000000000000000000000000006001600160a01b0316826001600160a01b03161480611c8157507f00000000000000000000000000000000000000000000000000000000000000006001600160a01b0316826001600160a01b0316145b80611cbd57507f00000000000000000000000000000000000000000000000000000000000000006001600160a01b0316826001600160a01b0316145b80610ad557507f00000000000000000000000000000000000000000000000000000000000000006001600160a01b0316826001600160a01b03161492915050565b6000805b8251811015611d5f576000838281518110611d1f57611d1f6126ad565b6020026020010151806020019051810190611d3a9190612eda565b9050336001600160a01b03821603611d56576001925050611d5f565b50600101611d02565b5080611d7e576040516326b9cdff60e11b815260040160405180910390fd5b5050565b6001611d8c610f9f565b600087815260669190910160205260409020805460ff191691151591909117905583516001600160a01b0316611dd557604051631e4ec46b60e01b815260040160405180910390fd5b83513b611df557604051631e4ec46b60e01b815260040160405180910390fd5b600063424ad82c60e01b86858585604051602401611e169493929190612ef7565b604051602081830303815290604052906001600160e01b0319166020820180516001600160e01b03838183161783525050505090506000611e6586600001518760200151600061010086611f91565b50905080611e8957604051630c3d362160e21b8152600481018890526024016103b7565b611e9c6064611e966111bd565b54611f00565b611ea4610f12565b336000908152606591909101602052604081208054909190611ec79084906126c3565b909155505060405187907fb3f2643376154cdcc78e83cff26c3fcacf4a35a6e0107d90817d80973fa4d86090600090a250505050505050565b60008082611f225760405163c6af252960e01b81526004016103b79190612f38565b506000612710611f3e61ffff8616670de0b6b3a7640000612e8b565b611f489190612ea2565b9050600083611f5f83670de0b6b3a7640000612e8b565b610e819190612ea2565b6000611f736111bd565b62ffffff909216600090815260669290920160205250604090205490565b6000606060008060008661ffff166001600160401b03811115611fb657611fb661208e565b6040519080825280601f01601f191660200182016040528015611fe0576020820181803683370190505b5090506000808751602089018b8e8ef191503d925086831115612001578692505b828152826000602083013e90999098509650505050505050565b60006020828403121561202d57600080fd5b5035919050565b62ffffff8116811461118a57600080fd5b60006020828403121561205757600080fd5b81356104ef81612034565b60008060006060848603121561207757600080fd5b505081359360208301359350604090920135919050565b634e487b7160e01b600052604160045260246000fd5b604080519081016001600160401b03811182821017156120c6576120c661208e565b60405290565b60405161016081016001600160401b03811182821017156120c6576120c661208e565b604051606081016001600160401b03811182821017156120c6576120c661208e565b60405160e081016001600160401b03811182821017156120c6576120c661208e565b604051601f8201601f191681016001600160401b038111828210171561215b5761215b61208e565b604052919050565b60006001600160401b0382111561217c5761217c61208e565b5060051b60200190565b600082601f83011261219757600080fd5b81356121aa6121a582612163565b612133565b8082825260208201915060208360051b8601019250858311156121cc57600080fd5b602085015b838110156121e95780358352602092830192016121d1565b5095945050505050565b6000806040838503121561220657600080fd5b82356001600160401b0381111561221c57600080fd5b8301601f8101851361222d57600080fd5b803561223b6121a582612163565b8082825260208201915060208360051b85010192508783111561225d57600080fd5b6020840193505b8284101561228857833561227781612034565b825260209384019390910190612264565b945050505060208301356001600160401b038111156122a657600080fd5b6122b285828601612186565b9150509250929050565b60008083601f8401126122ce57600080fd5b5081356001600160401b038111156122e557600080fd5b6020830191508360208260051b850101111561230057600080fd5b9250929050565b6000806000806040858703121561231d57600080fd5b84356001600160401b0381111561233357600080fd5b61233f878288016122bc565b90955093505060208501356001600160401b0381111561235e57600080fd5b61236a878288016122bc565b95989497509550505050565b8035801515811461238657600080fd5b919050565b6001600160a01b038116811461118a57600080fd5b6000604082840312156123b257600080fd5b6123ba6120a4565b905081356123c78161238b565b815260209182013591810191909152919050565b60008083601f8401126123ed57600080fd5b5081356001600160401b0381111561240457600080fd5b60208301915083602082850101111561230057600080fd5b60008060008060008060c0878903121561243557600080fd5b863561244081612034565b955061244e60208801612376565b9450604087013561245e8161238b565b935061246d88606089016123a0565b925060a08701356001600160401b0381111561248857600080fd5b61249489828a016123db565b979a9699509497509295939492505050565b6000806000604084860312156124bb57600080fd5b83356001600160401b038111156124d157600080fd5b840160e081870312156124e357600080fd5b925060208401356001600160401b038111156124fe57600080fd5b61250a868287016123db565b9497909650939450505050565b6000806000806080858703121561252d57600080fd5b5050823594602084013594506040840135936060013592509050565b60006020828403121561255b57600080fd5b81356104ef8161238b565b6000806000806080858703121561257c57600080fd5b84356001600160401b0381111561259257600080fd5b61259e87828801612186565b94505060208501356001600160401b038111156125ba57600080fd5b6125c687828801612186565b93505060408501356001600160401b038111156125e257600080fd5b6125ee87828801612186565b92505060608501356001600160401b0381111561260a57600080fd5b61261687828801612186565b91505092959194509250565b60008060008084860360a081121561263957600080fd5b853561264481612034565b945061265260208701612376565b935060408601356126628161238b565b92506040605f198201121561267657600080fd5b509295919450926060019150565b634e487b7160e01b600052601160045260246000fd5b81810381811115610ad557610ad5612684565b634e487b7160e01b600052603260045260246000fd5b80820180821115610ad557610ad5612684565b60005b838110156126f15781810151838201526020016126d9565b50506000910152565b600081518084526127128160208601602086016126d6565b601f01601f19169290920160200192915050565b60ff88168152861515602082015262ffffff8616604082015260c06060820152600061275560c08301876126fa565b6001600160a01b038616608084015282810360a0840152838152838560208301376000602085830101526020601f19601f86011682010191505098975050505050505050565b6000808335601e198436030181126127b257600080fd5b8301803591506001600160401b038211156127cc57600080fd5b60200191503681900382131561230057600080fd5b80516123868161238b565b80516bffffffffffffffffffffffff8116811461238657600080fd5b80516001600160401b038116811461238657600080fd5b805163ffffffff8116811461238657600080fd5b805168ffffffffffffffffff8116811461238657600080fd5b805164ffffffffff8116811461238657600080fd5b600061016082840312801561287557600080fd5b5061287e6120cc565b8251815261288e602084016127e1565b602082015261289f604084016127ec565b60408201526128b0606084016127e1565b60608201526128c160808401612808565b60808201526128d260a0840161281f565b60a08201526128e360c08401612833565b60c08201526128f460e08401612833565b60e0820152612906610100840161284c565b610100820152612919610120840161284c565b61012082015261292c610140840161281f565b6101408201529392505050565b634e487b7160e01b600052601260045260246000fd5b60006001600160a01b0383168061296857612968612939565b6001600160a01b03929092169190910692915050565b60006020828403121561299057600080fd5b6104ef82612376565b6000604082840312156129ab57600080fd5b6104ef83836123a0565b6000600182016129c7576129c7612684565b5060010190565b6000808335601e198436030181126129e557600080fd5b8301803591506001600160401b038211156129ff57600080fd5b6020019150600581901b360382131561230057600080fd5b60ff8181168382160190811115610ad557610ad5612684565b60006001600160401b03821115612a4957612a4961208e565b50601f01601f191660200190565b600082601f830112612a6857600080fd5b8135612a766121a582612163565b8082825260208201915060208360051b860101925085831115612a9857600080fd5b602085015b838110156121e95780356001600160401b03811115612abb57600080fd5b8601603f81018813612acc57600080fd5b6020810135612add6121a582612a30565b8181526040838301018a1015612af257600080fd5b81604084016020830137600060208383010152808652505050602083019250602081019050612a9d565b600080600080600060a08688031215612b3457600080fd5b85356001600160401b03811115612b4a57600080fd5b612b5688828901612186565b95505060208601356001600160401b03811115612b7257600080fd5b612b7e88828901612a57565b94505060408601356001600160401b03811115612b9a57600080fd5b612ba688828901612a57565b93505060608601356001600160401b03811115612bc257600080fd5b612bce88828901612a57565b92505060808601356001600160401b03811115612bea57600080fd5b612bf688828901612a57565b9150509295509295909350565b600082601f830112612c1457600080fd5b8151612c226121a582612a30565b818152846020838601011115612c3757600080fd5b612c488260208301602087016126d6565b949350505050565b6000808284036080811215612c6457600080fd5b6060811215612c7257600080fd5b50612c7b6120ef565b835160038110612c8a57600080fd5b8152602084015160ff81168114612ca057600080fd5b60208201526040840151612cb38161238b565b604082015260608401519092506001600160401b03811115612cd457600080fd5b6122b285828601612c03565b805161238681612034565b600060408284031215612cfd57600080fd5b612d056120a4565b90508151612d128161238b565b808252506020820151602082015292915050565b600082601f830112612d3757600080fd5b8151612d456121a582612163565b8082825260208201915060208360051b860101925085831115612d6757600080fd5b602085015b838110156121e95780516001600160401b03811115612d8a57600080fd5b612d99886020838a0101612c03565b84525060209283019201612d6c565b600060208284031215612dba57600080fd5b81516001600160401b03811115612dd057600080fd5b82016101008185031215612de357600080fd5b612deb612111565b815181526020808301519082015260408201516001600160401b03811115612e1257600080fd5b612e1e86828501612c03565b604083015250612e3060608301612ce0565b6060820152612e4160808301612ce0565b6080820152612e538560a08401612ceb565b60a082015260e08201516001600160401b03811115612e7157600080fd5b612e7d86828501612d26565b60c083015250949350505050565b8082028115828204841417610ad557610ad5612684565b600082612eb157612eb1612939565b500490565b8183823760009101908152919050565b828152606082602083013760800192915050565b600060208284031215612eec57600080fd5b81516104ef8161238b565b84815262ffffff84166020820152608060408201526000612f1b60808301856126fa565b8281036060840152612f2d81856126fa565b979650505050505050565b6020810160028310612f5a57634e487b7160e01b600052602160045260246000fd5b9190529056fea2646970667358221220831d57c57fe07c717e9f95212e6b53a3217e88c1e3f3ae1e5aee0c98af87860764736f6c634300081c0033",
  "linkReferences": {},
  "deployedLinkReferences": {}
}