{
  "_format": "hh-sol-artifact-1",
  "contractName": "ConceroRouter",
  "sourceName": "contracts/ConceroRouter/ConceroRouter.sol",
  "abi": [
    {
      "inputs": [
        {
          "internalType": "uint24",
          "name": "chainSelector",
          "type": "uint24"
        },
        {
          "internalType": "address",
          "name": "USDC",
          "type": "address"
        },
        {
          "internalType": "address",
          "name": "conceroVerifier",
          "type": "address"
        },
        {
          "internalType": "uint64",
          "name": "conceroVerifierSubId",
          "type": "uint64"
        },
        {
          "internalType": "address[4]",
          "name": "clfSigners",
          "type": "address[4]"
        }
      ],
      "stateMutability": "nonpayable",
      "type": "constructor"
    },
    {
      "inputs": [
        {
          "internalType": "address",
          "name": "signer",
          "type": "address"
        }
      ],
      "name": "DuplicateSignatureDetected",
      "type": "error"
    },
    {
      "inputs": [],
      "name": "IncorrectNumberOfSignatures",
      "type": "error"
    },
    {
      "inputs": [
        {
          "internalType": "uint256",
          "name": "provided",
          "type": "uint256"
        },
        {
          "internalType": "uint256",
          "name": "required",
          "type": "uint256"
        }
      ],
      "name": "InsufficientFee",
      "type": "error"
    },
    {
      "inputs": [],
      "name": "InvalidAmount",
      "type": "error"
    },
    {
      "inputs": [],
      "name": "InvalidClfReportClient",
      "type": "error"
    },
    {
      "inputs": [],
      "name": "InvalidClfReportSubscriptionId",
      "type": "error"
    },
    {
      "inputs": [
        {
          "internalType": "enum Message.MessageConfigErrorType",
          "name": "error",
          "type": "uint8"
        }
      ],
      "name": "InvalidClientMessageConfig",
      "type": "error"
    },
    {
      "inputs": [],
      "name": "InvalidDstChainData",
      "type": "error"
    },
    {
      "inputs": [],
      "name": "InvalidMessageHashSum",
      "type": "error"
    },
    {
      "inputs": [],
      "name": "InvalidNamespace",
      "type": "error"
    },
    {
      "inputs": [],
      "name": "InvalidReceiver",
      "type": "error"
    },
    {
      "inputs": [],
      "name": "LengthMismatch",
      "type": "error"
    },
    {
      "inputs": [
        {
          "internalType": "bytes32",
          "name": "messageId",
          "type": "bytes32"
        }
      ],
      "name": "MessageAlreadyProcessed",
      "type": "error"
    },
    {
      "inputs": [
        {
          "internalType": "bytes32",
          "name": "messageId",
          "type": "bytes32"
        }
      ],
      "name": "MessageDeliveryFailed",
      "type": "error"
    },
    {
      "inputs": [],
      "name": "MessageTooLarge",
      "type": "error"
    },
    {
      "inputs": [],
      "name": "NotOwner",
      "type": "error"
    },
    {
      "inputs": [
        {
          "internalType": "enum CommonErrors.RequiredVariableUnsetType",
          "name": "variableType",
          "type": "uint8"
        }
      ],
      "name": "RequiredVariableUnset",
      "type": "error"
    },
    {
      "inputs": [
        {
          "internalType": "address",
          "name": "token",
          "type": "address"
        }
      ],
      "name": "SafeERC20FailedOperation",
      "type": "error"
    },
    {
      "inputs": [],
      "name": "TransferFailed",
      "type": "error"
    },
    {
      "inputs": [],
      "name": "UnauthorizedOperator",
      "type": "error"
    },
    {
      "inputs": [
        {
          "internalType": "address",
          "name": "signer",
          "type": "address"
        }
      ],
      "name": "UnauthorizedSigner",
      "type": "error"
    },
    {
      "inputs": [],
      "name": "UnsupportedFeeTokenType",
      "type": "error"
    },
    {
      "anonymous": false,
      "inputs": [
        {
          "indexed": true,
          "internalType": "bytes32",
          "name": "id",
          "type": "bytes32"
        }
      ],
      "name": "ConceroMessageDelivered",
      "type": "event"
    },
    {
      "anonymous": false,
      "inputs": [
        {
          "indexed": true,
          "internalType": "bytes32",
          "name": "id",
          "type": "bytes32"
        }
      ],
      "name": "ConceroMessageReceived",
      "type": "event"
    },
    {
      "anonymous": false,
      "inputs": [
        {
          "indexed": true,
          "internalType": "bytes32",
          "name": "internalMessageConfig",
          "type": "bytes32"
        },
        {
          "indexed": true,
          "internalType": "bytes32",
          "name": "messageId",
          "type": "bytes32"
        },
        {
          "indexed": false,
          "internalType": "bytes",
          "name": "dstChainData",
          "type": "bytes"
        },
        {
          "indexed": false,
          "internalType": "bytes",
          "name": "message",
          "type": "bytes"
        }
      ],
      "name": "ConceroMessageSent",
      "type": "event"
    },
    {
      "anonymous": false,
      "inputs": [
        {
          "indexed": true,
          "internalType": "address",
          "name": "operator",
          "type": "address"
        },
        {
          "indexed": false,
          "internalType": "uint256",
          "name": "amount",
          "type": "uint256"
        }
      ],
      "name": "OperatorFeeWithdrawn",
      "type": "event"
    },
    {
      "stateMutability": "payable",
      "type": "fallback"
    },
    {
      "inputs": [
        {
          "internalType": "bytes32",
          "name": "config",
          "type": "bytes32"
        },
        {
          "internalType": "bytes",
          "name": "dstChainData",
          "type": "bytes"
        },
        {
          "internalType": "bytes",
          "name": "message",
          "type": "bytes"
        }
      ],
      "name": "conceroSend",
      "outputs": [
        {
          "internalType": "bytes32",
          "name": "",
          "type": "bytes32"
        }
      ],
      "stateMutability": "payable",
      "type": "function"
    },
    {
      "inputs": [
        {
          "internalType": "address",
          "name": "operator",
          "type": "address"
        }
      ],
      "name": "getCohort",
      "outputs": [
        {
          "internalType": "uint8",
          "name": "",
          "type": "uint8"
        }
      ],
      "stateMutability": "view",
      "type": "function"
    },
    {
      "inputs": [
        {
          "internalType": "bytes32",
          "name": "clientMessageConfig",
          "type": "bytes32"
        },
        {
          "internalType": "bytes",
          "name": "dstChainData",
          "type": "bytes"
        }
      ],
      "name": "getMessageFeeNative",
      "outputs": [
        {
          "internalType": "uint256",
          "name": "",
          "type": "uint256"
        }
      ],
      "stateMutability": "view",
      "type": "function"
    },
    {
      "inputs": [
        {
          "internalType": "bytes32",
          "name": "clientMessageConfig",
          "type": "bytes32"
        },
        {
          "internalType": "bytes",
          "name": "dstChainData",
          "type": "bytes"
        }
      ],
      "name": "getMessageFeeUSDC",
      "outputs": [
        {
          "internalType": "uint256",
          "name": "",
          "type": "uint256"
        }
      ],
      "stateMutability": "view",
      "type": "function"
    },
    {
      "inputs": [
        {
          "internalType": "bytes32",
          "name": "namespace",
          "type": "bytes32"
        },
        {
          "internalType": "uint256",
          "name": "offset",
          "type": "uint256"
        },
        {
          "internalType": "bytes32",
          "name": "mappingKey",
          "type": "bytes32"
        }
      ],
      "name": "getStorage",
      "outputs": [
        {
          "internalType": "uint256",
          "name": "",
          "type": "uint256"
        }
      ],
      "stateMutability": "view",
      "type": "function"
    },
    {
      "inputs": [],
      "name": "getWithdrawableConceroFee",
      "outputs": [
        {
          "internalType": "uint256",
          "name": "",
          "type": "uint256"
        }
      ],
      "stateMutability": "view",
      "type": "function"
    },
    {
      "inputs": [],
      "name": "i_owner",
      "outputs": [
        {
          "internalType": "address",
          "name": "",
          "type": "address"
        }
      ],
      "stateMutability": "view",
      "type": "function"
    },
    {
      "inputs": [
        {
          "internalType": "uint24",
          "name": "chainSelector",
          "type": "uint24"
        }
      ],
      "name": "isChainSupported",
      "outputs": [
        {
          "internalType": "bool",
          "name": "",
          "type": "bool"
        }
      ],
      "stateMutability": "view",
      "type": "function"
    },
    {
      "inputs": [
        {
          "internalType": "uint24[]",
          "name": "dstChainSelectors",
          "type": "uint24[]"
        },
        {
          "internalType": "uint256[]",
          "name": "gasPrices",
          "type": "uint256[]"
        }
      ],
      "name": "setLastGasPrices",
      "outputs": [],
      "stateMutability": "nonpayable",
      "type": "function"
    },
    {
      "inputs": [
        {
          "internalType": "uint24[]",
          "name": "dstChainSelectors",
          "type": "uint24[]"
        },
        {
          "internalType": "uint256[]",
          "name": "rates",
          "type": "uint256[]"
        }
      ],
      "name": "setNativeNativeRates",
      "outputs": [],
      "stateMutability": "nonpayable",
      "type": "function"
    },
    {
      "inputs": [
        {
          "internalType": "uint256",
          "name": "amount",
          "type": "uint256"
        }
      ],
      "name": "setNativeUsdRate",
      "outputs": [],
      "stateMutability": "nonpayable",
      "type": "function"
    },
    {
      "inputs": [
        {
          "internalType": "bytes32",
          "name": "namespace",
          "type": "bytes32"
        },
        {
          "internalType": "uint256",
          "name": "offset",
          "type": "uint256"
        },
        {
          "internalType": "bytes32",
          "name": "mappingKey",
          "type": "bytes32"
        },
        {
          "internalType": "uint256",
          "name": "value",
          "type": "uint256"
        }
      ],
      "name": "setStorage",
      "outputs": [],
      "stateMutability": "nonpayable",
      "type": "function"
    },
    {
      "inputs": [
        {
          "internalType": "bytes32[]",
          "name": "namespaces",
          "type": "bytes32[]"
        },
        {
          "internalType": "uint256[]",
          "name": "offsets",
          "type": "uint256[]"
        },
        {
          "internalType": "bytes32[]",
          "name": "mappingKeys",
          "type": "bytes32[]"
        },
        {
          "internalType": "uint256[]",
          "name": "values",
          "type": "uint256[]"
        }
      ],
      "name": "setStorageBulk",
      "outputs": [],
      "stateMutability": "nonpayable",
      "type": "function"
    },
    {
      "inputs": [
        {
          "components": [
            {
              "internalType": "bytes32[3]",
              "name": "context",
              "type": "bytes32[3]"
            },
            {
              "internalType": "bytes",
              "name": "report",
              "type": "bytes"
            },
            {
              "internalType": "bytes32[]",
              "name": "rs",
              "type": "bytes32[]"
            },
            {
              "internalType": "bytes32[]",
              "name": "ss",
              "type": "bytes32[]"
            },
            {
              "internalType": "bytes",
              "name": "rawVs",
              "type": "bytes"
            }
          ],
          "internalType": "struct Types.ClfDonReportSubmission",
          "name": "reportSubmission",
          "type": "tuple"
        },
        {
          "internalType": "bytes",
          "name": "message",
          "type": "bytes"
        }
      ],
      "name": "submitMessageReport",
      "outputs": [],
      "stateMutability": "nonpayable",
      "type": "function"
    },
    {
      "inputs": [
        {
          "internalType": "address[]",
          "name": "tokens",
          "type": "address[]"
        },
        {
          "internalType": "uint256[]",
          "name": "amounts",
          "type": "uint256[]"
        }
      ],
      "name": "withdrawConceroFees",
      "outputs": [],
      "stateMutability": "nonpayable",
      "type": "function"
    },
    {
      "inputs": [
        {
          "internalType": "uint256",
          "name": "amount",
          "type": "uint256"
        }
      ],
      "name": "withdrawOperatorFee",
      "outputs": [
        {
          "internalType": "bool",
          "name": "success",
          "type": "bool"
        }
      ],
      "stateMutability": "nonpayable",
      "type": "function"
    },
    {
      "stateMutability": "payable",
      "type": "receive"
    }
  ],
  "bytecode": "0x6101a0604052346101b85760405161250f3881900390601f8201601f19168301906001600160401b038211848310176101bd5782916040528339810190610100818303126101b85780519062ffffff821682036101b857610062602082016101d3565b61006e604083016101d3565b6060830151949093906001600160401b03861686036101b85780609f850112156101b85760405193608085016001600160401b038111868210176101bd57604052849061010081019283116101b857608001905b8282106101a0575050336080525060a05260c05280516001600160a01b0390811660e0526020820151811661010052604080830151821661012052606090920151166101405261016091909152610180919091525161232790816101e8823960805181818161056b0152818161067b0152818161092401528181610b8801528181610d2101528181610d6a0152611163015260a0518161087e015260c05181505060e051816120fa015261010051816121a20152610120518161216f0152610140518161213f01526101605181611a7501526101805181611ab40152f35b602080916101ad846101d3565b8152019101906100c2565b600080fd5b634e487b7160e01b600052604160045260246000fd5b51906001600160a01b03821682036101b85756fe60806040526004361015610010575b005b60003560e01c80631feb291f1461011057806327e5f4421461010b5780633ae569511461010657806341940ab21461010157806348ef7541146100fc57806348fd88ab146100f75780635a8733b3146100f25780638df4bab5146100ed5780639a5d5ca9146100e8578063a73bc9c7146100e3578063a8978059146100de578063b8b16485146100d9578063b91443e7146100d4578063d1053131146100cf578063dba6335f146100ca5763e716afde0361000e57610d50565b610d0b565b610cf0565b610c58565b610b73565b610b4c565b610975565b6108fa565b610799565b610628565b610556565b610405565b6103c9565b610257565b610222565b3461020d57602036600319011261020d576004356101436065610131611268565b33600090815291016020526040902090565b5461014f821515610da3565b61015d818381811115610dbb565b8181039081116102085761018d336065610175611268565b019060018060a01b0316600052602052604060002090565b55610196611268565b908154818103908111610208576102049255600080808084335af1906101ba610df1565b506101c482610e21565b60405190815233907fc43e057480321c0f9aec5029e2f42bb82383abd09bc79fd2fbcb50c50717357290602090a260405190151581529081906020820190565b0390f35b610ddb565b600080fd5b359062ffffff8216820361020d57565b3461020d57602036600319011261020d5760043562ffffff8116810361020d5761024d602091611eb6565b6040519015158152f35b3461020d57606036600319011261020d57602060243560443560043561027c8161134a565b811561029a576040805192835292018382015220545b604051908152f35b90500154610292565b634e487b7160e01b600052604160045260246000fd5b60a081019081106001600160401b038211176102d457604052565b6102a3565b90601f801991011681019081106001600160401b038211176102d457604052565b6040519061030a610160836102d9565b565b6040519061030a6040836102d9565b6040519061030a60c0836102d9565b6001600160401b0381116102d457601f01601f191660200190565b9291926103518261032a565b9161035f60405193846102d9565b82948184528183011161020d578281602093846000960137010152565b9080601f8301121561020d5781602061039793359101610345565b90565b90604060031983011261020d5760043591602435906001600160401b03821161020d576103979160040161037c565b3461020d5760206102926103dc3661039a565b60ff8260771c16916103ed83610e39565b6103f683610e39565b6104008315610e59565b6113f5565b3461020d5760206102926104183661039a565b60ff8260771c169161042983610e39565b61043283610e39565b61040060018414610e59565b6001600160401b0381116102d45760051b60200190565b9080601f8301121561020d57813561046c8161043e565b9261047a60405194856102d9565b81845260208085019260051b82010192831161020d57602001905b8282106104a25750505090565b8135815260209182019101610495565b90604060031983011261020d576004356001600160401b03811161020d578260238201121561020d578060040135906104ea8261043e565b916104f860405193846102d9565b8083526024602084019160051b8301019185831161020d57602401905b82821061053e5750505091602435906001600160401b03821161020d5761039791600401610455565b6020809161054b84610212565b815201910190610515565b3461020d57610564366104b2565b90610599337f00000000000000000000000000000000000000000000000000000000000000006001600160a01b031614610e60565b6105a68151835114610e78565b60005b815181101561000e57806105bf60019285610eb8565b516105f160656105cd611310565b0162ffffff6105dc8588610eb8565b511662ffffff16600052602052604060002090565b55016105a9565b9181601f8401121561020d578235916001600160401b03831161020d576020808501948460051b01011161020d57565b3461020d57604036600319011261020d576004356001600160401b03811161020d576106589036906004016105f8565b6024356001600160401b03811161020d576106779036906004016105f8565b92907f00000000000000000000000000000000000000000000000000000000000000006106ae336001600160a01b03831614610e60565b84841480610763575b6106c090610e78565b60006106ca611252565b9360005b8681106106d757005b6106ea6106e5828985610ecc565b610edc565b92846106f7838b89610ecc565b3594610704861515610da3565b6001600160a01b03168061074f57505090610749600080808061072989600198610f10565b986107388d8b81811115610dbb565b8a5af1610743610df1565b50610e21565b016106ce565b9461075e9160019493966114a5565b610749565b508315156106b7565b9181601f8401121561020d578235916001600160401b03831161020d576020838186019501011161020d57565b606036600319011261020d576004356024356001600160401b03811161020d576107c790369060040161076c565b916044356001600160401b03811161020d576107e790369060040161076c565b90916107f4368686610345565b61080f60ff8360771c16809261080982610e39565b846113f5565b9061081981610e39565b6108e957600080808361083182953481341015610dbb565b8181156108e0575b3090f1156108db57610204946108c8946108a37f7f771d035a5fa0cbad024c5212266f1beac4285e2ee476beeb5ac56100e3703c936108766112d6565b5490868886867f000000000000000000000000000000000000000000000000000000000000000094611542565b94819791966108b06112d6565b6108ba8154610ee6565b905560405194859485610f3e565b0390a36040519081529081906020820190565b611536565b506108fc610839565b63049f464b60e41b60005260046000fd5b3461020d57608036600319011261020d5760643560243560443560043561094b6001600160a01b037f0000000000000000000000000000000000000000000000000000000000000000163314610e60565b6109548161134a565b811561096c5760408051928352920160208201522055005b90500155600080f35b3461020d57604036600319011261020d576004356001600160401b03811161020d578060040160e0600319833603011261020d576024356001600160401b03811161020d57610a2060206064936109f26109ec6109e66109dc610a2697369060040161076c565b9890990184610f65565b906116ec565b916118c4565b610a19610a14610a056060840151610ea6565b51848082518301019101611003565b611a63565b0151610ea6565b51611bd8565b90610a476060830151610a3a368487610345565b60208151910120146110ce565b6066610a516112d6565b0192610a87610a7f610a7b610a7460408701978851600052602052604060002090565b5460ff1690565b1590565b8551906110e6565b60a08301936000805b86518051821015610b2457610ac7610abb610ab5610aaf853395610eb8565b51611102565b60601c90565b6001600160a01b031690565b14610ad457600101610a90565b505061000e9450906080610b1e92610aec6001611143565b5194857ff67870b75d64e9a5f00100af39eb94911d9399b05f9df6d6db0cafc61128d5a4600080a20151923691610345565b91611d8e565b505061000e9550610b1e9291610aec608092611143565b6001600160a01b0381160361020d57565b3461020d57602036600319011261020d57610b68600435610b3b565b602060405160008152f35b3461020d57610b81366104b2565b90610bb6337f00000000000000000000000000000000000000000000000000000000000000006001600160a01b031614610e60565b610bc38151835114610e78565b60005b815181101561000e5780610bdc60019285610eb8565b51610bea60666105cd611310565b5501610bc6565b929190610bfd8161043e565b93610c0b60405195866102d9565b602085838152019160051b810192831161020d57905b828210610c2d57505050565b8135815260209182019101610c21565b9080601f8301121561020d5781602061039793359101610bf1565b3461020d57608036600319011261020d576004356001600160401b03811161020d57610c88903690600401610c3d565b6024356001600160401b03811161020d57610ca7903690600401610455565b906044356001600160401b03811161020d57610cc7903690600401610c3d565b606435926001600160401b03841161020d57610cea61000e943690600401610455565b9261115b565b3461020d57600036600319011261020d576020610292611252565b3461020d57600036600319011261020d576040517f00000000000000000000000000000000000000000000000000000000000000006001600160a01b03168152602090f35b3461020d57602036600319011261020d57600435610d98337f00000000000000000000000000000000000000000000000000000000000000006001600160a01b031614610e60565b610da0611310565b55005b15610daa57565b63162908e360e11b60005260046000fd5b15610dc4575050565b63a458261b60e01b60005260045260245260446000fd5b634e487b7160e01b600052601160045260246000fd5b3d15610e1c573d90610e028261032a565b91610e1060405193846102d9565b82523d6000602084013e565b606090565b15610e2857565b6312171d8360e31b60005260046000fd5b60021115610e4357565b634e487b7160e01b600052602160045260246000fd5b156108e957565b15610e6757565b6330cd747160e01b60005260046000fd5b15610e7f57565b631fec674760e31b60005260046000fd5b634e487b7160e01b600052603260045260246000fd5b805115610eb35760200190565b610e90565b8051821015610eb35760209160051b010190565b9190811015610eb35760051b0190565b3561039781610b3b565b906001820180921161020857565b608401908160841161020857565b906020820180921161020857565b9190820180921161020857565b908060209392818452848401376000828201840152601f01601f1916010190565b9290610f57906103979593604086526040860191610f1d565b926020818503910152610f1d565b903590601e198136030182121561020d57018035906001600160401b03821161020d5760200191813603831361020d57565b519061030a82610b3b565b51906001600160601b038216820361020d57565b51906001600160401b038216820361020d57565b519063ffffffff8216820361020d57565b519068ffffffffffffffffff8216820361020d57565b519064ffffffffff8216820361020d57565b908161016091031261020d576110c561014061101d6102fa565b928051845261102e60208201610f97565b602085015261103f60408201610fa2565b604085015261105060608201610f97565b606085015261106160808201610fb6565b608085015261107260a08201610fca565b60a085015261108360c08201610fdb565b60c085015261109460e08201610fdb565b60e08501526110a66101008201610ff1565b6101008501526110b96101208201610ff1565b61012085015201610fca565b61014082015290565b156110d557565b6398eac98f60e01b60005260046000fd5b156110ee5750565b63398560f160e11b60005260045260246000fd5b9060208251920151916001600160601b031983169260148210611123575050565b6bffffffffffffffffffffffff1960149290920360031b82901b16169150565b1561114a57565b6326b9cdff60e11b60005260046000fd5b9391611191337f00000000000000000000000000000000000000000000000000000000000000006001600160a01b031614610e60565b60005b85518110156111b957806111b36111ad60019389610eb8565b5161134a565b01611194565b50909192845183518091149081611247575b508061123c575b6111db90610e78565b60005b8551811015611234578060019160051b6020818901015190602081880101519060208082890101519187010151928160001461122b57604080519283529201602082015220555b016111de565b90500155611225565b505050509050565b5081518151146111d2565b9050825114386111cb565b4761125b611268565b5481039081116102085790565b60405160208101907f636f6e6365726f726f757465722e6f70657261746f722e73746f7261676500008252601e81526112a2603e826102d9565b5190206000198101908111610208576040519060208201908152602082526112cb6040836102d9565b9051902060ff191690565b60405160208101907f636f6e6365726f726f757465722e726f757465722e73746f72616765000000008252601c81526112a2603c826102d9565b60405160208101907f636f6e6365726f726f757465722e7072696365666565642e73746f72616765008252601f81526112a2603f826102d9565b6113526112d6565b811490811561138d575b811561137c575b501561136b57565b630a02739760e41b60005260046000fd5b9050611386611310565b1438611363565b9050611397611268565b81149061135c565b9081604091031261020d576040519060408201908282106001600160401b038311176102d45760209160405280516113d681610b3b565b83520151602082015290565b8181029291811591840414171561020857565b91670de0b6b3a764000061147262ffffff611422611411611310565b54956020808251830101910161139f565b9560a81c1661146c61146661143687611f9a565b97602061145c856065611447611310565b019062ffffff16600052602052604060002090565b54910151906113e2565b91611fe8565b906113e2565b0483018093116102085761148581610e39565b156114a15761149d90670de0b6b3a7640000926113e2565b0490565b5090565b60405163a9059cbb60e01b60208281019182526001600160a01b03909416602483015260448083019590955293815290926000916114e46064826102d9565b519082855af115611536576000513d61152d57506001600160a01b0381163b155b61150c5750565b635274afe760e01b60009081526001600160a01b0391909116600452602490fd5b60011415611505565b6040513d6000823e3d90fd5b9361164a979693506116149150620f42409061160e611652979461160760ff8062ffffff8b61156f60a890565b1c166115ff828d6115f861ffff8083611586612218565b1c166115e76115a1838661159861222a565b1c1661ffff1690565b916115d76115d26115cc89808a6115b6612232565b1c16996115c1612249565b5060771c1660ff1690565b9a611eb6565b612260565b8015159081611662575b5061227d565b168015159081611656575b5061229a565b11156122b7565b1611156122d4565b151561202c565b10612044565b61161c61030c565b3380825243602090920182905262ffffff60e01b60e084901b1694909417600160f81b1796879462ffffff91565b92169261205c565b9190565b905060641015386115f2565b905060641015386115e1565b9080601f8301121561020d5781356116858161043e565b9261169360405194856102d9565b81845260208085019260051b8201019183831161020d5760208201905b8382106116bf57505050505090565b81356001600160401b03811161020d576020916116e18784809488010161037c565b8152019101906116b0565b604051916116f9836102b9565b606083526020830160608152604084019260608452606085019360608552608086019360608552820160a08382031261020d5782356001600160401b03811161020d5781611748918501610c3d565b9560208401356001600160401b03811161020d578261176891860161166e565b9560408501356001600160401b03811161020d578361178891870161166e565b9460608101356001600160401b03811161020d57846117a891830161166e565b9360808201356001600160401b03811161020d576117c6920161166e565b9052525252815290565b903590601e198136030182121561020d57018035906001600160401b03821161020d57602001918160051b3603831361020d57565b1561180c57565b6301227b8d60e11b60005260046000fd5b906118278261043e565b61183460405191826102d9565b8281528092611845601f199161043e565b0190602036910137565b908151811015610eb3570160200190565b60ff601b9116019060ff821161020857565b1561187a5750565b63e74c68bb60e01b60009081526001600160a01b0391909116600452602490fd5b156118a35750565b630e256b9960e21b60009081526001600160a01b0391909116600452602490fd5b906118dc6118d56060840184610f65565b90846120b3565b6118f36118ec60808501856117d0565b3691610bf1565b9061191c61191561190a6118ec60a08801886117d0565b9560c0810190610f65565b3691610345565b936119338351825181149081611a58575b50611805565b61193d835161181d565b9460005b8451811015611a4f576020600061197a61197561196f611961868861184f565b516001600160f81b03191690565b60f81c90565b611860565b6119848489610eb8565b51906119bb6119938689610eb8565b516040519384938b859094939260ff6060936080840197845216602083015260408201520152565b838052039060015afa156108db576000516119de816119d9816120e9565b611872565b6001600160a01b03811660005b89848210611a1d57611a17925084600195949250611a0891610eb8565b6001600160a01b039091169052565b01611941565b90611a498484611a42610abb611a3586600198610eb8565b516001600160a01b031690565b141561189b565b016119eb565b50505050509050565b60039150143861192d565b60608101516001600160a01b039081167f000000000000000000000000000000000000000000000000000000000000000090911603611aec5760806001600160401b03910151166001600160401b037f00000000000000000000000000000000000000000000000000000000000000001603611adb57565b63091e4cf160e31b60005260046000fd5b632b6971c560e21b60005260046000fd5b6040519060c082018281106001600160401b038211176102d457604052606060a0836000815260006020820152600060408201526000838201528260808201520152565b60408051909190611b5283826102d9565b60208152918290601f190190369060200137565b90611b708261032a565b611b7d60405191826102d9565b8281528092611845601f199161032a565b90611b988261043e565b611ba560405191826102d9565b8281528092611bb6601f199161043e565b019060005b828110611bc757505050565b806060602080938501015201611bbb565b611be0611afd565b5060009060208101519060408101519360608201519260808301519460a084015160e01c611c0d81611b66565b91805b828110611cfc575050611c2290610ef4565b9560026020888701015160f01c970194611c3b8861181d565b956000905b8961ffff831610611cd457505050611c5787611b8e565b9560005b61ffff811689811015611ca35761ffff91611c9b828a611c946001958e6020611c82611b41565b948860051b0101516020850152610eb8565b528b610eb8565b500116611c5b565b50509296509296909350611cb561031b565b958652602086015260408501526060840152608083015260a082015290565b6001611cf382602061ffff948701015160208660051b8d010152610f02565b92011690611c40565b80611d14611961611d0e600194610ef4565b8a61184f565b831a611d20828761184f565b5301611c10565b15611d2e57565b631e4ec46b60e01b60005260046000fd5b90929192815260406020820152825180604083015260005b818110611d78575060609293506000838284010152601f8019910116010190565b8060208092870101516060828601015201611d57565b91611e2590611e33611dac611e4a946020808251830101910161139f565b91611ddb611dce876066611dbe6112d6565b0190600052602052604060002090565b805460ff19166001179055565b8251611df1906001600160a01b03161515611d27565b8251611e08906001600160a01b03163b1515611d27565b604051635ca46be560e01b60208201529384918760248401611d3f565b03601f1981018452836102d9565b80516020906001600160a01b0316910151906121d9565b5015611ea257611e61611e5b611310565b54611f9a565b611e79611e716065610131611268565b918254610f10565b90557fb3f2643376154cdcc78e83cff26c3fcacf4a35a6e0107d90817d80973fa4d860600080a2565b630c3d362160e21b60005260045260246000fd5b62ffffff16600181148015611f90575b8015611f86575b8015611f7b575b8015611f70575b8015611f65575b611f5f5762aa36a78114908115611f52575b8115611f45575b8115611f38575b8115611f2b575b8115611f1f575b50611f1a57600090565b600190565b61a86991501438611f10565b62066eee81149150611f09565b62014a3481149150611f02565b6201388281149150611efb565b62aa37dc81149150611ef4565b50600190565b5061a86a8114611ee2565b5061a4b18114611edb565b506121058114611ed4565b5060898114611ecd565b50600a8114611ec6565b60008115611fd4575060008115611fc057506e01ed09bead87c0378d8e64000000000490565b634e487b7160e01b81526012600452602490fd5b63c6af252960e01b81526004819052602490fd5b62ffffff81166089811490811561201f575b50156120125761200e906066611447611310565b5490565b50670de0b6b3a764000090565b6201388291501438611ffa565b1561203357565b6301bc6ebd60e31b60005260046000fd5b1561204b57565b636ceaf82160e01b60005260046000fd5b9391929092604051936020850195865260408501526001600160601b03199060601b1660608401526001600160401b0360c01b9060c01b166074830152607c820152607c81526120ad609c826102d9565b51902090565b91906120c0913691610345565b6020815191012090606060405191602083019384526040830137608081526120ad60a0826102d9565b6001600160a01b031680156121d3577f00000000000000000000000000000000000000000000000000000000000000006001600160a01b031681149081156121a0575b811561216d575b811561213d575090565b7f00000000000000000000000000000000000000000000000000000000000000006001600160a01b031614919050565b7f00000000000000000000000000000000000000000000000000000000000000006001600160a01b031681149150612133565b7f00000000000000000000000000000000000000000000000000000000000000006001600160a01b03168114915061212c565b50600090565b9291906000918291826121ed610100611b66565b9660208451940192f13d610100811161220f575b8084526000602085013e9190565b50610100612201565b60a85b600f1981019081116102085790565b61221b612218565b61223a61222a565b60071981019081116102085790565b612251612232565b60001981019081116102085790565b1561226757565b6323d54c2f60e01b600052600760045260246000fd5b1561228457565b6323d54c2f60e01b600052600060045260246000fd5b156122a157565b6323d54c2f60e01b600052600160045260246000fd5b156122be57565b6323d54c2f60e01b600052600260045260246000fd5b156122db57565b6323d54c2f60e01b600052600360045260246000fdfea26469706673582212201d3c088b1459bc93c052625caed383632ec74988d966688f8df8e6b64db4d02264736f6c634300081c0033",
  "linkReferences": {},
  "deployedLinkReferences": {}
}