{
  "_format": "hh-sol-artifact-1",
  "contractName": "ConceroRouter",
  "sourceName": "contracts/ConceroRouter/ConceroRouter.sol",
  "abi": [
    {
      "inputs": [
        {
          "internalType": "uint24",
          "name": "chainSelector",
          "type": "uint24"
        },
        {
          "internalType": "address",
          "name": "feedUpdater",
          "type": "address"
        },
        {
          "internalType": "address",
          "name": "conceroVerifier",
          "type": "address"
        },
        {
          "internalType": "uint64",
          "name": "conceroVerifierSubId",
          "type": "uint64"
        },
        {
          "internalType": "address[4]",
          "name": "clfSigners",
          "type": "address[4]"
        }
      ],
      "stateMutability": "nonpayable",
      "type": "constructor"
    },
    {
      "inputs": [
        {
          "internalType": "address",
          "name": "signer",
          "type": "address"
        }
      ],
      "name": "DuplicateSignatureDetected",
      "type": "error"
    },
    {
      "inputs": [],
      "name": "FinalisationIsNotSupportedYet",
      "type": "error"
    },
    {
      "inputs": [],
      "name": "IncorrectNumberOfSignatures",
      "type": "error"
    },
    {
      "inputs": [
        {
          "internalType": "uint256",
          "name": "provided",
          "type": "uint256"
        },
        {
          "internalType": "uint256",
          "name": "required",
          "type": "uint256"
        }
      ],
      "name": "InsufficientFee",
      "type": "error"
    },
    {
      "inputs": [],
      "name": "InvalidAmount",
      "type": "error"
    },
    {
      "inputs": [],
      "name": "InvalidClfReportClient",
      "type": "error"
    },
    {
      "inputs": [],
      "name": "InvalidClfReportSubscriptionId",
      "type": "error"
    },
    {
      "inputs": [],
      "name": "InvalidDstChainData",
      "type": "error"
    },
    {
      "inputs": [],
      "name": "InvalidDstChainSelector",
      "type": "error"
    },
    {
      "inputs": [],
      "name": "InvalidMessageHashSum",
      "type": "error"
    },
    {
      "inputs": [],
      "name": "InvalidNamespace",
      "type": "error"
    },
    {
      "inputs": [],
      "name": "InvalidReceiver",
      "type": "error"
    },
    {
      "inputs": [],
      "name": "LengthMismatch",
      "type": "error"
    },
    {
      "inputs": [
        {
          "internalType": "bytes32",
          "name": "messageId",
          "type": "bytes32"
        }
      ],
      "name": "MessageAlreadyProcessed",
      "type": "error"
    },
    {
      "inputs": [
        {
          "internalType": "bytes32",
          "name": "messageId",
          "type": "bytes32"
        }
      ],
      "name": "MessageDeliveryFailed",
      "type": "error"
    },
    {
      "inputs": [],
      "name": "MessageTooLarge",
      "type": "error"
    },
    {
      "inputs": [
        {
          "internalType": "enum CommonErrors.RequiredVariableUnsetType",
          "name": "variableType",
          "type": "uint8"
        }
      ],
      "name": "RequiredVariableUnset",
      "type": "error"
    },
    {
      "inputs": [
        {
          "internalType": "address",
          "name": "token",
          "type": "address"
        }
      ],
      "name": "SafeERC20FailedOperation",
      "type": "error"
    },
    {
      "inputs": [],
      "name": "TransferFailed",
      "type": "error"
    },
    {
      "inputs": [],
      "name": "Unauthorized",
      "type": "error"
    },
    {
      "inputs": [],
      "name": "UnauthorizedOperator",
      "type": "error"
    },
    {
      "inputs": [
        {
          "internalType": "address",
          "name": "signer",
          "type": "address"
        }
      ],
      "name": "UnauthorizedSigner",
      "type": "error"
    },
    {
      "inputs": [
        {
          "internalType": "uint24",
          "name": "chainSelector",
          "type": "uint24"
        }
      ],
      "name": "UnsupportedChainSelector",
      "type": "error"
    },
    {
      "inputs": [],
      "name": "UnsupportedFeeTokenType",
      "type": "error"
    },
    {
      "anonymous": false,
      "inputs": [
        {
          "indexed": true,
          "internalType": "bytes32",
          "name": "id",
          "type": "bytes32"
        }
      ],
      "name": "ConceroMessageDelivered",
      "type": "event"
    },
    {
      "anonymous": false,
      "inputs": [
        {
          "indexed": true,
          "internalType": "bytes32",
          "name": "id",
          "type": "bytes32"
        }
      ],
      "name": "ConceroMessageReceived",
      "type": "event"
    },
    {
      "anonymous": false,
      "inputs": [
        {
          "indexed": true,
          "internalType": "bytes32",
          "name": "messageId",
          "type": "bytes32"
        },
        {
          "indexed": false,
          "internalType": "uint8",
          "name": "version",
          "type": "uint8"
        },
        {
          "indexed": false,
          "internalType": "bool",
          "name": "shouldFinaliseSrc",
          "type": "bool"
        },
        {
          "indexed": false,
          "internalType": "uint24",
          "name": "dstChainSelector",
          "type": "uint24"
        },
        {
          "indexed": false,
          "internalType": "bytes",
          "name": "dstChainData",
          "type": "bytes"
        },
        {
          "indexed": false,
          "internalType": "bytes",
          "name": "sender",
          "type": "bytes"
        },
        {
          "indexed": false,
          "internalType": "bytes",
          "name": "message",
          "type": "bytes"
        }
      ],
      "name": "ConceroMessageSent",
      "type": "event"
    },
    {
      "anonymous": false,
      "inputs": [
        {
          "indexed": true,
          "internalType": "address",
          "name": "operator",
          "type": "address"
        },
        {
          "indexed": false,
          "internalType": "uint256",
          "name": "amount",
          "type": "uint256"
        }
      ],
      "name": "OperatorFeeWithdrawn",
      "type": "event"
    },
    {
      "stateMutability": "payable",
      "type": "fallback"
    },
    {
      "inputs": [
        {
          "internalType": "uint24",
          "name": "dstChainSelector",
          "type": "uint24"
        },
        {
          "internalType": "bool",
          "name": "shouldFinaliseSrc",
          "type": "bool"
        },
        {
          "internalType": "address",
          "name": "feeToken",
          "type": "address"
        },
        {
          "internalType": "bytes",
          "name": "dstChainData",
          "type": "bytes"
        },
        {
          "internalType": "bytes",
          "name": "message",
          "type": "bytes"
        }
      ],
      "name": "conceroSend",
      "outputs": [
        {
          "internalType": "bytes32",
          "name": "",
          "type": "bytes32"
        }
      ],
      "stateMutability": "payable",
      "type": "function"
    },
    {
      "inputs": [
        {
          "internalType": "address",
          "name": "operator",
          "type": "address"
        }
      ],
      "name": "getCohort",
      "outputs": [
        {
          "internalType": "uint8",
          "name": "",
          "type": "uint8"
        }
      ],
      "stateMutability": "view",
      "type": "function"
    },
    {
      "inputs": [
        {
          "internalType": "uint24",
          "name": "dstChainSelector",
          "type": "uint24"
        },
        {
          "internalType": "bool",
          "name": "shouldFinaliseSrc",
          "type": "bool"
        },
        {
          "internalType": "address",
          "name": "feeToken",
          "type": "address"
        },
        {
          "internalType": "bytes",
          "name": "dstChainData",
          "type": "bytes"
        }
      ],
      "name": "getMessageFee",
      "outputs": [
        {
          "internalType": "uint256",
          "name": "",
          "type": "uint256"
        }
      ],
      "stateMutability": "view",
      "type": "function"
    },
    {
      "inputs": [],
      "name": "getRouterVersion",
      "outputs": [
        {
          "internalType": "uint8",
          "name": "",
          "type": "uint8"
        }
      ],
      "stateMutability": "pure",
      "type": "function"
    },
    {
      "inputs": [
        {
          "internalType": "bytes32",
          "name": "namespace",
          "type": "bytes32"
        },
        {
          "internalType": "uint256",
          "name": "offset",
          "type": "uint256"
        },
        {
          "internalType": "bytes32",
          "name": "mappingKey",
          "type": "bytes32"
        }
      ],
      "name": "getStorage",
      "outputs": [
        {
          "internalType": "uint256",
          "name": "",
          "type": "uint256"
        }
      ],
      "stateMutability": "view",
      "type": "function"
    },
    {
      "inputs": [],
      "name": "getWithdrawableConceroFee",
      "outputs": [
        {
          "internalType": "uint256",
          "name": "",
          "type": "uint256"
        }
      ],
      "stateMutability": "view",
      "type": "function"
    },
    {
      "inputs": [],
      "name": "i_owner",
      "outputs": [
        {
          "internalType": "address",
          "name": "",
          "type": "address"
        }
      ],
      "stateMutability": "view",
      "type": "function"
    },
    {
      "inputs": [
        {
          "internalType": "uint24",
          "name": "chainSelector",
          "type": "uint24"
        }
      ],
      "name": "isChainSupported",
      "outputs": [
        {
          "internalType": "bool",
          "name": "",
          "type": "bool"
        }
      ],
      "stateMutability": "view",
      "type": "function"
    },
    {
      "inputs": [
        {
          "internalType": "uint24[]",
          "name": "dstChainSelectors",
          "type": "uint24[]"
        },
        {
          "internalType": "uint256[]",
          "name": "gasPrices",
          "type": "uint256[]"
        }
      ],
      "name": "setLastGasPrices",
      "outputs": [],
      "stateMutability": "nonpayable",
      "type": "function"
    },
    {
      "inputs": [
        {
          "internalType": "uint24[]",
          "name": "dstChainSelectors",
          "type": "uint24[]"
        },
        {
          "internalType": "uint256[]",
          "name": "rates",
          "type": "uint256[]"
        }
      ],
      "name": "setNativeNativeRates",
      "outputs": [],
      "stateMutability": "nonpayable",
      "type": "function"
    },
    {
      "inputs": [
        {
          "internalType": "uint256",
          "name": "amount",
          "type": "uint256"
        }
      ],
      "name": "setNativeUsdRate",
      "outputs": [],
      "stateMutability": "nonpayable",
      "type": "function"
    },
    {
      "inputs": [
        {
          "internalType": "bytes32",
          "name": "namespace",
          "type": "bytes32"
        },
        {
          "internalType": "uint256",
          "name": "offset",
          "type": "uint256"
        },
        {
          "internalType": "bytes32",
          "name": "mappingKey",
          "type": "bytes32"
        },
        {
          "internalType": "uint256",
          "name": "value",
          "type": "uint256"
        }
      ],
      "name": "setStorage",
      "outputs": [],
      "stateMutability": "nonpayable",
      "type": "function"
    },
    {
      "inputs": [
        {
          "internalType": "bytes32[]",
          "name": "namespaces",
          "type": "bytes32[]"
        },
        {
          "internalType": "uint256[]",
          "name": "offsets",
          "type": "uint256[]"
        },
        {
          "internalType": "bytes32[]",
          "name": "mappingKeys",
          "type": "bytes32[]"
        },
        {
          "internalType": "uint256[]",
          "name": "values",
          "type": "uint256[]"
        }
      ],
      "name": "setStorageBulk",
      "outputs": [],
      "stateMutability": "nonpayable",
      "type": "function"
    },
    {
      "inputs": [
        {
          "internalType": "uint24[]",
          "name": "chainSelectors",
          "type": "uint24[]"
        },
        {
          "internalType": "bool[]",
          "name": "isSupported",
          "type": "bool[]"
        }
      ],
      "name": "setSupportedChains",
      "outputs": [],
      "stateMutability": "nonpayable",
      "type": "function"
    },
    {
      "inputs": [
        {
          "components": [
            {
              "internalType": "bytes32[3]",
              "name": "context",
              "type": "bytes32[3]"
            },
            {
              "internalType": "bytes",
              "name": "report",
              "type": "bytes"
            },
            {
              "internalType": "bytes32[]",
              "name": "rs",
              "type": "bytes32[]"
            },
            {
              "internalType": "bytes32[]",
              "name": "ss",
              "type": "bytes32[]"
            },
            {
              "internalType": "bytes32",
              "name": "rawVs",
              "type": "bytes32"
            }
          ],
          "internalType": "struct Types.ClfDonReportSubmission",
          "name": "reportSubmission",
          "type": "tuple"
        },
        {
          "internalType": "bytes",
          "name": "messagePayload",
          "type": "bytes"
        }
      ],
      "name": "submitMessageReport",
      "outputs": [],
      "stateMutability": "nonpayable",
      "type": "function"
    },
    {
      "inputs": [
        {
          "internalType": "address[]",
          "name": "tokens",
          "type": "address[]"
        },
        {
          "internalType": "uint256[]",
          "name": "amounts",
          "type": "uint256[]"
        }
      ],
      "name": "withdrawConceroFees",
      "outputs": [],
      "stateMutability": "nonpayable",
      "type": "function"
    },
    {
      "inputs": [
        {
          "internalType": "uint256",
          "name": "amount",
          "type": "uint256"
        }
      ],
      "name": "withdrawOperatorFee",
      "outputs": [
        {
          "internalType": "bool",
          "name": "success",
          "type": "bool"
        }
      ],
      "stateMutability": "nonpayable",
      "type": "function"
    },
    {
      "stateMutability": "payable",
      "type": "receive"
    }
  ],
  "bytecode": "0x6101a060405234801561001157600080fd5b5060405161332e38038061332e833981016040819052610030916100c0565b3360805262ffffff9490941660a05283516001600160a01b0390811660c0526020850151811660e0526040850151811661010052606090940151841661012052908316610140526001600160401b03166101605216610180526101a3565b80516001600160a01b03811681146100a557600080fd5b919050565b634e487b7160e01b600052604160045260246000fd5b600080600080600061010086880312156100d957600080fd5b855162ffffff811681146100ec57600080fd5b94506100fa6020870161008e565b93506101086040870161008e565b60608701519093506001600160401b038116811461012557600080fd5b9150609f8601871361013657600080fd5b604051608081016001600160401b0381118282101715610158576101586100aa565b6040528061010088018981111561016e57600080fd5b608089015b81811015610192576101848161008e565b835260209283019201610173565b505050809150509295509295909350565b60805160a05160c05160e05161010051610120516101405161016051610180516130c7610267600039600081816105df01528181610bb40152610f03015260006118f20152600061189c01526000611d3001526000611cf401526000611cb801526000611c7d0152600081816110e80152611e2f0152600081816102f6015281816106110152818161077f015281816108b70152818161095c01528181610b3e01528181610be601528181610d4f01528181610dda0152610f3501526130c76000f3fe6080604052600436106100f55760003560e01c8063921714bd1161008f578063b91443e711610061578063b91443e71461028f578063cea34c9a146102af578063d1053131146102cf578063dba6335f146102e4578063e716afde1461033057005b8063921714bd1461020d5780639a5d5ca91461022f578063a89780591461024f578063b8b164851461026f57005b806348fd88ab116100c857806348fd88ab1461018d5780635a8733b3146101ad57806364357b5a146101cd57806366c82913146101ed57005b806312cf46e6146100f75780631feb291f1461011d57806327e5f4421461014d5780633ae569511461016d575b005b61010a6101053660046121a0565b610350565b6040519081526020015b60405180910390f35b34801561012957600080fd5b5061013d610138366004612249565b61042e565b6040519015158152602001610114565b34801561015957600080fd5b5061013d610168366004612262565b610589565b34801561017957600080fd5b5061010a61018836600461227f565b6105b4565b34801561019957600080fd5b506100f56101a83660046123ee565b6105d4565b3480156101b957600080fd5b506100f56101c83660046124fb565b610774565b3480156101d957600080fd5b5061010a6101e836600461256a565b610994565b3480156101f957600080fd5b506100f56102083660046125e3565b610a28565b34801561021957600080fd5b5060015b60405160ff9091168152602001610114565b34801561023b57600080fd5b506100f561024a366004612654565b610b33565b34801561025b57600080fd5b5061021d61026a366004612686565b610b96565b34801561027b57600080fd5b506100f561028a3660046123ee565b610ba9565b34801561029b57600080fd5b506100f56102aa3660046126a3565b610d44565b3480156102bb57600080fd5b506100f56102ca3660046124fb565b610dcf565b3480156102db57600080fd5b5061010a610ede565b3480156102f057600080fd5b506103187f000000000000000000000000000000000000000000000000000000000000000081565b6040516001600160a01b039091168152602001610114565b34801561033c57600080fd5b506100f561034b366004612249565b610ef8565b600061036188888888888888610f80565b6103a2888787878080601f01602080910402602001604051908101604052809392919081815260200183838082843760009201919091525061100892505050565b60006103ad8961109f565b9050807fa1f44af3efedb71bcc05132c685811aa9cc603dd7784f22391daef783d0390a160018a8c8a8a336040516020016103f791906001600160a01b0391909116815260200190565b60408051601f198184030181529082905261041a9695949392918d908d906127d8565b60405180910390a298975050505050505050565b600080610439611147565b336000908152606591909101602052604090205490508261046d5760405163162908e360e11b815260040160405180910390fd5b82818082111561049e5760405163a458261b60e01b8152600481019290925260248201526044015b60405180910390fd5b506104ab90508382612854565b6104b3611147565b3360009081526065919091016020526040902055826104d0611147565b80546000906104e0908490612854565b909155505060405133908490600081818185875af1925050503d8060008114610525576040519150601f19603f3d011682016040523d82523d6000602084013e61052a565b606091505b5050809250508161054e576040516312171d8360e31b815260040160405180910390fd5b60405183815233907fc43e057480321c0f9aec5029e2f42bb82383abd09bc79fd2fbcb50c5071735729060200160405180910390a250919050565b60006105936111d4565b62ffffff909216600090815260699290920160205250604090205460ff1690565b60006105bf84611211565b6105ca8484846113c2565b90505b9392505050565b336001600160a01b037f00000000000000000000000000000000000000000000000000000000000000001614806106335750336001600160a01b037f000000000000000000000000000000000000000000000000000000000000000016145b61064f576040516282b42960e81b815260040160405180910390fd5b8051825114610674576040516001621398b960e31b0319815260040160405180910390fd5b60005b825181101561076f576106886111d4565b606901600084838151811061069f5761069f612867565b602002602001015162ffffff1662ffffff16815260200190815260200160002060009054906101000a900460ff168382815181106106df576106df612867565b60200260200101519061070d576040516310ee64f960e31b815262ffffff9091166004820152602401610495565b5081818151811061072057610720612867565b60200260200101516107306113f2565b606501600085848151811061074757610747612867565b60209081029190910181015162ffffff16825281019190915260400160002055600101610677565b505050565b336001600160a01b037f000000000000000000000000000000000000000000000000000000000000000016146107bc576040516282b42960e81b815260040160405180910390fd5b82811480156107ca57508215155b6107ea576040516001621398b960e31b0319815260040160405180910390fd5b6000806107f5610ede565b905060005b8581101561098b57600087878381811061081657610816612867565b905060200201602081019061082b9190612686565b9050600086868481811061084157610841612867565b9050602002013590506000811161086b5760405163162908e360e11b815260040160405180910390fd5b6001600160a01b03821661094d57610883818661287d565b94508484808211156108b15760405163a458261b60e01b815260048101929092526024820152604401610495565b505060007f00000000000000000000000000000000000000000000000000000000000000006001600160a01b03168260405160006040518083038185875af1925050503d8060008114610920576040519150601f19603f3d011682016040523d82523d6000602084013e610925565b606091505b5050905080610947576040516312171d8360e31b815260040160405180910390fd5b50610981565b6109816001600160a01b0383167f00000000000000000000000000000000000000000000000000000000000000008361142f565b50506001016107fa565b50505050505050565b60006001600160a01b038416156109be5760405163049f464b60e41b815260040160405180910390fd5b84156109dd5760405163480bfb2160e01b815260040160405180910390fd5b610a1e868585858080601f01602080910402602001604051908101604052809392919081815260200183838082843760009201919091525061148192505050565b9695505050505050565b610a3183611577565b6000610a48610a436060860186612890565b611840565b905060008160600151600081518110610a6357610a63612867565b6020026020010151806020019051810190610a7e9190612956565b9050610a898161189a565b6000610ab28360200151600081518110610aa557610aa5612867565b6020026020010151611946565b90506000610ac38260000151611991565b5091506000905060ff82168015610adc57610adc612a2e565b8015610aea57610aea612a2e565b0361098b5761098b826020015187878080601f0160208091040260200160405190810160405280939291908181526020018383808284376000920191909152506119d292505050565b336001600160a01b037f00000000000000000000000000000000000000000000000000000000000000001614610b7b576040516282b42960e81b815260040160405180910390fd5b610b8484611211565b610b9084848484611a30565b50505050565b6000610ba3600183612a5a565b92915050565b336001600160a01b037f0000000000000000000000000000000000000000000000000000000000000000161480610c085750336001600160a01b037f000000000000000000000000000000000000000000000000000000000000000016145b610c24576040516282b42960e81b815260040160405180910390fd5b8051825114610c49576040516001621398b960e31b0319815260040160405180910390fd5b60005b825181101561076f57610c5d6111d4565b6069016000848381518110610c7457610c74612867565b602002602001015162ffffff1662ffffff16815260200190815260200160002060009054906101000a900460ff16838281518110610cb457610cb4612867565b602002602001015190610ce2576040516310ee64f960e31b815262ffffff9091166004820152602401610495565b50818181518110610cf557610cf5612867565b6020026020010151610d056113f2565b6066016000858481518110610d1c57610d1c612867565b60209081029190910181015162ffffff16825281019190915260400160002055600101610c4c565b336001600160a01b037f00000000000000000000000000000000000000000000000000000000000000001614610d8c576040516282b42960e81b815260040160405180910390fd5b60005b8451811015610dc257610dba858281518110610dad57610dad612867565b6020026020010151611211565b600101610d8f565b50610b9084848484611a58565b336001600160a01b037f00000000000000000000000000000000000000000000000000000000000000001614610e17576040516282b42960e81b815260040160405180910390fd5b828114610e3a576040516001621398b960e31b0319815260040160405180910390fd5b60005b83811015610ed7576000858583818110610e5957610e59612867565b9050602002016020810190610e6e9190612262565b90506000848484818110610e8457610e84612867565b9050602002016020810190610e999190612a89565b905080610ea46111d4565b62ffffff93909316600090815260699093016020526040909220805460ff19169215159290921790915550600101610e3d565b5050505050565b6000610ee8611147565b54610ef39047612854565b905090565b336001600160a01b037f0000000000000000000000000000000000000000000000000000000000000000161480610f575750336001600160a01b037f000000000000000000000000000000000000000000000000000000000000000016145b610f73576040516282b42960e81b815260040160405180910390fd5b80610f7c6113f2565b5550565b6001600160a01b03851615610fa85760405163049f464b60e41b815260040160405180910390fd5b82610fc6576040516301bc6ebd60e31b815260040160405180910390fd5b620f42408110610fe957604051636ceaf82160e01b815260040160405180910390fd5b851561098b5760405163480bfb2160e01b815260040160405180910390fd5b6000611015848484611481565b90506001600160a01b038316611086573481808210156110515760405163a458261b60e01b815260048101929092526024820152604401610495565b5050604051309082156108fc029083906000818181858888f19350505050158015611080573d6000803e3d6000fd5b50610b90565b60405163049f464b60e41b815260040160405180910390fd5b60006110a96111d4565b80546000906110b790612aa4565b9182905550604080516020810192909252439082015233606090811b6bffffffffffffffffffffffff1916908201527f000000000000000000000000000000000000000000000000000000000000000060e890811b6001600160e81b031990811660748401529084901b166077820152607a01604051602081830303815290604052805190602001209050919050565b6040517f636f6e6365726f726f757465722e6f70657261746f722e73746f7261676500006020820152600090819060ff1990600190603e015b6040516020818303038152906040528051906020012060001c6111a39190612854565b6040516020016111b591815260200190565b60408051601f1981840301815291905280516020909101201692915050565b6040517f636f6e6365726f726f757465722e726f757465722e73746f72616765000000006020820152600090819060ff1990600190603c01611180565b6040517f636f6e6365726f726f757465722e726f757465722e73746f7261676500000000602082015260ff1990600190603c016040516020818303038152906040528051906020012060001c6112679190612854565b60405160200161127991815260200190565b604051602081830303815290604052805190602001201681148061131a57506040517f636f6e6365726f726f757465722e6f70657261746f722e73746f726167650000602082015260ff1990600190603e016040516020818303038152906040528051906020012060001c6112ee9190612854565b60405160200161130091815260200190565b604051602081830303815290604052805190602001201681145b806113a257506040517f636f6e6365726f726f757465722e7072696365666565642e73746f7261676500602082015260ff1990600190603f016040516020818303038152906040528051906020012060001c6113769190612854565b60405160200161138891815260200190565b604051602081830303815290604052805190602001201681145b6113bf57604051630a02739760e41b815260040160405180910390fd5b50565b60008180156113e357604080518481528686016020820152205491506113ea565b8484015491505b509392505050565b6040517f636f6e6365726f726f757465722e7072696365666565642e73746f72616765006020820152600090819060ff1990600190603f01611180565b604080516001600160a01b038416602482015260448082018490528251808303909101815260649091019091526020810180516001600160e01b031663a9059cbb60e01b17905261076f908490611b04565b60008061148c6113f2565b6000015490506000838060200190518101906114a89190612abd565b905060006114b7606484611b75565b905060006114c36113f2565b62ffffff8916600090815260659190910160209081526040822054908501519092506114ef9083612b16565b905060006114fc8a611be7565b90506000670de0b6b3a76400006115138385612b16565b61151d9190612b2d565b9050600061152b828761287d565b90506001600160a01b038b1661154a5797506105cd9650505050505050565b670de0b6b3a764000061155d8983612b16565b6115679190612b2d565b9c9b505050505050505050505050565b600061158f8261158a6060820182612890565b611c0f565b905060006115a06080840184612b41565b8080602002602001604051908101604052809392919081815260200183836020028082843760009201829052509394506115e19250505060a0850185612b41565b80806020026020016040519081016040528093929190818152602001838360200280828437600092019190915250508251855193945060c0880135936003935014905080156116305750808451145b61164d576040516301227b8d60e11b815260040160405180910390fd5b600084516001600160401b03811115611668576116686122ab565b604051908082528060200260200182016040528015611691578160200160208202803683370190505b50905060005b85518110156118365760008682815181106116b4576116b4612867565b6020026020010151905060008683815181106116d2576116d2612867565b60200260200101519050600060018a8886602081106116f3576116f3612867565b61170091901a601b612b8a565b6040805160008152602081018083529390935260ff90911690820152606081018590526080810184905260a0016020604051602081039080840390855afa15801561174f573d6000803e3d6000fd5b50505060206040510351905061176481611c63565b819061178f5760405163e74c68bb60e01b81526001600160a01b039091166004820152602401610495565b5060005b848110156117fe57816001600160a01b03168682815181106117b7576117b7612867565b60200260200101516001600160a01b0316141582906117f557604051630e256b9960e21b81526001600160a01b039091166004820152602401610495565b50600101611793565b508085858151811061181257611812612867565b6001600160a01b039290921660209283029190910190910152505050600101611697565b5050505050505050565b6118726040518060a0016040528060608152602001606081526020016060815260200160608152602001606081525090565b61187e82840184612c8f565b6080860152606085015260408401526020830152815292915050565b7f00000000000000000000000000000000000000000000000000000000000000006001600160a01b031681606001516001600160a01b0316146118f057604051632b6971c560e21b815260040160405180910390fd5b7f00000000000000000000000000000000000000000000000000000000000000006001600160401b031681608001516001600160401b0316146113bf5760405163091e4cf160e31b815260040160405180910390fd5b604080518082019091526000815260606020820152604080518082019091526000815260606020820152828060200190518101906119849190612dc3565b6020830152815292915050565b6000808060ff6119a46008610100612854565b85901c16925060ff60086119ba81610100612854565b6119c49190612854565b93959385901c169392915050565b6000828060200190518101906119e89190612e00565b90506119f78160200151611d69565b8060400151600081518110611a0e57611a0e612867565b016020015160f81c60010361076f5761076f8160000151826040015184611ded565b818015611a4f5760408051848152868601602082015220829055610ed7565b50919092015550565b82518451148015611a6a575081518351145b8015611a77575080518251145b611a97576040516001621398b960e31b0319815260040160405180910390fd5b60005b8451811015610ed757602081026020018501516020820260200185015160208302602001850151602084026020018501518160008114611aec5760408051848152868601602082015220829055611af3565b8484018290555b505060019093019250611a9a915050565b600080602060008451602086016000885af180611b27576040513d6000823e3d81fd5b50506000513d91508115611b3f578060011415611b4c565b6001600160a01b0384163b155b15610b9057604051635274afe760e01b81526001600160a01b0385166004820152602401610495565b60008082611b975760405163c6af252960e01b81526004016104959190612f1d565b506000612710611bb361ffff8616670de0b6b3a7640000612b16565b611bbd9190612b2d565b9050600083611bd483670de0b6b3a7640000612b16565b611bde9190612b2d565b95945050505050565b6000611bf16113f2565b62ffffff909216600090815260669290920160205250604090205490565b6000808383604051611c22929190612f45565b6040518091039020905060008186604051602001611c41929190612f55565b60408051808303601f1901815291905280516020909101209695505050505050565b60006001600160a01b038216611c7b57506000919050565b7f00000000000000000000000000000000000000000000000000000000000000006001600160a01b0316826001600160a01b03161480611cec57507f00000000000000000000000000000000000000000000000000000000000000006001600160a01b0316826001600160a01b0316145b80611d2857507f00000000000000000000000000000000000000000000000000000000000000006001600160a01b0316826001600160a01b0316145b80610ba357507f00000000000000000000000000000000000000000000000000000000000000006001600160a01b0316826001600160a01b03161492915050565b6000805b8251811015611dca576000838281518110611d8a57611d8a612867565b6020026020010151806020019051810190611da59190612f69565b9050336001600160a01b03821603611dc1576001925050611dca565b50600101611d6d565b5080611de9576040516326b9cdff60e11b815260040160405180910390fd5b5050565b600082806020019051810190611e039190612f86565b82516020840120815191925014611e2d576040516398eac98f60e01b815260040160405180910390fd5b7f000000000000000000000000000000000000000000000000000000000000000062ffffff16816060015162ffffff1614611e7b5760405163140dba7f60e11b815260040160405180910390fd5b611e836111d4565b60008581526066919091016020526040902054849060ff1615611ebc5760405163398560f160e11b815260040161049591815260200190565b5060405184907ff67870b75d64e9a5f00100af39eb94911d9399b05f9df6d6db0cafc61128d5a490600090a2610b908482608001518360400151846020015186600084806020019051810190611f129190612abd565b90506001611f1e6111d4565b600088815260669190910160205260409020805460ff191691151591909117905580516001600160a01b0316611f6757604051631e4ec46b60e01b815260040160405180910390fd5b80513b611f8757604051631e4ec46b60e01b815260040160405180910390fd5b600063424ad82c60e01b87868686604051602401611fa89493929190613050565b604051602081830303815290604052906001600160e01b0319166020820180516001600160e01b03838183161783525050505090506000611ff783600001518460200151600061010086612093565b5090508061201b57604051630c3d362160e21b815260048101899052602401610495565b61202e60646120286113f2565b54611b75565b612036611147565b33600090815260659190910160205260408120805490919061205990849061287d565b909155505060405188907fb3f2643376154cdcc78e83cff26c3fcacf4a35a6e0107d90817d80973fa4d86090600090a25050505050505050565b6000606060008060008661ffff166001600160401b038111156120b8576120b86122ab565b6040519080825280601f01601f1916602001820160405280156120e2576020820181803683370190505b5090506000808751602089018b8e8ef191503d925086831115612103578692505b828152826000602083013e90999098509650505050505050565b62ffffff811681146113bf57600080fd5b8035801515811461213e57600080fd5b919050565b6001600160a01b03811681146113bf57600080fd5b60008083601f84011261216a57600080fd5b5081356001600160401b0381111561218157600080fd5b60208301915083602082850101111561219957600080fd5b9250929050565b600080600080600080600060a0888a0312156121bb57600080fd5b87356121c68161211d565b96506121d46020890161212e565b955060408801356121e481612143565b945060608801356001600160401b038111156121ff57600080fd5b61220b8a828b01612158565b90955093505060808801356001600160401b0381111561222a57600080fd5b6122368a828b01612158565b989b979a50959850939692959293505050565b60006020828403121561225b57600080fd5b5035919050565b60006020828403121561227457600080fd5b81356105cd8161211d565b60008060006060848603121561229457600080fd5b505081359360208301359350604090920135919050565b634e487b7160e01b600052604160045260246000fd5b60405161016081016001600160401b03811182821017156122e4576122e46122ab565b60405290565b604051606081016001600160401b03811182821017156122e4576122e46122ab565b60405160a081016001600160401b03811182821017156122e4576122e46122ab565b604051601f8201601f191681016001600160401b0381118282101715612356576123566122ab565b604052919050565b60006001600160401b03821115612377576123776122ab565b5060051b60200190565b600082601f83011261239257600080fd5b81356123a56123a08261235e565b61232e565b8082825260208201915060208360051b8601019250858311156123c757600080fd5b602085015b838110156123e45780358352602092830192016123cc565b5095945050505050565b6000806040838503121561240157600080fd5b82356001600160401b0381111561241757600080fd5b8301601f8101851361242857600080fd5b80356124366123a08261235e565b8082825260208201915060208360051b85010192508783111561245857600080fd5b6020840193505b828410156124835783356124728161211d565b82526020938401939091019061245f565b945050505060208301356001600160401b038111156124a157600080fd5b6124ad85828601612381565b9150509250929050565b60008083601f8401126124c957600080fd5b5081356001600160401b038111156124e057600080fd5b6020830191508360208260051b850101111561219957600080fd5b6000806000806040858703121561251157600080fd5b84356001600160401b0381111561252757600080fd5b612533878288016124b7565b90955093505060208501356001600160401b0381111561255257600080fd5b61255e878288016124b7565b95989497509550505050565b60008060008060006080868803121561258257600080fd5b853561258d8161211d565b945061259b6020870161212e565b935060408601356125ab81612143565b925060608601356001600160401b038111156125c657600080fd5b6125d288828901612158565b969995985093965092949392505050565b6000806000604084860312156125f857600080fd5b83356001600160401b0381111561260e57600080fd5b840160e0818703121561262057600080fd5b925060208401356001600160401b0381111561263b57600080fd5b61264786828701612158565b9497909650939450505050565b6000806000806080858703121561266a57600080fd5b5050823594602084013594506040840135936060013592509050565b60006020828403121561269857600080fd5b81356105cd81612143565b600080600080608085870312156126b957600080fd5b84356001600160401b038111156126cf57600080fd5b6126db87828801612381565b94505060208501356001600160401b038111156126f757600080fd5b61270387828801612381565b93505060408501356001600160401b0381111561271f57600080fd5b61272b87828801612381565b92505060608501356001600160401b0381111561274757600080fd5b61275387828801612381565b91505092959194509250565b81835281816020850137506000828201602090810191909152601f909101601f19169091010190565b60005b838110156127a357818101518382015260200161278b565b50506000910152565b600081518084526127c4816020860160208601612788565b601f01601f19169290920160200192915050565b60ff89168152871515602082015262ffffff8716604082015260c06060820152600061280860c08301878961275f565b828103608084015261281a81876127ac565b905082810360a084015261282f81858761275f565b9b9a5050505050505050505050565b634e487b7160e01b600052601160045260246000fd5b81810381811115610ba357610ba361283e565b634e487b7160e01b600052603260045260246000fd5b80820180821115610ba357610ba361283e565b6000808335601e198436030181126128a757600080fd5b8301803591506001600160401b038211156128c157600080fd5b60200191503681900382131561219957600080fd5b805161213e81612143565b80516bffffffffffffffffffffffff8116811461213e57600080fd5b80516001600160401b038116811461213e57600080fd5b805163ffffffff8116811461213e57600080fd5b805168ffffffffffffffffff8116811461213e57600080fd5b805164ffffffffff8116811461213e57600080fd5b600061016082840312801561296a57600080fd5b506129736122c1565b82518152612983602084016128d6565b6020820152612994604084016128e1565b60408201526129a5606084016128d6565b60608201526129b6608084016128fd565b60808201526129c760a08401612914565b60a08201526129d860c08401612928565b60c08201526129e960e08401612928565b60e08201526129fb6101008401612941565b610100820152612a0e6101208401612941565b610120820152612a216101408401612914565b6101408201529392505050565b634e487b7160e01b600052602160045260246000fd5b634e487b7160e01b600052601260045260246000fd5b60006001600160a01b03831680612a7357612a73612a44565b6001600160a01b03929092169190910692915050565b600060208284031215612a9b57600080fd5b6105cd8261212e565b600060018201612ab657612ab661283e565b5060010190565b60006040828403128015612ad057600080fd5b50604080519081016001600160401b0381118282101715612af357612af36122ab565b6040528251612b0181612143565b81526020928301519281019290925250919050565b8082028115828204841417610ba357610ba361283e565b600082612b3c57612b3c612a44565b500490565b6000808335601e19843603018112612b5857600080fd5b8301803591506001600160401b03821115612b7257600080fd5b6020019150600581901b360382131561219957600080fd5b60ff8181168382160190811115610ba357610ba361283e565b60006001600160401b03821115612bbc57612bbc6122ab565b50601f01601f191660200190565b600082601f830112612bdb57600080fd5b8135612be96123a08261235e565b8082825260208201915060208360051b860101925085831115612c0b57600080fd5b602085015b838110156123e45780356001600160401b03811115612c2e57600080fd5b8601603f81018813612c3f57600080fd5b6020810135612c506123a082612ba3565b8181526040838301018a1015612c6557600080fd5b81604084016020830137600060208383010152808652505050602083019250602081019050612c10565b600080600080600060a08688031215612ca757600080fd5b85356001600160401b03811115612cbd57600080fd5b612cc988828901612381565b95505060208601356001600160401b03811115612ce557600080fd5b612cf188828901612bca565b94505060408601356001600160401b03811115612d0d57600080fd5b612d1988828901612bca565b93505060608601356001600160401b03811115612d3557600080fd5b612d4188828901612bca565b92505060808601356001600160401b03811115612d5d57600080fd5b612d6988828901612bca565b9150509295509295909350565b600082601f830112612d8757600080fd5b8151612d956123a082612ba3565b818152846020838601011115612daa57600080fd5b612dbb826020830160208701612788565b949350505050565b60008060408385031215612dd657600080fd5b825160208401519092506001600160401b03811115612df457600080fd5b6124ad85828601612d76565b600060208284031215612e1257600080fd5b81516001600160401b03811115612e2857600080fd5b820160608185031215612e3a57600080fd5b612e426122ea565b8151815260208201516001600160401b03811115612e5f57600080fd5b8201601f81018613612e7057600080fd5b8051612e7e6123a08261235e565b8082825260208201915060208360051b850101925088831115612ea057600080fd5b602084015b83811015612ee15780516001600160401b03811115612ec357600080fd5b612ed28b602083890101612d76565b84525060209283019201612ea5565b50602085015250505060408201516001600160401b03811115612f0357600080fd5b612f0f86828501612d76565b604083015250949350505050565b6020810160028310612f3f57634e487b7160e01b600052602160045260246000fd5b91905290565b8183823760009101908152919050565b828152606082602083013760800192915050565b600060208284031215612f7b57600080fd5b81516105cd81612143565b600060208284031215612f9857600080fd5b81516001600160401b03811115612fae57600080fd5b820160a08185031215612fc057600080fd5b612fc861230c565b8151815260208201516001600160401b03811115612fe557600080fd5b612ff186828501612d76565b60208301525060408201516130058161211d565b604082015260608201516130188161211d565b606082015260808201516001600160401b0381111561303657600080fd5b61304286828501612d76565b608083015250949350505050565b84815262ffffff8416602082015260806040820152600061307460808301856127ac565b828103606084015261308681856127ac565b97965050505050505056fea2646970667358221220cec74431413a18e6055f0318fc2175f8b59d057fec7bedf87a93df82c3cf146c64736f6c634300081c0033",
  "linkReferences": {},
  "deployedLinkReferences": {}
}