{
  "_format": "hh-sol-artifact-1",
  "contractName": "ConceroVerifier",
  "sourceName": "contracts/ConceroVerifier/ConceroVerifier.sol",
  "abi": [
    {
      "inputs": [
        {
          "internalType": "uint24",
          "name": "chainSelector",
          "type": "uint24"
        },
        {
          "internalType": "address",
          "name": "USDC",
          "type": "address"
        },
        {
          "internalType": "address",
          "name": "clfRouter",
          "type": "address"
        },
        {
          "internalType": "bytes32",
          "name": "clfDonId",
          "type": "bytes32"
        },
        {
          "internalType": "uint64",
          "name": "clfSubscriptionId",
          "type": "uint64"
        },
        {
          "internalType": "uint64",
          "name": "clfDonHostedSecretsVersion",
          "type": "uint64"
        },
        {
          "internalType": "uint8",
          "name": "clfDonHostedSecretsSlotId",
          "type": "uint8"
        },
        {
          "internalType": "uint16",
          "name": "clfPremiumFeeUsdBps",
          "type": "uint16"
        },
        {
          "internalType": "uint32",
          "name": "clfCallbackGasLimit",
          "type": "uint32"
        },
        {
          "internalType": "bytes32",
          "name": "requestCLFMessageReportJsCodeHash",
          "type": "bytes32"
        },
        {
          "internalType": "bytes32",
          "name": "requestOperatorRegistrationJsCodeHash",
          "type": "bytes32"
        }
      ],
      "stateMutability": "nonpayable",
      "type": "constructor"
    },
    {
      "inputs": [],
      "name": "EmptyArgs",
      "type": "error"
    },
    {
      "inputs": [],
      "name": "EmptySource",
      "type": "error"
    },
    {
      "inputs": [
        {
          "internalType": "uint256",
          "name": "requiredAmount",
          "type": "uint256"
        },
        {
          "internalType": "uint256",
          "name": "availableAmount",
          "type": "uint256"
        }
      ],
      "name": "InsufficientFee",
      "type": "error"
    },
    {
      "inputs": [
        {
          "internalType": "uint256",
          "name": "provided",
          "type": "uint256"
        },
        {
          "internalType": "uint256",
          "name": "required",
          "type": "uint256"
        }
      ],
      "name": "InsufficientFee",
      "type": "error"
    },
    {
      "inputs": [
        {
          "internalType": "uint256",
          "name": "provided",
          "type": "uint256"
        },
        {
          "internalType": "uint256",
          "name": "required",
          "type": "uint256"
        }
      ],
      "name": "InsufficientOperatorDeposit",
      "type": "error"
    },
    {
      "inputs": [],
      "name": "InvalidAddress",
      "type": "error"
    },
    {
      "inputs": [],
      "name": "InvalidAmount",
      "type": "error"
    },
    {
      "inputs": [],
      "name": "InvalidNamespace",
      "type": "error"
    },
    {
      "inputs": [],
      "name": "LengthMismatch",
      "type": "error"
    },
    {
      "inputs": [],
      "name": "MessageAlreadyProcessed",
      "type": "error"
    },
    {
      "inputs": [],
      "name": "NoInlineSecrets",
      "type": "error"
    },
    {
      "inputs": [],
      "name": "NotOwner",
      "type": "error"
    },
    {
      "inputs": [],
      "name": "OnlyRouterCanFulfill",
      "type": "error"
    },
    {
      "inputs": [],
      "name": "OperatorAddressMismatch",
      "type": "error"
    },
    {
      "inputs": [],
      "name": "OperatorAlreadyRegistered",
      "type": "error"
    },
    {
      "inputs": [],
      "name": "OperatorNotRegistered",
      "type": "error"
    },
    {
      "inputs": [
        {
          "internalType": "enum CommonErrors.RequiredVariableUnsetType",
          "name": "variableType",
          "type": "uint8"
        }
      ],
      "name": "RequiredVariableUnset",
      "type": "error"
    },
    {
      "inputs": [
        {
          "internalType": "address",
          "name": "token",
          "type": "address"
        }
      ],
      "name": "SafeERC20FailedOperation",
      "type": "error"
    },
    {
      "inputs": [],
      "name": "TransferFailed",
      "type": "error"
    },
    {
      "inputs": [],
      "name": "TransferFailed",
      "type": "error"
    },
    {
      "inputs": [],
      "name": "UnauthorizedOperator",
      "type": "error"
    },
    {
      "anonymous": false,
      "inputs": [
        {
          "indexed": false,
          "internalType": "bytes",
          "name": "err",
          "type": "bytes"
        }
      ],
      "name": "CLFRequestError",
      "type": "event"
    },
    {
      "anonymous": false,
      "inputs": [
        {
          "indexed": true,
          "internalType": "bytes32",
          "name": "messageId",
          "type": "bytes32"
        }
      ],
      "name": "MessageReport",
      "type": "event"
    },
    {
      "anonymous": false,
      "inputs": [
        {
          "indexed": true,
          "internalType": "address",
          "name": "operator",
          "type": "address"
        },
        {
          "indexed": false,
          "internalType": "uint256",
          "name": "amount",
          "type": "uint256"
        }
      ],
      "name": "OperatorDepositWithdrawn",
      "type": "event"
    },
    {
      "anonymous": false,
      "inputs": [
        {
          "indexed": true,
          "internalType": "address",
          "name": "operator",
          "type": "address"
        },
        {
          "indexed": false,
          "internalType": "uint256",
          "name": "amount",
          "type": "uint256"
        }
      ],
      "name": "OperatorDeposited",
      "type": "event"
    },
    {
      "anonymous": false,
      "inputs": [
        {
          "indexed": true,
          "internalType": "address",
          "name": "operator",
          "type": "address"
        },
        {
          "indexed": false,
          "internalType": "uint256",
          "name": "amount",
          "type": "uint256"
        }
      ],
      "name": "OperatorFeeWithdrawn",
      "type": "event"
    },
    {
      "anonymous": false,
      "inputs": [
        {
          "indexed": true,
          "internalType": "address",
          "name": "operator",
          "type": "address"
        },
        {
          "indexed": false,
          "internalType": "enum CommonTypes.ChainType[]",
          "name": "chainTypes",
          "type": "uint8[]"
        },
        {
          "indexed": false,
          "internalType": "enum Types.OperatorRegistrationAction[]",
          "name": "operatorActions",
          "type": "uint8[]"
        }
      ],
      "name": "OperatorRegistered",
      "type": "event"
    },
    {
      "anonymous": false,
      "inputs": [
        {
          "indexed": true,
          "internalType": "address",
          "name": "requester",
          "type": "address"
        },
        {
          "indexed": false,
          "internalType": "enum CommonTypes.ChainType[]",
          "name": "chainTypes",
          "type": "uint8[]"
        },
        {
          "indexed": false,
          "internalType": "enum Types.OperatorRegistrationAction[]",
          "name": "operatorActions",
          "type": "uint8[]"
        },
        {
          "indexed": false,
          "internalType": "bytes[]",
          "name": "operatorAddresses",
          "type": "bytes[]"
        }
      ],
      "name": "OperatorRegistrationRequested",
      "type": "event"
    },
    {
      "anonymous": false,
      "inputs": [
        {
          "indexed": true,
          "internalType": "bytes32",
          "name": "id",
          "type": "bytes32"
        }
      ],
      "name": "RequestFulfilled",
      "type": "event"
    },
    {
      "anonymous": false,
      "inputs": [
        {
          "indexed": true,
          "internalType": "bytes32",
          "name": "id",
          "type": "bytes32"
        }
      ],
      "name": "RequestSent",
      "type": "event"
    },
    {
      "stateMutability": "payable",
      "type": "fallback"
    },
    {
      "inputs": [],
      "name": "getCLFDeposit",
      "outputs": [
        {
          "internalType": "uint256",
          "name": "depositNative",
          "type": "uint256"
        }
      ],
      "stateMutability": "view",
      "type": "function"
    },
    {
      "inputs": [],
      "name": "getCohortsCount",
      "outputs": [
        {
          "internalType": "uint8",
          "name": "",
          "type": "uint8"
        }
      ],
      "stateMutability": "pure",
      "type": "function"
    },
    {
      "inputs": [
        {
          "internalType": "address",
          "name": "operator",
          "type": "address"
        }
      ],
      "name": "getOperatorDeposit",
      "outputs": [
        {
          "internalType": "uint256",
          "name": "",
          "type": "uint256"
        }
      ],
      "stateMutability": "view",
      "type": "function"
    },
    {
      "inputs": [
        {
          "internalType": "address",
          "name": "operator",
          "type": "address"
        }
      ],
      "name": "getOperatorFeesEarned",
      "outputs": [
        {
          "internalType": "uint256",
          "name": "",
          "type": "uint256"
        }
      ],
      "stateMutability": "view",
      "type": "function"
    },
    {
      "inputs": [
        {
          "internalType": "enum CommonTypes.ChainType",
          "name": "chainType",
          "type": "uint8"
        }
      ],
      "name": "getRegisteredOperators",
      "outputs": [
        {
          "internalType": "bytes[]",
          "name": "",
          "type": "bytes[]"
        }
      ],
      "stateMutability": "view",
      "type": "function"
    },
    {
      "inputs": [
        {
          "internalType": "bytes32",
          "name": "namespace",
          "type": "bytes32"
        },
        {
          "internalType": "uint256",
          "name": "offset",
          "type": "uint256"
        },
        {
          "internalType": "bytes32",
          "name": "mappingKey",
          "type": "bytes32"
        }
      ],
      "name": "getStorage",
      "outputs": [
        {
          "internalType": "uint256",
          "name": "",
          "type": "uint256"
        }
      ],
      "stateMutability": "view",
      "type": "function"
    },
    {
      "inputs": [],
      "name": "getWithdrawableConceroFee",
      "outputs": [
        {
          "internalType": "uint256",
          "name": "availableFees",
          "type": "uint256"
        }
      ],
      "stateMutability": "view",
      "type": "function"
    },
    {
      "inputs": [
        {
          "internalType": "bytes32",
          "name": "requestId",
          "type": "bytes32"
        },
        {
          "internalType": "bytes",
          "name": "response",
          "type": "bytes"
        },
        {
          "internalType": "bytes",
          "name": "err",
          "type": "bytes"
        }
      ],
      "name": "handleOracleFulfillment",
      "outputs": [],
      "stateMutability": "nonpayable",
      "type": "function"
    },
    {
      "inputs": [],
      "name": "i_owner",
      "outputs": [
        {
          "internalType": "address",
          "name": "",
          "type": "address"
        }
      ],
      "stateMutability": "view",
      "type": "function"
    },
    {
      "inputs": [
        {
          "internalType": "address",
          "name": "operator",
          "type": "address"
        }
      ],
      "name": "isOperatorRegistered",
      "outputs": [
        {
          "internalType": "bool",
          "name": "",
          "type": "bool"
        }
      ],
      "stateMutability": "view",
      "type": "function"
    },
    {
      "inputs": [
        {
          "internalType": "address",
          "name": "operator",
          "type": "address"
        }
      ],
      "name": "operatorDeposit",
      "outputs": [],
      "stateMutability": "payable",
      "type": "function"
    },
    {
      "inputs": [
        {
          "internalType": "uint256",
          "name": "internalMessageConfig",
          "type": "uint256"
        },
        {
          "internalType": "bytes32",
          "name": "messageId",
          "type": "bytes32"
        },
        {
          "internalType": "bytes32",
          "name": "messageHashSum",
          "type": "bytes32"
        },
        {
          "internalType": "bytes",
          "name": "srcChainData",
          "type": "bytes"
        }
      ],
      "name": "requestMessageReport",
      "outputs": [
        {
          "internalType": "bytes32",
          "name": "",
          "type": "bytes32"
        }
      ],
      "stateMutability": "nonpayable",
      "type": "function"
    },
    {
      "inputs": [
        {
          "internalType": "enum CommonTypes.ChainType[]",
          "name": "chainTypes",
          "type": "uint8[]"
        },
        {
          "internalType": "enum Types.OperatorRegistrationAction[]",
          "name": "operatorActions",
          "type": "uint8[]"
        },
        {
          "internalType": "bytes[]",
          "name": "operatorAddresses",
          "type": "bytes[]"
        }
      ],
      "name": "requestOperatorRegistration",
      "outputs": [
        {
          "internalType": "bytes32",
          "name": "clfRequestId",
          "type": "bytes32"
        }
      ],
      "stateMutability": "nonpayable",
      "type": "function"
    },
    {
      "inputs": [
        {
          "internalType": "uint256",
          "name": "amount",
          "type": "uint256"
        }
      ],
      "name": "setNativeUsdRate",
      "outputs": [],
      "stateMutability": "nonpayable",
      "type": "function"
    },
    {
      "inputs": [
        {
          "internalType": "bytes32",
          "name": "namespace",
          "type": "bytes32"
        },
        {
          "internalType": "uint256",
          "name": "offset",
          "type": "uint256"
        },
        {
          "internalType": "bytes32",
          "name": "mappingKey",
          "type": "bytes32"
        },
        {
          "internalType": "uint256",
          "name": "value",
          "type": "uint256"
        }
      ],
      "name": "setStorage",
      "outputs": [],
      "stateMutability": "nonpayable",
      "type": "function"
    },
    {
      "inputs": [
        {
          "internalType": "bytes32[]",
          "name": "namespaces",
          "type": "bytes32[]"
        },
        {
          "internalType": "uint256[]",
          "name": "offsets",
          "type": "uint256[]"
        },
        {
          "internalType": "bytes32[]",
          "name": "mappingKeys",
          "type": "bytes32[]"
        },
        {
          "internalType": "uint256[]",
          "name": "values",
          "type": "uint256[]"
        }
      ],
      "name": "setStorageBulk",
      "outputs": [],
      "stateMutability": "nonpayable",
      "type": "function"
    },
    {
      "inputs": [
        {
          "internalType": "address[]",
          "name": "tokens",
          "type": "address[]"
        },
        {
          "internalType": "uint256[]",
          "name": "amounts",
          "type": "uint256[]"
        }
      ],
      "name": "withdrawConceroFees",
      "outputs": [],
      "stateMutability": "nonpayable",
      "type": "function"
    },
    {
      "inputs": [
        {
          "internalType": "uint256",
          "name": "amount",
          "type": "uint256"
        }
      ],
      "name": "withdrawOperatorDeposit",
      "outputs": [
        {
          "internalType": "bool",
          "name": "success",
          "type": "bool"
        }
      ],
      "stateMutability": "nonpayable",
      "type": "function"
    },
    {
      "inputs": [
        {
          "internalType": "uint256",
          "name": "amount",
          "type": "uint256"
        }
      ],
      "name": "withdrawOperatorFee",
      "outputs": [
        {
          "internalType": "bool",
          "name": "success",
          "type": "bool"
        }
      ],
      "stateMutability": "nonpayable",
      "type": "function"
    },
    {
      "stateMutability": "payable",
      "type": "receive"
    }
  ],
  "bytecode": "0x6102003461019b57601f6138a438819003918201601f19168301916001600160401b038311848410176101a0578084926101609460405283398101031261019b5780519062ffffff8216820361019b5761005b602082016101b6565b91610068604083016101b6565b92606083015161007a608085016101ca565b61008660a086016101ca565b9060c08601519260ff8416840361019b5760e08701519461ffff8616860361019b576101008801519663ffffffff8816880361019b576101406101208a01519901519960018060a01b03166080523360a05260c05260e0526101405261016052610180526101e0526101a0526101c05261010052610120526040516136c590816101df82396080518181816102fc01526127d6015260a0518181816106e701528181610a6501528181610cd901528181610d2201526112ec015260c05181611133015260e0518150506101005181610e350152610120518161198201526101405181611efc01526101605181611f1e0152610180518150506101a051816111aa01526101c0518161116c01526101e051815050f35b600080fd5b634e487b7160e01b600052604160045260246000fd5b51906001600160a01b038216820361019b57565b51906001600160401b038216820361019b5756fe60806040526004361015610010575b005b60003560e01c80630306ec9f146101405780630ca761751461013b5780631feb291f146101365780632a65d9ab1461013157806331d491941461012c5780633ae56951146101275780635a8733b314610122578063624db6321461011d5780636b1906f8146101185780636ea101ab146101135780638e3438f51461010e57806390239ec7146101095780639a5d5ca914610104578063b91443e7146100ff578063cc766882146100fa578063d1053131146100f5578063dba6335f146100f0578063e716afde146100eb5763fbfbdff80361000e57610d5b565b610d08565b610cc3565b610ca8565b610bc2565b610b2a565b610a3b565b6109ac565b6108de565b61082d565b6107f3565b6107d8565b610694565b610619565b610545565b610510565b6103fc565b6102a7565b61022f565b634e487b7160e01b600052604160045260246000fd5b60e081019081106001600160401b0382111761017657604052565b610145565b604081019081106001600160401b0382111761017657604052565b90601f801991011681019081106001600160401b0382111761017657604052565b604051906101c660c083610196565b565b6001600160401b03811161017657601f01601f191660200190565b81601f8201121561022a578035906101fa826101c8565b926102086040519485610196565b8284526020838301011161022a57816000926020809301838601378301015290565b600080fd5b3461022a57608036600319011261022a576024356064356004356044356001600160401b03831161022a5760209361026e61029f9436906004016101e3565b9261029a60ff610293606761028161159c565b33600090815291016020526040902090565b5416610d87565b610d9f565b604051908152f35b3461022a57606036600319011261022a576004356024356001600160401b03811161022a576102da9036906004016101e3565b6044356001600160401b03811161022a576102f99036906004016101e3565b907f00000000000000000000000000000000000000000000000000000000000000006001600160a01b031633036103eb57602081015160001a61033b816110fd565b8061039157509061034b9161223b565b606661035561160a565b0181600052602052604060002060ff1981541690557f85e1543bf2f84fe80c6badbce3648c8539ad1df4d2b3d822938ca0538be727e6600080a2005b8061039d6001926110fd565b036103b157906103ac91612004565b61034b565b506103e37fbcf5ce4fda95e104d7172732bf495e532c7355ebce10657ed2161d41d3a2b0e59160405191829182611704565b0390a161034b565b63c6829f8360e01b60005260046000fd5b3461022a57602036600319011261022a5760043561042260ff610293606761028161159c565b61044833606a61043061159c565b019060018060a01b0316600052602052604060002090565b54610454821515610f85565b610462818381811115610f9d565b8181039081116104fa5761047a33606a61043061159c565b5561048361159c565b9081548181039081116104fa576104f69255600080808084335af1906104a7610ff1565b506104b182611021565b60405190815233907fc43e057480321c0f9aec5029e2f42bb82383abd09bc79fd2fbcb50c5071735729080602081015b0390a260405190151581529081906020820190565b0390f35b610fbd565b6001600160a01b0381160361022a57565b3461022a57602036600319011261022a57602061053c600435610532816104ff565b606a61043061159c565b54604051908152f35b3461022a57602036600319011261022a5760043561056b60ff610293606761028161159c565b61057933606861043061159c565b54610585821515610f85565b610593828280821115611039565b8181039081116104fa576105ab33606861043061159c565b5560016105b661159c565b019081548181039081116104fa576104f69255600080808084335af1906105db610ff1565b506105e582611021565b60405190815233907f84863957610e3c6567187cf240a9979c5c8d56d4dba4473b5ac46a10d32469749080602081016104e1565b3461022a57606036600319011261022a57602060243560443560043561063e81611759565b811561065b57604080519283529201838201522054604051908152f35b9050015461029f565b9181601f8401121561022a578235916001600160401b03831161022a576020808501948460051b01011161022a57565b3461022a57604036600319011261022a576004356001600160401b03811161022a576106c4903690600401610664565b6024356001600160401b03811161022a576106e3903690600401610664565b92907f000000000000000000000000000000000000000000000000000000000000000061071a336001600160a01b03831614611059565b848414806107cf575b61072c90611071565b6000610736611571565b9360005b86811061074357005b61075661075182898561109f565b6110b4565b9284610763838b8961109f565b3594610770861515610f85565b6001600160a01b0316806107bb575050906107b56000808080610795896001986110da565b986107a48d8b81811115610f9d565b8a5af16107af610ff1565b50611021565b0161073a565b946107ca9160019493966117ae565b6107b5565b50831515610723565b3461022a57600036600319011261022a57602061029f611122565b3461022a57602036600319011261022a57602060ff610821600435610817816104ff565b606761043061159c565b54166040519015158152f35b602036600319011261022a57600435610845816104ff565b61085a610850611122565b3481341015611039565b6001600160a01b038116156108cd5761087790606861043061159c565b8054903482018092116104fa5755600161088f61159c565b0161089b3482546110da565b905560405134815233907f06653c045d0a3144153a51ac6909baae43b8d5b67184cb74e988b72858727fe490602090a2005b63e6c4247b60e01b60005260046000fd5b3461022a57600036600319011261022a57602060405160018152f35b6002111561022a57565b60005b8381106109175750506000910152565b8181015183820152602001610907565b9060209161094081518092818552858086019101610904565b601f01601f1916010190565b602081016020825282518091526040820191602060408360051b8301019401926000915b83831061097f57505050505090565b909192939460208061099d600193603f198682030187528951610927565b97019301930191939290610970565b3461022a57602036600319011261022a576109dc6004356109cc816108fa565b60666109d661159c565b016111f0565b80546109e781610ab6565b916109f56040519384610196565b818352602083019060005260206000206000915b838310610a1e57604051806104f6878261094c565b600160208192610a2d85611242565b815201920192019190610a09565b3461022a57608036600319011261022a57606435602435604435600435610a8c6001600160a01b037f0000000000000000000000000000000000000000000000000000000000000000163314611059565b610a9581611759565b8115610aad5760408051928352920160208201522055005b90500155600080f35b6001600160401b0381116101765760051b60200190565b9080601f8301121561022a578135610ae481610ab6565b92610af26040519485610196565b81845260208085019260051b82010192831161022a57602001905b828210610b1a5750505090565b8135815260209182019101610b0d565b3461022a57608036600319011261022a576004356001600160401b03811161022a57610b5a903690600401610acd565b6024356001600160401b03811161022a57610b79903690600401610acd565b906044356001600160401b03811161022a57610b99903690600401610acd565b606435926001600160401b03841161022a57610bbc61000e943690600401610acd565b926112e4565b3461022a57606036600319011261022a576004356001600160401b03811161022a57610bf2903690600401610664565b906024356001600160401b03811161022a57610c12903690600401610664565b9190604435906001600160401b03821161022a576104f694610c8c610c5c7f8dd8d12374b84b953ae64df22c21c4595675aa2fd20893fdeef36a1e0c80ba81943690600401610664565b9087841480610c9f575b610c6f90611071565b610c7d82828a88888c61194c565b97604051958695339987611537565b0390a26040519081529081906020820190565b50838214610c66565b3461022a57600036600319011261022a57602061029f611571565b3461022a57600036600319011261022a576040517f00000000000000000000000000000000000000000000000000000000000000006001600160a01b03168152602090f35b3461022a57602036600319011261022a57600435610d50337f00000000000000000000000000000000000000000000000000000000000000006001600160a01b031614611059565b610d58611715565b55005b3461022a57602036600319011261022a57602061053c600435610d7d816104ff565b606861043061159c565b15610d8e57565b6326b9cdff60e11b60005260046000fd5b91906067610dab61160a565b018160005260205260ff60406000205416610f7457610f4393610e92610edb610e9294610e92610eb3610efe966067610de261160a565b01816000526020526040600020600160ff19825416179055610e14610e0e610e08611715565b5461186b565b33611a4c565b50610e92610ea0610e23611644565b9b8c610e7460405191610e6f83610e617f00000000000000000000000000000000000000000000000000000000000000006020830160209181520190565b03601f198101855284610196565b6113db565b52610e7e8d6113db565b506040519283916020830160209181520190565b03601f198101835282610196565b610ea98b6113e8565b52610e7e8a6113e8565b610ebc886113f8565b52610ec6876113f8565b50604051928391602083019190602083019252565b610ee485611408565b52610eee84611408565b5060405192839160208301611704565b610f0782611418565b52610f1181611418565b506040805133602082015290610f2a9082908101610e92565b610f3382611428565b52610f3d81611428565b50611a8b565b610f71610f64826066610f5461160a565b0190600052602052604060002090565b805460ff19166001179055565b90565b637b04260960e01b60005260046000fd5b15610f8c57565b63162908e360e11b60005260046000fd5b15610fa6575050565b63a458261b60e01b60005260045260245260446000fd5b634e487b7160e01b600052601160045260246000fd5b601f198101919082116104fa57565b6000198101919082116104fa57565b3d1561101c573d90611002826101c8565b916110106040519384610196565b82523d6000602084013e565b606090565b1561102857565b6312171d8360e31b60005260046000fd5b15611042575050565b63052dcc5960e51b60005260045260245260446000fd5b1561106057565b6330cd747160e01b60005260046000fd5b1561107857565b631fec674760e31b60005260046000fd5b634e487b7160e01b600052603260045260246000fd5b91908110156110af5760051b0190565b611089565b35610f71816104ff565b60840190816084116104fa57565b90602082018092116104fa57565b919082018092116104fa57565b634e487b7160e01b600052602160045260246000fd5b6002111561110757565b6110e7565b908160011b91808304600214901517156104fa57565b606561112c611715565b0162ffffff7f00000000000000000000000000000000000000000000000000000000000000001660005260205260406000205480156111da5763ffffffff7f0000000000000000000000000000000000000000000000000000000000000000168181029181830414901517156104fa576111ce6111a7611715565b547f00000000000000000000000000000000000000000000000000000000000000006118b9565b81018091116104fa5790565b63c6af252960e01b600052600160045260246000fd5b906111fa816110fd565b600052602052604060002090565b90600182811c92168015611238575b602083101461122257565b634e487b7160e01b600052602260045260246000fd5b91607f1691611217565b906040519182600082549261125684611208565b80845293600181169081156112c2575060011461127b575b506101c692500383610196565b90506000929192526020600020906000915b8183106112a65750509060206101c6928201013861126e565b602091935080600191548385890101520191019091849261128d565b9050602092506101c694915060ff191682840152151560051b8201013861126e565b939161131a337f00000000000000000000000000000000000000000000000000000000000000006001600160a01b031614611059565b60005b8551811015611342578061133c61133660019389611438565b51611759565b0161131d565b509091928451835180911490816113d0575b50806113c5575b61136490611071565b60005b85518110156113bd578060019160051b602081890101519060208188010151906020808289010151918701015192816000146113b457604080519283529201602082015220555b01611367565b905001556113ae565b505050509050565b50815181511461135b565b905082511438611354565b8051156110af5760200190565b8051600110156110af5760400190565b8051600210156110af5760600190565b8051600310156110af5760800190565b8051600410156110af5760a00190565b8051600510156110af5760c00190565b80518210156110af5760209160051b010190565b9160209082815201919060005b8181106114665750505090565b909192602080600192863561147a816108fa565b611483816110fd565b8152019401929101611459565b908060209392818452848401376000828201840152601f01601f1916010190565b90602083828152019060208160051b85010193836000915b8383106114d95750505050505090565b909192939495601f198282030186528635601e198436030181121561022a57830190602082359201916001600160401b03811161022a57803603831361022a576115296020928392600195611490565b9801960194930191906114c9565b94929093611555610f7197956115639460608952606089019161144c565b91868303602088015261144c565b9260408185039101526114b1565b4761157a61159c565b54600161158561159c565b015481018091116104fa5781039081116104fa5790565b60405160208101907f636f6e6365726f76657269666965722e6f70657261746f722e73746f726167658252602081526115d6604082610196565b51902060001981019081116104fa576040519060208201908152602082526115ff604083610196565b9051902060ff191690565b60405160208101907f636f6e6365726f76657269666965722e76657269666965722e73746f726167658252602081526115d6604082610196565b60405160e091906116558382610196565b6006815291601f19018260005b82811061166e57505050565b806060602080938501015201611662565b60405160c091906116908382610196565b6005815291601f19018260005b8281106116a957505050565b80606060208093850101520161169d565b906116c482610ab6565b6116d16040519182610196565b82815280926116e2601f1991610ab6565b019060005b8281106116f357505050565b8060606020809385010152016116e7565b906020610f71928181520190610927565b60405160208101907f636f6e6365726f76657269666965722e7072696365666565642e73746f7261678252606560f81b6040820152602181526115d6604182610196565b61176161160a565b811490811561179c575b811561178b575b501561177a57565b630a02739760e41b60005260046000fd5b9050611795611715565b1438611772565b90506117a661159c565b81149061176b565b60405163a9059cbb60e01b60208281019182526001600160a01b03909416602483015260448083019590955293815290926000916117ed606482610196565b519082855af11561183f576000513d61183657506001600160a01b0381163b155b6118155750565b635274afe760e01b60009081526001600160a01b0391909116600452602490fd5b6001141561180e565b6040513d6000823e3d90fd5b8115611855570490565b634e487b7160e01b600052601260045260246000fd5b600081156118a557506000811561189157506e01ed09bead87c0378d8e64000000000490565b634e487b7160e01b81526012600452602490fd5b63c6af252960e01b81526004819052602490fd5b81156119145761ffff16670de0b6b3a7640000810290808204670de0b6b3a764000014901517156104fa57612710900490670de0b6b3a7640000820291808304670de0b6b3a764000014901517156104fa57610f719161184b565b63c6af252960e01b600052600060045260246000fd5b916020610f7193818152019161144c565b916020610f719381815201916114b1565b9390926119e7611a0d93610f439795611969610e0e610e08611715565b506119d461197561167f565b986040516119ae81610e927f00000000000000000000000000000000000000000000000000000000000000006020830160209181520190565b6119b78b6113db565b526119c18a6113db565b50610e926040519384926020840161192a565b6119dd886113e8565b526119c1876113e8565b6119f0856113f8565b526119fa846113f8565b50610e926040519384926020840161193b565b611a1682611408565b52611a2081611408565b506040805133602082015290611a399082908101610e92565b611a4282611418565b52610f3d81611418565b611a7a90610d7d83611a6283606861043061159c565b5481611a7285606861043061159c565b541015611039565b8054908282039182116104fa575590565b611efa610f7191611ef560405191611aa28361015b565b60008352600060208401526000604084015260608084015260606080840152606060a0840152606060c0840152611eef610380611ae26040519182610196565b61034981527f747279207b20636f6e7374205b742c20705d203d2061776169742050726f6d6960208201527f73652e616c6c285b206665746368282768747470733a2f2f7261772e6769746860408201527f756275736572636f6e74656e742e636f6d2f6574686572732d696f2f6574686560608201527f72732e6a732f76362e31302e302f646973742f6574686572732e756d642e6d6960808201527f6e2e6a7327292c206665746368282768747470733a2f2f7261772e676974687560a08201527f6275736572636f6e74656e742e636f6d2f636f6e6365726f2f76322d636f6e7460c08201527f72616374732f726566732f68656164732f6d61737465722f636c662f6469737460e08201527f2f726571756573745265706f72742e6d696e2e6a7327292c205d293b20636f6e6101008201527f7374205b652c20635d203d2061776169742050726f6d6973652e616c6c285b746101208201527f2e7465787428292c20702e7465787428295d293b20636f6e73742067203d20616101408201527f73796e632073203d3e207b2072657475726e20282027307827202b20417272616101608201527f792e66726f6d286e65772055696e7438417272617928617761697420637279706101808201527f746f2e737562746c652e64696765737428275348412d323536272c206e6577206101a08201527f54657874456e636f64657228292e656e636f6465287329292929202e6d6170286101c08201527f76203d3e2028273027202b20762e746f537472696e6728313629292e736c69636101e08201527f65282d32292e746f4c6f77657243617365282929202e6a6f696e2827272920296102008201527f3b207d3b20636f6e73742072203d20617761697420672863293b20636f6e73746102208201527f2078203d20617761697420672865293b20636f6e73742062203d2062797465736102408201527f417267735b305d2e746f4c6f7765724361736528293b20636f6e7374206f203d6102608201527f206279746573417267735b315d2e746f4c6f7765724361736528293b206966206102808201527f2872203d3d3d20622026262078203d3d3d206f29207b20636f6e7374206574686102a08201527f657273203d206e65772046756e6374696f6e2865202b20273b2072657475726e6102c08201527f206574686572733b272928293b2072657475726e206177616974206576616c286102e08201527f63293b207d207468726f77206e6577204572726f722860247b727d213d247b626103008201527f7d7c7c247b787d213d247b6f7d60293b207d20636174636820286529207b20746103208201527f68726f77206e6577204572726f7228652e6d6573736167652e736c6963652830610340820152682c2032353529293b7d60b81b61036082015284612e45565b82612462565b6125a3565b7f0000000000000000000000000000000000000000000000000000000000000000907f00000000000000000000000000000000000000000000000000000000000000009061277f565b51610f71816110fd565b9081602091031261022a5751610f71816104ff565b15611f6957565b634265bbb960e11b60005260046000fd5b6040810160408252825180915260206060830193019060005b818110611fe35750505060208183039101526020808351928381520192019060005b818110611fc25750505090565b9091926020806001928651611fd6816110fd565b8152019401929101611fb5565b9091936020806001928751611ff7816110fd565b8152019501929101611f93565b81516122045761201491506129c3565b805160208201805151606084018051519295936001600160a01b031692909161204991811490816121f5575b50949394611071565b604060009301925b855180518210156121ad579061207161206c82600194611438565b611f43565b61207f61206c838851611438565b612088826110fd565b8115612097575b505001612051565b6120c46120b86120a8858851611438565b5160208082518301019101611f4d565b6001600160a01b031690565b906120dc60a086901b86900380841690891614611f62565b6120e5816110fd565b808503612142575060405160609190911b6bffffffffffffffffffffffff1916602082015261212a9161212582603481015b03601f198101845283610196565b612c4c565b61213b610f6485606761043061159c565b388061208f565b61214b816110fd565b15612158575b505061213b565b60405160609190911b6bffffffffffffffffffffffff1916602082015261218b916121868260348101612117565b612ac6565b6121a661219c85606761043061159c565b805460ff19169055565b3880612151565b5050507fe45aa49322ca788544241b0cf4a43007ed43fb0fc18024f8664bafa21616f643919293519251906121f060405192839260018060a01b03169583611f7a565b0390a2565b90506040860151511438612040565b506122367fbcf5ce4fda95e104d7172732bf495e532c7355ebce10657ed2161d41d3a2b0e59160405191829182611704565b0390a1565b9190805161242e575061224c612d71565b506000602083015192604081015192606082015160808301519560a084015160e01c61227781612dda565b95805b8281106123f557505061228c906110be565b9560026020888701015160f01c9701946122a588612e1d565b956000905b8961ffff8316106123cd575050506122c1876116ba565b9560005b61ffff81168981101561230d5761ffff91612305828a6122fe6001958e60206122ec612db5565b948860051b0101516020850152611438565b528b611438565b5001166122c5565b50509091945060a092965061235a9593976123266101b7565b928684526020840152604083019788526060830152608082015201528060f81c9160ff8260f01c169160018060a01b031690565b9150506123a361238961239861236e611715565b546123788161186b565b61239161238987606a61043061159c565b9182546110da565b905561186b565b92606861043061159c565b9055517fe926aaee2b4b6afb102e3dd8011621cf4b6e8eeae7dde6190388b45bbb39749c600080a2565b60016123ec82602061ffff948701015160208660051b8d0101526110cc565b920116906122aa565b8061241b61240d6124076001946110be565b8a612e0c565b516001600160f81b03191690565b831a612427828b612e0c565b530161227a565b7fbcf5ce4fda95e104d7172732bf495e532c7355ebce10657ed2161d41d3a2b0e59192506122369060405191829182611704565b81511561246f5760c00152565b63fe936cb760e01b60005260046000fd5b6040519061248f604083610196565b600c82526b31b7b232a637b1b0ba34b7b760a11b6020830152565b6003111561110757565b604051906124c3604083610196565b60088252676c616e677561676560c01b6020830152565b6001111561110757565b604051906124f3604083610196565b6006825265736f7572636560d01b6020830152565b60405190612517604083610196565b60048252636172677360e01b6020830152565b60405190612539604083610196565b600f82526e39b2b1b932ba39a637b1b0ba34b7b760891b6020830152565b60405190612566604083610196565b60078252667365637265747360c81b6020830152565b6040519061258b604083610196565b600982526862797465734172677360b81b6020830152565b6125ab612e88565b906125bd6125b7612480565b83612eb9565b6125da81516125cb816124aa565b6125d4816124aa565b83612fa2565b6125e56125b76124b4565b6125ff60408201516125f6816124da565b6125d4816124da565b61260a6125b76124e4565b612618606082015183612eb9565b60a08101805151612717575b506080810190815151612698575b60c0915001805151612645575b50515190565b916126516125b761257c565b61265a82612fcf565b60005b83518051821015612685579061267f61267882600194611438565b5185613014565b0161265d565b5050915061269281612ff1565b3861263f565b6020810180516126a7816124aa565b6126b0816124aa565b156127065760c0926126e9612701926126d06126ca61252a565b88612eb9565b516126da816124aa565b6126e3816124aa565b86612fa2565b6126fa6126f4612557565b86612eb9565b5184613014565b612632565b63a80d31f760e01b60005260046000fd5b92612729612723612508565b84612eb9565b61273283612fcf565b60005b8451805182101561275d579061275761275082600194611438565b5186612eb9565b01612735565b5050925061276a82612ff1565b38612624565b9081602091031261022a575190565b916020916001600160401b03916127b8604051958694859463230e93b160e11b865216600485015260a0602485015260a4840190610927565b60016044840152620186a060648401526084830191909152038160007f00000000000000000000000000000000000000000000000000000000000000006001600160a01b03165af190811561286857600091612839575b50807f1131472297a800fee664d1d89cfa8f7676ff07189ecc53f80bbb5f4969099db8600080a290565b61285b915060203d602011612861575b6128538183610196565b810190612770565b3861280f565b503d612849565b61183f565b60405190608082018281106001600160401b038211176101765760405260608083600081528160208201528160408201520152565b9080601f8301121561022a5781516128b981610ab6565b926128c76040519485610196565b81845260208085019260051b82010192831161022a57602001905b8282106128ef5750505090565b6020809183516128fe816108fa565b8152019101906128e2565b81601f8201121561022a5780519061292082610ab6565b9261292e6040519485610196565b82845260208085019360051b8301019181831161022a5760208101935b83851061295a57505050505090565b84516001600160401b03811161022a5782019083603f8301121561022a57602082015190612987826101c8565b6129946040519182610196565b828152604084840101861061022a576129b860209493859460408685019101610904565b81520194019361294b565b6129cb61286d565b506129d461286d565b9080518101906080816020840193031261022a5760208101519160408201516001600160401b03811161022a5782019181603f8401121561022a57602083015192612a1e84610ab6565b93612a2c6040519586610196565b8085526020808087019260051b840101019184831161022a57604001905b828210612aac5750505060608101516001600160401b03811161022a57826020612a76928401016128a2565b916080820151916001600160401b03831161022a57612a989201602001612909565b606085015260408401526020830152815290565b602080918351612abb816108fa565b815201910190612a4a565b612ad7612ade9160666109d661159c565b91826130ad565b9015612bb157815460001981019081116104fa57612aff612b079184612bc2565b509183612bc2565b919091612b9657612b17916130fe565b80548015612b9b576000190190612b2e8282612bc2565b612b9657612b3c8154611208565b9081612b4757505055565b601f8211600114612b5a57600090555055565b612b82612b93926001601f612b7485600052602060002090565b920160051c82019101612bf0565b600081815260208120918190559055565b55565b612bda565b634e487b7160e01b600052603160045260246000fd5b6325ec6c1f60e01b60005260046000fd5b80548210156110af5760005260206000200190600090565b634e487b7160e01b600052600060045260246000fd5b818110612bfb575050565b60008155600101612bf0565b9190601f8111612c1657505050565b6101c6926000526020600020906020601f840160051c83019310612c42575b601f0160051c0190612bf0565b9091508190612c35565b612c5d9092919260666109d661159c565b612c6783826130ad565b50612d605780546801000000000000000081101561017657612c8e91600182018155612bc2565b612b965782516001600160401b03811161017657612cb681612cb08454611208565b84612c07565b6020601f8211600114612cf7578190612ce8939495600092612cec575b50508160011b916000199060031b1c19161790565b9055565b015190503880612cd3565b601f19821690612d0c84600052602060002090565b9160005b818110612d4857509583600195969710612d2f575b505050811b019055565b015160001960f88460031b161c19169055388080612d25565b9192602060018192868b015181550194019201612d10565b6342ee68b560e01b60005260046000fd5b6040519060c082018281106001600160401b0382111761017657604052606060a0836000815260006020820152600060408201526000838201528260808201520152565b60408051909190612dc68382610196565b60208152918290601f190190369060200137565b90612de4826101c8565b612df16040519182610196565b8281528092612e02601f19916101c8565b0190602036910137565b9081518110156110af570160200190565b90612e2782610ab6565b612e346040519182610196565b8281528092612e02601f1991610ab6565b6000825115612e5f57506000808252604082015260600152565b6322ce3edd60e01b8152600490fd5b60405190612e7b8261017b565b6000602083606081520152565b604051612e948161017b565b6000612e9e612e6e565b808352612eb461010060208501928484526131e6565b505290565b8151612f0a9291906001600160401b031660178111612f0d578151612ef591612eef90612ee860605b60ff1690565b1760ff1690565b90613368565b505b5190612f01612e6e565b508051916135d2565b50565b60ff8111612f3a578151612f349190612f2c90601860605b1790613368565b508251613552565b50612ef7565b61ffff8111612f5f578151612f349190612f579060196060612f25565b5082516134d9565b63ffffffff8111612f86578151612f349190612f7e90601a6060612f25565b508251613460565b8151612f349190612f9a90601b6060612f25565b5082516133e2565b906101c691612fb181516132f8565b5060405191602083015260208252612fca604083610196565b613014565b602090612fde609f8251613368565b5001805190600182018092116104fa5752565b60209061300060ff8251613368565b500180516000198101919082116104fa5752565b8151612f0a9291906001600160401b031660178111613041578151612ef591612eef90612ee86040612ee2565b60ff811161305d578151612f349190612f2c9060186040612f25565b61ffff811161307a578151612f349190612f579060196040612f25565b63ffffffff8111613099578151612f349190612f7e90601a6040612f25565b8151612f349190612f9a90601b6040612f25565b919060005b83548110156130f2576130ce6130c88286612bc2565b50611242565b6020815191012082516020840120146130e9576001016130b2565b92505060019190565b50509050600090600090565b9190918281146131e1576131128354611208565b6001600160401b0381116101765761312e81612cb08454611208565b600093601f821160011461316b57612ce892939482916000926131605750508160011b916000199060031b1c19161790565b015490503880612cd3565b61317f601f19831691600052602060002090565b9461318f84600052602060002090565b91815b8181106131c9575095836001959697106131b057505050811b019055565b015460001960f88460031b161c19169055388080612d25565b9192600180602092868b015481550194019201613192565b509050565b906131ef612e6e565b50601f81168061321e575b508060208301526040519081835260008252810160200190811061022a5760405290565b602003602081116104fa5781018091116104fa57386131fa565b90613241612e6e565b50805161324c612e6e565b5061325a82518211156135cb565b8251519161326882846110da565b90602085015182116132e1575b6020918551838151968201019582116132d9575b505001905b60208110156132b357600019906020036101000a019081199051169082511617905290565b90916132ce6132c86132d492855181526110cc565b936110cc565b91610fd3565b61328e565b523880613289565b6132f36132ed8361110c565b86613678565b613275565b613300612e6e565b5080515160018101908181116104fa576020830151811015613339575b60c26020845192830101538051821161333557505090565b5290565b8160011b828104600214831517156104fa576133629061335b855191866131e6565b5084613238565b5061331d565b90613371612e6e565b5081515160018101918282116104fa5760208401518210156133a4575b6020845192830101538051821161333557505090565b8260011b838104600214841517156104fa576133cd906133c6865191876131e6565b5085613238565b5061338e565b601f81116104fa576101000a90565b906133eb612e6e565b508151518060080191826008116104fa5760208401518311613438575b61341a61341560086133d3565b610fe2565b90600885519384010191198251161790528051821161333557505090565b8260011b838104600214841517156104fa5761345a906133c6865191876131e6565b50613408565b90613469612e6e565b508151518060040191826004116104fa57602084015183116134b1575b61349361341560046133d3565b90600485519384010191198251161790528051821161333557505090565b8260011b838104600214841517156104fa576134d3906133c6865191876131e6565b50613486565b906134e2612e6e565b508151518060020191826002116104fa576020840151831161352a575b61350c61341560026133d3565b90600285519384010191198251161790528051821161333557505090565b8260011b838104600214841517156104fa5761354c906133c6865191876131e6565b506134ff565b9061355b612e6e565b508151518060010191826001116104fa57602084015183116135a3575b61358561341560016133d3565b90600185519384010191198251161790528051821161333557505090565b8260011b838104600214841517156104fa576135c5906133c6865191876131e6565b50613578565b1561022a57565b916135db612e6e565b506135e982518211156135cb565b6020835151926135f983856110da565b828601518111613661575b855183815196820101958211613659575b505001905b602081101561363f57600019906020036101000a019081199051169082511617905290565b90916132ce6132c861365492855181526110cc565b61361a565b523880613615565b61367361366d8261110c565b87613678565b613604565b90612f0a91613689815192826131e6565b5061323856fea264697066735822122076074c56b53145e026bb0ff82d6c707f056d2aee23184f966d8f18c51605941f64736f6c634300081c0033",
  "linkReferences": {},
  "deployedLinkReferences": {}
}