{
  "_format": "hh-sol-artifact-1",
  "contractName": "ConceroRouter",
  "sourceName": "contracts/ConceroRouter/ConceroRouter.sol",
  "abi": [
    {
      "inputs": [
        {
          "internalType": "uint24",
          "name": "chainSelector",
          "type": "uint24"
        },
        {
          "internalType": "address",
          "name": "USDC",
          "type": "address"
        },
        {
          "internalType": "address",
          "name": "conceroVerifier",
          "type": "address"
        },
        {
          "internalType": "uint64",
          "name": "conceroVerifierSubId",
          "type": "uint64"
        },
        {
          "internalType": "address[4]",
          "name": "clfSigners",
          "type": "address[4]"
        }
      ],
      "stateMutability": "nonpayable",
      "type": "constructor"
    },
    {
      "inputs": [
        {
          "internalType": "address",
          "name": "signer",
          "type": "address"
        }
      ],
      "name": "DuplicateSignatureDetected",
      "type": "error"
    },
    {
      "inputs": [],
      "name": "IncorrectNumberOfSignatures",
      "type": "error"
    },
    {
      "inputs": [
        {
          "internalType": "uint256",
          "name": "provided",
          "type": "uint256"
        },
        {
          "internalType": "uint256",
          "name": "required",
          "type": "uint256"
        }
      ],
      "name": "InsufficientFee",
      "type": "error"
    },
    {
      "inputs": [],
      "name": "InvalidAmount",
      "type": "error"
    },
    {
      "inputs": [],
      "name": "InvalidClfReportClient",
      "type": "error"
    },
    {
      "inputs": [],
      "name": "InvalidClfReportSubscriptionId",
      "type": "error"
    },
    {
      "inputs": [
        {
          "internalType": "enum Message.MessageConfigErrorType",
          "name": "error",
          "type": "uint8"
        }
      ],
      "name": "InvalidClientMessageConfig",
      "type": "error"
    },
    {
      "inputs": [],
      "name": "InvalidDstChainData",
      "type": "error"
    },
    {
      "inputs": [],
      "name": "InvalidMessageHashSum",
      "type": "error"
    },
    {
      "inputs": [],
      "name": "InvalidNamespace",
      "type": "error"
    },
    {
      "inputs": [],
      "name": "InvalidReceiver",
      "type": "error"
    },
    {
      "inputs": [],
      "name": "LengthMismatch",
      "type": "error"
    },
    {
      "inputs": [
        {
          "internalType": "bytes32",
          "name": "messageId",
          "type": "bytes32"
        }
      ],
      "name": "MessageAlreadyProcessed",
      "type": "error"
    },
    {
      "inputs": [
        {
          "internalType": "bytes32",
          "name": "messageId",
          "type": "bytes32"
        }
      ],
      "name": "MessageDeliveryFailed",
      "type": "error"
    },
    {
      "inputs": [],
      "name": "MessageTooLarge",
      "type": "error"
    },
    {
      "inputs": [],
      "name": "NotOwner",
      "type": "error"
    },
    {
      "inputs": [
        {
          "internalType": "enum CommonErrors.RequiredVariableUnsetType",
          "name": "variableType",
          "type": "uint8"
        }
      ],
      "name": "RequiredVariableUnset",
      "type": "error"
    },
    {
      "inputs": [
        {
          "internalType": "address",
          "name": "token",
          "type": "address"
        }
      ],
      "name": "SafeERC20FailedOperation",
      "type": "error"
    },
    {
      "inputs": [],
      "name": "TransferFailed",
      "type": "error"
    },
    {
      "inputs": [],
      "name": "UnauthorizedOperator",
      "type": "error"
    },
    {
      "inputs": [
        {
          "internalType": "address",
          "name": "signer",
          "type": "address"
        }
      ],
      "name": "UnauthorizedSigner",
      "type": "error"
    },
    {
      "inputs": [],
      "name": "UnsupportedFeeTokenType",
      "type": "error"
    },
    {
      "anonymous": false,
      "inputs": [
        {
          "indexed": true,
          "internalType": "bytes32",
          "name": "id",
          "type": "bytes32"
        }
      ],
      "name": "ConceroMessageDelivered",
      "type": "event"
    },
    {
      "anonymous": false,
      "inputs": [
        {
          "indexed": true,
          "internalType": "bytes32",
          "name": "id",
          "type": "bytes32"
        }
      ],
      "name": "ConceroMessageReceived",
      "type": "event"
    },
    {
      "anonymous": false,
      "inputs": [
        {
          "indexed": true,
          "internalType": "uint256",
          "name": "internalMessageConfig",
          "type": "uint256"
        },
        {
          "indexed": true,
          "internalType": "bytes32",
          "name": "messageId",
          "type": "bytes32"
        },
        {
          "indexed": false,
          "internalType": "bytes",
          "name": "dstChainData",
          "type": "bytes"
        },
        {
          "indexed": false,
          "internalType": "bytes",
          "name": "message",
          "type": "bytes"
        }
      ],
      "name": "ConceroMessageSent",
      "type": "event"
    },
    {
      "anonymous": false,
      "inputs": [
        {
          "indexed": true,
          "internalType": "address",
          "name": "operator",
          "type": "address"
        },
        {
          "indexed": false,
          "internalType": "uint256",
          "name": "amount",
          "type": "uint256"
        }
      ],
      "name": "OperatorFeeWithdrawn",
      "type": "event"
    },
    {
      "stateMutability": "payable",
      "type": "fallback"
    },
    {
      "inputs": [
        {
          "internalType": "uint256",
          "name": "config",
          "type": "uint256"
        },
        {
          "internalType": "bytes",
          "name": "dstChainData",
          "type": "bytes"
        },
        {
          "internalType": "bytes",
          "name": "message",
          "type": "bytes"
        }
      ],
      "name": "conceroSend",
      "outputs": [
        {
          "internalType": "bytes32",
          "name": "",
          "type": "bytes32"
        }
      ],
      "stateMutability": "payable",
      "type": "function"
    },
    {
      "inputs": [
        {
          "internalType": "address",
          "name": "operator",
          "type": "address"
        }
      ],
      "name": "getCohort",
      "outputs": [
        {
          "internalType": "uint8",
          "name": "",
          "type": "uint8"
        }
      ],
      "stateMutability": "view",
      "type": "function"
    },
    {
      "inputs": [
        {
          "internalType": "uint256",
          "name": "clientMessageConfig",
          "type": "uint256"
        },
        {
          "internalType": "bytes",
          "name": "dstChainData",
          "type": "bytes"
        }
      ],
      "name": "getMessageFeeNative",
      "outputs": [
        {
          "internalType": "uint256",
          "name": "",
          "type": "uint256"
        }
      ],
      "stateMutability": "view",
      "type": "function"
    },
    {
      "inputs": [
        {
          "internalType": "uint256",
          "name": "clientMessageConfig",
          "type": "uint256"
        },
        {
          "internalType": "bytes",
          "name": "dstChainData",
          "type": "bytes"
        }
      ],
      "name": "getMessageFeeUSDC",
      "outputs": [
        {
          "internalType": "uint256",
          "name": "",
          "type": "uint256"
        }
      ],
      "stateMutability": "view",
      "type": "function"
    },
    {
      "inputs": [
        {
          "internalType": "bytes32",
          "name": "namespace",
          "type": "bytes32"
        },
        {
          "internalType": "uint256",
          "name": "offset",
          "type": "uint256"
        },
        {
          "internalType": "bytes32",
          "name": "mappingKey",
          "type": "bytes32"
        }
      ],
      "name": "getStorage",
      "outputs": [
        {
          "internalType": "uint256",
          "name": "",
          "type": "uint256"
        }
      ],
      "stateMutability": "view",
      "type": "function"
    },
    {
      "inputs": [],
      "name": "getWithdrawableConceroFee",
      "outputs": [
        {
          "internalType": "uint256",
          "name": "",
          "type": "uint256"
        }
      ],
      "stateMutability": "view",
      "type": "function"
    },
    {
      "inputs": [],
      "name": "i_owner",
      "outputs": [
        {
          "internalType": "address",
          "name": "",
          "type": "address"
        }
      ],
      "stateMutability": "view",
      "type": "function"
    },
    {
      "inputs": [
        {
          "internalType": "uint24",
          "name": "chainSelector",
          "type": "uint24"
        }
      ],
      "name": "isChainSupported",
      "outputs": [
        {
          "internalType": "bool",
          "name": "",
          "type": "bool"
        }
      ],
      "stateMutability": "view",
      "type": "function"
    },
    {
      "inputs": [
        {
          "internalType": "uint24[]",
          "name": "dstChainSelectors",
          "type": "uint24[]"
        },
        {
          "internalType": "uint256[]",
          "name": "gasPrices",
          "type": "uint256[]"
        }
      ],
      "name": "setLastGasPrices",
      "outputs": [],
      "stateMutability": "nonpayable",
      "type": "function"
    },
    {
      "inputs": [
        {
          "internalType": "uint24[]",
          "name": "dstChainSelectors",
          "type": "uint24[]"
        },
        {
          "internalType": "uint256[]",
          "name": "rates",
          "type": "uint256[]"
        }
      ],
      "name": "setNativeNativeRates",
      "outputs": [],
      "stateMutability": "nonpayable",
      "type": "function"
    },
    {
      "inputs": [
        {
          "internalType": "uint256",
          "name": "amount",
          "type": "uint256"
        }
      ],
      "name": "setNativeUsdRate",
      "outputs": [],
      "stateMutability": "nonpayable",
      "type": "function"
    },
    {
      "inputs": [
        {
          "internalType": "bytes32",
          "name": "namespace",
          "type": "bytes32"
        },
        {
          "internalType": "uint256",
          "name": "offset",
          "type": "uint256"
        },
        {
          "internalType": "bytes32",
          "name": "mappingKey",
          "type": "bytes32"
        },
        {
          "internalType": "uint256",
          "name": "value",
          "type": "uint256"
        }
      ],
      "name": "setStorage",
      "outputs": [],
      "stateMutability": "nonpayable",
      "type": "function"
    },
    {
      "inputs": [
        {
          "internalType": "bytes32[]",
          "name": "namespaces",
          "type": "bytes32[]"
        },
        {
          "internalType": "uint256[]",
          "name": "offsets",
          "type": "uint256[]"
        },
        {
          "internalType": "bytes32[]",
          "name": "mappingKeys",
          "type": "bytes32[]"
        },
        {
          "internalType": "uint256[]",
          "name": "values",
          "type": "uint256[]"
        }
      ],
      "name": "setStorageBulk",
      "outputs": [],
      "stateMutability": "nonpayable",
      "type": "function"
    },
    {
      "inputs": [
        {
          "components": [
            {
              "internalType": "bytes32[3]",
              "name": "context",
              "type": "bytes32[3]"
            },
            {
              "internalType": "bytes",
              "name": "report",
              "type": "bytes"
            },
            {
              "internalType": "bytes32[]",
              "name": "rs",
              "type": "bytes32[]"
            },
            {
              "internalType": "bytes32[]",
              "name": "ss",
              "type": "bytes32[]"
            },
            {
              "internalType": "bytes",
              "name": "rawVs",
              "type": "bytes"
            }
          ],
          "internalType": "struct Types.ClfDonReportSubmission",
          "name": "reportSubmission",
          "type": "tuple"
        },
        {
          "internalType": "bytes",
          "name": "message",
          "type": "bytes"
        }
      ],
      "name": "submitMessageReport",
      "outputs": [],
      "stateMutability": "nonpayable",
      "type": "function"
    },
    {
      "inputs": [
        {
          "internalType": "address[]",
          "name": "tokens",
          "type": "address[]"
        },
        {
          "internalType": "uint256[]",
          "name": "amounts",
          "type": "uint256[]"
        }
      ],
      "name": "withdrawConceroFees",
      "outputs": [],
      "stateMutability": "nonpayable",
      "type": "function"
    },
    {
      "inputs": [
        {
          "internalType": "uint256",
          "name": "amount",
          "type": "uint256"
        }
      ],
      "name": "withdrawOperatorFee",
      "outputs": [
        {
          "internalType": "bool",
          "name": "success",
          "type": "bool"
        }
      ],
      "stateMutability": "nonpayable",
      "type": "function"
    },
    {
      "stateMutability": "payable",
      "type": "receive"
    }
  ],
  "bytecode": "0x6101a0604052346101b8576040516125043881900390601f8201601f19168301906001600160401b038211848310176101bd5782916040528339810190610100818303126101b85780519062ffffff821682036101b857610062602082016101d3565b61006e604083016101d3565b6060830151949093906001600160401b03861686036101b85780609f850112156101b85760405193608085016001600160401b038111868210176101bd57604052849061010081019283116101b857608001905b8282106101a0575050336080525060a05260c05280516001600160a01b0390811660e0526020820151811661010052604080830151821661012052606090920151166101405261016091909152610180919091525161231c90816101e88239608051818181610466015281816106500152818161090201528181610b6601528181610cff01528181610d480152611182015260a05181610853015260c05181505060e0518161206c01526101005181612114015261012051816120e1015261014051816120b101526101605181611a6801526101805181611aa70152f35b602080916101ad846101d3565b8152019101906100c2565b600080fd5b634e487b7160e01b600052604160045260246000fd5b51906001600160a01b03821682036101b85756fe60806040526004361015610010575b005b60003560e01c80631feb291f1461011057806327e5f4421461010b5780633ae569511461010657806348fd88ab146101015780634f27b459146100fc5780635a8733b3146100f75780636446cb2f146100f25780639a5d5ca9146100ed578063a73bc9c7146100e8578063a8978059146100e3578063b8b16485146100de578063b91443e7146100d9578063d1053131146100d4578063dba6335f146100cf578063e716afde146100ca5763e92043630361000e57610d81565b610d2e565b610ce9565b610cce565b610c36565b610b51565b610b2a565b610953565b6108d8565b61076e565b6105fd565b61058f565b610451565b610257565b610222565b3461020d57602036600319011261020d576004356101436065610131611287565b33600090815291016020526040902090565b5461014f821515610db8565b61015d818381811115610dd0565b8181039081116102085761018d336065610175611287565b019060018060a01b0316600052602052604060002090565b55610196611287565b908154818103908111610208576102049255600080808084335af1906101ba610e06565b506101c482610e36565b60405190815233907fc43e057480321c0f9aec5029e2f42bb82383abd09bc79fd2fbcb50c50717357290602090a260405190151581529081906020820190565b0390f35b610df0565b600080fd5b359062ffffff8216820361020d57565b3461020d57602036600319011261020d5760043562ffffff8116810361020d5761024d602091611ea9565b6040519015158152f35b3461020d57606036600319011261020d57602060243560443560043561027c81611369565b811561029a576040805192835292018382015220545b604051908152f35b90500154610292565b634e487b7160e01b600052604160045260246000fd5b604081019081106001600160401b038211176102d457604052565b6102a3565b60a081019081106001600160401b038211176102d457604052565b90601f801991011681019081106001600160401b038211176102d457604052565b60405190610325610160836102f4565b565b6040519061032560c0836102f4565b6001600160401b0381116102d45760051b60200190565b9080601f8301121561020d57813561036481610336565b9261037260405194856102f4565b81845260208085019260051b82010192831161020d57602001905b82821061039a5750505090565b813581526020918201910161038d565b90604060031983011261020d576004356001600160401b03811161020d578260238201121561020d578060040135906103e282610336565b916103f060405193846102f4565b8083526024602084019160051b8301019185831161020d57602401905b8282106104395750505091602435906001600160401b03821161020d576104369160040161034d565b90565b6020809161044684610212565b81520191019061040d565b3461020d5761045f366103aa565b90610494337f00000000000000000000000000000000000000000000000000000000000000006001600160a01b031614610e4e565b6104a18151835114610e66565b60005b815181101561000e57806104ba60019285610ea6565b516104ec60656104c861132f565b0162ffffff6104d78588610ea6565b511662ffffff16600052602052604060002090565b55016104a4565b6001600160401b0381116102d457601f01601f191660200190565b92919261051a826104f3565b9161052860405193846102f4565b82948184528183011161020d578281602093846000960137010152565b9080601f8301121561020d578160206104369335910161050e565b90604060031983011261020d5760043591602435906001600160401b03821161020d5761043691600401610545565b3461020d5760206102926105a236610560565b60ff82608f1c16916105b383610eba565b6105bc83610eba565b6105c860018414610eda565b611402565b9181601f8401121561020d578235916001600160401b03831161020d576020808501948460051b01011161020d57565b3461020d57604036600319011261020d576004356001600160401b03811161020d5761062d9036906004016105cd565b6024356001600160401b03811161020d5761064c9036906004016105cd565b92907f0000000000000000000000000000000000000000000000000000000000000000610683336001600160a01b03831614610e4e565b84841480610738575b61069590610e66565b600061069f611271565b9360005b8681106106ac57005b6106bf6106ba828985610ee1565b610ef1565b92846106cc838b89610ee1565b35946106d9861515610db8565b6001600160a01b0316806107245750509061071e60008080806106fe89600198610f25565b9861070d8d8b81811115610dd0565b8a5af1610718610e06565b50610e36565b016106a3565b946107339160019493966114b2565b61071e565b5083151561068c565b9181601f8401121561020d578235916001600160401b03831161020d576020838186019501011161020d57565b606036600319011261020d576004356024356001600160401b03811161020d5761079c903690600401610741565b916044356001600160401b03811161020d576107bc903690600401610741565b90916107c936868661050e565b6107e460ff83608f1c1680926107de82610eba565b84611402565b906107ee81610eba565b6108c757600080808361080682953481341015610dd0565b8181156108be575b3090f1156108b957610204946108a6946108787f25774c5108eddfe916372a8b6374469cec440270809f2a6bb189485846218dd69361084b6112f5565b5490868886867f00000000000000000000000000000000000000000000000000000000000000009461154f565b948197919661088687611624565b61088e6112f5565b6108988154610efb565b905560405194859485610f53565b0390a36040519081529081906020820190565b611543565b506108fc61080e565b63049f464b60e41b60005260046000fd5b3461020d57608036600319011261020d576064356024356044356004356109296001600160a01b037f0000000000000000000000000000000000000000000000000000000000000000163314610e4e565b61093281611369565b811561094a5760408051928352920160208201522055005b90500155600080f35b3461020d57604036600319011261020d576004356001600160401b03811161020d578060040160e0600319833603011261020d576024356001600160401b03811161020d576109fe60206064936109d06109ca6109c46109ba610a04973690600401610741565b9890990184610f7a565b906116df565b916118b7565b6109f76109f26109e36060840151610e94565b5184808251830101910161101d565b611a56565b0151610e94565b51611bcb565b90610a256060830151610a1836848761050e565b60208151910120146110e8565b6066610a2f6112f5565b0192610a65610a5d610a59610a5260408701978851600052602052604060002090565b5460ff1690565b1590565b855190611100565b60a08301936000805b86518051821015610b0257610aa5610a99610a93610a8d853395610ea6565b5161111c565b60601c90565b6001600160a01b031690565b14610ab257600101610a6e565b505061000e9450906080610afc92610aca6001611162565b5194857ff67870b75d64e9a5f00100af39eb94911d9399b05f9df6d6db0cafc61128d5a4600080a2015192369161050e565b91611d81565b505061000e9550610afc9291610aca608092611162565b6001600160a01b0381160361020d57565b3461020d57602036600319011261020d57610b46600435610b19565b602060405160008152f35b3461020d57610b5f366103aa565b90610b94337f00000000000000000000000000000000000000000000000000000000000000006001600160a01b031614610e4e565b610ba18151835114610e66565b60005b815181101561000e5780610bba60019285610ea6565b51610bc860666104c861132f565b5501610ba4565b929190610bdb81610336565b93610be960405195866102f4565b602085838152019160051b810192831161020d57905b828210610c0b57505050565b8135815260209182019101610bff565b9080601f8301121561020d5781602061043693359101610bcf565b3461020d57608036600319011261020d576004356001600160401b03811161020d57610c66903690600401610c1b565b6024356001600160401b03811161020d57610c8590369060040161034d565b906044356001600160401b03811161020d57610ca5903690600401610c1b565b606435926001600160401b03841161020d57610cc861000e94369060040161034d565b9261117a565b3461020d57600036600319011261020d576020610292611271565b3461020d57600036600319011261020d576040517f00000000000000000000000000000000000000000000000000000000000000006001600160a01b03168152602090f35b3461020d57602036600319011261020d57600435610d76337f00000000000000000000000000000000000000000000000000000000000000006001600160a01b031614610e4e565b610d7e61132f565b55005b3461020d576020610292610d9436610560565b60ff82608f1c1691610da583610eba565b610dae83610eba565b6105c88315610eda565b15610dbf57565b63162908e360e11b60005260046000fd5b15610dd9575050565b63a458261b60e01b60005260045260245260446000fd5b634e487b7160e01b600052601160045260246000fd5b3d15610e31573d90610e17826104f3565b91610e2560405193846102f4565b82523d6000602084013e565b606090565b15610e3d57565b6312171d8360e31b60005260046000fd5b15610e5557565b6330cd747160e01b60005260046000fd5b15610e6d57565b631fec674760e31b60005260046000fd5b634e487b7160e01b600052603260045260246000fd5b805115610ea15760200190565b610e7e565b8051821015610ea15760209160051b010190565b60021115610ec457565b634e487b7160e01b600052602160045260246000fd5b156108c757565b9190811015610ea15760051b0190565b3561043681610b19565b906001820180921161020857565b608401908160841161020857565b906020820180921161020857565b9190820180921161020857565b908060209392818452848401376000828201840152601f01601f1916010190565b9290610f6c906104369593604086526040860191610f32565b926020818503910152610f32565b903590601e198136030182121561020d57018035906001600160401b03821161020d5760200191813603831361020d57565b519061032582610b19565b51906bffffffffffffffffffffffff8216820361020d57565b51906001600160401b038216820361020d57565b519063ffffffff8216820361020d57565b519068ffffffffffffffffff8216820361020d57565b519064ffffffffff8216820361020d57565b908161016091031261020d576110df610140611037610315565b928051845261104860208201610fac565b602085015261105960408201610fb7565b604085015261106a60608201610fac565b606085015261107b60808201610fd0565b608085015261108c60a08201610fe4565b60a085015261109d60c08201610ff5565b60c08501526110ae60e08201610ff5565b60e08501526110c0610100820161100b565b6101008501526110d3610120820161100b565b61012085015201610fe4565b61014082015290565b156110ef57565b6398eac98f60e01b60005260046000fd5b156111085750565b63398560f160e11b60005260045260246000fd5b9060208251920151916bffffffffffffffffffffffff1983169260148210611142575050565b6bffffffffffffffffffffffff1960149290920360031b82901b16169150565b1561116957565b6326b9cdff60e11b60005260046000fd5b93916111b0337f00000000000000000000000000000000000000000000000000000000000000006001600160a01b031614610e4e565b60005b85518110156111d857806111d26111cc60019389610ea6565b51611369565b016111b3565b50909192845183518091149081611266575b508061125b575b6111fa90610e66565b60005b8551811015611253578060019160051b6020818901015190602081880101519060208082890101519187010151928160001461124a57604080519283529201602082015220555b016111fd565b90500155611244565b505050509050565b5081518151146111f1565b9050825114386111ea565b4761127a611287565b5481039081116102085790565b60405160208101907f636f6e6365726f726f757465722e6f70657261746f722e73746f7261676500008252601e81526112c1603e826102f4565b5190206000198101908111610208576040519060208201908152602082526112ea6040836102f4565b9051902060ff191690565b60405160208101907f636f6e6365726f726f757465722e726f757465722e73746f72616765000000008252601c81526112c1603c826102f4565b60405160208101907f636f6e6365726f726f757465722e7072696365666565642e73746f72616765008252601f81526112c1603f826102f4565b6113716112f5565b81149081156113ac575b811561139b575b501561138a57565b630a02739760e41b60005260046000fd5b90506113a561132f565b1438611382565b90506113b6611287565b81149061137b565b9081604091031261020d576020604051916113d8836102b9565b80516113e381610b19565b83520151602082015290565b8181029291811591840414171561020857565b91670de0b6b3a764000061147f62ffffff61142f61141e61132f565b5495602080825183010191016113be565b9560c01c1661147961147361144387611f8d565b97602061146985606561145461132f565b019062ffffff16600052602052604060002090565b54910151906113ef565b91611fdb565b906113ef565b0483018093116102085761149281610eba565b156114ae576114aa90670de0b6b3a7640000926113ef565b0490565b5090565b60405163a9059cbb60e01b60208281019182526001600160a01b03909416602483015260448083019590955293815290926000916114f16064826102f4565b519082855af115611543576000513d61153a57506001600160a01b0381163b155b6115195750565b635274afe760e01b60009081526001600160a01b0391909116600452602490fd5b60011415611512565b6040513d6000823e3d90fd5b96959493925050611560838761221b565b1561161357620f42401115611602576040519061157c826102b9565b3382526020820194438652611591828261221b565b94519151604080516020810195865290810193909352606090811b6bffffffffffffffffffffffff19169083015262ffffff60c01b60c082901b16607483015260e01b62ffffff60e01b16909317600160f81b17607c8085018290528452926115fb609c826102f4565b5190209190565b636ceaf82160e01b60005260046000fd5b6301bc6ebd60e31b60005260046000fd5b60008091604051602081019163f82c50f160e01b835260248201526024815261164e6044826102f4565b51906a636f6e736f6c652e6c6f675afa50565b9080601f8301121561020d57813561167881610336565b9261168660405194856102f4565b81845260208085019260051b8201019183831161020d5760208201905b8382106116b257505050505090565b81356001600160401b03811161020d576020916116d487848094880101610545565b8152019101906116a3565b604051916116ec836102d9565b606083526020830160608152604084019260608452606085019360608552608086019360608552820160a08382031261020d5782356001600160401b03811161020d578161173b918501610c1b565b9560208401356001600160401b03811161020d578261175b918601611661565b9560408501356001600160401b03811161020d578361177b918701611661565b9460608101356001600160401b03811161020d578461179b918301611661565b9360808201356001600160401b03811161020d576117b99201611661565b9052525252815290565b903590601e198136030182121561020d57018035906001600160401b03821161020d57602001918160051b3603831361020d57565b156117ff57565b6301227b8d60e11b60005260046000fd5b9061181a82610336565b61182760405191826102f4565b8281528092611838601f1991610336565b0190602036910137565b908151811015610ea1570160200190565b60ff601b9116019060ff821161020857565b1561186d5750565b63e74c68bb60e01b60009081526001600160a01b0391909116600452602490fd5b156118965750565b630e256b9960e21b60009081526001600160a01b0391909116600452602490fd5b906118cf6118c86060840184610f7a565b908461201f565b6118e66118df60808501856117c3565b3691610bcf565b9061190f6119086118fd6118df60a08801886117c3565b9560c0810190610f7a565b369161050e565b936119268351825181149081611a4b575b506117f8565b6119308351611810565b9460005b8451811015611a42576020600061196d6119686119626119548688611842565b516001600160f81b03191690565b60f81c90565b611853565b6119778489610ea6565b51906119ae6119868689610ea6565b516040519384938b859094939260ff6060936080840197845216602083015260408201520152565b838052039060015afa156108b9576000516119d1816119cc8161205b565b611865565b6001600160a01b03811660005b89848210611a1057611a0a9250846001959492506119fb91610ea6565b6001600160a01b039091169052565b01611934565b90611a3c8484611a35610a99611a2886600198610ea6565b516001600160a01b031690565b141561188e565b016119de565b50505050509050565b600391501438611920565b60608101516001600160a01b039081167f000000000000000000000000000000000000000000000000000000000000000090911603611adf5760806001600160401b03910151166001600160401b037f00000000000000000000000000000000000000000000000000000000000000001603611ace57565b63091e4cf160e31b60005260046000fd5b632b6971c560e21b60005260046000fd5b6040519060c082018281106001600160401b038211176102d457604052606060a0836000815260006020820152600060408201526000838201528260808201520152565b60408051909190611b4583826102f4565b60208152918290601f190190369060200137565b90611b63826104f3565b611b7060405191826102f4565b8281528092611838601f19916104f3565b90611b8b82610336565b611b9860405191826102f4565b8281528092611ba9601f1991610336565b019060005b828110611bba57505050565b806060602080938501015201611bae565b611bd3611af0565b5060009060208101519060408101519360608201519260808301519460a084015160e01c611c0081611b59565b91805b828110611cef575050611c1590610f09565b9560026020888701015160f01c970194611c2e88611810565b956000905b8961ffff831610611cc757505050611c4a87611b81565b9560005b61ffff811689811015611c965761ffff91611c8e828a611c876001958e6020611c75611b34565b948860051b0101516020850152610ea6565b528b610ea6565b500116611c4e565b50509296509296909350611ca8610327565b958652602086015260408501526060840152608083015260a082015290565b6001611ce682602061ffff948701015160208660051b8d010152610f17565b92011690611c33565b80611d07611954611d01600194610f09565b8a611842565b831a611d138287611842565b5301611c03565b15611d2157565b631e4ec46b60e01b60005260046000fd5b90929192815260406020820152825180604083015260005b818110611d6b575060609293506000838284010152601f8019910116010190565b8060208092870101516060828601015201611d4a565b91611e1890611e26611d9f611e3d94602080825183010191016113be565b91611dce611dc1876066611db16112f5565b0190600052602052604060002090565b805460ff19166001179055565b8251611de4906001600160a01b03161515611d1a565b8251611dfb906001600160a01b03163b1515611d1a565b604051635ca46be560e01b60208201529384918760248401611d32565b03601f1981018452836102f4565b80516020906001600160a01b03169101519061214b565b5015611e9557611e54611e4e61132f565b54611f8d565b611e6c611e646065610131611287565b918254610f25565b90557fb3f2643376154cdcc78e83cff26c3fcacf4a35a6e0107d90817d80973fa4d860600080a2565b630c3d362160e21b60005260045260246000fd5b62ffffff16600181148015611f83575b8015611f79575b8015611f6e575b8015611f63575b8015611f58575b611f525762aa36a78114908115611f45575b8115611f38575b8115611f2b575b8115611f1e575b8115611f12575b50611f0d57600090565b600190565b61a86991501438611f03565b62066eee81149150611efc565b62014a3481149150611ef5565b6201388281149150611eee565b62aa37dc81149150611ee7565b50600190565b5061a86a8114611ed5565b5061a4b18114611ece565b506121058114611ec7565b5060898114611ec0565b50600a8114611eb9565b60008115611fc7575060008115611fb357506e01ed09bead87c0378d8e64000000000490565b634e487b7160e01b81526012600452602490fd5b63c6af252960e01b81526004819052602490fd5b62ffffff811660898114908115612012575b50156120055761200190606661145461132f565b5490565b50670de0b6b3a764000090565b6201388291501438611fed565b919061202c91369161050e565b60208151910120906060604051916020830193845260408301376080815261205560a0826102f4565b51902090565b6001600160a01b03168015612145577f00000000000000000000000000000000000000000000000000000000000000006001600160a01b03168114908115612112575b81156120df575b81156120af575090565b7f00000000000000000000000000000000000000000000000000000000000000006001600160a01b031614919050565b7f00000000000000000000000000000000000000000000000000000000000000006001600160a01b0316811491506120a5565b7f00000000000000000000000000000000000000000000000000000000000000006001600160a01b03168114915061209e565b50600090565b92919060009182918261215f610100611b59565b9660208451940192f13d6101008111612181575b8084526000602085013e9190565b50610100612173565b1561219157565b6323d54c2f60e01b600052600760045260246000fd5b156121ae57565b6323d54c2f60e01b600052600060045260246000fd5b156121cb57565b6323d54c2f60e01b600052600160045260246000fd5b156121e857565b6323d54c2f60e01b600052600260045260246000fd5b1561220557565b6323d54c2f60e01b600052600360045260246000fd5b610325915060ff80916122c6828061223e6122368560c01c90565b62ffffff1690565b936122be61ffff6122596122528460b01c90565b61ffff1690565b6122ad8261226a6122528760a01c90565b9261229c61229761229161228461228a6122848c60981c90565b60ff1690565b9a608f1c90565b9c611ea9565b61218a565b1680151590816122da575b506121a7565b1680151590816122ce575b506121c4565b1611156121e1565b1611156121fe565b905060641015386122b8565b905060641015386122a756fea2646970667358221220b8aa788ab6979fba22a4f3e0bcc33ada7c6a9fde2016b99b92a574174642a2b264736f6c634300081c0033",
  "linkReferences": {},
  "deployedLinkReferences": {}
}