{
  "_format": "hh-sol-artifact-1",
  "contractName": "ConceroVerifier",
  "sourceName": "contracts/ConceroVerifier/ConceroVerifier.sol",
  "abi": [
    {
      "inputs": [
        {
          "internalType": "uint24",
          "name": "chainSelector",
          "type": "uint24"
        },
        {
          "internalType": "address",
          "name": "USDC",
          "type": "address"
        },
        {
          "components": [
            {
              "internalType": "address",
              "name": "router",
              "type": "address"
            },
            {
              "internalType": "bytes32",
              "name": "donId",
              "type": "bytes32"
            },
            {
              "internalType": "uint64",
              "name": "subscriptionId",
              "type": "uint64"
            },
            {
              "internalType": "uint64",
              "name": "donHostedSecretsVersion",
              "type": "uint64"
            },
            {
              "internalType": "uint8",
              "name": "donHostedSecretsSlotId",
              "type": "uint8"
            },
            {
              "internalType": "uint16",
              "name": "premiumFeeUsdBps",
              "type": "uint16"
            },
            {
              "internalType": "uint32",
              "name": "callbackGasLimit",
              "type": "uint32"
            },
            {
              "internalType": "bytes32",
              "name": "requestCLFMessageReportJsCodeHash",
              "type": "bytes32"
            },
            {
              "internalType": "bytes32",
              "name": "requestOperatorRegistrationJsCodeHash",
              "type": "bytes32"
            }
          ],
          "internalType": "struct CLFParams",
          "name": "clfParams",
          "type": "tuple"
        }
      ],
      "stateMutability": "nonpayable",
      "type": "constructor"
    },
    {
      "inputs": [],
      "name": "EmptyArgs",
      "type": "error"
    },
    {
      "inputs": [],
      "name": "EmptySource",
      "type": "error"
    },
    {
      "inputs": [
        {
          "internalType": "uint256",
          "name": "requiredAmount",
          "type": "uint256"
        },
        {
          "internalType": "uint256",
          "name": "availableAmount",
          "type": "uint256"
        }
      ],
      "name": "InsufficientFee",
      "type": "error"
    },
    {
      "inputs": [
        {
          "internalType": "uint256",
          "name": "provided",
          "type": "uint256"
        },
        {
          "internalType": "uint256",
          "name": "required",
          "type": "uint256"
        }
      ],
      "name": "InsufficientFee",
      "type": "error"
    },
    {
      "inputs": [
        {
          "internalType": "uint256",
          "name": "provided",
          "type": "uint256"
        },
        {
          "internalType": "uint256",
          "name": "required",
          "type": "uint256"
        }
      ],
      "name": "InsufficientOperatorDeposit",
      "type": "error"
    },
    {
      "inputs": [],
      "name": "InvalidAddress",
      "type": "error"
    },
    {
      "inputs": [],
      "name": "InvalidAmount",
      "type": "error"
    },
    {
      "inputs": [],
      "name": "InvalidMessageVersion",
      "type": "error"
    },
    {
      "inputs": [],
      "name": "InvalidNamespace",
      "type": "error"
    },
    {
      "inputs": [],
      "name": "LengthMismatch",
      "type": "error"
    },
    {
      "inputs": [],
      "name": "MessageAlreadyProcessed",
      "type": "error"
    },
    {
      "inputs": [],
      "name": "NoInlineSecrets",
      "type": "error"
    },
    {
      "inputs": [],
      "name": "OnlyRouterCanFulfill",
      "type": "error"
    },
    {
      "inputs": [],
      "name": "OperatorAddressMismatch",
      "type": "error"
    },
    {
      "inputs": [],
      "name": "OperatorAlreadyRegistered",
      "type": "error"
    },
    {
      "inputs": [],
      "name": "OperatorNotRegistered",
      "type": "error"
    },
    {
      "inputs": [
        {
          "internalType": "enum CommonErrors.RequiredVariableUnsetType",
          "name": "variableType",
          "type": "uint8"
        }
      ],
      "name": "RequiredVariableUnset",
      "type": "error"
    },
    {
      "inputs": [
        {
          "internalType": "address",
          "name": "token",
          "type": "address"
        }
      ],
      "name": "SafeERC20FailedOperation",
      "type": "error"
    },
    {
      "inputs": [],
      "name": "TransferFailed",
      "type": "error"
    },
    {
      "inputs": [],
      "name": "TransferFailed",
      "type": "error"
    },
    {
      "inputs": [],
      "name": "Unauthorized",
      "type": "error"
    },
    {
      "inputs": [],
      "name": "UnauthorizedOperator",
      "type": "error"
    },
    {
      "inputs": [],
      "name": "WrongClfResultType",
      "type": "error"
    },
    {
      "anonymous": false,
      "inputs": [
        {
          "indexed": false,
          "internalType": "bytes",
          "name": "err",
          "type": "bytes"
        }
      ],
      "name": "CLFRequestError",
      "type": "event"
    },
    {
      "anonymous": false,
      "inputs": [
        {
          "indexed": true,
          "internalType": "bytes32",
          "name": "messageId",
          "type": "bytes32"
        }
      ],
      "name": "MessageReport",
      "type": "event"
    },
    {
      "anonymous": false,
      "inputs": [
        {
          "indexed": true,
          "internalType": "bytes32",
          "name": "messageId",
          "type": "bytes32"
        }
      ],
      "name": "MessageReportRequested",
      "type": "event"
    },
    {
      "anonymous": false,
      "inputs": [
        {
          "indexed": true,
          "internalType": "address",
          "name": "operator",
          "type": "address"
        },
        {
          "indexed": false,
          "internalType": "uint256",
          "name": "amount",
          "type": "uint256"
        }
      ],
      "name": "OperatorDepositWithdrawn",
      "type": "event"
    },
    {
      "anonymous": false,
      "inputs": [
        {
          "indexed": true,
          "internalType": "address",
          "name": "operator",
          "type": "address"
        },
        {
          "indexed": false,
          "internalType": "uint256",
          "name": "amount",
          "type": "uint256"
        }
      ],
      "name": "OperatorDeposited",
      "type": "event"
    },
    {
      "anonymous": false,
      "inputs": [
        {
          "indexed": true,
          "internalType": "address",
          "name": "operator",
          "type": "address"
        },
        {
          "indexed": false,
          "internalType": "uint256",
          "name": "amount",
          "type": "uint256"
        }
      ],
      "name": "OperatorFeeWithdrawn",
      "type": "event"
    },
    {
      "anonymous": false,
      "inputs": [
        {
          "indexed": true,
          "internalType": "address",
          "name": "operator",
          "type": "address"
        },
        {
          "indexed": false,
          "internalType": "enum CommonTypes.ChainType[]",
          "name": "chainTypes",
          "type": "uint8[]"
        },
        {
          "indexed": false,
          "internalType": "enum Types.OperatorRegistrationAction[]",
          "name": "operatorActions",
          "type": "uint8[]"
        }
      ],
      "name": "OperatorRegistered",
      "type": "event"
    },
    {
      "anonymous": false,
      "inputs": [
        {
          "indexed": true,
          "internalType": "address",
          "name": "requester",
          "type": "address"
        },
        {
          "indexed": false,
          "internalType": "enum CommonTypes.ChainType[]",
          "name": "chainTypes",
          "type": "uint8[]"
        },
        {
          "indexed": false,
          "internalType": "enum Types.OperatorRegistrationAction[]",
          "name": "operatorActions",
          "type": "uint8[]"
        },
        {
          "indexed": false,
          "internalType": "bytes[]",
          "name": "operatorAddresses",
          "type": "bytes[]"
        }
      ],
      "name": "OperatorRegistrationRequested",
      "type": "event"
    },
    {
      "anonymous": false,
      "inputs": [
        {
          "indexed": true,
          "internalType": "bytes32",
          "name": "id",
          "type": "bytes32"
        }
      ],
      "name": "RequestFulfilled",
      "type": "event"
    },
    {
      "anonymous": false,
      "inputs": [
        {
          "indexed": true,
          "internalType": "bytes32",
          "name": "id",
          "type": "bytes32"
        }
      ],
      "name": "RequestSent",
      "type": "event"
    },
    {
      "stateMutability": "payable",
      "type": "fallback"
    },
    {
      "inputs": [],
      "name": "getCLFCost",
      "outputs": [
        {
          "internalType": "uint256",
          "name": "",
          "type": "uint256"
        }
      ],
      "stateMutability": "view",
      "type": "function"
    },
    {
      "inputs": [],
      "name": "getCohortsCount",
      "outputs": [
        {
          "internalType": "uint8",
          "name": "",
          "type": "uint8"
        }
      ],
      "stateMutability": "pure",
      "type": "function"
    },
    {
      "inputs": [],
      "name": "getMinimumOperatorDeposit",
      "outputs": [
        {
          "internalType": "uint256",
          "name": "",
          "type": "uint256"
        }
      ],
      "stateMutability": "view",
      "type": "function"
    },
    {
      "inputs": [
        {
          "internalType": "address",
          "name": "operator",
          "type": "address"
        }
      ],
      "name": "getOperatorDeposit",
      "outputs": [
        {
          "internalType": "uint256",
          "name": "",
          "type": "uint256"
        }
      ],
      "stateMutability": "view",
      "type": "function"
    },
    {
      "inputs": [
        {
          "internalType": "address",
          "name": "operator",
          "type": "address"
        }
      ],
      "name": "getOperatorFeesEarned",
      "outputs": [
        {
          "internalType": "uint256",
          "name": "",
          "type": "uint256"
        }
      ],
      "stateMutability": "view",
      "type": "function"
    },
    {
      "inputs": [
        {
          "internalType": "enum CommonTypes.ChainType",
          "name": "chainType",
          "type": "uint8"
        }
      ],
      "name": "getRegisteredOperators",
      "outputs": [
        {
          "internalType": "bytes[]",
          "name": "",
          "type": "bytes[]"
        }
      ],
      "stateMutability": "view",
      "type": "function"
    },
    {
      "inputs": [
        {
          "internalType": "bytes32",
          "name": "namespace",
          "type": "bytes32"
        },
        {
          "internalType": "uint256",
          "name": "offset",
          "type": "uint256"
        },
        {
          "internalType": "bytes32",
          "name": "mappingKey",
          "type": "bytes32"
        }
      ],
      "name": "getStorage",
      "outputs": [
        {
          "internalType": "uint256",
          "name": "",
          "type": "uint256"
        }
      ],
      "stateMutability": "view",
      "type": "function"
    },
    {
      "inputs": [],
      "name": "getWithdrawableConceroFee",
      "outputs": [
        {
          "internalType": "uint256",
          "name": "availableFees",
          "type": "uint256"
        }
      ],
      "stateMutability": "view",
      "type": "function"
    },
    {
      "inputs": [
        {
          "internalType": "bytes32",
          "name": "requestId",
          "type": "bytes32"
        },
        {
          "internalType": "bytes",
          "name": "response",
          "type": "bytes"
        },
        {
          "internalType": "bytes",
          "name": "err",
          "type": "bytes"
        }
      ],
      "name": "handleOracleFulfillment",
      "outputs": [],
      "stateMutability": "nonpayable",
      "type": "function"
    },
    {
      "inputs": [],
      "name": "i_owner",
      "outputs": [
        {
          "internalType": "address",
          "name": "",
          "type": "address"
        }
      ],
      "stateMutability": "view",
      "type": "function"
    },
    {
      "inputs": [
        {
          "internalType": "uint24",
          "name": "chainSelector",
          "type": "uint24"
        }
      ],
      "name": "isChainSupported",
      "outputs": [
        {
          "internalType": "bool",
          "name": "",
          "type": "bool"
        }
      ],
      "stateMutability": "view",
      "type": "function"
    },
    {
      "inputs": [
        {
          "internalType": "address",
          "name": "operator",
          "type": "address"
        }
      ],
      "name": "isOperatorRegistered",
      "outputs": [
        {
          "internalType": "bool",
          "name": "",
          "type": "bool"
        }
      ],
      "stateMutability": "view",
      "type": "function"
    },
    {
      "inputs": [
        {
          "internalType": "address",
          "name": "operator",
          "type": "address"
        }
      ],
      "name": "operatorDeposit",
      "outputs": [],
      "stateMutability": "payable",
      "type": "function"
    },
    {
      "inputs": [
        {
          "internalType": "bytes32",
          "name": "messageId",
          "type": "bytes32"
        },
        {
          "internalType": "bytes32",
          "name": "messageHashSum",
          "type": "bytes32"
        },
        {
          "internalType": "uint24",
          "name": "srcChainSelector",
          "type": "uint24"
        },
        {
          "internalType": "bytes",
          "name": "srcChainData",
          "type": "bytes"
        }
      ],
      "name": "requestMessageReport",
      "outputs": [
        {
          "internalType": "bytes32",
          "name": "",
          "type": "bytes32"
        }
      ],
      "stateMutability": "nonpayable",
      "type": "function"
    },
    {
      "inputs": [
        {
          "internalType": "enum CommonTypes.ChainType[]",
          "name": "chainTypes",
          "type": "uint8[]"
        },
        {
          "internalType": "enum Types.OperatorRegistrationAction[]",
          "name": "operatorActions",
          "type": "uint8[]"
        },
        {
          "internalType": "bytes[]",
          "name": "operatorAddresses",
          "type": "bytes[]"
        }
      ],
      "name": "requestOperatorRegistration",
      "outputs": [
        {
          "internalType": "bytes32",
          "name": "clfRequestId",
          "type": "bytes32"
        }
      ],
      "stateMutability": "nonpayable",
      "type": "function"
    },
    {
      "inputs": [
        {
          "internalType": "uint256",
          "name": "amount",
          "type": "uint256"
        }
      ],
      "name": "setNativeUsdRate",
      "outputs": [],
      "stateMutability": "nonpayable",
      "type": "function"
    },
    {
      "inputs": [
        {
          "internalType": "bytes32",
          "name": "namespace",
          "type": "bytes32"
        },
        {
          "internalType": "uint256",
          "name": "offset",
          "type": "uint256"
        },
        {
          "internalType": "bytes32",
          "name": "mappingKey",
          "type": "bytes32"
        },
        {
          "internalType": "uint256",
          "name": "value",
          "type": "uint256"
        }
      ],
      "name": "setStorage",
      "outputs": [],
      "stateMutability": "nonpayable",
      "type": "function"
    },
    {
      "inputs": [
        {
          "internalType": "bytes32[]",
          "name": "namespaces",
          "type": "bytes32[]"
        },
        {
          "internalType": "uint256[]",
          "name": "offsets",
          "type": "uint256[]"
        },
        {
          "internalType": "bytes32[]",
          "name": "mappingKeys",
          "type": "bytes32[]"
        },
        {
          "internalType": "uint256[]",
          "name": "values",
          "type": "uint256[]"
        }
      ],
      "name": "setStorageBulk",
      "outputs": [],
      "stateMutability": "nonpayable",
      "type": "function"
    },
    {
      "inputs": [
        {
          "internalType": "uint24[]",
          "name": "chainSelectors",
          "type": "uint24[]"
        },
        {
          "internalType": "bool[]",
          "name": "isSupported",
          "type": "bool[]"
        }
      ],
      "name": "setSupportedChains",
      "outputs": [],
      "stateMutability": "nonpayable",
      "type": "function"
    },
    {
      "inputs": [
        {
          "internalType": "address[]",
          "name": "tokens",
          "type": "address[]"
        },
        {
          "internalType": "uint256[]",
          "name": "amounts",
          "type": "uint256[]"
        }
      ],
      "name": "withdrawConceroFees",
      "outputs": [],
      "stateMutability": "nonpayable",
      "type": "function"
    },
    {
      "inputs": [
        {
          "internalType": "uint256",
          "name": "amount",
          "type": "uint256"
        }
      ],
      "name": "withdrawOperatorDeposit",
      "outputs": [
        {
          "internalType": "bool",
          "name": "success",
          "type": "bool"
        }
      ],
      "stateMutability": "nonpayable",
      "type": "function"
    },
    {
      "inputs": [
        {
          "internalType": "uint256",
          "name": "amount",
          "type": "uint256"
        }
      ],
      "name": "withdrawOperatorFee",
      "outputs": [
        {
          "internalType": "bool",
          "name": "success",
          "type": "bool"
        }
      ],
      "stateMutability": "nonpayable",
      "type": "function"
    },
    {
      "stateMutability": "payable",
      "type": "receive"
    }
  ],
  "bytecode": "0x61020060405234801561001157600080fd5b5060405161436b38038061436b8339810160408190526100309161016a565b805160208201516040830151606084015160808086015160a08088015160c0808a015160e0808c01516101009c8d01516001600160a01b039c8d169098523390955262ffffff909d1690915297909916909952610140949094526001600160401b039283166101605291166101805260ff9091166101e05261ffff9093166101a05263ffffffff166101c052919091526101205261024e565b80516001600160a01b03811681146100e057600080fd5b919050565b60405161012081016001600160401b038111828210171561011657634e487b7160e01b600052604160045260246000fd5b60405290565b80516001600160401b03811681146100e057600080fd5b805160ff811681146100e057600080fd5b805161ffff811681146100e057600080fd5b805163ffffffff811681146100e057600080fd5b600080600083850361016081121561018157600080fd5b845162ffffff8116811461019457600080fd5b93506101a2602086016100c9565b9250610120603f19820112156101b757600080fd5b506101c06100e5565b6101cc604086016100c9565b8152606085015160208201526101e46080860161011c565b60408201526101f560a0860161011c565b606082015261020660c08601610133565b608082015261021760e08601610144565b60a08201526102296101008601610156565b60c082015261012085015160e082015261014090940151610100850152509093909250565b60805160a05160c05160e05161010051610120516101405161016051610180516101a0516101c0516101e05161405d61030e600039600050506000610d1001526000610d3e0152600050506000612064015260006120890152600061196b015260006117070152600050506000610cac01526000818161039e015281816108420152818161097a01528181610a1f01528181610d8a01528181610dfc01528181610fd601526111100152600081816104230152612548015261405d6000f3fe60806040526004361061012c5760003560e01c80639544ea44116100a5578063cc7668821161006c578063cc76688214610337578063cea34c9a14610357578063d105313114610377578063dba6335f1461038c578063e716afde146103d8578063fbfbdff8146103f857005b80639544ea44146102ad5780639a5d5ca9146102c2578063a96fdd99146102e2578063b91443e7146102f7578063c34f38c51461031757005b80633ae56951116100f45780633ae56951146101f15780635a8733b3146102115780636b1906f8146102315780636ea101ab146102515780638e3438f51461026457806390239ec71461028057005b80630ca761751461012e5780631feb291f1461014e57806327e5f442146101835780632a65d9ab146101a357806331d49194146101d1575b005b34801561013a57600080fd5b5061012c610149366004612d7d565b610418565b34801561015a57600080fd5b5061016e610169366004612ded565b61049c565b60405190151581526020015b60405180910390f35b34801561018f57600080fd5b5061016e61019e366004612e17565b610636565b3480156101af57600080fd5b506101c36101be366004612e49565b610661565b60405190815260200161017a565b3480156101dd57600080fd5b5061016e6101ec366004612ded565b61068d565b3480156101fd57600080fd5b506101c361020c366004612e66565b610819565b34801561021d57600080fd5b5061012c61022c366004612ed6565b610837565b34801561023d57600080fd5b5061016e61024c366004612e49565b610a57565b61012c61025f366004612e49565b610a86565b34801561027057600080fd5b506040516001815260200161017a565b34801561028c57600080fd5b506102a061029b366004612f52565b610b84565b60405161017a9190612fbf565b3480156102b957600080fd5b506101c3610c9b565b3480156102ce57600080fd5b5061012c6102dd366004613024565b610d7f565b3480156102ee57600080fd5b506101c3610de2565b34801561030357600080fd5b5061012c6103123660046130e1565b610df1565b34801561032357600080fd5b506101c361033236600461319d565b610e7c565b34801561034357600080fd5b506101c36103523660046131f3565b610f36565b34801561036357600080fd5b5061012c610372366004612ed6565b610fcb565b34801561038357600080fd5b506101c36110da565b34801561039857600080fd5b506103c07f000000000000000000000000000000000000000000000000000000000000000081565b6040516001600160a01b03909116815260200161017a565b3480156103e457600080fd5b5061012c6103f3366004612ded565b611105565b34801561040457600080fd5b506101c3610413366004612e49565b61115a565b336001600160a01b037f000000000000000000000000000000000000000000000000000000000000000016146104615760405163c6829f8360e01b815260040160405180910390fd5b61046c838383611186565b60405183907f85e1543bf2f84fe80c6badbce3648c8539ad1df4d2b3d822938ca0538be727e690600090a2505050565b60006104a6611278565b336000908152606791909101602052604090205460ff166104da576040516326b9cdff60e11b815260040160405180910390fd5b60006104e4611278565b336000908152606a9190910160205260409020549050826105185760405163162908e360e11b815260040160405180910390fd5b8281808211156105495760405163a458261b60e01b8152600481019290925260248201526044015b60405180910390fd5b50610556905083826132ac565b61055e611278565b336000908152606a9190910160205260409020558261057b611278565b805460009061058b9084906132ac565b909155505060405133908490600081818185875af1925050503d80600081146105d0576040519150601f19603f3d011682016040523d82523d6000602084013e6105d5565b606091505b505080925050816105f9576040516312171d8360e31b815260040160405180910390fd5b60405183815233907fc43e057480321c0f9aec5029e2f42bb82383abd09bc79fd2fbcb50c507173572906020015b60405180910390a2505b919050565b6000610640611304565b62ffffff909216600090815260689290920160205250604090205460ff1690565b600061066b611278565b6001600160a01b039092166000908152606a9290920160205250604090205490565b6000610697611278565b336000908152606791909101602052604090205460ff166106cb576040516326b9cdff60e11b815260040160405180910390fd5b60006106d5611278565b33600090815260689190910160205260409020549050826107095760405163162908e360e11b815260040160405180910390fd5b8083818111156107355760405163052dcc5960e51b815260048101929092526024820152604401610540565b50610742905083826132ac565b61074a611278565b336000908152606891909101602052604090205582610767611278565b600101600082825461077991906132ac565b909155505060405133908490600081818185875af1925050503d80600081146107be576040519150601f19603f3d011682016040523d82523d6000602084013e6107c3565b606091505b505080925050816107e7576040516312171d8360e31b815260040160405180910390fd5b60405183815233907f84863957610e3c6567187cf240a9979c5c8d56d4dba4473b5ac46a10d324697490602001610627565b600061082484611340565b61082f8484846114d2565b949350505050565b336001600160a01b037f0000000000000000000000000000000000000000000000000000000000000000161461087f576040516282b42960e81b815260040160405180910390fd5b828114801561088d57508215155b6108ad576040516001621398b960e31b0319815260040160405180910390fd5b6000806108b86110da565b905060005b85811015610a4e5760008787838181106108d9576108d96132bf565b90506020020160208101906108ee9190612e49565b90506000868684818110610904576109046132bf565b9050602002013590506000811161092e5760405163162908e360e11b815260040160405180910390fd5b6001600160a01b038216610a105761094681866132d5565b94508484808211156109745760405163a458261b60e01b815260048101929092526024820152604401610540565b505060007f00000000000000000000000000000000000000000000000000000000000000006001600160a01b03168260405160006040518083038185875af1925050503d80600081146109e3576040519150601f19603f3d011682016040523d82523d6000602084013e6109e8565b606091505b5050905080610a0a576040516312171d8360e31b815260040160405180910390fd5b50610a44565b610a446001600160a01b0383167f000000000000000000000000000000000000000000000000000000000000000083611502565b50506001016108bd565b50505050505050565b6000610a61611278565b6001600160a01b03909216600090815260679290920160205250604090205460ff1690565b6000610a90610c9b565b9050348180821015610abe5760405163052dcc5960e51b815260048101929092526024820152604401610540565b50506001600160a01b038216610ae75760405163e6c4247b60e01b815260040160405180910390fd5b34610af0611278565b6068016000846001600160a01b03166001600160a01b031681526020019081526020016000206000828254610b2591906132d5565b90915550349050610b34611278565b6001016000828254610b4691906132d5565b909155505060405134815233907f06653c045d0a3144153a51ac6909baae43b8d5b67184cb74e988b72858727fe49060200160405180910390a25050565b6060610b8e611278565b6066016000836001811115610ba557610ba56132e8565b6001811115610bb657610bb66132e8565b8152602001908152602001600020805480602002602001604051908101604052809291908181526020016000905b82821015610c90578382906000526020600020018054610c03906132fe565b80601f0160208091040260200160405190810160405280929190818152602001828054610c2f906132fe565b8015610c7c5780601f10610c5157610100808354040283529160200191610c7c565b820191906000526020600020905b815481529060010190602001808311610c5f57829003601f168201915b505050505081526020019060010190610be4565b505050509050919050565b600080610ca6611559565b62ffffff7f000000000000000000000000000000000000000000000000000000000000000016600090815260659190910160205260409020549050600181610d025760405163c6af252960e01b81526004016105409190613356565b506000610d358263ffffffff7f000000000000000000000000000000000000000000000000000000000000000016613369565b90506000610d6b7f0000000000000000000000000000000000000000000000000000000000000000610d65611559565b54611573565b9050610d7781836132d5565b935050505090565b336001600160a01b037f00000000000000000000000000000000000000000000000000000000000000001614610dc7576040516282b42960e81b815260040160405180910390fd5b610dd084611340565b610ddc848484846115e7565b50505050565b6000610dec610c9b565b905090565b336001600160a01b037f00000000000000000000000000000000000000000000000000000000000000001614610e39576040516282b42960e81b815260040160405180910390fd5b60005b8451811015610e6f57610e67858281518110610e5a57610e5a6132bf565b6020026020010151611340565b600101610e3c565b50610ddc8484848461160f565b6000610e86611278565b336000908152606791909101602052604090205460ff16610eba576040516326b9cdff60e11b815260040160405180910390fd5b610ec2611304565b6000868152606791909101602052604090205460ff1615610ef657604051637b04260960e01b815260040160405180910390fd5b6001610f00611304565b600087815260679190910160205260409020805460ff1916911515919091179055610f2d858585856116bb565b95945050505050565b60008584148015610f4657508582145b610f66576040516001621398b960e31b0319815260040160405180910390fd5b610f74878787878787611924565b9050336001600160a01b03167f8dd8d12374b84b953ae64df22c21c4595675aa2fd20893fdeef36a1e0c80ba81888888888888604051610fb996959493929190613482565b60405180910390a29695505050505050565b336001600160a01b037f00000000000000000000000000000000000000000000000000000000000000001614611013576040516282b42960e81b815260040160405180910390fd5b828114611036576040516001621398b960e31b0319815260040160405180910390fd5b60005b838110156110d3576000858583818110611055576110556132bf565b905060200201602081019061106a9190612e17565b90506000848484818110611080576110806132bf565b905060200201602081019061109591906134cb565b9050806110a0611304565b62ffffff93909316600090815260689093016020526040909220805460ff19169215159290921790915550600101611039565b5050505050565b60006110e4611278565b600101546110f0611278565b546110fb91906132d5565b610dec90476132ac565b336001600160a01b037f0000000000000000000000000000000000000000000000000000000000000000161461114d576040516282b42960e81b815260040160405180910390fd5b80611156611559565b5550565b6000611164611278565b6001600160a01b03909216600090815260689290920160205250604090205490565b8051156111c9577fbcf5ce4fda95e104d7172732bf495e532c7355ebce10657ed2161d41d3a2b0e5816040516111bc91906134ed565b60405180910390a1505050565b600080838060200190518101906111e09190613545565b90925090506001825160028111156111fa576111fa6132e8565b0361120f5761120a858585611b0e565b611252565b600282516002811115611224576112246132e8565b036112395761120a8582858560400151611c0c565b6040516314c45b6b60e01b815260040160405180910390fd5b61125a611304565b600095865260660160205250506040909220805460ff191690555050565b604080517f636f6e6365726f76657269666965722e6f70657261746f722e73746f726167656020820152600091829160ff1991600191015b6040516020818303038152906040528051906020012060001c6112d391906132ac565b6040516020016112e591815260200190565b60408051601f1981840301815291905280516020909101201692915050565b604080517f636f6e6365726f76657269666965722e76657269666965722e73746f726167656020820152600091829160ff1991600191016112b0565b604080517f636f6e6365726f76657269666965722e76657269666965722e73746f72616765602082015260ff1991600191016040516020818303038152906040528051906020012060001c61139591906132ac565b6040516020016113a791815260200190565b60405160208183030381529060405280519060200120168114806114475750604080517f636f6e6365726f76657269666965722e6f70657261746f722e73746f72616765602082015260ff1991600191016040516020818303038152906040528051906020012060001c61141b91906132ac565b60405160200161142d91815260200190565b604051602081830303815290604052805190602001201681145b806114b2575060405160ff1990600190611463906020016135df565b6040516020818303038152906040528051906020012060001c61148691906132ac565b60405160200161149891815260200190565b604051602081830303815290604052805190602001201681145b6114cf57604051630a02739760e41b815260040160405180910390fd5b50565b60008180156114f357604080518481528686016020820152205491506114fa565b8484015491505b509392505050565b604080516001600160a01b038416602482015260448082018490528251808303909101815260649091019091526020810180516001600160e01b031663a9059cbb60e01b179052611554908490611ea9565b505050565b60008060ff60001b1960016040516020016112b0906135df565b600080826115955760405163c6af252960e01b81526004016105409190613356565b5060006127106115b161ffff8616670de0b6b3a7640000613369565b6115bb9190613628565b90506000836115d283670de0b6b3a7640000613369565b6115dc9190613628565b925050505b92915050565b81801561160657604080518481528686016020820152208290556110d3565b50919092015550565b82518451148015611621575081518351145b801561162e575080518251145b61164e576040516001621398b960e31b0319815260040160405180910390fd5b60005b84518110156110d3576020810260200185015160208202602001850151602083026020018501516020840260200185015181600081146116a357604080518481528686016020820152208290556116aa565b8484018290555b505060019093019250611651915050565b60006116d3336116ce6064610d65611559565b611f1a565b5060408051600680825260e08201909252600091816020015b60608152602001906001900390816116ec57905050604080517f000000000000000000000000000000000000000000000000000000000000000060208201529192500160405160208183030381529060405281600081518110611751576117516132bf565b602002602001018190525083604051602001611780919060e89190911b6001600160e81b031916815260030190565b604051602081830303815290604052816001815181106117a2576117a26132bf565b6020026020010181905250856040516020016117c091815260200190565b604051602081830303815290604052816002815181106117e2576117e26132bf565b60200260200101819052508460405160200161180091815260200190565b60405160208183030381529060405281600381518110611822576118226132bf565b60200260200101819052508260405160200161183e919061363c565b60405160208183030381529060405281600481518110611860576118606132bf565b60200260200101819052503360405160200161188f919060609190911b6001600160601b031916815260140190565b604051602081830303815290604052816005815181106118b1576118b16132bf565b60200260200101819052506118c581611fe3565b915060016118d1611304565b60008481526066919091016020526040808220805460ff191693151593909317909255905187917ffb81e755bba86f865a4c093b06fe6468a7eedaa06466653b988545795ccdf76091a250949350505050565b6000611937336116ce6064610d65611559565b5060408051600580825260c08201909252600091816020015b606081526020019060019003908161195057905050604080517f0000000000000000000000000000000000000000000000000000000000000000602082015291925001604051602081830303815290604052816000815181106119b5576119b56132bf565b602002602001018190525087876040516020016119d3929190613658565b604051602081830303815290604052816001815181106119f5576119f56132bf565b60200260200101819052508585604051602001611a13929190613658565b60405160208183030381529060405281600281518110611a3557611a356132bf565b60200260200101819052508383604051602001611a5392919061366c565b60405160208183030381529060405281600381518110611a7557611a756132bf565b602002602001018190525033604051602001611aa091906001600160a01b0391909116815260200190565b60405160208183030381529060405281600481518110611ac257611ac26132bf565b6020026020010181905250611ad681611fe3565b91506001611ae2611304565b600084815260669190910160205260409020805460ff1916911515919091179055509695505050505050565b600080611b1a846120b4565b91509150816020015160ff16600103611b3b57611b36816120f0565b611b54565b6040516344b479f560e11b815260040160405180910390fd5b6000611b5e611559565b549050611b6c606482611573565b611b74611278565b606a01600085604001516001600160a01b03166001600160a01b031681526020019081526020016000206000828254611bad91906132d5565b90915550611bbe9050606482611573565b611bc6611278565b606801600085604001516001600160a01b03166001600160a01b031681526020019081526020016000206000828254611bff91906132d5565b9091555050505050505050565b600083806020019051810190611c229190613769565b604081015151815151919250148015611c415750602081015151815151145b611c61576040516001621398b960e31b0319815260040160405180910390fd5b60005b815151811015611e5957600082600001518281518110611c8657611c866132bf565b60200260200101519050600083602001518381518110611ca857611ca86132bf565b6020026020010151905060006001811115611cc557611cc56132e8565b826001811115611cd757611cd76132e8565b03611e4f57600084604001518481518110611cf457611cf46132bf565b6020026020010151806020019051810190611d0f9190613890565b9050856001600160a01b0316816001600160a01b031614611d4357604051634265bbb960e11b815260040160405180910390fd5b6001826001811115611d5757611d576132e8565b03611dca576040516001600160601b0319606083901b166020820152611d90908490603401604051602081830303815290604052612139565b6001611d9a611278565b6001600160a01b038816600090815260679190910160205260409020805460ff1916911515919091179055611e4d565b6000826001811115611dde57611dde6132e8565b03611e4d576040516001600160601b0319606083901b166020820152611e179084906034016040516020818303038152906040526121c5565b6000611e21611278565b6001600160a01b038816600090815260679190910160205260409020805460ff19169115159190911790555b505b5050600101611c64565b50805160208201516040516001600160a01b038516927fe45aa49322ca788544241b0cf4a43007ed43fb0fc18024f8664bafa21616f64392611e9a926138ad565b60405180910390a25050505050565b600080602060008451602086016000885af180611ecc576040513d6000823e3d81fd5b50506000513d91508115611ee4578060011415611ef1565b6001600160a01b0384163b155b15610ddc57604051635274afe760e01b81526001600160a01b0385166004820152602401610540565b600080611f25611278565b6001600160a01b03851660009081526068919091016020526040902054905082611f4d611278565b6001600160a01b03861660009081526068919091016020526040902054829185911015611f965760405163052dcc5960e51b815260048101929092526024820152604401610540565b505082611fa1611278565b6068016000866001600160a01b03166001600160a01b031681526020019081526020016000206000828254611fd691906132ac565b9091555092949350505050565b60006120266040805160e0810190915280600081526020016000815260200160008152602001606081526020016060815260200160608152602001606081525090565b61204c6040518061020001604052806101cd8152602001613e5b6101cd91398290612240565b6120568184612251565b6120ad6120628261227b565b7f0000000000000000000000000000000000000000000000000000000000000000620186a07f0000000000000000000000000000000000000000000000000000000000000000612543565b9392505050565b60408051606081018252600080825260208201819052918101919091526060828060200190518101906120e79190613545565b91509150915091565b60008180602001905181019061210691906139a7565b8051604051919250907fe926aaee2b4b6afb102e3dd8011621cf4b6e8eeae7dde6190388b45bbb39749c90600090a25050565b6000612143611278565b606601600084600181111561215a5761215a6132e8565b600181111561216b5761216b6132e8565b8152602001908152602001600020905060006121878284612615565b50905080156121a9576040516342ee68b560e01b815260040160405180910390fd5b8154600181018355600083815260209020016110d38482613ad1565b60006121cf611278565b60660160008460018111156121e6576121e66132e8565b60018111156121f7576121f76132e8565b815260200190815260200160002090506000806122148385612615565b9150915081612236576040516325ec6c1f60e01b815260040160405180910390fd5b6110d38382612685565b61224d826000808461270a565b5050565b80516000036122735760405163fe936cb760e01b815260040160405180910390fd5b60c090910152565b6060600061228a610100612788565b90506122c36040518060400160405280600c81526020016b31b7b232a637b1b0ba34b7b760a11b815250826127a990919063ffffffff16565b82516122e19060028111156122da576122da6132e8565b82906127c2565b6040805180820190915260088152676c616e677561676560c01b602082015261230b9082906127a9565b60408301516123229080156122da576122da6132e8565b604080518082019091526006815265736f7572636560d01b602082015261234a9082906127a9565b606083015161235a9082906127a9565b60a083015151156123e6576040805180820190915260048152636172677360e01b602082015261238b9082906127a9565b612394816127fb565b60005b8360a00151518110156123dc576123d48460a0015182815181106123bd576123bd6132bf565b6020026020010151836127a990919063ffffffff16565b600101612397565b506123e68161281f565b608083015151156124aa57600083602001516002811115612409576124096132e8565b036124275760405163a80d31f760e01b815260040160405180910390fd5b60408051808201909152600f81526e39b2b1b932ba39a637b1b0ba34b7b760891b60208201526124589082906127a9565b612471836020015160028111156122da576122da6132e8565b6040805180820190915260078152667365637265747360c81b602082015261249a9082906127a9565b60808301516124aa90829061283d565b60c0830151511561253b5760408051808201909152600981526862797465734172677360b81b60208201526124e09082906127a9565b6124e9816127fb565b60005b8360c0015151811015612531576125298460c001518281518110612512576125126132bf565b60200260200101518361283d90919063ffffffff16565b6001016124ec565b5061253b8161281f565b515192915050565b6000807f00000000000000000000000000000000000000000000000000000000000000006001600160a01b031663461d27628688600188886040518663ffffffff1660e01b815260040161259b959493929190613b92565b6020604051808303816000875af11580156125ba573d6000803e3d6000fd5b505050506040513d601f19601f820116820180604052508101906125de9190613bdb565b60405190915081907f1131472297a800fee664d1d89cfa8f7676ff07189ecc53f80bbb5f4969099db890600090a295945050505050565b60008060005b845481101561267557838051906020012085828154811061263e5761263e6132bf565b906000526020600020016040516126559190613bf4565b60405180910390200361266d5760019250905061267e565b60010161261b565b50600080915091505b9250929050565b81548290612695906001906132ac565b815481106126a5576126a56132bf565b906000526020600020018282815481106126c1576126c16132bf565b9060005260206000200190816126d79190613c69565b50818054806126e8576126e8613d3d565b6001900381819060005260206000200160006127049190612be8565b90555050565b805160000361272c576040516322ce3edd60e01b815260040160405180910390fd5b8383600281111561273f5761273f6132e8565b90816002811115612752576127526132e8565b90525060408401828015612768576127686132e8565b90818015612778576127786132e8565b9052506060909301929092525050565b612790612c22565b805161279c908361284a565b5060006020820152919050565b6127b682600383516128c1565b815161155490826129da565b81516127cf9060c26129fb565b5061224d82826040516020016127e791815260200190565b60405160208183030381529060405261283d565b612806816004612a64565b60018160200181815161281991906132d5565b90525050565b61282a816007612a64565b60018160200181815161281991906132ac565b6127b682600283516128c1565b60408051808201909152606081526000602082015261286a602083613d53565b156128925761287a602083613d53565b6128859060206132ac565b61288f90836132d5565b91505b6020808401839052604051808552600081529081840101818110156128b657600080fd5b604052509192915050565b6017816001600160401b0316116128e7578251610ddc9060e0600585901b1683176129fb565b60ff816001600160401b03161161292757825161290f906018611fe0600586901b16176129fb565b508251610ddc906001600160401b0383166001612a7b565b61ffff816001600160401b031611612968578251612950906019611fe0600586901b16176129fb565b508251610ddc906001600160401b0383166002612a7b565b63ffffffff816001600160401b0316116129ab57825161299390601a611fe0600586901b16176129fb565b508251610ddc906001600160401b0383166004612a7b565b82516129c290601b611fe0600586901b16176129fb565b508251610ddc906001600160401b0383166008612a7b565b6040805180820190915260608152600060208201526120ad83838451612b00565b6040805180820190915260608152600060208201528251516000612a208260016132d5565b905084602001518210612a4157612a4185612a3c836002613369565b612bd1565b8451602083820101858153508051821115612a5a578181525b5093949350505050565b815161155490601f611fe0600585901b16176129fb565b6040805180820190915260608152600060208201528351516000612a9f82856132d5565b90508560200151811115612abc57612abc86612a3c836002613369565b60006001612acc86610100613e4e565b612ad691906132ac565b90508651828101878319825116178152508051831115612af4578281525b50959695505050505050565b6040805180820190915260608152600060208201528251821115612b2357600080fd5b8351516000612b3284836132d5565b90508560200151811115612b4f57612b4f86612a3c836002613369565b855180518382016020019160009180851115612b69578482525b505050602086015b60208610612ba95780518252612b886020836132d5565b9150612b956020826132d5565b9050612ba26020876132ac565b9550612b71565b51815160001960208890036101000a0190811690199190911617905250849150509392505050565b8151612bdd838361284a565b50610ddc83826129da565b508054612bf4906132fe565b6000825580601f10612c04575050565b601f0160209004906000526020600020908101906114cf9190612c57565b6040518060400160405280612c4a604051806040016040528060608152602001600081525090565b8152602001600081525090565b5b80821115612c6c5760008155600101612c58565b5090565b634e487b7160e01b600052604160045260246000fd5b604051606081016001600160401b0381118282101715612ca857612ca8612c70565b60405290565b60405160e081016001600160401b0381118282101715612ca857612ca8612c70565b604051601f8201601f191681016001600160401b0381118282101715612cf857612cf8612c70565b604052919050565b60006001600160401b03821115612d1957612d19612c70565b50601f01601f191660200190565b600082601f830112612d3857600080fd5b8135612d4b612d4682612d00565b612cd0565b818152846020838601011115612d6057600080fd5b816020850160208301376000918101602001919091529392505050565b600080600060608486031215612d9257600080fd5b8335925060208401356001600160401b03811115612daf57600080fd5b612dbb86828701612d27565b92505060408401356001600160401b03811115612dd757600080fd5b612de386828701612d27565b9150509250925092565b600060208284031215612dff57600080fd5b5035919050565b62ffffff811681146114cf57600080fd5b600060208284031215612e2957600080fd5b81356120ad81612e06565b6001600160a01b03811681146114cf57600080fd5b600060208284031215612e5b57600080fd5b81356120ad81612e34565b600080600060608486031215612e7b57600080fd5b505081359360208301359350604090920135919050565b60008083601f840112612ea457600080fd5b5081356001600160401b03811115612ebb57600080fd5b6020830191508360208260051b850101111561267e57600080fd5b60008060008060408587031215612eec57600080fd5b84356001600160401b03811115612f0257600080fd5b612f0e87828801612e92565b90955093505060208501356001600160401b03811115612f2d57600080fd5b612f3987828801612e92565b95989497509550505050565b600281106114cf57600080fd5b600060208284031215612f6457600080fd5b81356120ad81612f45565b60005b83811015612f8a578181015183820152602001612f72565b50506000910152565b60008151808452612fab816020860160208601612f6f565b601f01601f19169290920160200192915050565b6000602082016020835280845180835260408501915060408160051b86010192506020860160005b8281101561301857603f19878603018452613003858351612f93565b94506020938401939190910190600101612fe7565b50929695505050505050565b6000806000806080858703121561303a57600080fd5b5050823594602084013594506040840135936060013592509050565b60006001600160401b0382111561306f5761306f612c70565b5060051b60200190565b600082601f83011261308a57600080fd5b8135613098612d4682613056565b8082825260208201915060208360051b8601019250858311156130ba57600080fd5b602085015b838110156130d75780358352602092830192016130bf565b5095945050505050565b600080600080608085870312156130f757600080fd5b84356001600160401b0381111561310d57600080fd5b61311987828801613079565b94505060208501356001600160401b0381111561313557600080fd5b61314187828801613079565b93505060408501356001600160401b0381111561315d57600080fd5b61316987828801613079565b92505060608501356001600160401b0381111561318557600080fd5b61319187828801613079565b91505092959194509250565b600080600080608085870312156131b357600080fd5b843593506020850135925060408501356131cc81612e06565b915060608501356001600160401b038111156131e757600080fd5b61319187828801612d27565b6000806000806000806060878903121561320c57600080fd5b86356001600160401b0381111561322257600080fd5b61322e89828a01612e92565b90975095505060208701356001600160401b0381111561324d57600080fd5b61325989828a01612e92565b90955093505060408701356001600160401b0381111561327857600080fd5b61328489828a01612e92565b979a9699509497509295939492505050565b634e487b7160e01b600052601160045260246000fd5b818103818111156115e1576115e1613296565b634e487b7160e01b600052603260045260246000fd5b808201808211156115e1576115e1613296565b634e487b7160e01b600052602160045260246000fd5b600181811c9082168061331257607f821691505b60208210810361333257634e487b7160e01b600052602260045260246000fd5b50919050565b600281106114cf57634e487b7160e01b600052602160045260246000fd5b6020810161336383613338565b91905290565b80820281158282048414176115e1576115e1613296565b81835260208301925060008160005b84811015612a5a5781356133a281612f45565b6133ab81613338565b8652602095860195919091019060010161338f565b81835281816020850137506000828201602090810191909152601f909101601f19169091010190565b60008383855260208501945060208460051b8201018360005b8681101561347657838303601f19018852813536879003601e1901811261342857600080fd5b86016020810190356001600160401b0381111561344457600080fd5b80360382131561345357600080fd5b61345e8582846133c0565b60209a8b019a90955093909301925050600101613402565b50909695505050505050565b60608152600061349660608301888a613380565b82810360208401526134a9818789613380565b905082810360408401526134be8185876133e9565b9998505050505050505050565b6000602082840312156134dd57600080fd5b813580151581146120ad57600080fd5b6020815260006120ad6020830184612f93565b600082601f83011261351157600080fd5b815161351f612d4682612d00565b81815284602083860101111561353457600080fd5b61082f826020830160208701612f6f565b600080828403608081121561355957600080fd5b606081121561356757600080fd5b50613570612c86565b83516003811061357f57600080fd5b8152602084015160ff8116811461359557600080fd5b602082015260408401516135a881612e34565b604082015260608401519092506001600160401b038111156135c957600080fd5b6135d585828601613500565b9150509250929050565b7f636f6e6365726f76657269666965722e7072696365666565642e73746f7261678152606560f81b602082015260210190565b634e487b7160e01b600052601260045260246000fd5b60008261363757613637613612565b500490565b6000825161364e818460208701612f6f565b9190910192915050565b60208152600061082f602083018486613380565b60208152600061082f6020830184866133e9565b600082601f83011261369157600080fd5b815161369f612d4682613056565b8082825260208201915060208360051b8601019250858311156136c157600080fd5b602085015b838110156130d75780516136d981612f45565b8352602092830192016136c6565b600082601f8301126136f857600080fd5b8151613706612d4682613056565b8082825260208201915060208360051b86010192508583111561372857600080fd5b602085015b838110156130d75780516001600160401b0381111561374b57600080fd5b61375a886020838a0101613500565b8452506020928301920161372d565b60006020828403121561377b57600080fd5b81516001600160401b0381111561379157600080fd5b8201606081850312156137a357600080fd5b6137ab612c86565b81516001600160401b038111156137c157600080fd5b8201601f810186136137d257600080fd5b80516137e0612d4682613056565b8082825260208201915060208360051b85010192508883111561380257600080fd5b6020840193505b8284101561382d57835161381c81612f45565b825260209384019390910190613809565b845250505060208201516001600160401b0381111561384b57600080fd5b61385786828501613680565b60208301525060408201516001600160401b0381111561387657600080fd5b613882868285016136e7565b604083015250949350505050565b6000602082840312156138a257600080fd5b81516120ad81612e34565b6040808252835190820181905260009060208501906060840190835b818110156138f05783516138dc81613338565b8352602093840193909201916001016138c9565b50508381036020808601919091528551808352918101925085019060005b8181101561393657825161392181613338565b8452602093840193929092019160010161390e565b50919695505050505050565b805161063181612e06565b60006040828403121561395f57600080fd5b604080519081016001600160401b038111828210171561398157613981612c70565b8060405250809150825161399481612e34565b8152602092830151920191909152919050565b6000602082840312156139b957600080fd5b81516001600160401b038111156139cf57600080fd5b820161010081850312156139e257600080fd5b6139ea612cae565b815181526020808301519082015260408201516001600160401b03811115613a1157600080fd5b613a1d86828501613500565b604083015250613a2f60608301613942565b6060820152613a4060808301613942565b6080820152613a528560a0840161394d565b60a082015260e08201516001600160401b03811115613a7057600080fd5b613a7c868285016136e7565b60c083015250949350505050565b601f82111561155457806000526020600020601f840160051c81016020851015613ab15750805b601f840160051c820191505b818110156110d35760008155600101613abd565b81516001600160401b03811115613aea57613aea612c70565b613afe81613af884546132fe565b84613a8a565b6020601f821160018114613b355760008315613b1a5750848201515b600184901b600019600386901b1c198216175b8555506110d3565b600084815260208120601f198516915b82811015613b655787850151825560209485019460019092019101613b45565b5084821015613b835786840151600019600387901b60f8161c191681555b50505050600190811b01905550565b6001600160401b038616815260a060208201526000613bb460a0830187612f93565b61ffff9590951660408301525063ffffffff92909216606083015260809091015292915050565b600060208284031215613bed57600080fd5b5051919050565b6000808354613c02816132fe565b600182168015613c195760018114613c2e57613c5e565b60ff1983168652811515820286019350613c5e565b86600052602060002060005b83811015613c5657815488820152600190910190602001613c3a565b505081860193505b509195945050505050565b818103613c74575050565b613c7e82546132fe565b6001600160401b03811115613c9557613c95612c70565b613ca381613af884546132fe565b6000601f821160018114613cd55760008315613b1a575081850154600184901b600019600386901b1c19821617613b2d565b600085815260209020601f19841690600086815260209020845b83811015613d0f5782860154825560019586019590910190602001613cef565b5085831015613d2d5781850154600019600388901b60f8161c191681555b5050505050600190811b01905550565b634e487b7160e01b600052603160045260246000fd5b600082613d6257613d62613612565b500690565b6001815b6001841115613da257808504811115613d8657613d86613296565b6001841615613d9457908102905b60019390931c928002613d6b565b935093915050565b600082613db9575060016115e1565b81613dc6575060006115e1565b8160018114613ddc5760028114613de657613e02565b60019150506115e1565b60ff841115613df757613df7613296565b50506001821b6115e1565b5060208310610133831016604e8410600b8410161715613e25575081810a6115e1565b613e326000198484613d67565b8060001904821115613e4657613e46613296565b029392505050565b60006120ad8383613daa56fe766172206e3b282865293d3e655b652e483d305d3d27482729286e7c7c3d7b7d293b76617220613d6177616974206665746368282768747470733a2f2f7261772e67697468756275736572636f6e74656e742e636f6d2f636f6e6365726f2f6d6573736167696e672d636f6e7472616374732d76322f726566732f68656164732f6d61737465722f636c662f646973742f6d6573736167655265706f72742e6d696e2e6a7327292e7468656e282874293d3e742e746578742829292c6f3d273078272b41727261792e66726f6d286e65772055696e743841727261792861776169742063727970746f2e737562746c652e64696765737428275348412d323536272c6e65772054657874456e636f64657228292e656e636f64652861292929292e6d6170282874293d3e742e746f537472696e67283136292e706164537461727428322c27302729292e6a6f696e282727293b6966286f2e746f4c6f776572436173652829213d3d6279746573417267735b305d2e746f4c6f776572436173652829297468726f772060247b6f2e746f4c6f7765724361736528297d213d3d247b6279746573417267735b305d2e746f4c6f7765724361736528297d603b72657475726e206576616c2861293ba2646970667358221220b82ca8797c6f8f247b4b58ed5fd68edb9b9734d61862b777ac91915eed9412e264736f6c634300081c0033",
  "linkReferences": {},
  "deployedLinkReferences": {}
}