{
  "_format": "hh-sol-artifact-1",
  "contractName": "ConceroVerifier",
  "sourceName": "contracts/ConceroVerifier/ConceroVerifier.sol",
  "abi": [
    {
      "inputs": [
        {
          "internalType": "uint24",
          "name": "chainSelector",
          "type": "uint24"
        },
        {
          "internalType": "address",
          "name": "USDC",
          "type": "address"
        },
        {
          "internalType": "address",
          "name": "clfRouter",
          "type": "address"
        },
        {
          "internalType": "bytes32",
          "name": "clfDonId",
          "type": "bytes32"
        },
        {
          "internalType": "uint64",
          "name": "clfSubscriptionId",
          "type": "uint64"
        },
        {
          "internalType": "uint64",
          "name": "clfDonHostedSecretsVersion",
          "type": "uint64"
        },
        {
          "internalType": "uint8",
          "name": "clfDonHostedSecretsSlotId",
          "type": "uint8"
        },
        {
          "internalType": "uint16",
          "name": "clfPremiumFeeUsdBps",
          "type": "uint16"
        },
        {
          "internalType": "uint32",
          "name": "clfCallbackGasLimit",
          "type": "uint32"
        },
        {
          "internalType": "bytes32",
          "name": "requestCLFMessageReportJsCodeHash",
          "type": "bytes32"
        },
        {
          "internalType": "bytes32",
          "name": "requestOperatorRegistrationJsCodeHash",
          "type": "bytes32"
        }
      ],
      "stateMutability": "nonpayable",
      "type": "constructor"
    },
    {
      "inputs": [],
      "name": "EmptyArgs",
      "type": "error"
    },
    {
      "inputs": [],
      "name": "EmptySource",
      "type": "error"
    },
    {
      "inputs": [
        {
          "internalType": "uint256",
          "name": "requiredAmount",
          "type": "uint256"
        },
        {
          "internalType": "uint256",
          "name": "availableAmount",
          "type": "uint256"
        }
      ],
      "name": "InsufficientFee",
      "type": "error"
    },
    {
      "inputs": [
        {
          "internalType": "uint256",
          "name": "provided",
          "type": "uint256"
        },
        {
          "internalType": "uint256",
          "name": "required",
          "type": "uint256"
        }
      ],
      "name": "InsufficientFee",
      "type": "error"
    },
    {
      "inputs": [
        {
          "internalType": "uint256",
          "name": "provided",
          "type": "uint256"
        },
        {
          "internalType": "uint256",
          "name": "required",
          "type": "uint256"
        }
      ],
      "name": "InsufficientOperatorDeposit",
      "type": "error"
    },
    {
      "inputs": [],
      "name": "InvalidAddress",
      "type": "error"
    },
    {
      "inputs": [],
      "name": "InvalidAmount",
      "type": "error"
    },
    {
      "inputs": [],
      "name": "InvalidNamespace",
      "type": "error"
    },
    {
      "inputs": [],
      "name": "LengthMismatch",
      "type": "error"
    },
    {
      "inputs": [],
      "name": "MessageAlreadyProcessed",
      "type": "error"
    },
    {
      "inputs": [],
      "name": "NoInlineSecrets",
      "type": "error"
    },
    {
      "inputs": [],
      "name": "NotOwner",
      "type": "error"
    },
    {
      "inputs": [],
      "name": "OnlyRouterCanFulfill",
      "type": "error"
    },
    {
      "inputs": [],
      "name": "OperatorAddressMismatch",
      "type": "error"
    },
    {
      "inputs": [],
      "name": "OperatorAlreadyRegistered",
      "type": "error"
    },
    {
      "inputs": [],
      "name": "OperatorNotRegistered",
      "type": "error"
    },
    {
      "inputs": [
        {
          "internalType": "enum CommonErrors.RequiredVariableUnsetType",
          "name": "variableType",
          "type": "uint8"
        }
      ],
      "name": "RequiredVariableUnset",
      "type": "error"
    },
    {
      "inputs": [
        {
          "internalType": "address",
          "name": "token",
          "type": "address"
        }
      ],
      "name": "SafeERC20FailedOperation",
      "type": "error"
    },
    {
      "inputs": [],
      "name": "TransferFailed",
      "type": "error"
    },
    {
      "inputs": [],
      "name": "TransferFailed",
      "type": "error"
    },
    {
      "inputs": [],
      "name": "UnauthorizedOperator",
      "type": "error"
    },
    {
      "anonymous": false,
      "inputs": [
        {
          "indexed": false,
          "internalType": "bytes",
          "name": "err",
          "type": "bytes"
        }
      ],
      "name": "CLFRequestError",
      "type": "event"
    },
    {
      "anonymous": false,
      "inputs": [
        {
          "indexed": true,
          "internalType": "bytes32",
          "name": "messageId",
          "type": "bytes32"
        }
      ],
      "name": "MessageReport",
      "type": "event"
    },
    {
      "anonymous": false,
      "inputs": [
        {
          "indexed": true,
          "internalType": "address",
          "name": "operator",
          "type": "address"
        },
        {
          "indexed": false,
          "internalType": "uint256",
          "name": "amount",
          "type": "uint256"
        }
      ],
      "name": "OperatorDepositWithdrawn",
      "type": "event"
    },
    {
      "anonymous": false,
      "inputs": [
        {
          "indexed": true,
          "internalType": "address",
          "name": "operator",
          "type": "address"
        },
        {
          "indexed": false,
          "internalType": "uint256",
          "name": "amount",
          "type": "uint256"
        }
      ],
      "name": "OperatorDeposited",
      "type": "event"
    },
    {
      "anonymous": false,
      "inputs": [
        {
          "indexed": true,
          "internalType": "address",
          "name": "operator",
          "type": "address"
        },
        {
          "indexed": false,
          "internalType": "uint256",
          "name": "amount",
          "type": "uint256"
        }
      ],
      "name": "OperatorFeeWithdrawn",
      "type": "event"
    },
    {
      "anonymous": false,
      "inputs": [
        {
          "indexed": true,
          "internalType": "address",
          "name": "requester",
          "type": "address"
        },
        {
          "indexed": false,
          "internalType": "enum CommonTypes.ChainType[]",
          "name": "chainTypes",
          "type": "uint8[]"
        },
        {
          "indexed": false,
          "internalType": "enum Types.OperatorRegistrationAction[]",
          "name": "operatorActions",
          "type": "uint8[]"
        },
        {
          "indexed": false,
          "internalType": "bytes[]",
          "name": "operatorAddresses",
          "type": "bytes[]"
        }
      ],
      "name": "OperatorRegistrationRequested",
      "type": "event"
    },
    {
      "anonymous": false,
      "inputs": [
        {
          "indexed": true,
          "internalType": "bytes32",
          "name": "id",
          "type": "bytes32"
        }
      ],
      "name": "RequestFulfilled",
      "type": "event"
    },
    {
      "anonymous": false,
      "inputs": [
        {
          "indexed": true,
          "internalType": "bytes32",
          "name": "id",
          "type": "bytes32"
        }
      ],
      "name": "RequestSent",
      "type": "event"
    },
    {
      "stateMutability": "payable",
      "type": "fallback"
    },
    {
      "inputs": [],
      "name": "getCLFDeposit",
      "outputs": [
        {
          "internalType": "uint256",
          "name": "depositNative",
          "type": "uint256"
        }
      ],
      "stateMutability": "view",
      "type": "function"
    },
    {
      "inputs": [],
      "name": "getCohortsCount",
      "outputs": [
        {
          "internalType": "uint8",
          "name": "",
          "type": "uint8"
        }
      ],
      "stateMutability": "pure",
      "type": "function"
    },
    {
      "inputs": [
        {
          "internalType": "address",
          "name": "operator",
          "type": "address"
        }
      ],
      "name": "getOperatorDeposit",
      "outputs": [
        {
          "internalType": "uint256",
          "name": "",
          "type": "uint256"
        }
      ],
      "stateMutability": "view",
      "type": "function"
    },
    {
      "inputs": [
        {
          "internalType": "address",
          "name": "operator",
          "type": "address"
        }
      ],
      "name": "getOperatorFeesEarned",
      "outputs": [
        {
          "internalType": "uint256",
          "name": "",
          "type": "uint256"
        }
      ],
      "stateMutability": "view",
      "type": "function"
    },
    {
      "inputs": [
        {
          "internalType": "enum CommonTypes.ChainType",
          "name": "chainType",
          "type": "uint8"
        }
      ],
      "name": "getRegisteredOperators",
      "outputs": [
        {
          "internalType": "bytes[]",
          "name": "",
          "type": "bytes[]"
        }
      ],
      "stateMutability": "view",
      "type": "function"
    },
    {
      "inputs": [
        {
          "internalType": "bytes32",
          "name": "namespace",
          "type": "bytes32"
        },
        {
          "internalType": "uint256",
          "name": "offset",
          "type": "uint256"
        },
        {
          "internalType": "bytes32",
          "name": "mappingKey",
          "type": "bytes32"
        }
      ],
      "name": "getStorage",
      "outputs": [
        {
          "internalType": "uint256",
          "name": "",
          "type": "uint256"
        }
      ],
      "stateMutability": "view",
      "type": "function"
    },
    {
      "inputs": [],
      "name": "getWithdrawableConceroFee",
      "outputs": [
        {
          "internalType": "uint256",
          "name": "availableFees",
          "type": "uint256"
        }
      ],
      "stateMutability": "view",
      "type": "function"
    },
    {
      "inputs": [
        {
          "internalType": "bytes32",
          "name": "requestId",
          "type": "bytes32"
        },
        {
          "internalType": "bytes",
          "name": "response",
          "type": "bytes"
        },
        {
          "internalType": "bytes",
          "name": "err",
          "type": "bytes"
        }
      ],
      "name": "handleOracleFulfillment",
      "outputs": [],
      "stateMutability": "nonpayable",
      "type": "function"
    },
    {
      "inputs": [],
      "name": "i_owner",
      "outputs": [
        {
          "internalType": "address",
          "name": "",
          "type": "address"
        }
      ],
      "stateMutability": "view",
      "type": "function"
    },
    {
      "inputs": [
        {
          "internalType": "address",
          "name": "operator",
          "type": "address"
        }
      ],
      "name": "isOperatorRegistered",
      "outputs": [
        {
          "internalType": "bool",
          "name": "",
          "type": "bool"
        }
      ],
      "stateMutability": "view",
      "type": "function"
    },
    {
      "inputs": [
        {
          "internalType": "address",
          "name": "operator",
          "type": "address"
        }
      ],
      "name": "operatorDeposit",
      "outputs": [],
      "stateMutability": "payable",
      "type": "function"
    },
    {
      "inputs": [
        {
          "internalType": "uint256",
          "name": "internalMessageConfig",
          "type": "uint256"
        },
        {
          "internalType": "bytes32",
          "name": "messageId",
          "type": "bytes32"
        },
        {
          "internalType": "bytes32",
          "name": "messageHashSum",
          "type": "bytes32"
        },
        {
          "internalType": "bytes",
          "name": "srcChainData",
          "type": "bytes"
        }
      ],
      "name": "requestMessageReport",
      "outputs": [
        {
          "internalType": "bytes32",
          "name": "",
          "type": "bytes32"
        }
      ],
      "stateMutability": "nonpayable",
      "type": "function"
    },
    {
      "inputs": [
        {
          "internalType": "enum CommonTypes.ChainType[]",
          "name": "chainTypes",
          "type": "uint8[]"
        },
        {
          "internalType": "enum Types.OperatorRegistrationAction[]",
          "name": "operatorActions",
          "type": "uint8[]"
        },
        {
          "internalType": "bytes[]",
          "name": "operatorAddresses",
          "type": "bytes[]"
        }
      ],
      "name": "requestOperatorRegistration",
      "outputs": [
        {
          "internalType": "bytes32",
          "name": "clfRequestId",
          "type": "bytes32"
        }
      ],
      "stateMutability": "nonpayable",
      "type": "function"
    },
    {
      "inputs": [
        {
          "internalType": "uint256",
          "name": "amount",
          "type": "uint256"
        }
      ],
      "name": "setNativeUsdRate",
      "outputs": [],
      "stateMutability": "nonpayable",
      "type": "function"
    },
    {
      "inputs": [
        {
          "internalType": "bytes32",
          "name": "namespace",
          "type": "bytes32"
        },
        {
          "internalType": "uint256",
          "name": "offset",
          "type": "uint256"
        },
        {
          "internalType": "bytes32",
          "name": "mappingKey",
          "type": "bytes32"
        },
        {
          "internalType": "uint256",
          "name": "value",
          "type": "uint256"
        }
      ],
      "name": "setStorage",
      "outputs": [],
      "stateMutability": "nonpayable",
      "type": "function"
    },
    {
      "inputs": [
        {
          "internalType": "bytes32[]",
          "name": "namespaces",
          "type": "bytes32[]"
        },
        {
          "internalType": "uint256[]",
          "name": "offsets",
          "type": "uint256[]"
        },
        {
          "internalType": "bytes32[]",
          "name": "mappingKeys",
          "type": "bytes32[]"
        },
        {
          "internalType": "uint256[]",
          "name": "values",
          "type": "uint256[]"
        }
      ],
      "name": "setStorageBulk",
      "outputs": [],
      "stateMutability": "nonpayable",
      "type": "function"
    },
    {
      "inputs": [
        {
          "internalType": "address[]",
          "name": "tokens",
          "type": "address[]"
        },
        {
          "internalType": "uint256[]",
          "name": "amounts",
          "type": "uint256[]"
        }
      ],
      "name": "withdrawConceroFees",
      "outputs": [],
      "stateMutability": "nonpayable",
      "type": "function"
    },
    {
      "inputs": [
        {
          "internalType": "uint256",
          "name": "amount",
          "type": "uint256"
        }
      ],
      "name": "withdrawOperatorDeposit",
      "outputs": [
        {
          "internalType": "bool",
          "name": "success",
          "type": "bool"
        }
      ],
      "stateMutability": "nonpayable",
      "type": "function"
    },
    {
      "inputs": [
        {
          "internalType": "uint256",
          "name": "amount",
          "type": "uint256"
        }
      ],
      "name": "withdrawOperatorFee",
      "outputs": [
        {
          "internalType": "bool",
          "name": "success",
          "type": "bool"
        }
      ],
      "stateMutability": "nonpayable",
      "type": "function"
    },
    {
      "stateMutability": "payable",
      "type": "receive"
    }
  ],
  "bytecode": "0x6102003461019b57601f6137a338819003918201601f19168301916001600160401b038311848410176101a0578084926101609460405283398101031261019b5780519062ffffff8216820361019b5761005b602082016101b6565b91610068604083016101b6565b92606083015161007a608085016101ca565b61008660a086016101ca565b9060c08601519260ff8416840361019b5760e08701519461ffff8616860361019b576101008801519663ffffffff8816880361019b576101406101208a01519901519960018060a01b03166080523360a05260c05260e0526101405261016052610180526101e0526101a0526101c05261010052610120526040516135c490816101df82396080518181816102fc015261273a015260a0518181816106e701528181610a5e01528181610cd201528181610d1b0152611301015260c05181611148015260e0518150506101005181610e2e015261012051816119c701526101405181611f4101526101605181611f630152610180518150506101a051816111bf01526101c0518161118101526101e051815050f35b600080fd5b634e487b7160e01b600052604160045260246000fd5b51906001600160a01b038216820361019b57565b51906001600160401b038216820361019b5756fe60806040526004361015610010575b005b60003560e01c80630306ec9f146101405780630ca761751461013b5780631feb291f146101365780632a65d9ab1461013157806331d491941461012c5780633ae56951146101275780635a8733b314610122578063624db6321461011d5780636b1906f8146101185780636ea101ab146101135780638e3438f51461010e57806390239ec7146101095780639a5d5ca914610104578063b91443e7146100ff578063cc766882146100fa578063d1053131146100f5578063dba6335f146100f0578063e716afde146100eb5763fbfbdff80361000e57610d54565b610d01565b610cbc565b610ca1565b610bbb565b610b23565b610a34565b6109a5565b6108de565b61082d565b6107f3565b6107d8565b610694565b610619565b610545565b610510565b6103fc565b6102a7565b61022f565b634e487b7160e01b600052604160045260246000fd5b60e081019081106001600160401b0382111761017657604052565b610145565b604081019081106001600160401b0382111761017657604052565b90601f801991011681019081106001600160401b0382111761017657604052565b604051906101c660c083610196565b565b6001600160401b03811161017657601f01601f191660200190565b81601f8201121561022a578035906101fa826101c8565b926102086040519485610196565b8284526020838301011161022a57816000926020809301838601378301015290565b600080fd5b3461022a57608036600319011261022a576024356064356004356044356001600160401b03831161022a5760209361026e61029f9436906004016101e3565b9261029a60ff61029360676102816115b1565b33600090815291016020526040902090565b5416610d80565b610d98565b604051908152f35b3461022a57606036600319011261022a576004356024356001600160401b03811161022a576102da9036906004016101e3565b6044356001600160401b03811161022a576102f99036906004016101e3565b907f00000000000000000000000000000000000000000000000000000000000000006001600160a01b031633036103eb57602081015160001a61033b8161172a565b8061039157509061034b916121bc565b606661035561161f565b0181600052602052604060002060ff1981541690557f85e1543bf2f84fe80c6badbce3648c8539ad1df4d2b3d822938ca0538be727e6600080a2005b8061039d60019261172a565b036103b157906103ac91611ff0565b61034b565b506103e37fbcf5ce4fda95e104d7172732bf495e532c7355ebce10657ed2161d41d3a2b0e59160405191829182611719565b0390a161034b565b63c6829f8360e01b60005260046000fd5b3461022a57602036600319011261022a5760043561042260ff61029360676102816115b1565b61044833606a6104306115b1565b019060018060a01b0316600052602052604060002090565b54610454821515610f7e565b610462818381811115610f96565b8181039081116104fa5761047a33606a6104306115b1565b556104836115b1565b9081548181039081116104fa576104f69255600080808084335af1906104a7610fea565b506104b18261101a565b60405190815233907fc43e057480321c0f9aec5029e2f42bb82383abd09bc79fd2fbcb50c5071735729080602081015b0390a260405190151581529081906020820190565b0390f35b610fb6565b6001600160a01b0381160361022a57565b3461022a57602036600319011261022a57602061053c600435610532816104ff565b606a6104306115b1565b54604051908152f35b3461022a57602036600319011261022a5760043561056b60ff61029360676102816115b1565b6105793360686104306115b1565b54610585821515610f7e565b610593828280821115611032565b8181039081116104fa576105ab3360686104306115b1565b5560016105b66115b1565b019081548181039081116104fa576104f69255600080808084335af1906105db610fea565b506105e58261101a565b60405190815233907f84863957610e3c6567187cf240a9979c5c8d56d4dba4473b5ac46a10d32469749080602081016104e1565b3461022a57606036600319011261022a57602060243560443560043561063e81611778565b811561065b57604080519283529201838201522054604051908152f35b9050015461029f565b9181601f8401121561022a578235916001600160401b03831161022a576020808501948460051b01011161022a57565b3461022a57604036600319011261022a576004356001600160401b03811161022a576106c4903690600401610664565b6024356001600160401b03811161022a576106e3903690600401610664565b92907f000000000000000000000000000000000000000000000000000000000000000061071a336001600160a01b03831614611052565b848414806107cf575b61072c9061106a565b6000610736611586565b9360005b86811061074357005b610756610751828985611098565b6110ad565b9284610763838b89611098565b3594610770861515610f7e565b6001600160a01b0316806107bb575050906107b56000808080610795896001986110ef565b986107a48d8b81811115610f96565b8a5af16107af610fea565b5061101a565b0161073a565b946107ca9160019493966117cd565b6107b5565b50831515610723565b3461022a57600036600319011261022a57602061029f611137565b3461022a57602036600319011261022a57602060ff610821600435610817816104ff565b60676104306115b1565b54166040519015158152f35b602036600319011261022a57600435610845816104ff565b61085a610850611137565b3481341015611032565b6001600160a01b038116156108cd576108779060686104306115b1565b8054903482018092116104fa5755600161088f6115b1565b0161089b3482546110ef565b905560405134815233907f06653c045d0a3144153a51ac6909baae43b8d5b67184cb74e988b72858727fe490602090a2005b63e6c4247b60e01b60005260046000fd5b3461022a57600036600319011261022a57602060405160018152f35b6002111561022a57565b919082519283825260005b848110610930575050826000602080949584010152601f8019910116010190565b8060208092840101518282860101520161090f565b602081016020825282518091526040820191602060408360051b8301019401926000915b83831061097857505050505090565b9091929394602080610996600193603f198682030187528951610904565b97019301930191939290610969565b3461022a57602036600319011261022a576109d56004356109c5816108fa565b60666109cf6115b1565b01611205565b80546109e081610aaf565b916109ee6040519384610196565b818352602083019060005260206000206000915b838310610a1757604051806104f68782610945565b600160208192610a2685611257565b815201920192019190610a02565b3461022a57608036600319011261022a57606435602435604435600435610a856001600160a01b037f0000000000000000000000000000000000000000000000000000000000000000163314611052565b610a8e81611778565b8115610aa65760408051928352920160208201522055005b90500155600080f35b6001600160401b0381116101765760051b60200190565b9080601f8301121561022a578135610add81610aaf565b92610aeb6040519485610196565b81845260208085019260051b82010192831161022a57602001905b828210610b135750505090565b8135815260209182019101610b06565b3461022a57608036600319011261022a576004356001600160401b03811161022a57610b53903690600401610ac6565b6024356001600160401b03811161022a57610b72903690600401610ac6565b906044356001600160401b03811161022a57610b92903690600401610ac6565b606435926001600160401b03841161022a57610bb561000e943690600401610ac6565b926112f9565b3461022a57606036600319011261022a576004356001600160401b03811161022a57610beb903690600401610664565b906024356001600160401b03811161022a57610c0b903690600401610664565b9190604435906001600160401b03821161022a576104f694610c85610c557f8dd8d12374b84b953ae64df22c21c4595675aa2fd20893fdeef36a1e0c80ba81943690600401610664565b9087841480610c98575b610c689061106a565b610c7682828a88888c611991565b9760405195869533998761154c565b0390a26040519081529081906020820190565b50838214610c5f565b3461022a57600036600319011261022a57602061029f611586565b3461022a57600036600319011261022a576040517f00000000000000000000000000000000000000000000000000000000000000006001600160a01b03168152602090f35b3461022a57602036600319011261022a57600435610d49337f00000000000000000000000000000000000000000000000000000000000000006001600160a01b031614611052565b610d51611734565b55005b3461022a57602036600319011261022a57602061053c600435610d76816104ff565b60686104306115b1565b15610d8757565b6326b9cdff60e11b60005260046000fd5b91906067610da461161f565b018160005260205260ff60406000205416610f6d57610f3c93610e8b610ed4610e8b94610e8b610eac610ef7966067610ddb61161f565b01816000526020526040600020600160ff19825416179055610e0d610e07610e01611734565b5461188a565b33611a91565b50610e8b610e99610e1c611659565b9b8c610e6d60405191610e6883610e5a7f00000000000000000000000000000000000000000000000000000000000000006020830160209181520190565b03601f198101855284610196565b6113f0565b52610e778d6113f0565b506040519283916020830160209181520190565b03601f198101835282610196565b610ea28b6113fd565b52610e778a6113fd565b610eb58861140d565b52610ebf8761140d565b50604051928391602083019190602083019252565b610edd8561141d565b52610ee78461141d565b5060405192839160208301611719565b610f008261142d565b52610f0a8161142d565b506040805133602082015290610f239082908101610e8b565b610f2c8261143d565b52610f368161143d565b50611ad0565b610f6a610f5d826066610f4d61161f565b0190600052602052604060002090565b805460ff19166001179055565b90565b637b04260960e01b60005260046000fd5b15610f8557565b63162908e360e11b60005260046000fd5b15610f9f575050565b63a458261b60e01b60005260045260245260446000fd5b634e487b7160e01b600052601160045260246000fd5b601f198101919082116104fa57565b6000198101919082116104fa57565b3d15611015573d90610ffb826101c8565b916110096040519384610196565b82523d6000602084013e565b606090565b1561102157565b6312171d8360e31b60005260046000fd5b1561103b575050565b63052dcc5960e51b60005260045260245260446000fd5b1561105957565b6330cd747160e01b60005260046000fd5b1561107157565b631fec674760e31b60005260046000fd5b634e487b7160e01b600052603260045260246000fd5b91908110156110a85760051b0190565b611082565b35610f6a816104ff565b60840190816084116104fa57565b90602082018092116104fa57565b60260190816026116104fa57565b90600282018092116104fa57565b919082018092116104fa57565b634e487b7160e01b600052602160045260246000fd5b6002111561111c57565b6110fc565b908160011b91808304600214901517156104fa57565b6065611141611734565b0162ffffff7f00000000000000000000000000000000000000000000000000000000000000001660005260205260406000205480156111ef5763ffffffff7f0000000000000000000000000000000000000000000000000000000000000000168181029181830414901517156104fa576111e36111bc611734565b547f00000000000000000000000000000000000000000000000000000000000000006118fe565b81018091116104fa5790565b63c6af252960e01b600052600160045260246000fd5b9061120f81611112565b600052602052604060002090565b90600182811c9216801561124d575b602083101461123757565b634e487b7160e01b600052602260045260246000fd5b91607f169161122c565b906040519182600082549261126b8461121d565b80845293600181169081156112d75750600114611290575b506101c692500383610196565b90506000929192526020600020906000915b8183106112bb5750509060206101c69282010138611283565b60209193508060019154838589010152019101909184926112a2565b9050602092506101c694915060ff191682840152151560051b82010138611283565b939161132f337f00000000000000000000000000000000000000000000000000000000000000006001600160a01b031614611052565b60005b8551811015611357578061135161134b6001938961144d565b51611778565b01611332565b509091928451835180911490816113e5575b50806113da575b6113799061106a565b60005b85518110156113d2578060019160051b602081890101519060208188010151906020808289010151918701015192816000146113c957604080519283529201602082015220555b0161137c565b905001556113c3565b505050509050565b508151815114611370565b905082511438611369565b8051156110a85760200190565b8051600110156110a85760400190565b8051600210156110a85760600190565b8051600310156110a85760800190565b8051600410156110a85760a00190565b8051600510156110a85760c00190565b80518210156110a85760209160051b010190565b9160209082815201919060005b81811061147b5750505090565b909192602080600192863561148f816108fa565b61149881611112565b815201940192910161146e565b908060209392818452848401376000828201840152601f01601f1916010190565b90602083828152019060208160051b85010193836000915b8383106114ee5750505050505090565b909192939495601f198282030186528635601e198436030181121561022a57830190602082359201916001600160401b03811161022a57803603831361022a5761153e60209283926001956114a5565b9801960194930191906114de565b9492909361156a610f6a979561157894606089526060890191611461565b918683036020880152611461565b9260408185039101526114c6565b4761158f6115b1565b54600161159a6115b1565b015481018091116104fa5781039081116104fa5790565b60405160208101907f636f6e6365726f76657269666965722e6f70657261746f722e73746f726167658252602081526115eb604082610196565b51902060001981019081116104fa57604051906020820190815260208252611614604083610196565b9051902060ff191690565b60405160208101907f636f6e6365726f76657269666965722e76657269666965722e73746f726167658252602081526115eb604082610196565b60405160e0919061166a8382610196565b6006815291601f19018260005b82811061168357505050565b806060602080938501015201611677565b60405160c091906116a58382610196565b6005815291601f19018260005b8281106116be57505050565b8060606020809385010152016116b2565b906116d982610aaf565b6116e66040519182610196565b82815280926116f7601f1991610aaf565b019060005b82811061170857505050565b8060606020809385010152016116fc565b906020610f6a928181520190610904565b6003111561111c57565b60405160208101907f636f6e6365726f76657269666965722e7072696365666565642e73746f7261678252606560f81b6040820152602181526115eb604182610196565b61178061161f565b81149081156117bb575b81156117aa575b501561179957565b630a02739760e41b60005260046000fd5b90506117b4611734565b1438611791565b90506117c56115b1565b81149061178a565b60405163a9059cbb60e01b60208281019182526001600160a01b039094166024830152604480830195909552938152909260009161180c606482610196565b519082855af11561185e576000513d61185557506001600160a01b0381163b155b6118345750565b635274afe760e01b60009081526001600160a01b0391909116600452602490fd5b6001141561182d565b6040513d6000823e3d90fd5b8115611874570490565b634e487b7160e01b600052601260045260246000fd5b600081156118c45750600081156118b057506e01ed09bead87c0378d8e64000000000490565b634e487b7160e01b81526012600452602490fd5b63c6af252960e01b81526004819052602490fd5b600081156118c45750600081156118b057506e03da137d5b0f806f1b1cc8000000000490565b81156119595761ffff16670de0b6b3a7640000810290808204670de0b6b3a764000014901517156104fa57612710900490670de0b6b3a7640000820291808304670de0b6b3a764000014901517156104fa57610f6a9161186a565b63c6af252960e01b600052600060045260246000fd5b916020610f6a938181520191611461565b916020610f6a9381815201916114c6565b939092611a2c611a5293610f3c97956119ae610e07610e01611734565b50611a196119ba611694565b986040516119f381610e8b7f00000000000000000000000000000000000000000000000000000000000000006020830160209181520190565b6119fc8b6113f0565b52611a068a6113f0565b50610e8b6040519384926020840161196f565b611a22886113fd565b52611a06876113fd565b611a358561140d565b52611a3f8461140d565b50610e8b60405193849260208401611980565b611a5b8261141d565b52611a658161141d565b506040805133602082015290611a7e9082908101610e8b565b611a878261142d565b52610f368161142d565b611abf90610d7683611aa78360686104306115b1565b5481611ab78560686104306115b1565b541015611032565b8054908282039182116104fa575590565b611f3f610f6a91611f3a60405191611ae78361015b565b60008352600060208401526000604084015260608084015260606080840152606060a0840152606060c0840152611f34610380611b276040519182610196565b61034981527f747279207b20636f6e7374205b742c20705d203d2061776169742050726f6d6960208201527f73652e616c6c285b206665746368282768747470733a2f2f7261772e6769746860408201527f756275736572636f6e74656e742e636f6d2f6574686572732d696f2f6574686560608201527f72732e6a732f76362e31302e302f646973742f6574686572732e756d642e6d6960808201527f6e2e6a7327292c206665746368282768747470733a2f2f7261772e676974687560a08201527f6275736572636f6e74656e742e636f6d2f636f6e6365726f2f76322d636f6e7460c08201527f72616374732f726566732f68656164732f6d61737465722f636c662f6469737460e08201527f2f726571756573745265706f72742e6d696e2e6a7327292c205d293b20636f6e6101008201527f7374205b652c20635d203d2061776169742050726f6d6973652e616c6c285b746101208201527f2e7465787428292c20702e7465787428295d293b20636f6e73742067203d20616101408201527f73796e632073203d3e207b2072657475726e20282027307827202b20417272616101608201527f792e66726f6d286e65772055696e7438417272617928617761697420637279706101808201527f746f2e737562746c652e64696765737428275348412d323536272c206e6577206101a08201527f54657874456e636f64657228292e656e636f6465287329292929202e6d6170286101c08201527f76203d3e2028273027202b20762e746f537472696e6728313629292e736c69636101e08201527f65282d32292e746f4c6f77657243617365282929202e6a6f696e2827272920296102008201527f3b207d3b20636f6e73742072203d20617761697420672863293b20636f6e73746102208201527f2078203d20617761697420672865293b20636f6e73742062203d2062797465736102408201527f417267735b305d2e746f4c6f7765724361736528293b20636f6e7374206f203d6102608201527f206279746573417267735b315d2e746f4c6f7765724361736528293b206966206102808201527f2872203d3d3d20622026262078203d3d3d206f29207b20636f6e7374206574686102a08201527f657273203d206e65772046756e6374696f6e2865202b20273b2072657475726e6102c08201527f206574686572733b272928293b2072657475726e206177616974206576616c286102e08201527f63293b207d207468726f77206e6577204572726f722860247b727d213d247b626103008201527f7d7c7c247b787d213d247b6f7d60293b207d20636174636820286529207b20746103208201527f68726f77206e6577204572726f7228652e6d6573736167652e736c6963652830610340820152682c2032353529293b7d60b81b61036082015284612d44565b826123d0565b612507565b7f0000000000000000000000000000000000000000000000000000000000000000907f0000000000000000000000000000000000000000000000000000000000000000906126e3565b51610f6a81611112565b9060208251920151916bffffffffffffffffffffffff1983169260148210611fb8575050565b6bffffffffffffffffffffffff1960149290920360031b82901b16169150565b15611fdf57565b634265bbb960e11b60005260046000fd5b81516121855761200091506128ae565b80516020820180515160608401805151909592936001600160a01b031692916120359181149081612176575b5094939461106a565b604060009301925b84518051821015612141579061205d6120588260019461144d565b611f88565b61206b61205883885161144d565b61207482611112565b8115612083575b50500161203d565b6120b66120a361209d612097868d5161144d565b51611f92565b60601c90565b60a086901b869003888116911614611fd8565b6120bf81611112565b8084036120f557506120dd906120d6838a5161144d565b5190612bdf565b6120ee610f5d8560676104306115b1565b388061207b565b6120fe81611112565b1561210a575b506120ee565b61212090612119838a5161144d565b5190612a59565b61213b6121318560676104306115b1565b805460ff19169055565b38612104565b5050935091505061217261216a61215f612159611734565b546118d8565b9260686104306115b1565b9182546110ef565b9055565b9050604086015151143861202c565b506121b77fbcf5ce4fda95e104d7172732bf495e532c7355ebce10657ed2161d41d3a2b0e59160405191829182611719565b0390a1565b9190805161239c57506121cd612d00565b506000602083015192604081015192606082015160808301519560a084015160e01c6121f881612886565b95805b82811061236357505061220d906110b7565b9560026020888701015160f01c97019461222688612806565b956000905b8961ffff83161061233b57505050612242876116cf565b9560005b61ffff81168981101561228e5761ffff91612286828a61227f6001958e602061226d612861565b948860051b010151602085015261144d565b528b61144d565b500116612246565b50509091945060a09296506122db9593976122a76101b7565b928684526020840152604083019788526060830152608082015201528060f81c9160ff8260f01c169160018060a01b031690565b91505061231161216a61215f6122ef611734565b546122f98161188a565b61230a61216a87606a6104306115b1565b905561188a565b9055517fe926aaee2b4b6afb102e3dd8011621cf4b6e8eeae7dde6190388b45bbb39749c600080a2565b600161235a82602061ffff948701015160208660051b8d0101526110c5565b9201169061222b565b8061238961237b6123756001946110b7565b8a612838565b516001600160f81b03191690565b831a612395828b612838565b53016121fb565b7fbcf5ce4fda95e104d7172732bf495e532c7355ebce10657ed2161d41d3a2b0e59192506121b79060405191829182611719565b8151156123dd5760c00152565b63fe936cb760e01b60005260046000fd5b604051906123fd604083610196565b600c82526b31b7b232a637b1b0ba34b7b760a11b6020830152565b60405190612427604083610196565b60088252676c616e677561676560c01b6020830152565b6001111561111c57565b60405190612457604083610196565b6006825265736f7572636560d01b6020830152565b6040519061247b604083610196565b60048252636172677360e01b6020830152565b6040519061249d604083610196565b600f82526e39b2b1b932ba39a637b1b0ba34b7b760891b6020830152565b604051906124ca604083610196565b60078252667365637265747360c81b6020830152565b604051906124ef604083610196565b600982526862797465734172677360b81b6020830152565b61250f612d87565b9061252161251b6123ee565b83612db8565b61253e815161252f8161172a565b6125388161172a565b83612ea1565b61254961251b612418565b612563604082015161255a8161243e565b6125388161243e565b61256e61251b612448565b61257c606082015183612db8565b60a0810180515161267b575b5060808101908151516125fc575b60c09150018051516125a9575b50515190565b916125b561251b6124e0565b6125be82612ece565b60005b835180518210156125e957906125e36125dc8260019461144d565b5185612f13565b016125c1565b505091506125f681612ef0565b386125a3565b60208101805161260b8161172a565b6126148161172a565b1561266a5760c09261264d6126659261263461262e61248e565b88612db8565b5161263e8161172a565b6126478161172a565b86612ea1565b61265e6126586124bb565b86612db8565b5184612f13565b612596565b63a80d31f760e01b60005260046000fd5b9261268d61268761246c565b84612db8565b61269683612ece565b60005b845180518210156126c157906126bb6126b48260019461144d565b5186612db8565b01612699565b505092506126ce82612ef0565b38612588565b9081602091031261022a575190565b916020916001600160401b039161271c604051958694859463230e93b160e11b865216600485015260a0602485015260a4840190610904565b60016044840152620186a060648401526084830191909152038160007f00000000000000000000000000000000000000000000000000000000000000006001600160a01b03165af19081156127cc5760009161279d575b50807f1131472297a800fee664d1d89cfa8f7676ff07189ecc53f80bbb5f4969099db8600080a290565b6127bf915060203d6020116127c5575b6127b78183610196565b8101906126d4565b38612773565b503d6127ad565b61185e565b60405190608082018281106001600160401b038211176101765760405260608083600081528160208201528160408201520152565b9061281082610aaf565b61281d6040519182610196565b828152809261282e601f1991610aaf565b0190602036910137565b9081518110156110a8570160200190565b60ff16610f6a81611112565b61285e82611112565b52565b604080519091906128728382610196565b60208152918290601f190190369060200137565b90612890826101c8565b61289d6040519182610196565b828152809261282e601f19916101c8565b6128b66127d1565b506128bf6127d1565b50602081015190604051918060001a835360011a6001830153602281015160601c60208301908152604282015160e01c906128f982612806565b815260005b828110612a38575050612910906110d3565b60046020828401015160e01c910161292782612806565b6040850190815260005b8381106129fb57505090612944916110ef565b6020818301015160e01c90600461295a836116cf565b916060860192835201906000915b83831061297757505050505090565b6129878186015160f01c916110e1565b8361299183612886565b60005b8481106129c95750916129bb600194926129c1948751906129b5838361144d565b5261144d565b506110ef565b920191612968565b60019192506129e461237b6129de83876110ef565b8b612838565b60001a6129f18285612838565b5301908591612994565b80612a32612a22612a1d612a1761237b6129de6001978a6110ef565b60f81c90565b612849565b612a2d83865161144d565b612855565b01612931565b80612a53612a22612a1d612a1761237b6123756001976110d3565b016128fe565b612a6a612a719160666109cf6115b1565b9182612fac565b9015612b4457815460001981019081116104fa57612a92612a9a9184612b55565b509183612b55565b919091612b2957612aaa91612ffd565b80548015612b2e576000190190612ac18282612b55565b612b2957612acf815461121d565b9081612ada57505055565b601f8211600114612aed57600090555055565b612b15612b26926001601f612b0785600052602060002090565b920160051c82019101612b83565b600081815260208120918190559055565b55565b612b6d565b634e487b7160e01b600052603160045260246000fd5b6325ec6c1f60e01b60005260046000fd5b80548210156110a85760005260206000200190600090565b634e487b7160e01b600052600060045260246000fd5b818110612b8e575050565b60008155600101612b83565b9190601f8111612ba957505050565b6101c6926000526020600020906020601f840160051c83019310612bd5575b601f0160051c0190612b83565b9091508190612bc8565b612bf09092919260666109cf6115b1565b612bfa8382612fac565b50612cef5780546801000000000000000081101561017657612c2191600182018155612b55565b612b295782516001600160401b03811161017657612c4981612c43845461121d565b84612b9a565b6020601f8211600114612c86578190612172939495600092612c7b575b50508160011b916000199060031b1c19161790565b015190503880612c66565b601f19821690612c9b84600052602060002090565b9160005b818110612cd757509583600195969710612cbe575b505050811b019055565b015160001960f88460031b161c19169055388080612cb4565b9192602060018192868b015181550194019201612c9f565b6342ee68b560e01b60005260046000fd5b6040519060c082018281106001600160401b0382111761017657604052606060a0836000815260006020820152600060408201526000838201528260808201520152565b6000825115612d5e57506000808252604082015260600152565b6322ce3edd60e01b8152600490fd5b60405190612d7a8261017b565b6000602083606081520152565b604051612d938161017b565b6000612d9d612d6d565b808352612db361010060208501928484526130e5565b505290565b8151612e099291906001600160401b031660178111612e0c578151612df491612dee90612de760605b60ff1690565b1760ff1690565b90613267565b505b5190612e00612d6d565b508051916134d1565b50565b60ff8111612e39578151612e339190612e2b90601860605b1790613267565b508251613451565b50612df6565b61ffff8111612e5e578151612e339190612e569060196060612e24565b5082516133d8565b63ffffffff8111612e85578151612e339190612e7d90601a6060612e24565b50825161335f565b8151612e339190612e9990601b6060612e24565b5082516132e1565b906101c691612eb081516131f7565b5060405191602083015260208252612ec9604083610196565b612f13565b602090612edd609f8251613267565b5001805190600182018092116104fa5752565b602090612eff60ff8251613267565b500180516000198101919082116104fa5752565b8151612e099291906001600160401b031660178111612f40578151612df491612dee90612de76040612de1565b60ff8111612f5c578151612e339190612e2b9060186040612e24565b61ffff8111612f79578151612e339190612e569060196040612e24565b63ffffffff8111612f98578151612e339190612e7d90601a6040612e24565b8151612e339190612e9990601b6040612e24565b919060005b8354811015612ff157612fcd612fc78286612b55565b50611257565b602081519101208251602084012014612fe857600101612fb1565b92505060019190565b50509050600090600090565b9190918281146130e057613011835461121d565b6001600160401b0381116101765761302d81612c43845461121d565b600093601f821160011461306a57612172929394829160009261305f5750508160011b916000199060031b1c19161790565b015490503880612c66565b61307e601f19831691600052602060002090565b9461308e84600052602060002090565b91815b8181106130c8575095836001959697106130af57505050811b019055565b015460001960f88460031b161c19169055388080612cb4565b9192600180602092868b015481550194019201613091565b509050565b906130ee612d6d565b50601f81168061311d575b508060208301526040519081835260008252810160200190811061022a5760405290565b602003602081116104fa5781018091116104fa57386130f9565b90613140612d6d565b50805161314b612d6d565b5061315982518211156134ca565b8251519161316782846110ef565b90602085015182116131e0575b6020918551838151968201019582116131d8575b505001905b60208110156131b257600019906020036101000a019081199051169082511617905290565b90916131cd6131c76131d392855181526110c5565b936110c5565b91610fcc565b61318d565b523880613188565b6131f26131ec83611121565b86613577565b613174565b6131ff612d6d565b5080515160018101908181116104fa576020830151811015613238575b60c26020845192830101538051821161323457505090565b5290565b8160011b828104600214831517156104fa576132619061325a855191866130e5565b5084613137565b5061321c565b90613270612d6d565b5081515160018101918282116104fa5760208401518210156132a3575b6020845192830101538051821161323457505090565b8260011b838104600214841517156104fa576132cc906132c5865191876130e5565b5085613137565b5061328d565b601f81116104fa576101000a90565b906132ea612d6d565b508151518060080191826008116104fa5760208401518311613337575b61331961331460086132d2565b610fdb565b90600885519384010191198251161790528051821161323457505090565b8260011b838104600214841517156104fa57613359906132c5865191876130e5565b50613307565b90613368612d6d565b508151518060040191826004116104fa57602084015183116133b0575b61339261331460046132d2565b90600485519384010191198251161790528051821161323457505090565b8260011b838104600214841517156104fa576133d2906132c5865191876130e5565b50613385565b906133e1612d6d565b508151518060020191826002116104fa5760208401518311613429575b61340b61331460026132d2565b90600285519384010191198251161790528051821161323457505090565b8260011b838104600214841517156104fa5761344b906132c5865191876130e5565b506133fe565b9061345a612d6d565b508151518060010191826001116104fa57602084015183116134a2575b61348461331460016132d2565b90600185519384010191198251161790528051821161323457505090565b8260011b838104600214841517156104fa576134c4906132c5865191876130e5565b50613477565b1561022a57565b916134da612d6d565b506134e882518211156134ca565b6020835151926134f883856110ef565b828601518111613560575b855183815196820101958211613558575b505001905b602081101561353e57600019906020036101000a019081199051169082511617905290565b90916131cd6131c761355392855181526110c5565b613519565b523880613514565b61357261356c82611121565b87613577565b613503565b90612e0991613588815192826130e5565b5061313756fea2646970667358221220f69eb5380e05b3ad2dbd62ee862f03573694e6c81499d9616302f5574543104364736f6c634300081c0033",
  "linkReferences": {},
  "deployedLinkReferences": {}
}