{
  "_format": "hh-sol-artifact-1",
  "contractName": "ConceroRouter",
  "sourceName": "contracts/ConceroRouter/ConceroRouter.sol",
  "abi": [
    {
      "inputs": [
        {
          "internalType": "uint24",
          "name": "chainSelector",
          "type": "uint24"
        },
        {
          "internalType": "address",
          "name": "USDC",
          "type": "address"
        },
        {
          "internalType": "address[4]",
          "name": "clfSigners",
          "type": "address[4]"
        }
      ],
      "stateMutability": "nonpayable",
      "type": "constructor"
    },
    {
      "inputs": [
        {
          "internalType": "address",
          "name": "signer",
          "type": "address"
        }
      ],
      "name": "DuplicateSignatureDetected",
      "type": "error"
    },
    {
      "inputs": [],
      "name": "IncorrectNumberOfSignatures",
      "type": "error"
    },
    {
      "inputs": [
        {
          "internalType": "uint256",
          "name": "provided",
          "type": "uint256"
        },
        {
          "internalType": "uint256",
          "name": "required",
          "type": "uint256"
        }
      ],
      "name": "InsufficientFee",
      "type": "error"
    },
    {
      "inputs": [],
      "name": "InvalidAmount",
      "type": "error"
    },
    {
      "inputs": [
        {
          "internalType": "enum Message.MessageConfigErrorType",
          "name": "error",
          "type": "uint8"
        }
      ],
      "name": "InvalidClientMessageConfig",
      "type": "error"
    },
    {
      "inputs": [],
      "name": "InvalidDstChainData",
      "type": "error"
    },
    {
      "inputs": [],
      "name": "InvalidMessageHashSum",
      "type": "error"
    },
    {
      "inputs": [],
      "name": "InvalidNamespace",
      "type": "error"
    },
    {
      "inputs": [],
      "name": "InvalidReceiver",
      "type": "error"
    },
    {
      "inputs": [],
      "name": "LengthMismatch",
      "type": "error"
    },
    {
      "inputs": [
        {
          "internalType": "bytes32",
          "name": "messageId",
          "type": "bytes32"
        }
      ],
      "name": "MessageAlreadyProcessed",
      "type": "error"
    },
    {
      "inputs": [
        {
          "internalType": "bytes32",
          "name": "messageId",
          "type": "bytes32"
        }
      ],
      "name": "MessageDeliveryFailed",
      "type": "error"
    },
    {
      "inputs": [],
      "name": "MessageTooLarge",
      "type": "error"
    },
    {
      "inputs": [],
      "name": "NotOwner",
      "type": "error"
    },
    {
      "inputs": [
        {
          "internalType": "enum CommonErrors.RequiredVariableUnsetType",
          "name": "variableType",
          "type": "uint8"
        }
      ],
      "name": "RequiredVariableUnset",
      "type": "error"
    },
    {
      "inputs": [
        {
          "internalType": "address",
          "name": "token",
          "type": "address"
        }
      ],
      "name": "SafeERC20FailedOperation",
      "type": "error"
    },
    {
      "inputs": [],
      "name": "TransferFailed",
      "type": "error"
    },
    {
      "inputs": [
        {
          "internalType": "address",
          "name": "signer",
          "type": "address"
        }
      ],
      "name": "UnauthorizedSigner",
      "type": "error"
    },
    {
      "inputs": [],
      "name": "UnsupportedFeeTokenType",
      "type": "error"
    },
    {
      "anonymous": false,
      "inputs": [
        {
          "indexed": true,
          "internalType": "bytes32",
          "name": "id",
          "type": "bytes32"
        }
      ],
      "name": "ConceroMessageDelivered",
      "type": "event"
    },
    {
      "anonymous": false,
      "inputs": [
        {
          "indexed": true,
          "internalType": "bytes32",
          "name": "id",
          "type": "bytes32"
        }
      ],
      "name": "ConceroMessageReceived",
      "type": "event"
    },
    {
      "anonymous": false,
      "inputs": [
        {
          "indexed": true,
          "internalType": "bytes32",
          "name": "messageId",
          "type": "bytes32"
        },
        {
          "indexed": false,
          "internalType": "uint256",
          "name": "internalMessageConfig",
          "type": "uint256"
        },
        {
          "indexed": false,
          "internalType": "bytes",
          "name": "dstChainData",
          "type": "bytes"
        },
        {
          "indexed": false,
          "internalType": "bytes",
          "name": "message",
          "type": "bytes"
        }
      ],
      "name": "ConceroMessageSent",
      "type": "event"
    },
    {
      "anonymous": false,
      "inputs": [
        {
          "indexed": true,
          "internalType": "address",
          "name": "operator",
          "type": "address"
        },
        {
          "indexed": false,
          "internalType": "uint256",
          "name": "amount",
          "type": "uint256"
        }
      ],
      "name": "OperatorFeeWithdrawn",
      "type": "event"
    },
    {
      "stateMutability": "payable",
      "type": "fallback"
    },
    {
      "inputs": [
        {
          "internalType": "uint256",
          "name": "config",
          "type": "uint256"
        },
        {
          "internalType": "bytes",
          "name": "dstChainData",
          "type": "bytes"
        },
        {
          "internalType": "bytes",
          "name": "message",
          "type": "bytes"
        }
      ],
      "name": "conceroSend",
      "outputs": [
        {
          "internalType": "bytes32",
          "name": "",
          "type": "bytes32"
        }
      ],
      "stateMutability": "payable",
      "type": "function"
    },
    {
      "inputs": [
        {
          "internalType": "address",
          "name": "operator",
          "type": "address"
        }
      ],
      "name": "getCohort",
      "outputs": [
        {
          "internalType": "uint8",
          "name": "",
          "type": "uint8"
        }
      ],
      "stateMutability": "view",
      "type": "function"
    },
    {
      "inputs": [
        {
          "internalType": "uint256",
          "name": "clientMessageConfig",
          "type": "uint256"
        },
        {
          "internalType": "bytes",
          "name": "dstChainData",
          "type": "bytes"
        }
      ],
      "name": "getMessageFeeNative",
      "outputs": [
        {
          "internalType": "uint256",
          "name": "",
          "type": "uint256"
        }
      ],
      "stateMutability": "view",
      "type": "function"
    },
    {
      "inputs": [
        {
          "internalType": "uint256",
          "name": "clientMessageConfig",
          "type": "uint256"
        },
        {
          "internalType": "bytes",
          "name": "dstChainData",
          "type": "bytes"
        }
      ],
      "name": "getMessageFeeUSDC",
      "outputs": [
        {
          "internalType": "uint256",
          "name": "",
          "type": "uint256"
        }
      ],
      "stateMutability": "view",
      "type": "function"
    },
    {
      "inputs": [
        {
          "internalType": "bytes32",
          "name": "namespace",
          "type": "bytes32"
        },
        {
          "internalType": "uint256",
          "name": "offset",
          "type": "uint256"
        },
        {
          "internalType": "bytes32",
          "name": "mappingKey",
          "type": "bytes32"
        }
      ],
      "name": "getStorage",
      "outputs": [
        {
          "internalType": "uint256",
          "name": "",
          "type": "uint256"
        }
      ],
      "stateMutability": "view",
      "type": "function"
    },
    {
      "inputs": [],
      "name": "getWithdrawableConceroFee",
      "outputs": [
        {
          "internalType": "uint256",
          "name": "",
          "type": "uint256"
        }
      ],
      "stateMutability": "view",
      "type": "function"
    },
    {
      "inputs": [],
      "name": "i_owner",
      "outputs": [
        {
          "internalType": "address",
          "name": "",
          "type": "address"
        }
      ],
      "stateMutability": "view",
      "type": "function"
    },
    {
      "inputs": [
        {
          "internalType": "uint24",
          "name": "chainSelector",
          "type": "uint24"
        }
      ],
      "name": "isChainSupported",
      "outputs": [
        {
          "internalType": "bool",
          "name": "",
          "type": "bool"
        }
      ],
      "stateMutability": "view",
      "type": "function"
    },
    {
      "inputs": [
        {
          "internalType": "uint24[]",
          "name": "dstChainSelectors",
          "type": "uint24[]"
        },
        {
          "internalType": "uint256[]",
          "name": "gasPrices",
          "type": "uint256[]"
        }
      ],
      "name": "setLastGasPrices",
      "outputs": [],
      "stateMutability": "nonpayable",
      "type": "function"
    },
    {
      "inputs": [
        {
          "internalType": "uint24[]",
          "name": "dstChainSelectors",
          "type": "uint24[]"
        },
        {
          "internalType": "uint256[]",
          "name": "rates",
          "type": "uint256[]"
        }
      ],
      "name": "setNativeNativeRates",
      "outputs": [],
      "stateMutability": "nonpayable",
      "type": "function"
    },
    {
      "inputs": [
        {
          "internalType": "uint256",
          "name": "amount",
          "type": "uint256"
        }
      ],
      "name": "setNativeUsdRate",
      "outputs": [],
      "stateMutability": "nonpayable",
      "type": "function"
    },
    {
      "inputs": [
        {
          "internalType": "bytes32",
          "name": "namespace",
          "type": "bytes32"
        },
        {
          "internalType": "uint256",
          "name": "offset",
          "type": "uint256"
        },
        {
          "internalType": "bytes32",
          "name": "mappingKey",
          "type": "bytes32"
        },
        {
          "internalType": "uint256",
          "name": "value",
          "type": "uint256"
        }
      ],
      "name": "setStorage",
      "outputs": [],
      "stateMutability": "nonpayable",
      "type": "function"
    },
    {
      "inputs": [
        {
          "internalType": "bytes32[]",
          "name": "namespaces",
          "type": "bytes32[]"
        },
        {
          "internalType": "uint256[]",
          "name": "offsets",
          "type": "uint256[]"
        },
        {
          "internalType": "bytes32[]",
          "name": "mappingKeys",
          "type": "bytes32[]"
        },
        {
          "internalType": "uint256[]",
          "name": "values",
          "type": "uint256[]"
        }
      ],
      "name": "setStorageBulk",
      "outputs": [],
      "stateMutability": "nonpayable",
      "type": "function"
    },
    {
      "inputs": [
        {
          "components": [
            {
              "internalType": "bytes32[3]",
              "name": "context",
              "type": "bytes32[3]"
            },
            {
              "internalType": "bytes",
              "name": "report",
              "type": "bytes"
            },
            {
              "internalType": "bytes32[]",
              "name": "rs",
              "type": "bytes32[]"
            },
            {
              "internalType": "bytes32[]",
              "name": "ss",
              "type": "bytes32[]"
            },
            {
              "internalType": "bytes",
              "name": "rawVs",
              "type": "bytes"
            }
          ],
          "internalType": "struct Types.ClfDonReportSubmission",
          "name": "reportSubmission",
          "type": "tuple"
        },
        {
          "internalType": "bytes",
          "name": "message",
          "type": "bytes"
        }
      ],
      "name": "submitMessageReport",
      "outputs": [],
      "stateMutability": "nonpayable",
      "type": "function"
    },
    {
      "inputs": [
        {
          "internalType": "address[]",
          "name": "tokens",
          "type": "address[]"
        },
        {
          "internalType": "uint256[]",
          "name": "amounts",
          "type": "uint256[]"
        }
      ],
      "name": "withdrawConceroFees",
      "outputs": [],
      "stateMutability": "nonpayable",
      "type": "function"
    },
    {
      "inputs": [
        {
          "internalType": "uint256",
          "name": "amount",
          "type": "uint256"
        }
      ],
      "name": "withdrawOperatorFee",
      "outputs": [
        {
          "internalType": "bool",
          "name": "success",
          "type": "bool"
        }
      ],
      "stateMutability": "nonpayable",
      "type": "function"
    },
    {
      "stateMutability": "payable",
      "type": "receive"
    }
  ],
  "bytecode": "0x6101606040523461016e5760405161211f3881900390601f8201601f19168301906001600160401b038211848310176101735782916040528339810160c08282031261016e57815162ffffff8116810361016e5761005f60208401610189565b9180605f8501121561016e5760405193608085016001600160401b0381118682101761017357604052849060c0810192831161016e57604001905b828210610156575050336080525060a05260c05280516001600160a01b0390811660e0526020820151811661010052604080830151821661012052606090920151166101405251611f81908161019e823960805181818161043b01528181610625015281816108d001528181610bea01528181610d8301528181610dcc0152611055015260a0518161082a015260c05181505060e05181611cd101526101005181611d7901526101205181611d4601526101405181611d160152f35b6020809161016384610189565b81520191019061009a565b600080fd5b634e487b7160e01b600052604160045260246000fd5b51906001600160a01b038216820361016e5756fe60806040526004361015610010575b005b60003560e01c80631feb291f1461011057806327e5f4421461010b5780633ae569511461010657806348fd88ab146101015780634f27b459146100fc5780635a8733b3146100f75780636446cb2f146100f25780639a5d5ca9146100ed578063a73bc9c7146100e8578063a8978059146100e3578063b8b16485146100de578063b91443e7146100d9578063d1053131146100d4578063dba6335f146100cf578063e716afde146100ca5763e92043630361000e57610e05565b610db2565b610d6d565b610d52565b610cba565b610bd5565b610bae565b610921565b6108a6565b610743565b6105d2565b610564565b610426565b610257565b610222565b3461020d57602036600319011261020d57600435610143606561013161115a565b33600090815291016020526040902090565b5461014f821515610e3c565b61015d818381811115610e54565b8181039081116102085761018d33606561017561115a565b019060018060a01b0316600052602052604060002090565b5561019661115a565b908154818103908111610208576102049255600080808084335af1906101ba610e8a565b506101c482610eba565b60405190815233907fc43e057480321c0f9aec5029e2f42bb82383abd09bc79fd2fbcb50c50717357290602090a260405190151581529081906020820190565b0390f35b610e74565b600080fd5b359062ffffff8216820361020d57565b3461020d57602036600319011261020d5760043562ffffff8116810361020d5761024d602091611b52565b6040519015158152f35b3461020d57606036600319011261020d57602060243560443560043561027c8161123c565b811561029a576040805192835292018382015220545b604051908152f35b90500154610292565b634e487b7160e01b600052604160045260246000fd5b604081019081106001600160401b038211176102d457604052565b6102a3565b90601f801991011681019081106001600160401b038211176102d457604052565b6040519061030960c0836102d9565b565b6001600160401b0381116102d45760051b60200190565b9080601f8301121561020d5781356103398161030b565b9261034760405194856102d9565b81845260208085019260051b82010192831161020d57602001905b82821061036f5750505090565b8135815260209182019101610362565b90604060031983011261020d576004356001600160401b03811161020d578260238201121561020d578060040135906103b78261030b565b916103c560405193846102d9565b8083526024602084019160051b8301019185831161020d57602401905b82821061040e5750505091602435906001600160401b03821161020d5761040b91600401610322565b90565b6020809161041b84610212565b8152019101906103e2565b3461020d576104343661037f565b90610469337f00000000000000000000000000000000000000000000000000000000000000006001600160a01b031614610ed2565b6104768151835114610eea565b60005b815181101561000e578061048f60019285610f2a565b516104c1606561049d611202565b0162ffffff6104ac8588610f2a565b511662ffffff16600052602052604060002090565b5501610479565b6001600160401b0381116102d457601f01601f191660200190565b9291926104ef826104c8565b916104fd60405193846102d9565b82948184528183011161020d578281602093846000960137010152565b9080601f8301121561020d5781602061040b933591016104e3565b90604060031983011261020d5760043591602435906001600160401b03821161020d5761040b9160040161051a565b3461020d57602061029261057736610535565b60ff82608f1c169161058883610f3e565b61059183610f3e565b61059d60018414610f5e565b6112d5565b9181601f8401121561020d578235916001600160401b03831161020d576020808501948460051b01011161020d57565b3461020d57604036600319011261020d576004356001600160401b03811161020d576106029036906004016105a2565b6024356001600160401b03811161020d576106219036906004016105a2565b92907f0000000000000000000000000000000000000000000000000000000000000000610658336001600160a01b03831614610ed2565b8484148061070d575b61066a90610eea565b6000610674611144565b9360005b86811061068157005b61069461068f828985610f65565b610f75565b92846106a1838b89610f65565b35946106ae861515610e3c565b6001600160a01b0316806106f9575050906106f360008080806106d389600198610fa9565b986106e28d8b81811115610e54565b8a5af16106ed610e8a565b50610eba565b01610678565b946107089160019493966113ba565b6106f3565b50831515610661565b9181601f8401121561020d578235916001600160401b03831161020d576020838186019501011161020d57565b606036600319011261020d576004356024356001600160401b03811161020d57610771903690600401610716565b6044929192356001600160401b03811161020d57610793903690600401610716565b9290936107a13684836104e3565b6107bc60ff84608f1c1680926107b682610f3e565b856112d5565b906107c681610f3e565b6108955760008080836107de82953481341015610e54565b81811561088c575b3090f115610887576102049461087461084f7f660135dd757b3e955b99cf2b5f0cd6305c79e2b48a4b7f74ca222ea9521fc259946108226111c8565b5490888589887f000000000000000000000000000000000000000000000000000000000000000094611457565b928197919661085c6111c8565b6108668154610f7f565b905560405195869586610fd7565b0390a26040519081529081906020820190565b61144b565b506108fc6107e6565b63049f464b60e41b60005260046000fd5b3461020d57608036600319011261020d576064356024356044356004356108f76001600160a01b037f0000000000000000000000000000000000000000000000000000000000000000163314610ed2565b6109008161123c565b81156109185760408051928352920160208201522055005b90500155600080f35b3461020d57604036600319011261020d576004356001600160401b03811161020d578060040160e0600319833603011261020d576024356001600160401b03811161020d57610974903690600401610716565b606484019361098d6109868686611003565b9086611c84565b916109a561099e608484018761152c565b3691610c53565b936109cd6109c660c46109be61099e60a488018b61152c565b950188611003565b36916104e3565b916109e48651855181149081610b92575b50611561565b6109ee8651611579565b9760005b8751811015610b0f57602060008989610a6e610a3b86610a35610a30610a2a610a1c8f85906115ab565b516001600160f81b03191690565b60f81c90565b6115bc565b94610f2a565b51610a46878d610f2a565b5190604051948594859094939260ff6060936080840197845216602083015260408201520152565b838052039060015afa1561088757600051610a9181610a8c81611cc0565b6115ce565b8a6001600160a01b03821660005b848110610ace5750508291610ab9600194610ac893610f2a565b6001600160a01b039091169052565b016109f2565b610b068483610aff610af3610ae68660019899610f2a565b516001600160a01b031690565b6001600160a01b031690565b14156115f7565b01908c91610a9f565b5061000e9350610b33610b2e610b28610b8c938b611003565b9061169e565b611830565b92610b546060850151610b473686856104e3565b6020815191012014611035565b6080604085015194857ff67870b75d64e9a5f00100af39eb94911d9399b05f9df6d6db0cafc61128d5a4600080a201519236916104e3565b91611a02565b6003915014386109de565b6001600160a01b0381160361020d57565b3461020d57602036600319011261020d57610bca600435610b9d565b602060405160008152f35b3461020d57610be33661037f565b90610c18337f00000000000000000000000000000000000000000000000000000000000000006001600160a01b031614610ed2565b610c258151835114610eea565b60005b815181101561000e5780610c3e60019285610f2a565b51610c4c606661049d611202565b5501610c28565b929190610c5f8161030b565b93610c6d60405195866102d9565b602085838152019160051b810192831161020d57905b828210610c8f57505050565b8135815260209182019101610c83565b9080601f8301121561020d5781602061040b93359101610c53565b3461020d57608036600319011261020d576004356001600160401b03811161020d57610cea903690600401610c9f565b6024356001600160401b03811161020d57610d09903690600401610322565b906044356001600160401b03811161020d57610d29903690600401610c9f565b606435926001600160401b03841161020d57610d4c61000e943690600401610322565b9261104d565b3461020d57600036600319011261020d576020610292611144565b3461020d57600036600319011261020d576040517f00000000000000000000000000000000000000000000000000000000000000006001600160a01b03168152602090f35b3461020d57602036600319011261020d57600435610dfa337f00000000000000000000000000000000000000000000000000000000000000006001600160a01b031614610ed2565b610e02611202565b55005b3461020d576020610292610e1836610535565b60ff82608f1c1691610e2983610f3e565b610e3283610f3e565b61059d8315610f5e565b15610e4357565b63162908e360e11b60005260046000fd5b15610e5d575050565b63a458261b60e01b60005260045260245260446000fd5b634e487b7160e01b600052601160045260246000fd5b3d15610eb5573d90610e9b826104c8565b91610ea960405193846102d9565b82523d6000602084013e565b606090565b15610ec157565b6312171d8360e31b60005260046000fd5b15610ed957565b6330cd747160e01b60005260046000fd5b15610ef157565b631fec674760e31b60005260046000fd5b634e487b7160e01b600052603260045260246000fd5b805115610f255760200190565b610f02565b8051821015610f255760209160051b010190565b60021115610f4857565b634e487b7160e01b600052602160045260246000fd5b1561089557565b9190811015610f255760051b0190565b3561040b81610b9d565b906001820180921161020857565b608401908160841161020857565b906020820180921161020857565b9190820180921161020857565b908060209392818452848401376000828201840152601f01601f1916010190565b939161040b9593610ff5928652606060208701526060860191610fb6565b926040818503910152610fb6565b903590601e198136030182121561020d57018035906001600160401b03821161020d5760200191813603831361020d57565b1561103c57565b6398eac98f60e01b60005260046000fd5b9391611083337f00000000000000000000000000000000000000000000000000000000000000006001600160a01b031614610ed2565b60005b85518110156110ab57806110a561109f60019389610f2a565b5161123c565b01611086565b50909192845183518091149081611139575b508061112e575b6110cd90610eea565b60005b8551811015611126578060019160051b6020818901015190602081880101519060208082890101519187010151928160001461111d57604080519283529201602082015220555b016110d0565b90500155611117565b505050509050565b5081518151146110c4565b9050825114386110bd565b4761114d61115a565b5481039081116102085790565b60405160208101907f636f6e6365726f726f757465722e6f70657261746f722e73746f7261676500008252601e8152611194603e826102d9565b5190206000198101908111610208576040519060208201908152602082526111bd6040836102d9565b9051902060ff191690565b60405160208101907f636f6e6365726f726f757465722e726f757465722e73746f72616765000000008252601c8152611194603c826102d9565b60405160208101907f636f6e6365726f726f757465722e7072696365666565642e73746f72616765008252601f8152611194603f826102d9565b6112446111c8565b811490811561127f575b811561126e575b501561125d57565b630a02739760e41b60005260046000fd5b9050611278611202565b1438611255565b905061128961115a565b81149061124e565b9081604091031261020d576020604051916112ab836102b9565b80516112b681610b9d565b83520151602082015290565b8181029291811591840414171561020857565b62ffffff6112f56112e4611202565b549360208082518301019101611291565b9160c01c169061133761130784611c36565b91602061132d856065611318611202565b019062ffffff16600052602052604060002090565b54910151906112c2565b670de0b6b3a7640000810290808204670de0b6b3a764000014901517156102085761138c9261137f61137461138693670de0b6b3a7640000900490565b916066611318611202565b54906112c2565b90610fa9565b9161139681610f3e565b156113b6576113a89061040b926112c2565b670de0b6b3a7640000900490565b5090565b60405163a9059cbb60e01b60208281019182526001600160a01b03909416602483015260448083019590955293815290926000916113f96064826102d9565b519082855af11561144b576000513d61144257506001600160a01b0381163b155b6114215750565b635274afe760e01b60009081526001600160a01b0391909116600452602490fd5b6001141561141a565b6040513d6000823e3d90fd5b969594939250506114688387611e80565b1561151b57620f4240111561150a5760405190611484826102b9565b33825260208201944386526114998282611e80565b94519151604080516020810195865290810193909352606090811b6bffffffffffffffffffffffff19169083015262ffffff60c01b60c082901b16607483015260e01b62ffffff60e01b16909317600160f81b17607c808501829052845292611503609c826102d9565b5190209190565b636ceaf82160e01b60005260046000fd5b6301bc6ebd60e31b60005260046000fd5b903590601e198136030182121561020d57018035906001600160401b03821161020d57602001918160051b3603831361020d57565b1561156857565b6301227b8d60e11b60005260046000fd5b906115838261030b565b61159060405191826102d9565b82815280926115a1601f199161030b565b0190602036910137565b908151811015610f25570160200190565b60ff601b9116019060ff821161020857565b156115d65750565b63e74c68bb60e01b60009081526001600160a01b0391909116600452602490fd5b156115ff5750565b630e256b9960e21b60009081526001600160a01b0391909116600452602490fd5b9080601f8301121561020d5781356116378161030b565b9261164560405194856102d9565b81845260208085019260051b8201019183831161020d5760208201905b83821061167157505050505090565b81356001600160401b03811161020d576020916116938784809488010161051a565b815201910190611662565b9081019060a08183031261020d5780356001600160401b03811161020d57826116c8918301610c9f565b5060208101356001600160401b03811161020d57826116e8918301611620565b9060408101356001600160401b03811161020d5783611708918301611620565b5060608101356001600160401b03811161020d5783611728918301611620565b506080810135926001600160401b03841161020d576117519361174b9201611620565b50610f18565b5190565b6040519060c082018281106001600160401b038211176102d457604052606060a0836000815260006020820152600060408201526000838201528260808201520152565b604080519091906117aa83826102d9565b60208152918290601f190190369060200137565b906117c8826104c8565b6117d560405191826102d9565b82815280926115a1601f19916104c8565b906117f08261030b565b6117fd60405191826102d9565b828152809261180e601f199161030b565b019060005b82811061181f57505050565b806060602080938501015201611813565b611838611755565b5060009060208101519060408101519360608201519260808301519460a084015160e01c611865816117be565b91805b82811061195457505061187a90610f8d565b9560026020888701015160f01c97019461189388611579565b956000905b8961ffff83161061192c575050506118af876117e6565b9560005b61ffff8116898110156118fb5761ffff916118f3828a6118ec6001958e60206118da611799565b948860051b0101516020850152610f2a565b528b610f2a565b5001166118b3565b5050929650929690935061190d6102fa565b958652602086015260408501526060840152608083015260a082015290565b600161194b82602061ffff948701015160208660051b8d010152610f9b565b92011690611898565b8061196c610a1c611966600194610f8d565b8a6115ab565b831a61197882876115ab565b5301611868565b156119875750565b63398560f160e11b60005260045260246000fd5b156119a257565b631e4ec46b60e01b60005260046000fd5b90929192815260406020820152825180604083015260005b8181106119ec575060609293506000838284010152601f8019910116010190565b80602080928701015160608286010152016119cb565b91611ac190611acf611a20611ae69460208082518301019101611291565b91611a5986611a54611a50611a49836066611a396111c8565b0190600052602052604060002090565b5460ff1690565b1590565b61197f565b611a77611a6a876066611a396111c8565b805460ff19166001179055565b8251611a8d906001600160a01b0316151561199b565b8251611aa4906001600160a01b03163b151561199b565b604051635ca46be560e01b602082015293849187602484016119b3565b03601f1981018452836102d9565b80516020906001600160a01b031691015190611db0565b5015611b3e57611afd611af7611202565b54611c36565b611b15611b0d606561013161115a565b918254610fa9565b90557fb3f2643376154cdcc78e83cff26c3fcacf4a35a6e0107d90817d80973fa4d860600080a2565b630c3d362160e21b60005260045260246000fd5b62ffffff16600181148015611c2c575b8015611c22575b8015611c17575b8015611c0c575b8015611c01575b611bfb5762aa36a78114908115611bee575b8115611be1575b8115611bd4575b8115611bc7575b8115611bbb575b50611bb657600090565b600190565b61a86991501438611bac565b62066eee81149150611ba5565b62014a3481149150611b9e565b6201388281149150611b97565b62aa37dc81149150611b90565b50600190565b5061a86a8114611b7e565b5061a4b18114611b77565b506121058114611b70565b5060898114611b69565b50600a8114611b62565b60008115611c70575060008115611c5c57506e01ed09bead87c0378d8e64000000000490565b634e487b7160e01b81526012600452602490fd5b63c6af252960e01b81526004819052602490fd5b9190611c919136916104e3565b602081519101209060606040519160208301938452604083013760808152611cba60a0826102d9565b51902090565b6001600160a01b03168015611daa577f00000000000000000000000000000000000000000000000000000000000000006001600160a01b03168114908115611d77575b8115611d44575b8115611d14575090565b7f00000000000000000000000000000000000000000000000000000000000000006001600160a01b031614919050565b7f00000000000000000000000000000000000000000000000000000000000000006001600160a01b031681149150611d0a565b7f00000000000000000000000000000000000000000000000000000000000000006001600160a01b031681149150611d03565b50600090565b929190600091829182611dc46101006117be565b9660208451940192f13d6101008111611de6575b8084526000602085013e9190565b50610100611dd8565b15611df657565b6323d54c2f60e01b600052600760045260246000fd5b15611e1357565b6323d54c2f60e01b600052600060045260246000fd5b15611e3057565b6323d54c2f60e01b600052600160045260246000fd5b15611e4d57565b6323d54c2f60e01b600052600260045260246000fd5b15611e6a57565b6323d54c2f60e01b600052600360045260246000fd5b610309915060ff8091611f2b8280611ea3611e9b8560c01c90565b62ffffff1690565b93611f2361ffff611ebe611eb78460b01c90565b61ffff1690565b611f1282611ecf611eb78760a01c90565b92611f01611efc611ef6611ee9611eef611ee98c60981c90565b60ff1690565b9a608f1c90565b9c611b52565b611def565b168015159081611f3f575b50611e0c565b168015159081611f33575b50611e29565b161115611e46565b161115611e63565b90506064101538611f1d565b90506064101538611f0c56fea2646970667358221220f964a622a986a5bd800071c2bec0b63bcea5e8dd48e6743d6fde506722c98bde64736f6c634300081c0033",
  "linkReferences": {},
  "deployedLinkReferences": {}
}