{
  "_format": "hh-sol-artifact-1",
  "contractName": "ConceroRouter",
  "sourceName": "contracts/ConceroRouter/ConceroRouter.sol",
  "abi": [
    {
      "inputs": [
        {
          "internalType": "uint24",
          "name": "chainSelector",
          "type": "uint24"
        },
        {
          "internalType": "address",
          "name": "feedUpdater",
          "type": "address"
        },
        {
          "internalType": "address",
          "name": "conceroVerifier",
          "type": "address"
        },
        {
          "internalType": "uint64",
          "name": "conceroVerifierSubId",
          "type": "uint64"
        },
        {
          "internalType": "address[4]",
          "name": "clfSigners",
          "type": "address[4]"
        }
      ],
      "stateMutability": "nonpayable",
      "type": "constructor"
    },
    {
      "inputs": [
        {
          "internalType": "address",
          "name": "signer",
          "type": "address"
        }
      ],
      "name": "DuplicateSignatureDetected",
      "type": "error"
    },
    {
      "inputs": [],
      "name": "FinalityNotYetSupported",
      "type": "error"
    },
    {
      "inputs": [],
      "name": "IncorrectNumberOfSignatures",
      "type": "error"
    },
    {
      "inputs": [
        {
          "internalType": "uint256",
          "name": "provided",
          "type": "uint256"
        },
        {
          "internalType": "uint256",
          "name": "required",
          "type": "uint256"
        }
      ],
      "name": "InsufficientFee",
      "type": "error"
    },
    {
      "inputs": [],
      "name": "InvalidAmount",
      "type": "error"
    },
    {
      "inputs": [],
      "name": "InvalidClfReportClient",
      "type": "error"
    },
    {
      "inputs": [],
      "name": "InvalidClfReportSubscriptionId",
      "type": "error"
    },
    {
      "inputs": [
        {
          "internalType": "uint24",
          "name": "dstChainSelector",
          "type": "uint24"
        }
      ],
      "name": "InvalidDstChainSelector",
      "type": "error"
    },
    {
      "inputs": [],
      "name": "InvalidGasLimit",
      "type": "error"
    },
    {
      "inputs": [],
      "name": "InvalidMessageHashSum",
      "type": "error"
    },
    {
      "inputs": [],
      "name": "InvalidNamespace",
      "type": "error"
    },
    {
      "inputs": [],
      "name": "InvalidReceiver",
      "type": "error"
    },
    {
      "inputs": [],
      "name": "LengthMismatch",
      "type": "error"
    },
    {
      "inputs": [
        {
          "internalType": "bytes32",
          "name": "messageId",
          "type": "bytes32"
        }
      ],
      "name": "MessageAlreadyProcessed",
      "type": "error"
    },
    {
      "inputs": [
        {
          "internalType": "bytes32",
          "name": "messageId",
          "type": "bytes32"
        }
      ],
      "name": "MessageDeliveryFailed",
      "type": "error"
    },
    {
      "inputs": [],
      "name": "MessageTooLarge",
      "type": "error"
    },
    {
      "inputs": [
        {
          "internalType": "enum CommonErrors.RequiredVariableUnsetType",
          "name": "variableType",
          "type": "uint8"
        }
      ],
      "name": "RequiredVariableUnset",
      "type": "error"
    },
    {
      "inputs": [
        {
          "internalType": "address",
          "name": "token",
          "type": "address"
        }
      ],
      "name": "SafeERC20FailedOperation",
      "type": "error"
    },
    {
      "inputs": [],
      "name": "TransferFailed",
      "type": "error"
    },
    {
      "inputs": [],
      "name": "Unauthorized",
      "type": "error"
    },
    {
      "inputs": [],
      "name": "UnauthorizedOperator",
      "type": "error"
    },
    {
      "inputs": [
        {
          "internalType": "address",
          "name": "signer",
          "type": "address"
        }
      ],
      "name": "UnauthorizedSigner",
      "type": "error"
    },
    {
      "inputs": [
        {
          "internalType": "uint24",
          "name": "chainSelector",
          "type": "uint24"
        }
      ],
      "name": "UnsupportedChainSelector",
      "type": "error"
    },
    {
      "inputs": [],
      "name": "UnsupportedFeeTokenType",
      "type": "error"
    },
    {
      "anonymous": false,
      "inputs": [
        {
          "indexed": true,
          "internalType": "bytes32",
          "name": "id",
          "type": "bytes32"
        }
      ],
      "name": "ConceroMessageDelivered",
      "type": "event"
    },
    {
      "anonymous": false,
      "inputs": [
        {
          "indexed": true,
          "internalType": "bytes32",
          "name": "id",
          "type": "bytes32"
        }
      ],
      "name": "ConceroMessageReceived",
      "type": "event"
    },
    {
      "anonymous": false,
      "inputs": [
        {
          "indexed": true,
          "internalType": "bytes32",
          "name": "messageId",
          "type": "bytes32"
        },
        {
          "indexed": false,
          "internalType": "uint8",
          "name": "version",
          "type": "uint8"
        },
        {
          "indexed": false,
          "internalType": "bool",
          "name": "shouldFinaliseSrc",
          "type": "bool"
        },
        {
          "indexed": false,
          "internalType": "uint24",
          "name": "dstChainSelector",
          "type": "uint24"
        },
        {
          "indexed": false,
          "internalType": "bytes",
          "name": "dstChainData",
          "type": "bytes"
        },
        {
          "indexed": false,
          "internalType": "address",
          "name": "sender",
          "type": "address"
        },
        {
          "indexed": false,
          "internalType": "bytes",
          "name": "message",
          "type": "bytes"
        }
      ],
      "name": "ConceroMessageSent",
      "type": "event"
    },
    {
      "anonymous": false,
      "inputs": [
        {
          "indexed": true,
          "internalType": "address",
          "name": "operator",
          "type": "address"
        },
        {
          "indexed": false,
          "internalType": "uint256",
          "name": "amount",
          "type": "uint256"
        }
      ],
      "name": "OperatorFeeWithdrawn",
      "type": "event"
    },
    {
      "stateMutability": "payable",
      "type": "fallback"
    },
    {
      "inputs": [
        {
          "internalType": "uint24",
          "name": "dstChainSelector",
          "type": "uint24"
        },
        {
          "internalType": "bool",
          "name": "shouldFinaliseSrc",
          "type": "bool"
        },
        {
          "internalType": "address",
          "name": "feeToken",
          "type": "address"
        },
        {
          "components": [
            {
              "internalType": "address",
              "name": "receiver",
              "type": "address"
            },
            {
              "internalType": "uint256",
              "name": "gasLimit",
              "type": "uint256"
            }
          ],
          "internalType": "struct ConceroTypes.EvmDstChainData",
          "name": "dstChainData",
          "type": "tuple"
        },
        {
          "internalType": "bytes",
          "name": "message",
          "type": "bytes"
        }
      ],
      "name": "conceroSend",
      "outputs": [
        {
          "internalType": "bytes32",
          "name": "",
          "type": "bytes32"
        }
      ],
      "stateMutability": "payable",
      "type": "function"
    },
    {
      "inputs": [
        {
          "internalType": "address",
          "name": "operator",
          "type": "address"
        }
      ],
      "name": "getCohort",
      "outputs": [
        {
          "internalType": "uint8",
          "name": "",
          "type": "uint8"
        }
      ],
      "stateMutability": "pure",
      "type": "function"
    },
    {
      "inputs": [
        {
          "internalType": "uint24",
          "name": "dstChainSelector",
          "type": "uint24"
        },
        {
          "internalType": "bool",
          "name": "shouldFinaliseSrc",
          "type": "bool"
        },
        {
          "internalType": "address",
          "name": "feeToken",
          "type": "address"
        },
        {
          "components": [
            {
              "internalType": "address",
              "name": "receiver",
              "type": "address"
            },
            {
              "internalType": "uint256",
              "name": "gasLimit",
              "type": "uint256"
            }
          ],
          "internalType": "struct ConceroTypes.EvmDstChainData",
          "name": "dstChainData",
          "type": "tuple"
        }
      ],
      "name": "getMessageFee",
      "outputs": [
        {
          "internalType": "uint256",
          "name": "",
          "type": "uint256"
        }
      ],
      "stateMutability": "view",
      "type": "function"
    },
    {
      "inputs": [],
      "name": "getMessageVersion",
      "outputs": [
        {
          "internalType": "uint8",
          "name": "",
          "type": "uint8"
        }
      ],
      "stateMutability": "pure",
      "type": "function"
    },
    {
      "inputs": [
        {
          "internalType": "bytes32",
          "name": "namespace",
          "type": "bytes32"
        },
        {
          "internalType": "uint256",
          "name": "offset",
          "type": "uint256"
        },
        {
          "internalType": "bytes32",
          "name": "mappingKey",
          "type": "bytes32"
        }
      ],
      "name": "getStorage",
      "outputs": [
        {
          "internalType": "uint256",
          "name": "",
          "type": "uint256"
        }
      ],
      "stateMutability": "view",
      "type": "function"
    },
    {
      "inputs": [],
      "name": "getWithdrawableConceroFee",
      "outputs": [
        {
          "internalType": "uint256",
          "name": "",
          "type": "uint256"
        }
      ],
      "stateMutability": "view",
      "type": "function"
    },
    {
      "inputs": [],
      "name": "i_owner",
      "outputs": [
        {
          "internalType": "address",
          "name": "",
          "type": "address"
        }
      ],
      "stateMutability": "view",
      "type": "function"
    },
    {
      "inputs": [
        {
          "internalType": "uint24",
          "name": "chainSelector",
          "type": "uint24"
        }
      ],
      "name": "isChainSupported",
      "outputs": [
        {
          "internalType": "bool",
          "name": "",
          "type": "bool"
        }
      ],
      "stateMutability": "view",
      "type": "function"
    },
    {
      "inputs": [
        {
          "internalType": "uint24[]",
          "name": "dstChainSelectors",
          "type": "uint24[]"
        },
        {
          "internalType": "uint256[]",
          "name": "gasPrices",
          "type": "uint256[]"
        }
      ],
      "name": "setLastGasPrices",
      "outputs": [],
      "stateMutability": "nonpayable",
      "type": "function"
    },
    {
      "inputs": [
        {
          "internalType": "uint24[]",
          "name": "dstChainSelectors",
          "type": "uint24[]"
        },
        {
          "internalType": "uint256[]",
          "name": "rates",
          "type": "uint256[]"
        }
      ],
      "name": "setNativeNativeRates",
      "outputs": [],
      "stateMutability": "nonpayable",
      "type": "function"
    },
    {
      "inputs": [
        {
          "internalType": "uint256",
          "name": "amount",
          "type": "uint256"
        }
      ],
      "name": "setNativeUsdRate",
      "outputs": [],
      "stateMutability": "nonpayable",
      "type": "function"
    },
    {
      "inputs": [
        {
          "internalType": "bytes32",
          "name": "namespace",
          "type": "bytes32"
        },
        {
          "internalType": "uint256",
          "name": "offset",
          "type": "uint256"
        },
        {
          "internalType": "bytes32",
          "name": "mappingKey",
          "type": "bytes32"
        },
        {
          "internalType": "uint256",
          "name": "value",
          "type": "uint256"
        }
      ],
      "name": "setStorage",
      "outputs": [],
      "stateMutability": "nonpayable",
      "type": "function"
    },
    {
      "inputs": [
        {
          "internalType": "bytes32[]",
          "name": "namespaces",
          "type": "bytes32[]"
        },
        {
          "internalType": "uint256[]",
          "name": "offsets",
          "type": "uint256[]"
        },
        {
          "internalType": "bytes32[]",
          "name": "mappingKeys",
          "type": "bytes32[]"
        },
        {
          "internalType": "uint256[]",
          "name": "values",
          "type": "uint256[]"
        }
      ],
      "name": "setStorageBulk",
      "outputs": [],
      "stateMutability": "nonpayable",
      "type": "function"
    },
    {
      "inputs": [
        {
          "internalType": "uint24[]",
          "name": "chainSelectors",
          "type": "uint24[]"
        },
        {
          "internalType": "bool[]",
          "name": "isSupported",
          "type": "bool[]"
        }
      ],
      "name": "setSupportedChains",
      "outputs": [],
      "stateMutability": "nonpayable",
      "type": "function"
    },
    {
      "inputs": [
        {
          "components": [
            {
              "internalType": "bytes32[3]",
              "name": "context",
              "type": "bytes32[3]"
            },
            {
              "internalType": "bytes",
              "name": "report",
              "type": "bytes"
            },
            {
              "internalType": "bytes32[]",
              "name": "rs",
              "type": "bytes32[]"
            },
            {
              "internalType": "bytes32[]",
              "name": "ss",
              "type": "bytes32[]"
            },
            {
              "internalType": "bytes32",
              "name": "rawVs",
              "type": "bytes32"
            }
          ],
          "internalType": "struct Types.ClfDonReportSubmission",
          "name": "reportSubmission",
          "type": "tuple"
        },
        {
          "internalType": "bytes[]",
          "name": "messageBodies",
          "type": "bytes[]"
        },
        {
          "internalType": "uint256[]",
          "name": "indexes",
          "type": "uint256[]"
        }
      ],
      "name": "submitMessageReport",
      "outputs": [],
      "stateMutability": "nonpayable",
      "type": "function"
    },
    {
      "inputs": [
        {
          "internalType": "address[]",
          "name": "tokens",
          "type": "address[]"
        },
        {
          "internalType": "uint256[]",
          "name": "amounts",
          "type": "uint256[]"
        }
      ],
      "name": "withdrawConceroFees",
      "outputs": [],
      "stateMutability": "nonpayable",
      "type": "function"
    },
    {
      "inputs": [
        {
          "internalType": "uint256",
          "name": "amount",
          "type": "uint256"
        }
      ],
      "name": "withdrawOperatorFee",
      "outputs": [
        {
          "internalType": "bool",
          "name": "success",
          "type": "bool"
        }
      ],
      "stateMutability": "nonpayable",
      "type": "function"
    },
    {
      "stateMutability": "payable",
      "type": "receive"
    }
  ],
  "bytecode": "0x6101a060405234801561001157600080fd5b50604051613278380380613278833981016040819052610030916100c0565b3360805262ffffff9490941660a05283516001600160a01b0390811660c0526020850151811660e0526040850151811661010052606090940151841661012052908316610140526001600160401b03166101605216610180526101a3565b80516001600160a01b03811681146100a557600080fd5b919050565b634e487b7160e01b600052604160045260246000fd5b600080600080600061010086880312156100d957600080fd5b855162ffffff811681146100ec57600080fd5b94506100fa6020870161008e565b93506101086040870161008e565b60608701519093506001600160401b038116811461012557600080fd5b9150609f8601871361013657600080fd5b604051608081016001600160401b0381118282101715610158576101586100aa565b6040528061010088018981111561016e57600080fd5b608089015b81811015610192576101848161008e565b835260209283019201610173565b505050809150509295509295909350565b60805160a05160c05160e05161010051610120516101405161016051610180516130116102676000396000818161065a01528181610b400152610eef015260006113a30152600061134d01526000611cae01526000611c7201526000611c3601526000611bfb01526000818161145d01526119810152600081816102d60152818161068c015281816107fa01528181610932015281816109d701528181610aca01528181610b7201528181610cdb01528181610d660152610f2101526130116000f3fe6080604052600436106100f55760003560e01c80639a5d5ca91161008f578063cea34c9a11610061578063cea34c9a1461028f578063d1053131146102af578063dba6335f146102c4578063e45700ff14610310578063e716afde1461033057005b80639a5d5ca91461020f578063a89780591461022f578063b8b164851461024f578063b91443e71461026f57005b806348fd88ab116100c857806348fd88ab1461019a57806350c454ab146101ba5780635a8733b3146101dc5780636666dd5c146101fc57005b80631feb291f146100f757806327e5f4421461012c5780632ac553391461014c5780633ae569511461016c575b005b34801561010357600080fd5b50610117610112366004612075565b610350565b60405190151581526020015b60405180910390f35b34801561013857600080fd5b5061011761014736600461209f565b6104ab565b34801561015857600080fd5b506100f5610167366004612107565b6104d6565b34801561017857600080fd5b5061018c6101873660046121aa565b61062f565b604051908152602001610123565b3480156101a657600080fd5b506100f56101b536600461233b565b61064f565b3480156101c657600080fd5b5060015b60405160ff9091168152602001610123565b3480156101e857600080fd5b506100f56101f7366004612404565b6107ef565b61018c61020a3660046124d8565b610a0f565b34801561021b57600080fd5b506100f561022a366004612592565b610abf565b34801561023b57600080fd5b506101ca61024a3660046125c4565b610b22565b34801561025b57600080fd5b506100f561026a36600461233b565b610b35565b34801561027b57600080fd5b506100f561028a3660046125e1565b610cd0565b34801561029b57600080fd5b506100f56102aa366004612404565b610d5b565b3480156102bb57600080fd5b5061018c610e5f565b3480156102d057600080fd5b506102f87f000000000000000000000000000000000000000000000000000000000000000081565b6040516001600160a01b039091168152602001610123565b34801561031c57600080fd5b5061018c61032b36600461269d565b610e79565b34801561033c57600080fd5b506100f561034b366004612075565b610ee4565b60008061035b610f6c565b336000908152606591909101602052604090205490508261038f5760405163162908e360e11b815260040160405180910390fd5b8281808211156103c05760405163a458261b60e01b8152600481019290925260248201526044015b60405180910390fd5b506103cd90508382612715565b6103d5610f6c565b3360009081526065919091016020526040902055826103f2610f6c565b8054600090610402908490612715565b909155505060405133908490600081818185875af1925050503d8060008114610447576040519150601f19603f3d011682016040523d82523d6000602084013e61044c565b606091505b50508092505081610470576040516312171d8360e31b815260040160405180910390fd5b60405183815233907fc43e057480321c0f9aec5029e2f42bb82383abd09bc79fd2fbcb50c5071735729060200160405180910390a250919050565b60006104b5610ff9565b62ffffff909216600090815260699290920160205250604090205460ff1690565b8281146104f9576040516001621398b960e31b0319815260040160405180910390fd5b61050285611036565b60006105196105146060880188612728565b6112f1565b9050600081606001516000815181106105345761053461276e565b602002602001015180602001905181019061054f9190612804565b905061055a8161134b565b60005b83811015610625576000806105a685602001518888868181106105825761058261276e565b90506020020135815181106105995761059961276e565b60200260200101516113fa565b91509150816020015160ff1660010361061b5761061b818a8a868181106105cf576105cf61276e565b90506020028101906105e19190612728565b8080601f01602080910402602001604051908101604052809392919081815260200183838082843760009201919091525061143692505050565b505060010161055d565b5050505050505050565b600061063a8461154d565b6106458484846116fb565b90505b9392505050565b336001600160a01b037f00000000000000000000000000000000000000000000000000000000000000001614806106ae5750336001600160a01b037f000000000000000000000000000000000000000000000000000000000000000016145b6106ca576040516282b42960e81b815260040160405180910390fd5b80518251146106ef576040516001621398b960e31b0319815260040160405180910390fd5b60005b82518110156107ea57610703610ff9565b606901600084838151811061071a5761071a61276e565b602002602001015162ffffff1662ffffff16815260200190815260200160002060009054906101000a900460ff1683828151811061075a5761075a61276e565b602002602001015190610788576040516310ee64f960e31b815262ffffff90911660048201526024016103b7565b5081818151811061079b5761079b61276e565b60200260200101516107ab61172b565b60650160008584815181106107c2576107c261276e565b60209081029190910181015162ffffff168252810191909152604001600020556001016106f2565b505050565b336001600160a01b037f00000000000000000000000000000000000000000000000000000000000000001614610837576040516282b42960e81b815260040160405180910390fd5b828114801561084557508215155b610865576040516001621398b960e31b0319815260040160405180910390fd5b600080610870610e5f565b905060005b85811015610a065760008787838181106108915761089161276e565b90506020020160208101906108a691906125c4565b905060008686848181106108bc576108bc61276e565b905060200201359050600081116108e65760405163162908e360e11b815260040160405180910390fd5b6001600160a01b0382166109c8576108fe81866128dc565b945084848082111561092c5760405163a458261b60e01b8152600481019290925260248201526044016103b7565b505060007f00000000000000000000000000000000000000000000000000000000000000006001600160a01b03168260405160006040518083038185875af1925050503d806000811461099b576040519150601f19603f3d011682016040523d82523d6000602084013e6109a0565b606091505b50509050806109c2576040516312171d8360e31b815260040160405180910390fd5b506109fc565b6109fc6001600160a01b0383167f000000000000000000000000000000000000000000000000000000000000000083611768565b5050600101610875565b50505050505050565b6000610a1f8787878787876117ba565b610a2a8786866118a1565b6000610a3588611938565b9050807f1b2c7119df1fb41a1d1e38a61a000a0ef02c906e96988cf02cf497c05cd8a0e16001898b89604051602001610a89919081516001600160a01b031681526020918201519181019190915260400190565b60408051601f1981840301815290829052610aac9493929133908c908c9061293f565b60405180910390a2979650505050505050565b336001600160a01b037f00000000000000000000000000000000000000000000000000000000000000001614610b07576040516282b42960e81b815260040160405180910390fd5b610b108461154d565b610b1c848484846119e0565b50505050565b6000610b2f6001836129ca565b92915050565b336001600160a01b037f0000000000000000000000000000000000000000000000000000000000000000161480610b945750336001600160a01b037f000000000000000000000000000000000000000000000000000000000000000016145b610bb0576040516282b42960e81b815260040160405180910390fd5b8051825114610bd5576040516001621398b960e31b0319815260040160405180910390fd5b60005b82518110156107ea57610be9610ff9565b6069016000848381518110610c0057610c0061276e565b602002602001015162ffffff1662ffffff16815260200190815260200160002060009054906101000a900460ff16838281518110610c4057610c4061276e565b602002602001015190610c6e576040516310ee64f960e31b815262ffffff90911660048201526024016103b7565b50818181518110610c8157610c8161276e565b6020026020010151610c9161172b565b6066016000858481518110610ca857610ca861276e565b60209081029190910181015162ffffff16825281019190915260400160002055600101610bd8565b336001600160a01b037f00000000000000000000000000000000000000000000000000000000000000001614610d18576040516282b42960e81b815260040160405180910390fd5b60005b8451811015610d4e57610d46858281518110610d3957610d3961276e565b602002602001015161154d565b600101610d1b565b50610b1c84848484611a08565b336001600160a01b037f00000000000000000000000000000000000000000000000000000000000000001614610da3576040516282b42960e81b815260040160405180910390fd5b828114610dc6576040516001621398b960e31b0319815260040160405180910390fd5b60005b83811015610e5857828282818110610de357610de361276e565b9050602002016020810190610df891906129f9565b610e00610ff9565b6069016000878785818110610e1757610e1761276e565b9050602002016020810190610e2c919061209f565b62ffffff1681526020810191909152604001600020805460ff1916911515919091179055600101610dc9565b5050505050565b6000610e69610f6c565b54610e749047612715565b905090565b60006001600160a01b03831615610ea35760405163049f464b60e41b815260040160405180910390fd5b8315610ec257604051630f63f17560e11b815260040160405180910390fd5b610edb8584610ed636869003860186612a14565b611ab4565b95945050505050565b336001600160a01b037f0000000000000000000000000000000000000000000000000000000000000000161480610f435750336001600160a01b037f000000000000000000000000000000000000000000000000000000000000000016145b610f5f576040516282b42960e81b815260040160405180910390fd5b80610f6861172b565b5550565b6040517f636f6e6365726f726f757465722e6f70657261746f722e73746f7261676500006020820152600090819060ff1990600190603e015b6040516020818303038152906040528051906020012060001c610fc89190612715565b604051602001610fda91815260200190565b60408051601f1981840301815291905280516020909101201692915050565b6040517f636f6e6365726f726f757465722e726f757465722e73746f72616765000000006020820152600090819060ff1990600190603c01610fa5565b600061104e826110496060820182612728565b611b8d565b9050600061105f6080840184612a30565b8080602002602001604051908101604052809392919081815260200183836020028082843760009201829052509394506110a09250505060a0850185612a30565b8080602002602001604051908101604052809392919081815260200183836020028082843760009201919091525050825185519394506003931491505080156110e95750808351145b611106576040516301227b8d60e11b815260040160405180910390fd5b600083516001600160401b03811115611121576111216121d6565b60405190808252806020026020018201604052801561114a578160200160208202803683370190505b50905060005b8451811015610a065760006001878960c0013584602081106111745761117461276e565b61118191901a601b612a79565b8885815181106111935761119361276e565b60200260200101518886815181106111ad576111ad61276e565b6020026020010151604051600081526020016040526040516111eb949392919093845260ff9290921660208401526040830152606082015260800190565b6020604051602081039080840390855afa15801561120d573d6000803e3d6000fd5b50505060206040510351905061122281611be1565b819061124d5760405163e74c68bb60e01b81526001600160a01b0390911660048201526024016103b7565b5060005b828110156112bc57816001600160a01b03168482815181106112755761127561276e565b60200260200101516001600160a01b0316141582906112b357604051630e256b9960e21b81526001600160a01b0390911660048201526024016103b7565b50600101611251565b50808383815181106112d0576112d061276e565b6001600160a01b039092166020928302919091019091015250600101611150565b6113236040518060a0016040528060608152602001606081526020016060815260200160608152602001606081525090565b61132f82840184612b7e565b6080860152606085015260408401526020830152815292915050565b7f00000000000000000000000000000000000000000000000000000000000000006001600160a01b031681606001516001600160a01b0316146113a157604051632b6971c560e21b815260040160405180910390fd5b7f00000000000000000000000000000000000000000000000000000000000000006001600160401b031681608001516001600160401b0316146113f75760405163091e4cf160e31b815260040160405180910390fd5b50565b604080516060810182526000808252602082018190529181019190915260608280602001905181019061142d9190612cb2565b91509150915091565b60008280602001905181019061144c9190612e0a565b905061145b8160c00151611ce7565b7f000000000000000000000000000000000000000000000000000000000000000062ffffff16816080015162ffffff161461149557505050565b81805190602001208160200151146114c0576040516398eac98f60e01b815260040160405180910390fd5b6114c8610ff9565b81516000908152606691909101602052604090205481519060ff16156115045760405163398560f160e11b81526004016103b791815260200190565b5080516040517ff67870b75d64e9a5f00100af39eb94911d9399b05f9df6d6db0cafc61128d5a490600090a26107ea81600001518260a001518360600151846040015186611d6b565b6040517f636f6e6365726f726f757465722e726f757465722e73746f7261676500000000602082015260ff1990600190603c016040516020818303038152906040528051906020012060001c6115a39190612715565b6040516020016115b591815260200190565b604051602081830303815290604052805190602001201681148061165657506040517f636f6e6365726f726f757465722e6f70657261746f722e73746f726167650000602082015260ff1990600190603e016040516020818303038152906040528051906020012060001c61162a9190612715565b60405160200161163c91815260200190565b604051602081830303815290604052805190602001201681145b806116de57506040517f636f6e6365726f726f757465722e7072696365666565642e73746f7261676500602082015260ff1990600190603f016040516020818303038152906040528051906020012060001c6116b29190612715565b6040516020016116c491815260200190565b604051602081830303815290604052805190602001201681145b6113f757604051630a02739760e41b815260040160405180910390fd5b600081801561171c5760408051848152868601602082015220549150611723565b8484015491505b509392505050565b6040517f636f6e6365726f726f757465722e7072696365666565642e73746f72616765006020820152600090819060ff1990600190603f01610fa5565b604080516001600160a01b038416602482015260448082018490528251808303909101815260649091019091526020810180516001600160e01b031663a9059cbb60e01b1790526107ea908490611ee9565b6001600160a01b038416156117e25760405163049f464b60e41b815260040160405180910390fd5b82516001600160a01b031661180a57604051631e4ec46b60e01b815260040160405180910390fd5b600083602001511161182f576040516304c5ed9760e51b815260040160405180910390fd5b620f4240811061185257604051636ceaf82160e01b815260040160405180910390fd5b841561187157604051630f63f17560e11b815260040160405180910390fd5b61187a866104ab565b8690610a0657604051630775dd4160e21b815262ffffff90911660048201526024016103b7565b60006118ae848484611ab4565b90506001600160a01b03831661191f573481808210156118ea5760405163a458261b60e01b8152600481019290925260248201526044016103b7565b5050604051309082156108fc029083906000818181858888f19350505050158015611919573d6000803e3d6000fd5b50610b1c565b60405163049f464b60e41b815260040160405180910390fd5b6000611942610ff9565b805460009061195090612eed565b9182905550604080516020810192909252439082015233606090811b6bffffffffffffffffffffffff1916908201527f000000000000000000000000000000000000000000000000000000000000000060e890811b6001600160e81b031990811660748401529084901b166077820152607a01604051602081830303815290604052805190602001209050919050565b8180156119ff5760408051848152868601602082015220829055610e58565b50919092015550565b82518451148015611a1a575081518351145b8015611a27575080518251145b611a47576040516001621398b960e31b0319815260040160405180910390fd5b60005b8451811015610e5857602081026020018501516020820260200185015160208302602001850151602084026020018501518160008114611a9c5760408051848152868601602082015220829055611aa3565b8484018290555b505060019093019250611a4a915050565b600080611abf61172b565b5490506000611acf606483611f5a565b90506000611adb61172b565b62ffffff881660009081526065919091016020908152604082205490870151909250611b079083612f06565b90506000611b1489611fc3565b90506000670de0b6b3a7640000611b2b8385612f06565b611b359190612f1d565b90506000611b4382876128dc565b90506001600160a01b038a16611b6157965061064895505050505050565b670de0b6b3a7640000611b748883612f06565b611b7e9190612f1d565b9b9a5050505050505050505050565b6000808383604051611ba0929190612f31565b6040518091039020905060008186604051602001611bbf929190612f41565b60408051808303601f1901815291905280516020909101209695505050505050565b60006001600160a01b038216611bf957506000919050565b7f00000000000000000000000000000000000000000000000000000000000000006001600160a01b0316826001600160a01b03161480611c6a57507f00000000000000000000000000000000000000000000000000000000000000006001600160a01b0316826001600160a01b0316145b80611ca657507f00000000000000000000000000000000000000000000000000000000000000006001600160a01b0316826001600160a01b0316145b80610b2f57507f00000000000000000000000000000000000000000000000000000000000000006001600160a01b0316826001600160a01b03161492915050565b6000805b8251811015611d48576000838281518110611d0857611d0861276e565b6020026020010151806020019051810190611d239190612f55565b9050336001600160a01b03821603611d3f576001925050611d48565b50600101611ceb565b5080611d67576040516326b9cdff60e11b815260040160405180910390fd5b5050565b6001611d75610ff9565b600087815260669190910160205260409020805460ff191691151591909117905583516001600160a01b0316611dbe57604051631e4ec46b60e01b815260040160405180910390fd5b83513b611dde57604051631e4ec46b60e01b815260040160405180910390fd5b600063424ad82c60e01b86858585604051602401611dff9493929190612f72565b604051602081830303815290604052906001600160e01b0319166020820180516001600160e01b03838183161783525050505090506000611e4e86600001518760200151600061010086611feb565b50905080611e7257604051630c3d362160e21b8152600481018890526024016103b7565b611e856064611e7f61172b565b54611f5a565b611e8d610f6c565b336000908152606591909101602052604081208054909190611eb09084906128dc565b909155505060405187907fb3f2643376154cdcc78e83cff26c3fcacf4a35a6e0107d90817d80973fa4d86090600090a250505050505050565b600080602060008451602086016000885af180611f0c576040513d6000823e3d81fd5b50506000513d91508115611f24578060011415611f31565b6001600160a01b0384163b155b15610b1c57604051635274afe760e01b81526001600160a01b03851660048201526024016103b7565b60008082611f7c5760405163c6af252960e01b81526004016103b79190612fb3565b506000612710611f9861ffff8616670de0b6b3a7640000612f06565b611fa29190612f1d565b9050600083611fb983670de0b6b3a7640000612f06565b610edb9190612f1d565b6000611fcd61172b565b62ffffff909216600090815260669290920160205250604090205490565b6000606060008060008661ffff166001600160401b03811115612010576120106121d6565b6040519080825280601f01601f19166020018201604052801561203a576020820181803683370190505b5090506000808751602089018b8e8ef191503d92508683111561205b578692505b828152826000602083013e90999098509650505050505050565b60006020828403121561208757600080fd5b5035919050565b62ffffff811681146113f757600080fd5b6000602082840312156120b157600080fd5b81356106488161208e565b60008083601f8401126120ce57600080fd5b5081356001600160401b038111156120e557600080fd5b6020830191508360208260051b850101111561210057600080fd5b9250929050565b60008060008060006060868803121561211f57600080fd5b85356001600160401b0381111561213557600080fd5b860160e0818903121561214757600080fd5b945060208601356001600160401b0381111561216257600080fd5b61216e888289016120bc565b90955093505060408601356001600160401b0381111561218d57600080fd5b612199888289016120bc565b969995985093965092949392505050565b6000806000606084860312156121bf57600080fd5b505081359360208301359350604090920135919050565b634e487b7160e01b600052604160045260246000fd5b604080519081016001600160401b038111828210171561220e5761220e6121d6565b60405290565b60405161016081016001600160401b038111828210171561220e5761220e6121d6565b604051606081016001600160401b038111828210171561220e5761220e6121d6565b60405160e081016001600160401b038111828210171561220e5761220e6121d6565b604051601f8201601f191681016001600160401b03811182821017156122a3576122a36121d6565b604052919050565b60006001600160401b038211156122c4576122c46121d6565b5060051b60200190565b600082601f8301126122df57600080fd5b81356122f26122ed826122ab565b61227b565b8082825260208201915060208360051b86010192508583111561231457600080fd5b602085015b83811015612331578035835260209283019201612319565b5095945050505050565b6000806040838503121561234e57600080fd5b82356001600160401b0381111561236457600080fd5b8301601f8101851361237557600080fd5b80356123836122ed826122ab565b8082825260208201915060208360051b8501019250878311156123a557600080fd5b6020840193505b828410156123d05783356123bf8161208e565b8252602093840193909101906123ac565b945050505060208301356001600160401b038111156123ee57600080fd5b6123fa858286016122ce565b9150509250929050565b6000806000806040858703121561241a57600080fd5b84356001600160401b0381111561243057600080fd5b61243c878288016120bc565b90955093505060208501356001600160401b0381111561245b57600080fd5b612467878288016120bc565b95989497509550505050565b8035801515811461248357600080fd5b919050565b6001600160a01b03811681146113f757600080fd5b6000604082840312156124af57600080fd5b6124b76121ec565b905081356124c481612488565b815260209182013591810191909152919050565b60008060008060008060c087890312156124f157600080fd5b86356124fc8161208e565b955061250a60208801612473565b9450604087013561251a81612488565b9350612529886060890161249d565b925060a08701356001600160401b0381111561254457600080fd5b8701601f8101891361255557600080fd5b80356001600160401b0381111561256b57600080fd5b89602082840101111561257d57600080fd5b60208201935080925050509295509295509295565b600080600080608085870312156125a857600080fd5b5050823594602084013594506040840135936060013592509050565b6000602082840312156125d657600080fd5b813561064881612488565b600080600080608085870312156125f757600080fd5b84356001600160401b0381111561260d57600080fd5b612619878288016122ce565b94505060208501356001600160401b0381111561263557600080fd5b612641878288016122ce565b93505060408501356001600160401b0381111561265d57600080fd5b612669878288016122ce565b92505060608501356001600160401b0381111561268557600080fd5b612691878288016122ce565b91505092959194509250565b60008060008084860360a08112156126b457600080fd5b85356126bf8161208e565b94506126cd60208701612473565b935060408601356126dd81612488565b92506040605f19820112156126f157600080fd5b509295919450926060019150565b634e487b7160e01b600052601160045260246000fd5b81810381811115610b2f57610b2f6126ff565b6000808335601e1984360301811261273f57600080fd5b8301803591506001600160401b0382111561275957600080fd5b60200191503681900382131561210057600080fd5b634e487b7160e01b600052603260045260246000fd5b805161248381612488565b80516bffffffffffffffffffffffff8116811461248357600080fd5b80516001600160401b038116811461248357600080fd5b805163ffffffff8116811461248357600080fd5b805168ffffffffffffffffff8116811461248357600080fd5b805164ffffffffff8116811461248357600080fd5b600061016082840312801561281857600080fd5b50612821612214565b8251815261283160208401612784565b60208201526128426040840161278f565b604082015261285360608401612784565b6060820152612864608084016127ab565b608082015261287560a084016127c2565b60a082015261288660c084016127d6565b60c082015261289760e084016127d6565b60e08201526128a961010084016127ef565b6101008201526128bc61012084016127ef565b6101208201526128cf61014084016127c2565b6101408201529392505050565b80820180821115610b2f57610b2f6126ff565b60005b8381101561290a5781810151838201526020016128f2565b50506000910152565b6000815180845261292b8160208601602086016128ef565b601f01601f19169290920160200192915050565b60ff88168152861515602082015262ffffff8616604082015260c06060820152600061296e60c0830187612913565b6001600160a01b038616608084015282810360a0840152838152838560208301376000602085830101526020601f19601f86011682010191505098975050505050505050565b634e487b7160e01b600052601260045260246000fd5b60006001600160a01b038316806129e3576129e36129b4565b6001600160a01b03929092169190910692915050565b600060208284031215612a0b57600080fd5b61064882612473565b600060408284031215612a2657600080fd5b610648838361249d565b6000808335601e19843603018112612a4757600080fd5b8301803591506001600160401b03821115612a6157600080fd5b6020019150600581901b360382131561210057600080fd5b60ff8181168382160190811115610b2f57610b2f6126ff565b60006001600160401b03821115612aab57612aab6121d6565b50601f01601f191660200190565b600082601f830112612aca57600080fd5b8135612ad86122ed826122ab565b8082825260208201915060208360051b860101925085831115612afa57600080fd5b602085015b838110156123315780356001600160401b03811115612b1d57600080fd5b8601603f81018813612b2e57600080fd5b6020810135612b3f6122ed82612a92565b8181526040838301018a1015612b5457600080fd5b81604084016020830137600060208383010152808652505050602083019250602081019050612aff565b600080600080600060a08688031215612b9657600080fd5b85356001600160401b03811115612bac57600080fd5b612bb8888289016122ce565b95505060208601356001600160401b03811115612bd457600080fd5b612be088828901612ab9565b94505060408601356001600160401b03811115612bfc57600080fd5b612c0888828901612ab9565b93505060608601356001600160401b03811115612c2457600080fd5b612c3088828901612ab9565b92505060808601356001600160401b03811115612c4c57600080fd5b612c5888828901612ab9565b9150509295509295909350565b600082601f830112612c7657600080fd5b8151612c846122ed82612a92565b818152846020838601011115612c9957600080fd5b612caa8260208301602087016128ef565b949350505050565b6000808284036080811215612cc657600080fd5b6060811215612cd457600080fd5b50612cdd612237565b835160038110612cec57600080fd5b8152602084015160ff81168114612d0257600080fd5b60208201526040840151612d1581612488565b604082015260608401519092506001600160401b03811115612d3657600080fd5b6123fa85828601612c65565b80516124838161208e565b600060408284031215612d5f57600080fd5b612d676121ec565b90508151612d7481612488565b808252506020820151602082015292915050565b600082601f830112612d9957600080fd5b8151612da76122ed826122ab565b8082825260208201915060208360051b860101925085831115612dc957600080fd5b602085015b838110156123315780516001600160401b03811115612dec57600080fd5b612dfb886020838a0101612c65565b84525060209283019201612dce565b600060208284031215612e1c57600080fd5b81516001600160401b03811115612e3257600080fd5b82016101008185031215612e4557600080fd5b612e4d612259565b815181526020808301519082015260408201516001600160401b03811115612e7457600080fd5b612e8086828501612c65565b604083015250612e9260608301612d42565b6060820152612ea360808301612d42565b6080820152612eb58560a08401612d4d565b60a082015260e08201516001600160401b03811115612ed357600080fd5b612edf86828501612d88565b60c083015250949350505050565b600060018201612eff57612eff6126ff565b5060010190565b8082028115828204841417610b2f57610b2f6126ff565b600082612f2c57612f2c6129b4565b500490565b8183823760009101908152919050565b828152606082602083013760800192915050565b600060208284031215612f6757600080fd5b815161064881612488565b84815262ffffff84166020820152608060408201526000612f966080830185612913565b8281036060840152612fa88185612913565b979650505050505050565b6020810160028310612fd557634e487b7160e01b600052602160045260246000fd5b9190529056fea2646970667358221220156e34de8f356dd2ad17543e1756fbc7aa6c4e81d27980e2c48cf36981eb65e364736f6c634300081c0033",
  "linkReferences": {},
  "deployedLinkReferences": {}
}